{
  "_format": "hh-sol-artifact-1",
  "contractName": "ProxyControllerSimple",
  "sourceName": "contracts/contracts/proxy/ProxyControllerSimple.sol",
  "abi": [
    {
      "inputs": [
        {
          "internalType": "address",
          "name": "_proxy",
          "type": "address"
        }
      ],
      "stateMutability": "nonpayable",
      "type": "constructor"
    },
    {
      "anonymous": false,
      "inputs": [
        {
          "indexed": false,
          "internalType": "address",
          "name": "impl",
          "type": "address"
        }
      ],
      "name": "ImplAddressSet",
      "type": "event"
    },
    {
      "anonymous": false,
      "inputs": [
        {
          "indexed": true,
          "internalType": "address",
          "name": "previousOwner",
          "type": "address"
        },
        {
          "indexed": true,
          "internalType": "address",
          "name": "newOwner",
          "type": "address"
        }
      ],
      "name": "OwnershipTransferred",
      "type": "event"
    },
    {
      "anonymous": false,
      "inputs": [
        {
          "indexed": false,
          "internalType": "address",
          "name": "newAdmin",
          "type": "address"
        }
      ],
      "name": "ProxyAdminChanged",
      "type": "event"
    },
    {
      "inputs": [
        {
          "internalType": "address",
          "name": "newAdmin",
          "type": "address"
        }
      ],
      "name": "changeProxyAdmin",
      "outputs": [],
      "stateMutability": "nonpayable",
      "type": "function"
    },
    {
      "inputs": [],
      "name": "fetchImplAddress",
      "outputs": [],
      "stateMutability": "nonpayable",
      "type": "function"
    },
    {
      "inputs": [],
      "name": "getAdmin",
      "outputs": [
        {
          "internalType": "address",
          "name": "admin",
          "type": "address"
        }
      ],
      "stateMutability": "view",
      "type": "function"
    },
    {
      "inputs": [],
      "name": "impl",
      "outputs": [
        {
          "internalType": "address",
          "name": "",
          "type": "address"
        }
      ],
      "stateMutability": "view",
      "type": "function"
    },
    {
      "inputs": [],
      "name": "owner",
      "outputs": [
        {
          "internalType": "address",
          "name": "",
          "type": "address"
        }
      ],
      "stateMutability": "view",
      "type": "function"
    },
    {
      "inputs": [],
      "name": "renounceOwnership",
      "outputs": [],
      "stateMutability": "nonpayable",
      "type": "function"
    },
    {
      "inputs": [
        {
          "internalType": "address",
          "name": "newOwner",
          "type": "address"
        }
      ],
      "name": "transferOwnership",
      "outputs": [],
      "stateMutability": "nonpayable",
      "type": "function"
    },
    {
      "inputs": [
        {
          "internalType": "address",
          "name": "newImpl",
          "type": "address"
        }
      ],
      "name": "upgradeProxyTo",
      "outputs": [],
      "stateMutability": "nonpayable",
      "type": "function"
    }
  ],
  "bytecode": "0x608060405234801561001057600080fd5b50604051610cb3380380610cb383398181016040528101906100329190610144565b600061004261012760201b60201c565b9050806000806101000a81548173ffffffffffffffffffffffffffffffffffffffff021916908373ffffffffffffffffffffffffffffffffffffffff1602179055508073ffffffffffffffffffffffffffffffffffffffff16600073ffffffffffffffffffffffffffffffffffffffff167f8be0079c531659141344cd1fd0a4f28419497f9722a3daafe3b4186f6b6457e060405160405180910390a35080600260006101000a81548173ffffffffffffffffffffffffffffffffffffffff021916908373ffffffffffffffffffffffffffffffffffffffff160217905550506101b6565b600033905090565b60008151905061013e8161019f565b92915050565b60006020828403121561015657600080fd5b60006101648482850161012f565b91505092915050565b60006101788261017f565b9050919050565b600073ffffffffffffffffffffffffffffffffffffffff82169050919050565b6101a88161016d565b81146101b357600080fd5b50565b610aee806101c56000396000f3fe608060405234801561001057600080fd5b50600436106100885760003560e01c80638abf60771161005b5780638abf6077146100db5780638da5cb5b146100f95780639f712f2f14610117578063f2fde38b1461013357610088565b806355dbd8eb1461008d578063671f0f50146100a95780636e9960c3146100b3578063715018a6146100d1575b600080fd5b6100a760048036038101906100a291906108e4565b61014f565b005b6100b161025b565b005b6100bb610396565b6040516100c8919061098b565b60405180910390f35b6100d961043d565b005b6100e3610577565b6040516100f0919061098b565b60405180910390f35b61010161059d565b60405161010e919061098b565b60405180910390f35b610131600480360381019061012c91906108e4565b6105c6565b005b61014d600480360381019061014891906108e4565b610709565b005b6101576108b2565b73ffffffffffffffffffffffffffffffffffffffff1661017561059d565b73ffffffffffffffffffffffffffffffffffffffff16146101cb576040517f08c379a00000000000000000000000000000000000000000000000000000000081526004016101c2906109c6565b60405180910390fd5b600260009054906101000a900473ffffffffffffffffffffffffffffffffffffffff1673ffffffffffffffffffffffffffffffffffffffff16633659cfe6826040518263ffffffff1660e01b8152600401610226919061098b565b600060405180830381600087803b15801561024057600080fd5b505af1158015610254573d6000803e3d6000fd5b5050505050565b600260009054906101000a900473ffffffffffffffffffffffffffffffffffffffff1673ffffffffffffffffffffffffffffffffffffffff16635c60da1b6040518163ffffffff1660e01b815260040160206040518083038186803b1580156102c357600080fd5b505afa1580156102d7573d6000803e3d6000fd5b505050506040513d601f19601f820116820180604052508101906102fb919061090d565b600160006101000a81548173ffffffffffffffffffffffffffffffffffffffff021916908373ffffffffffffffffffffffffffffffffffffffff1602179055507f58c17955ba6053cfb96ced3ab34a889aa2f05af8d10f083eba8d45993504a9a9600160009054906101000a900473ffffffffffffffffffffffffffffffffffffffff1660405161038c919061098b565b60405180910390a1565b6000600260009054906101000a900473ffffffffffffffffffffffffffffffffffffffff1673ffffffffffffffffffffffffffffffffffffffff1663f851a4406040518163ffffffff1660e01b815260040160206040518083038186803b15801561040057600080fd5b505afa158015610414573d6000803e3d6000fd5b505050506040513d601f19601f82011682018060405250810190610438919061090d565b905090565b6104456108b2565b73ffffffffffffffffffffffffffffffffffffffff1661046361059d565b73ffffffffffffffffffffffffffffffffffffffff16146104b9576040517f08c379a00000000000000000000000000000000000000000000000000000000081526004016104b0906109c6565b60405180910390fd5b600073ffffffffffffffffffffffffffffffffffffffff1660008054906101000a900473ffffffffffffffffffffffffffffffffffffffff1673ffffffffffffffffffffffffffffffffffffffff167f8be0079c531659141344cd1fd0a4f28419497f9722a3daafe3b4186f6b6457e060405160405180910390a360008060006101000a81548173ffffffffffffffffffffffffffffffffffffffff021916908373ffffffffffffffffffffffffffffffffffffffff160217905550565b600160009054906101000a900473ffffffffffffffffffffffffffffffffffffffff1681565b60008060009054906101000a900473ffffffffffffffffffffffffffffffffffffffff16905090565b6105ce6108b2565b73ffffffffffffffffffffffffffffffffffffffff166105ec61059d565b73ffffffffffffffffffffffffffffffffffffffff1614610642576040517f08c379a0000000000000000000000000000000000000000000000000000000008152600401610639906109c6565b60405180910390fd5b600260009054906101000a900473ffffffffffffffffffffffffffffffffffffffff1673ffffffffffffffffffffffffffffffffffffffff16638f283970826040518263ffffffff1660e01b815260040161069d919061098b565b600060405180830381600087803b1580156106b757600080fd5b505af11580156106cb573d6000803e3d6000fd5b505050507f6235ad59b847efc75cf784228706832e1151064976e4a1ef1b8493cafeab7d40816040516106fe919061098b565b60405180910390a150565b6107116108b2565b73ffffffffffffffffffffffffffffffffffffffff1661072f61059d565b73ffffffffffffffffffffffffffffffffffffffff1614610785576040517f08c379a000000000000000000000000000000000000000000000000000000000815260040161077c906109c6565b60405180910390fd5b600073ffffffffffffffffffffffffffffffffffffffff168173ffffffffffffffffffffffffffffffffffffffff1614156107f5576040517f08c379a00000000000000000000000000000000000000000000000000000000081526004016107ec906109a6565b60405180910390fd5b8073ffffffffffffffffffffffffffffffffffffffff1660008054906101000a900473ffffffffffffffffffffffffffffffffffffffff1673ffffffffffffffffffffffffffffffffffffffff167f8be0079c531659141344cd1fd0a4f28419497f9722a3daafe3b4186f6b6457e060405160405180910390a3806000806101000a81548173ffffffffffffffffffffffffffffffffffffffff021916908373ffffffffffffffffffffffffffffffffffffffff16021790555050565b600033905090565b6000813590506108c981610aa1565b92915050565b6000815190506108de81610aa1565b92915050565b6000602082840312156108f657600080fd5b6000610904848285016108ba565b91505092915050565b60006020828403121561091f57600080fd5b600061092d848285016108cf565b91505092915050565b61093f816109f7565b82525050565b60006109526026836109e6565b915061095d82610a29565b604082019050919050565b60006109756020836109e6565b915061098082610a78565b602082019050919050565b60006020820190506109a06000830184610936565b92915050565b600060208201905081810360008301526109bf81610945565b9050919050565b600060208201905081810360008301526109df81610968565b9050919050565b600082825260208201905092915050565b6000610a0282610a09565b9050919050565b600073ffffffffffffffffffffffffffffffffffffffff82169050919050565b7f4f776e61626c653a206e6577206f776e657220697320746865207a65726f206160008201527f6464726573730000000000000000000000000000000000000000000000000000602082015250565b7f4f776e61626c653a2063616c6c6572206973206e6f7420746865206f776e6572600082015250565b610aaa816109f7565b8114610ab557600080fd5b5056fea2646970667358221220e8aeeed9b46ef2485fea051822349496bef0a0bb95ad02df188e816f0ffeb2e264736f6c63430008040033",
  "linkReferences": {},
  "deployedLinkReferences": {}
}