{
  "_format": "hh-sol-artifact-1",
  "contractName": "NFT",
  "sourceName": "contracts/PlainNFTMintDistro.sol",
  "abi": [
    {
      "inputs": [
        {
          "internalType": "string",
          "name": "_name",
          "type": "string"
        },
        {
          "internalType": "string",
          "name": "_symbol",
          "type": "string"
        }
      ],
      "stateMutability": "nonpayable",
      "type": "constructor"
    },
    {
      "anonymous": false,
      "inputs": [
        {
          "indexed": true,
          "internalType": "address",
          "name": "owner",
          "type": "address"
        },
        {
          "indexed": true,
          "internalType": "address",
          "name": "approved",
          "type": "address"
        },
        {
          "indexed": true,
          "internalType": "uint256",
          "name": "tokenId",
          "type": "uint256"
        }
      ],
      "name": "Approval",
      "type": "event"
    },
    {
      "anonymous": false,
      "inputs": [
        {
          "indexed": true,
          "internalType": "address",
          "name": "owner",
          "type": "address"
        },
        {
          "indexed": true,
          "internalType": "address",
          "name": "operator",
          "type": "address"
        },
        {
          "indexed": false,
          "internalType": "bool",
          "name": "approved",
          "type": "bool"
        }
      ],
      "name": "ApprovalForAll",
      "type": "event"
    },
    {
      "anonymous": false,
      "inputs": [
        {
          "indexed": true,
          "internalType": "address",
          "name": "previousOwner",
          "type": "address"
        },
        {
          "indexed": true,
          "internalType": "address",
          "name": "newOwner",
          "type": "address"
        }
      ],
      "name": "OwnershipTransferred",
      "type": "event"
    },
    {
      "anonymous": false,
      "inputs": [
        {
          "indexed": true,
          "internalType": "address",
          "name": "from",
          "type": "address"
        },
        {
          "indexed": true,
          "internalType": "address",
          "name": "to",
          "type": "address"
        },
        {
          "indexed": true,
          "internalType": "uint256",
          "name": "tokenId",
          "type": "uint256"
        }
      ],
      "name": "Transfer",
      "type": "event"
    },
    {
      "inputs": [],
      "name": "amountToLP",
      "outputs": [
        {
          "internalType": "uint256",
          "name": "",
          "type": "uint256"
        }
      ],
      "stateMutability": "view",
      "type": "function"
    },
    {
      "inputs": [
        {
          "internalType": "address",
          "name": "to",
          "type": "address"
        },
        {
          "internalType": "uint256",
          "name": "tokenId",
          "type": "uint256"
        }
      ],
      "name": "approve",
      "outputs": [],
      "stateMutability": "nonpayable",
      "type": "function"
    },
    {
      "inputs": [
        {
          "internalType": "address",
          "name": "owner",
          "type": "address"
        }
      ],
      "name": "balanceOf",
      "outputs": [
        {
          "internalType": "uint256",
          "name": "",
          "type": "uint256"
        }
      ],
      "stateMutability": "view",
      "type": "function"
    },
    {
      "inputs": [
        {
          "internalType": "uint256",
          "name": "tokenId",
          "type": "uint256"
        }
      ],
      "name": "getApproved",
      "outputs": [
        {
          "internalType": "address",
          "name": "",
          "type": "address"
        }
      ],
      "stateMutability": "view",
      "type": "function"
    },
    {
      "inputs": [
        {
          "internalType": "address",
          "name": "owner",
          "type": "address"
        },
        {
          "internalType": "address",
          "name": "operator",
          "type": "address"
        }
      ],
      "name": "isApprovedForAll",
      "outputs": [
        {
          "internalType": "bool",
          "name": "",
          "type": "bool"
        }
      ],
      "stateMutability": "view",
      "type": "function"
    },
    {
      "inputs": [
        {
          "internalType": "address",
          "name": "to",
          "type": "address"
        },
        {
          "internalType": "uint256",
          "name": "tokenId",
          "type": "uint256"
        }
      ],
      "name": "mint",
      "outputs": [],
      "stateMutability": "nonpayable",
      "type": "function"
    },
    {
      "inputs": [],
      "name": "name",
      "outputs": [
        {
          "internalType": "string",
          "name": "",
          "type": "string"
        }
      ],
      "stateMutability": "view",
      "type": "function"
    },
    {
      "inputs": [
        {
          "internalType": "address",
          "name": "",
          "type": "address"
        },
        {
          "internalType": "address",
          "name": "",
          "type": "address"
        },
        {
          "internalType": "uint256",
          "name": "",
          "type": "uint256"
        },
        {
          "internalType": "bytes",
          "name": "",
          "type": "bytes"
        }
      ],
      "name": "onERC721Received",
      "outputs": [
        {
          "internalType": "bytes4",
          "name": "",
          "type": "bytes4"
        }
      ],
      "stateMutability": "nonpayable",
      "type": "function"
    },
    {
      "inputs": [],
      "name": "owner",
      "outputs": [
        {
          "internalType": "address",
          "name": "",
          "type": "address"
        }
      ],
      "stateMutability": "view",
      "type": "function"
    },
    {
      "inputs": [
        {
          "internalType": "uint256",
          "name": "tokenId",
          "type": "uint256"
        }
      ],
      "name": "ownerOf",
      "outputs": [
        {
          "internalType": "address",
          "name": "",
          "type": "address"
        }
      ],
      "stateMutability": "view",
      "type": "function"
    },
    {
      "inputs": [
        {
          "internalType": "address",
          "name": "_saleContract",
          "type": "address"
        }
      ],
      "name": "prepareSale",
      "outputs": [],
      "stateMutability": "nonpayable",
      "type": "function"
    },
    {
      "inputs": [],
      "name": "renounceOwnership",
      "outputs": [],
      "stateMutability": "nonpayable",
      "type": "function"
    },
    {
      "inputs": [
        {
          "internalType": "address",
          "name": "from",
          "type": "address"
        },
        {
          "internalType": "address",
          "name": "to",
          "type": "address"
        },
        {
          "internalType": "uint256",
          "name": "tokenId",
          "type": "uint256"
        }
      ],
      "name": "safeTransferFrom",
      "outputs": [],
      "stateMutability": "nonpayable",
      "type": "function"
    },
    {
      "inputs": [
        {
          "internalType": "address",
          "name": "from",
          "type": "address"
        },
        {
          "internalType": "address",
          "name": "to",
          "type": "address"
        },
        {
          "internalType": "uint256",
          "name": "tokenId",
          "type": "uint256"
        },
        {
          "internalType": "bytes",
          "name": "_data",
          "type": "bytes"
        }
      ],
      "name": "safeTransferFrom",
      "outputs": [],
      "stateMutability": "nonpayable",
      "type": "function"
    },
    {
      "inputs": [],
      "name": "saleContract",
      "outputs": [
        {
          "internalType": "address",
          "name": "",
          "type": "address"
        }
      ],
      "stateMutability": "view",
      "type": "function"
    },
    {
      "inputs": [
        {
          "internalType": "address",
          "name": "operator",
          "type": "address"
        },
        {
          "internalType": "bool",
          "name": "approved",
          "type": "bool"
        }
      ],
      "name": "setApprovalForAll",
      "outputs": [],
      "stateMutability": "nonpayable",
      "type": "function"
    },
    {
      "inputs": [
        {
          "internalType": "bytes4",
          "name": "interfaceId",
          "type": "bytes4"
        }
      ],
      "name": "supportsInterface",
      "outputs": [
        {
          "internalType": "bool",
          "name": "",
          "type": "bool"
        }
      ],
      "stateMutability": "view",
      "type": "function"
    },
    {
      "inputs": [],
      "name": "symbol",
      "outputs": [
        {
          "internalType": "string",
          "name": "",
          "type": "string"
        }
      ],
      "stateMutability": "view",
      "type": "function"
    },
    {
      "inputs": [
        {
          "internalType": "uint256",
          "name": "index",
          "type": "uint256"
        }
      ],
      "name": "tokenByIndex",
      "outputs": [
        {
          "internalType": "uint256",
          "name": "",
          "type": "uint256"
        }
      ],
      "stateMutability": "view",
      "type": "function"
    },
    {
      "inputs": [
        {
          "internalType": "address",
          "name": "owner",
          "type": "address"
        },
        {
          "internalType": "uint256",
          "name": "index",
          "type": "uint256"
        }
      ],
      "name": "tokenOfOwnerByIndex",
      "outputs": [
        {
          "internalType": "uint256",
          "name": "",
          "type": "uint256"
        }
      ],
      "stateMutability": "view",
      "type": "function"
    },
    {
      "inputs": [
        {
          "internalType": "uint256",
          "name": "tokenId",
          "type": "uint256"
        }
      ],
      "name": "tokenURI",
      "outputs": [
        {
          "internalType": "string",
          "name": "",
          "type": "string"
        }
      ],
      "stateMutability": "view",
      "type": "function"
    },
    {
      "inputs": [],
      "name": "totalSupply",
      "outputs": [
        {
          "internalType": "uint256",
          "name": "",
          "type": "uint256"
        }
      ],
      "stateMutability": "view",
      "type": "function"
    },
    {
      "inputs": [
        {
          "internalType": "address",
          "name": "from",
          "type": "address"
        },
        {
          "internalType": "address",
          "name": "to",
          "type": "address"
        },
        {
          "internalType": "uint256",
          "name": "tokenId",
          "type": "uint256"
        }
      ],
      "name": "transferFrom",
      "outputs": [],
      "stateMutability": "nonpayable",
      "type": "function"
    },
    {
      "inputs": [
        {
          "internalType": "address",
          "name": "newOwner",
          "type": "address"
        }
      ],
      "name": "transferOwnership",
      "outputs": [],
      "stateMutability": "nonpayable",
      "type": "function"
    }
  ],
  "bytecode": "0x60806040523480156200001157600080fd5b5060405162003c1e38038062003c1e83398181016040528101906200003791906200024f565b818160006200004b6200012560201b60201c565b9050806000806101000a81548173ffffffffffffffffffffffffffffffffffffffff021916908373ffffffffffffffffffffffffffffffffffffffff1602179055508073ffffffffffffffffffffffffffffffffffffffff16600073ffffffffffffffffffffffffffffffffffffffff167f8be0079c531659141344cd1fd0a4f28419497f9722a3daafe3b4186f6b6457e060405160405180910390a3508160019080519060200190620001019291906200012d565b5080600290805190602001906200011a9291906200012d565b505050505062000432565b600033905090565b8280546200013b9062000357565b90600052602060002090601f0160209004810192826200015f5760008555620001ab565b82601f106200017a57805160ff1916838001178555620001ab565b82800160010185558215620001ab579182015b82811115620001aa5782518255916020019190600101906200018d565b5b509050620001ba9190620001be565b5090565b5b80821115620001d9576000816000905550600101620001bf565b5090565b6000620001f4620001ee84620002eb565b620002c2565b9050828152602081018484840111156200020d57600080fd5b6200021a84828562000321565b509392505050565b600082601f8301126200023457600080fd5b815162000246848260208601620001dd565b91505092915050565b600080604083850312156200026357600080fd5b600083015167ffffffffffffffff8111156200027e57600080fd5b6200028c8582860162000222565b925050602083015167ffffffffffffffff811115620002aa57600080fd5b620002b88582860162000222565b9150509250929050565b6000620002ce620002e1565b9050620002dc82826200038d565b919050565b6000604051905090565b600067ffffffffffffffff821115620003095762000308620003f2565b5b620003148262000421565b9050602081019050919050565b60005b838110156200034157808201518184015260208101905062000324565b8381111562000351576000848401525b50505050565b600060028204905060018216806200037057607f821691505b60208210811415620003875762000386620003c3565b5b50919050565b620003988262000421565b810181811067ffffffffffffffff82111715620003ba57620003b9620003f2565b5b80604052505050565b7f4e487b7100000000000000000000000000000000000000000000000000000000600052602260045260246000fd5b7f4e487b7100000000000000000000000000000000000000000000000000000000600052604160045260246000fd5b6000601f19601f8301169050919050565b6137dc80620004426000396000f3fe608060405234801561001057600080fd5b50600436106101585760003560e01c80636352211e116100c3578063b88d4fde1161007c578063b88d4fde146103d9578063c5d67d54146103f5578063c87b56dd14610411578063daf6ca3014610441578063e985e9c51461045f578063f2fde38b1461048f57610158565b80636352211e1461031757806370a0823114610347578063715018a6146103775780638da5cb5b1461038157806395d89b411461039f578063a22cb465146103bd57610158565b806318fad86a1161011557806318fad86a1461024557806323b872dd146102635780632f745c591461027f57806340c10f19146102af57806342842e0e146102cb5780634f6ccce7146102e757610158565b806301ffc9a71461015d57806306fdde031461018d578063081812fc146101ab578063095ea7b3146101db578063150b7a02146101f757806318160ddd14610227575b600080fd5b610177600480360381019061017291906126ba565b6104ab565b6040516101849190612b5b565b60405180910390f35b610195610525565b6040516101a29190612b91565b60405180910390f35b6101c560048036038101906101c0919061270c565b6105b7565b6040516101d29190612af4565b60405180910390f35b6101f560048036038101906101f0919061267e565b61063c565b005b610211600480360381019061020c91906125c7565b610754565b60405161021e9190612b76565b60405180910390f35b61022f610768565b60405161023c9190612e33565b60405180910390f35b61024d610775565b60405161025a9190612e33565b60405180910390f35b61027d60048036038101906102789190612578565b61077b565b005b6102996004803603810190610294919061267e565b6107db565b6040516102a69190612e33565b60405180910390f35b6102c960048036038101906102c4919061267e565b610880565b005b6102e560048036038101906102e09190612578565b610962565b005b61030160048036038101906102fc919061270c565b610982565b60405161030e9190612e33565b60405180910390f35b610331600480360381019061032c919061270c565b610a19565b60405161033e9190612af4565b60405180910390f35b610361600480360381019061035c9190612513565b610acb565b60405161036e9190612e33565b60405180910390f35b61037f610b83565b005b610389610cbd565b6040516103969190612af4565b60405180910390f35b6103a7610ce6565b6040516103b49190612b91565b60405180910390f35b6103d760048036038101906103d29190612642565b610d78565b005b6103f360048036038101906103ee91906125c7565b610ef9565b005b61040f600480360381019061040a9190612513565b610f5b565b005b61042b6004803603810190610426919061270c565b6110e3565b6040516104389190612b91565b60405180910390f35b61044961118a565b6040516104569190612af4565b60405180910390f35b6104796004803603810190610474919061253c565b6111b0565b6040516104869190612b5b565b60405180910390f35b6104a960048036038101906104a49190612513565b611244565b005b60007f780e9d63000000000000000000000000000000000000000000000000000000007bffffffffffffffffffffffffffffffffffffffffffffffffffffffff1916827bffffffffffffffffffffffffffffffffffffffffffffffffffffffff1916148061051e575061051d826113ed565b5b9050919050565b60606001805461053490613058565b80601f016020809104026020016040519081016040528092919081815260200182805461056090613058565b80156105ad5780601f10610582576101008083540402835291602001916105ad565b820191906000526020600020905b81548152906001019060200180831161059057829003601f168201915b5050505050905090565b60006105c2826114cf565b610601576040517f08c379a00000000000000000000000000000000000000000000000000000000081526004016105f890612d33565b60405180910390fd5b6005600083815260200190815260200160002060009054906101000a900473ffffffffffffffffffffffffffffffffffffffff169050919050565b600061064782610a19565b90508073ffffffffffffffffffffffffffffffffffffffff168373ffffffffffffffffffffffffffffffffffffffff1614156106b8576040517f08c379a00000000000000000000000000000000000000000000000000000000081526004016106af90612db3565b60405180910390fd5b8073ffffffffffffffffffffffffffffffffffffffff166106d761153b565b73ffffffffffffffffffffffffffffffffffffffff16148061070657506107058161070061153b565b6111b0565b5b610745576040517f08c379a000000000000000000000000000000000000000000000000000000000815260040161073c90612cb3565b60405180910390fd5b61074f8383611543565b505050565b600063150b7a0260e01b9050949350505050565b6000600980549050905090565b600c5481565b61078c61078661153b565b826115fc565b6107cb576040517f08c379a00000000000000000000000000000000000000000000000000000000081526004016107c290612dd3565b60405180910390fd5b6107d68383836116da565b505050565b60006107e683610acb565b8210610827576040517f08c379a000000000000000000000000000000000000000000000000000000000815260040161081e90612bb3565b60405180910390fd5b600760008473ffffffffffffffffffffffffffffffffffffffff1673ffffffffffffffffffffffffffffffffffffffff168152602001908152602001600020600083815260200190815260200160002054905092915050565b600b60009054906101000a900473ffffffffffffffffffffffffffffffffffffffff1673ffffffffffffffffffffffffffffffffffffffff163373ffffffffffffffffffffffffffffffffffffffff1614610910576040517f08c379a000000000000000000000000000000000000000000000000000000000815260040161090790612e13565b60405180910390fd5b6127108110610954576040517f08c379a000000000000000000000000000000000000000000000000000000000815260040161094b90612c93565b60405180910390fd5b61095e8282611936565b5050565b61097d83838360405180602001604052806000815250610ef9565b505050565b600061098c610768565b82106109cd576040517f08c379a00000000000000000000000000000000000000000000000000000000081526004016109c490612df3565b60405180910390fd5b60098281548110610a07577f4e487b7100000000000000000000000000000000000000000000000000000000600052603260045260246000fd5b90600052602060002001549050919050565b6000806003600084815260200190815260200160002060009054906101000a900473ffffffffffffffffffffffffffffffffffffffff169050600073ffffffffffffffffffffffffffffffffffffffff168173ffffffffffffffffffffffffffffffffffffffff161415610ac2576040517f08c379a0000000000000000000000000000000000000000000000000000000008152600401610ab990612cf3565b60405180910390fd5b80915050919050565b60008073ffffffffffffffffffffffffffffffffffffffff168273ffffffffffffffffffffffffffffffffffffffff161415610b3c576040517f08c379a0000000000000000000000000000000000000000000000000000000008152600401610b3390612cd3565b60405180910390fd5b600460008373ffffffffffffffffffffffffffffffffffffffff1673ffffffffffffffffffffffffffffffffffffffff168152602001908152602001600020549050919050565b610b8b61153b565b73ffffffffffffffffffffffffffffffffffffffff16610ba9610cbd565b73ffffffffffffffffffffffffffffffffffffffff1614610bff576040517f08c379a0000000000000000000000000000000000000000000000000000000008152600401610bf690612d53565b60405180910390fd5b600073ffffffffffffffffffffffffffffffffffffffff1660008054906101000a900473ffffffffffffffffffffffffffffffffffffffff1673ffffffffffffffffffffffffffffffffffffffff167f8be0079c531659141344cd1fd0a4f28419497f9722a3daafe3b4186f6b6457e060405160405180910390a360008060006101000a81548173ffffffffffffffffffffffffffffffffffffffff021916908373ffffffffffffffffffffffffffffffffffffffff160217905550565b60008060009054906101000a900473ffffffffffffffffffffffffffffffffffffffff16905090565b606060028054610cf590613058565b80601f0160208091040260200160405190810160405280929190818152602001828054610d2190613058565b8015610d6e5780601f10610d4357610100808354040283529160200191610d6e565b820191906000526020600020905b815481529060010190602001808311610d5157829003601f168201915b5050505050905090565b610d8061153b565b73ffffffffffffffffffffffffffffffffffffffff168273ffffffffffffffffffffffffffffffffffffffff161415610dee576040517f08c379a0000000000000000000000000000000000000000000000000000000008152600401610de590612c53565b60405180910390fd5b8060066000610dfb61153b565b73ffffffffffffffffffffffffffffffffffffffff1673ffffffffffffffffffffffffffffffffffffffff16815260200190815260200160002060008473ffffffffffffffffffffffffffffffffffffffff1673ffffffffffffffffffffffffffffffffffffffff16815260200190815260200160002060006101000a81548160ff0219169083151502179055508173ffffffffffffffffffffffffffffffffffffffff16610ea861153b565b73ffffffffffffffffffffffffffffffffffffffff167f17307eab39ab6107e8899845ad3d59bd9653f200f220920489ca2b5937696c3183604051610eed9190612b5b565b60405180910390a35050565b610f0a610f0461153b565b836115fc565b610f49576040517f08c379a0000000000000000000000000000000000000000000000000000000008152600401610f4090612dd3565b60405180910390fd5b610f5584848484611954565b50505050565b610f6361153b565b73ffffffffffffffffffffffffffffffffffffffff16610f81610cbd565b73ffffffffffffffffffffffffffffffffffffffff1614610fd7576040517f08c379a0000000000000000000000000000000000000000000000000000000008152600401610fce90612d53565b60405180910390fd5b600073ffffffffffffffffffffffffffffffffffffffff16600b60009054906101000a900473ffffffffffffffffffffffffffffffffffffffff1673ffffffffffffffffffffffffffffffffffffffff161461103257600080fd5b80600b60006101000a81548173ffffffffffffffffffffffffffffffffffffffff021916908373ffffffffffffffffffffffffffffffffffffffff1602179055508073ffffffffffffffffffffffffffffffffffffffff1663a47f2c796127106040518263ffffffff1660e01b81526004016110ae9190612e33565b600060405180830381600087803b1580156110c857600080fd5b505af11580156110dc573d6000803e3d6000fd5b5050505050565b60606110ee826114cf565b61112d576040517f08c379a000000000000000000000000000000000000000000000000000000000815260040161112490612d93565b60405180910390fd5b60006111376119b0565b905060008151116111575760405180602001604052806000815250611182565b80611161846119c7565b604051602001611172929190612ad0565b6040516020818303038152906040525b915050919050565b600b60009054906101000a900473ffffffffffffffffffffffffffffffffffffffff1681565b6000600660008473ffffffffffffffffffffffffffffffffffffffff1673ffffffffffffffffffffffffffffffffffffffff16815260200190815260200160002060008373ffffffffffffffffffffffffffffffffffffffff1673ffffffffffffffffffffffffffffffffffffffff16815260200190815260200160002060009054906101000a900460ff16905092915050565b61124c61153b565b73ffffffffffffffffffffffffffffffffffffffff1661126a610cbd565b73ffffffffffffffffffffffffffffffffffffffff16146112c0576040517f08c379a00000000000000000000000000000000000000000000000000000000081526004016112b790612d53565b60405180910390fd5b600073ffffffffffffffffffffffffffffffffffffffff168173ffffffffffffffffffffffffffffffffffffffff161415611330576040517f08c379a000000000000000000000000000000000000000000000000000000000815260040161132790612bf3565b60405180910390fd5b8073ffffffffffffffffffffffffffffffffffffffff1660008054906101000a900473ffffffffffffffffffffffffffffffffffffffff1673ffffffffffffffffffffffffffffffffffffffff167f8be0079c531659141344cd1fd0a4f28419497f9722a3daafe3b4186f6b6457e060405160405180910390a3806000806101000a81548173ffffffffffffffffffffffffffffffffffffffff021916908373ffffffffffffffffffffffffffffffffffffffff16021790555050565b60007f80ac58cd000000000000000000000000000000000000000000000000000000007bffffffffffffffffffffffffffffffffffffffffffffffffffffffff1916827bffffffffffffffffffffffffffffffffffffffffffffffffffffffff191614806114b857507f5b5e139f000000000000000000000000000000000000000000000000000000007bffffffffffffffffffffffffffffffffffffffffffffffffffffffff1916827bffffffffffffffffffffffffffffffffffffffffffffffffffffffff1916145b806114c857506114c782611b74565b5b9050919050565b60008073ffffffffffffffffffffffffffffffffffffffff166003600084815260200190815260200160002060009054906101000a900473ffffffffffffffffffffffffffffffffffffffff1673ffffffffffffffffffffffffffffffffffffffff1614159050919050565b600033905090565b816005600083815260200190815260200160002060006101000a81548173ffffffffffffffffffffffffffffffffffffffff021916908373ffffffffffffffffffffffffffffffffffffffff160217905550808273ffffffffffffffffffffffffffffffffffffffff166115b683610a19565b73ffffffffffffffffffffffffffffffffffffffff167f8c5be1e5ebec7d5bd14f71427d1e84f3dd0314c0f7b2291e5b200ac8c7c3b92560405160405180910390a45050565b6000611607826114cf565b611646576040517f08c379a000000000000000000000000000000000000000000000000000000000815260040161163d90612c73565b60405180910390fd5b600061165183610a19565b90508073ffffffffffffffffffffffffffffffffffffffff168473ffffffffffffffffffffffffffffffffffffffff1614806116c057508373ffffffffffffffffffffffffffffffffffffffff166116a8846105b7565b73ffffffffffffffffffffffffffffffffffffffff16145b806116d157506116d081856111b0565b5b91505092915050565b8273ffffffffffffffffffffffffffffffffffffffff166116fa82610a19565b73ffffffffffffffffffffffffffffffffffffffff1614611750576040517f08c379a000000000000000000000000000000000000000000000000000000000815260040161174790612d73565b60405180910390fd5b600073ffffffffffffffffffffffffffffffffffffffff168273ffffffffffffffffffffffffffffffffffffffff1614156117c0576040517f08c379a00000000000000000000000000000000000000000000000000000000081526004016117b790612c33565b60405180910390fd5b6117cb838383611bde565b6117d6600082611543565b6001600460008573ffffffffffffffffffffffffffffffffffffffff1673ffffffffffffffffffffffffffffffffffffffff16815260200190815260200160002060008282546118269190612f6e565b925050819055506001600460008473ffffffffffffffffffffffffffffffffffffffff1673ffffffffffffffffffffffffffffffffffffffff168152602001908152602001600020600082825461187d9190612ee7565b92505081905550816003600083815260200190815260200160002060006101000a81548173ffffffffffffffffffffffffffffffffffffffff021916908373ffffffffffffffffffffffffffffffffffffffff160217905550808273ffffffffffffffffffffffffffffffffffffffff168473ffffffffffffffffffffffffffffffffffffffff167fddf252ad1be2c89b69c2b068fc378daa952ba7f163c4a11628f55a4df523b3ef60405160405180910390a4505050565b611950828260405180602001604052806000815250611cf2565b5050565b61195f8484846116da565b61196b84848484611d4d565b6119aa576040517f08c379a00000000000000000000000000000000000000000000000000000000081526004016119a190612bd3565b60405180910390fd5b50505050565b606060405180602001604052806000815250905090565b60606000821415611a0f576040518060400160405280600181526020017f30000000000000000000000000000000000000000000000000000000000000008152509050611b6f565b600082905060005b60008214611a41578080611a2a906130bb565b915050600a82611a3a9190612f3d565b9150611a17565b60008167ffffffffffffffff811115611a83577f4e487b7100000000000000000000000000000000000000000000000000000000600052604160045260246000fd5b6040519080825280601f01601f191660200182016040528015611ab55781602001600182028036833780820191505090505b5090505b60008514611b6857600182611ace9190612f6e565b9150600a85611add9190613104565b6030611ae99190612ee7565b60f81b818381518110611b25577f4e487b7100000000000000000000000000000000000000000000000000000000600052603260045260246000fd5b60200101907effffffffffffffffffffffffffffffffffffffffffffffffffffffffffffff1916908160001a905350600a85611b619190612f3d565b9450611ab9565b8093505050505b919050565b60007f01ffc9a7000000000000000000000000000000000000000000000000000000007bffffffffffffffffffffffffffffffffffffffffffffffffffffffff1916827bffffffffffffffffffffffffffffffffffffffffffffffffffffffff1916149050919050565b611be9838383611ee4565b600073ffffffffffffffffffffffffffffffffffffffff168373ffffffffffffffffffffffffffffffffffffffff161415611c2c57611c2781611ee9565b611c6b565b8173ffffffffffffffffffffffffffffffffffffffff168373ffffffffffffffffffffffffffffffffffffffff1614611c6a57611c698382611f32565b5b5b600073ffffffffffffffffffffffffffffffffffffffff168273ffffffffffffffffffffffffffffffffffffffff161415611cae57611ca98161209f565b611ced565b8273ffffffffffffffffffffffffffffffffffffffff168273ffffffffffffffffffffffffffffffffffffffff1614611cec57611ceb82826121e2565b5b5b505050565b611cfc8383612261565b611d096000848484611d4d565b611d48576040517f08c379a0000000000000000000000000000000000000000000000000000000008152600401611d3f90612bd3565b60405180910390fd5b505050565b6000611d6e8473ffffffffffffffffffffffffffffffffffffffff1661242f565b15611ed7578373ffffffffffffffffffffffffffffffffffffffff1663150b7a02611d9761153b565b8786866040518563ffffffff1660e01b8152600401611db99493929190612b0f565b602060405180830381600087803b158015611dd357600080fd5b505af1925050508015611e0457506040513d601f19601f82011682018060405250810190611e0191906126e3565b60015b611e87573d8060008114611e34576040519150601f19603f3d011682016040523d82523d6000602084013e611e39565b606091505b50600081511415611e7f576040517f08c379a0000000000000000000000000000000000000000000000000000000008152600401611e7690612bd3565b60405180910390fd5b805181602001fd5b63150b7a0260e01b7bffffffffffffffffffffffffffffffffffffffffffffffffffffffff1916817bffffffffffffffffffffffffffffffffffffffffffffffffffffffff191614915050611edc565b600190505b949350505050565b505050565b600980549050600a600083815260200190815260200160002081905550600981908060018154018082558091505060019003906000526020600020016000909190919091505550565b60006001611f3f84610acb565b611f499190612f6e565b905060006008600084815260200190815260200160002054905081811461202e576000600760008673ffffffffffffffffffffffffffffffffffffffff1673ffffffffffffffffffffffffffffffffffffffff168152602001908152602001600020600084815260200190815260200160002054905080600760008773ffffffffffffffffffffffffffffffffffffffff1673ffffffffffffffffffffffffffffffffffffffff168152602001908152602001600020600084815260200190815260200160002081905550816008600083815260200190815260200160002081905550505b6008600084815260200190815260200160002060009055600760008573ffffffffffffffffffffffffffffffffffffffff1673ffffffffffffffffffffffffffffffffffffffff16815260200190815260200160002060008381526020019081526020016000206000905550505050565b600060016009805490506120b39190612f6e565b90506000600a6000848152602001908152602001600020549050600060098381548110612109577f4e487b7100000000000000000000000000000000000000000000000000000000600052603260045260246000fd5b906000526020600020015490508060098381548110612151577f4e487b7100000000000000000000000000000000000000000000000000000000600052603260045260246000fd5b906000526020600020018190555081600a600083815260200190815260200160002081905550600a60008581526020019081526020016000206000905560098054806121c6577f4e487b7100000000000000000000000000000000000000000000000000000000600052603160045260246000fd5b6001900381819060005260206000200160009055905550505050565b60006121ed83610acb565b905081600760008573ffffffffffffffffffffffffffffffffffffffff1673ffffffffffffffffffffffffffffffffffffffff168152602001908152602001600020600083815260200190815260200160002081905550806008600084815260200190815260200160002081905550505050565b600073ffffffffffffffffffffffffffffffffffffffff168273ffffffffffffffffffffffffffffffffffffffff1614156122d1576040517f08c379a00000000000000000000000000000000000000000000000000000000081526004016122c890612d13565b60405180910390fd5b6122da816114cf565b1561231a576040517f08c379a000000000000000000000000000000000000000000000000000000000815260040161231190612c13565b60405180910390fd5b61232660008383611bde565b6001600460008473ffffffffffffffffffffffffffffffffffffffff1673ffffffffffffffffffffffffffffffffffffffff16815260200190815260200160002060008282546123769190612ee7565b92505081905550816003600083815260200190815260200160002060006101000a81548173ffffffffffffffffffffffffffffffffffffffff021916908373ffffffffffffffffffffffffffffffffffffffff160217905550808273ffffffffffffffffffffffffffffffffffffffff16600073ffffffffffffffffffffffffffffffffffffffff167fddf252ad1be2c89b69c2b068fc378daa952ba7f163c4a11628f55a4df523b3ef60405160405180910390a45050565b600080823b905060008111915050919050565b600061245561245084612e73565b612e4e565b90508281526020810184848401111561246d57600080fd5b612478848285613016565b509392505050565b60008135905061248f8161374a565b92915050565b6000813590506124a481613761565b92915050565b6000813590506124b981613778565b92915050565b6000815190506124ce81613778565b92915050565b600082601f8301126124e557600080fd5b81356124f5848260208601612442565b91505092915050565b60008135905061250d8161378f565b92915050565b60006020828403121561252557600080fd5b600061253384828501612480565b91505092915050565b6000806040838503121561254f57600080fd5b600061255d85828601612480565b925050602061256e85828601612480565b9150509250929050565b60008060006060848603121561258d57600080fd5b600061259b86828701612480565b93505060206125ac86828701612480565b92505060406125bd868287016124fe565b9150509250925092565b600080600080608085870312156125dd57600080fd5b60006125eb87828801612480565b94505060206125fc87828801612480565b935050604061260d878288016124fe565b925050606085013567ffffffffffffffff81111561262a57600080fd5b612636878288016124d4565b91505092959194509250565b6000806040838503121561265557600080fd5b600061266385828601612480565b925050602061267485828601612495565b9150509250929050565b6000806040838503121561269157600080fd5b600061269f85828601612480565b92505060206126b0858286016124fe565b9150509250929050565b6000602082840312156126cc57600080fd5b60006126da848285016124aa565b91505092915050565b6000602082840312156126f557600080fd5b6000612703848285016124bf565b91505092915050565b60006020828403121561271e57600080fd5b600061272c848285016124fe565b91505092915050565b61273e81612fa2565b82525050565b61274d81612fb4565b82525050565b61275c81612fc0565b82525050565b600061276d82612ea4565b6127778185612eba565b9350612787818560208601613025565b612790816131f1565b840191505092915050565b60006127a682612eaf565b6127b08185612ecb565b93506127c0818560208601613025565b6127c9816131f1565b840191505092915050565b60006127df82612eaf565b6127e98185612edc565b93506127f9818560208601613025565b80840191505092915050565b6000612812602b83612ecb565b915061281d82613202565b604082019050919050565b6000612835603283612ecb565b915061284082613251565b604082019050919050565b6000612858602683612ecb565b9150612863826132a0565b604082019050919050565b600061287b601c83612ecb565b9150612886826132ef565b602082019050919050565b600061289e602483612ecb565b91506128a982613318565b604082019050919050565b60006128c1601983612ecb565b91506128cc82613367565b602082019050919050565b60006128e4602c83612ecb565b91506128ef82613390565b604082019050919050565b6000612907600a83612ecb565b9150612912826133df565b602082019050919050565b600061292a603883612ecb565b915061293582613408565b604082019050919050565b600061294d602a83612ecb565b915061295882613457565b604082019050919050565b6000612970602983612ecb565b915061297b826134a6565b604082019050919050565b6000612993602083612ecb565b915061299e826134f5565b602082019050919050565b60006129b6602c83612ecb565b91506129c18261351e565b604082019050919050565b60006129d9602083612ecb565b91506129e48261356d565b602082019050919050565b60006129fc602983612ecb565b9150612a0782613596565b604082019050919050565b6000612a1f602f83612ecb565b9150612a2a826135e5565b604082019050919050565b6000612a42602183612ecb565b9150612a4d82613634565b604082019050919050565b6000612a65603183612ecb565b9150612a7082613683565b604082019050919050565b6000612a88602c83612ecb565b9150612a93826136d2565b604082019050919050565b6000612aab600c83612ecb565b9150612ab682613721565b602082019050919050565b612aca8161300c565b82525050565b6000612adc82856127d4565b9150612ae882846127d4565b91508190509392505050565b6000602082019050612b096000830184612735565b92915050565b6000608082019050612b246000830187612735565b612b316020830186612735565b612b3e6040830185612ac1565b8181036060830152612b508184612762565b905095945050505050565b6000602082019050612b706000830184612744565b92915050565b6000602082019050612b8b6000830184612753565b92915050565b60006020820190508181036000830152612bab818461279b565b905092915050565b60006020820190508181036000830152612bcc81612805565b9050919050565b60006020820190508181036000830152612bec81612828565b9050919050565b60006020820190508181036000830152612c0c8161284b565b9050919050565b60006020820190508181036000830152612c2c8161286e565b9050919050565b60006020820190508181036000830152612c4c81612891565b9050919050565b60006020820190508181036000830152612c6c816128b4565b9050919050565b60006020820190508181036000830152612c8c816128d7565b9050919050565b60006020820190508181036000830152612cac816128fa565b9050919050565b60006020820190508181036000830152612ccc8161291d565b9050919050565b60006020820190508181036000830152612cec81612940565b9050919050565b60006020820190508181036000830152612d0c81612963565b9050919050565b60006020820190508181036000830152612d2c81612986565b9050919050565b60006020820190508181036000830152612d4c816129a9565b9050919050565b60006020820190508181036000830152612d6c816129cc565b9050919050565b60006020820190508181036000830152612d8c816129ef565b9050919050565b60006020820190508181036000830152612dac81612a12565b9050919050565b60006020820190508181036000830152612dcc81612a35565b9050919050565b60006020820190508181036000830152612dec81612a58565b9050919050565b60006020820190508181036000830152612e0c81612a7b565b9050919050565b60006020820190508181036000830152612e2c81612a9e565b9050919050565b6000602082019050612e486000830184612ac1565b92915050565b6000612e58612e69565b9050612e64828261308a565b919050565b6000604051905090565b600067ffffffffffffffff821115612e8e57612e8d6131c2565b5b612e97826131f1565b9050602081019050919050565b600081519050919050565b600081519050919050565b600082825260208201905092915050565b600082825260208201905092915050565b600081905092915050565b6000612ef28261300c565b9150612efd8361300c565b9250827fffffffffffffffffffffffffffffffffffffffffffffffffffffffffffffffff03821115612f3257612f31613135565b5b828201905092915050565b6000612f488261300c565b9150612f538361300c565b925082612f6357612f62613164565b5b828204905092915050565b6000612f798261300c565b9150612f848361300c565b925082821015612f9757612f96613135565b5b828203905092915050565b6000612fad82612fec565b9050919050565b60008115159050919050565b60007fffffffff0000000000000000000000000000000000000000000000000000000082169050919050565b600073ffffffffffffffffffffffffffffffffffffffff82169050919050565b6000819050919050565b82818337600083830152505050565b60005b83811015613043578082015181840152602081019050613028565b83811115613052576000848401525b50505050565b6000600282049050600182168061307057607f821691505b6020821081141561308457613083613193565b5b50919050565b613093826131f1565b810181811067ffffffffffffffff821117156130b2576130b16131c2565b5b80604052505050565b60006130c68261300c565b91507fffffffffffffffffffffffffffffffffffffffffffffffffffffffffffffffff8214156130f9576130f8613135565b5b600182019050919050565b600061310f8261300c565b915061311a8361300c565b92508261312a57613129613164565b5b828206905092915050565b7f4e487b7100000000000000000000000000000000000000000000000000000000600052601160045260246000fd5b7f4e487b7100000000000000000000000000000000000000000000000000000000600052601260045260246000fd5b7f4e487b7100000000000000000000000000000000000000000000000000000000600052602260045260246000fd5b7f4e487b7100000000000000000000000000000000000000000000000000000000600052604160045260246000fd5b6000601f19601f8301169050919050565b7f455243373231456e756d657261626c653a206f776e657220696e646578206f7560008201527f74206f6620626f756e6473000000000000000000000000000000000000000000602082015250565b7f4552433732313a207472616e7366657220746f206e6f6e20455243373231526560008201527f63656976657220696d706c656d656e7465720000000000000000000000000000602082015250565b7f4f776e61626c653a206e6577206f776e657220697320746865207a65726f206160008201527f6464726573730000000000000000000000000000000000000000000000000000602082015250565b7f4552433732313a20746f6b656e20616c7265616479206d696e74656400000000600082015250565b7f4552433732313a207472616e7366657220746f20746865207a65726f2061646460008201527f7265737300000000000000000000000000000000000000000000000000000000602082015250565b7f4552433732313a20617070726f766520746f2063616c6c657200000000000000600082015250565b7f4552433732313a206f70657261746f7220717565727920666f72206e6f6e657860008201527f697374656e7420746f6b656e0000000000000000000000000000000000000000602082015250565b7f4d617820737570706c7900000000000000000000000000000000000000000000600082015250565b7f4552433732313a20617070726f76652063616c6c6572206973206e6f74206f7760008201527f6e6572206e6f7220617070726f76656420666f7220616c6c0000000000000000602082015250565b7f4552433732313a2062616c616e636520717565727920666f7220746865207a6560008201527f726f206164647265737300000000000000000000000000000000000000000000602082015250565b7f4552433732313a206f776e657220717565727920666f72206e6f6e657869737460008201527f656e7420746f6b656e0000000000000000000000000000000000000000000000602082015250565b7f4552433732313a206d696e7420746f20746865207a65726f2061646472657373600082015250565b7f4552433732313a20617070726f76656420717565727920666f72206e6f6e657860008201527f697374656e7420746f6b656e0000000000000000000000000000000000000000602082015250565b7f4f776e61626c653a2063616c6c6572206973206e6f7420746865206f776e6572600082015250565b7f4552433732313a207472616e73666572206f6620746f6b656e2074686174206960008201527f73206e6f74206f776e0000000000000000000000000000000000000000000000602082015250565b7f4552433732314d657461646174613a2055524920717565727920666f72206e6f60008201527f6e6578697374656e7420746f6b656e0000000000000000000000000000000000602082015250565b7f4552433732313a20617070726f76616c20746f2063757272656e74206f776e6560008201527f7200000000000000000000000000000000000000000000000000000000000000602082015250565b7f4552433732313a207472616e736665722063616c6c6572206973206e6f74206f60008201527f776e6572206e6f7220617070726f766564000000000000000000000000000000602082015250565b7f455243373231456e756d657261626c653a20676c6f62616c20696e646578206f60008201527f7574206f6620626f756e64730000000000000000000000000000000000000000602082015250565b7f4e69636520747279206c6f6c0000000000000000000000000000000000000000600082015250565b61375381612fa2565b811461375e57600080fd5b50565b61376a81612fb4565b811461377557600080fd5b50565b61378181612fc0565b811461378c57600080fd5b50565b6137988161300c565b81146137a357600080fd5b5056fea264697066735822122018d46a76086688e68ee41a10fc8e5747a3b55f69808bb0f433dc110feaef259c64736f6c63430008040033",
  "linkReferences": {},
  "deployedLinkReferences": {}
}