{
  "_format": "hh-sol-artifact-1",
  "contractName": "WaveLockSaleWithMint",
  "sourceName": "contracts/WaveLockMintSale.sol",
  "abi": [
    {
      "inputs": [
        {
          "internalType": "address",
          "name": "_nft",
          "type": "address"
        },
        {
          "internalType": "uint256",
          "name": "_startBlock",
          "type": "uint256"
        }
      ],
      "stateMutability": "nonpayable",
      "type": "constructor"
    },
    {
      "anonymous": false,
      "inputs": [
        {
          "indexed": true,
          "internalType": "address",
          "name": "previousOwner",
          "type": "address"
        },
        {
          "indexed": true,
          "internalType": "address",
          "name": "newOwner",
          "type": "address"
        }
      ],
      "name": "OwnershipTransferred",
      "type": "event"
    },
    {
      "inputs": [],
      "name": "amountForSale",
      "outputs": [
        {
          "internalType": "uint256",
          "name": "",
          "type": "uint256"
        }
      ],
      "stateMutability": "view",
      "type": "function"
    },
    {
      "inputs": [],
      "name": "amountSold",
      "outputs": [
        {
          "internalType": "uint256",
          "name": "",
          "type": "uint256"
        }
      ],
      "stateMutability": "view",
      "type": "function"
    },
    {
      "inputs": [
        {
          "internalType": "uint256",
          "name": "count",
          "type": "uint256"
        }
      ],
      "name": "buy",
      "outputs": [],
      "stateMutability": "payable",
      "type": "function"
    },
    {
      "inputs": [
        {
          "internalType": "uint256",
          "name": "count",
          "type": "uint256"
        }
      ],
      "name": "loadSale",
      "outputs": [],
      "stateMutability": "nonpayable",
      "type": "function"
    },
    {
      "inputs": [
        {
          "internalType": "uint256",
          "name": "count",
          "type": "uint256"
        }
      ],
      "name": "mint",
      "outputs": [],
      "stateMutability": "nonpayable",
      "type": "function"
    },
    {
      "inputs": [],
      "name": "nft",
      "outputs": [
        {
          "internalType": "address",
          "name": "",
          "type": "address"
        }
      ],
      "stateMutability": "view",
      "type": "function"
    },
    {
      "inputs": [],
      "name": "owner",
      "outputs": [
        {
          "internalType": "address",
          "name": "",
          "type": "address"
        }
      ],
      "stateMutability": "view",
      "type": "function"
    },
    {
      "inputs": [],
      "name": "price",
      "outputs": [
        {
          "internalType": "uint256",
          "name": "",
          "type": "uint256"
        }
      ],
      "stateMutability": "view",
      "type": "function"
    },
    {
      "inputs": [],
      "name": "renounceOwnership",
      "outputs": [],
      "stateMutability": "nonpayable",
      "type": "function"
    },
    {
      "inputs": [],
      "name": "startBlock",
      "outputs": [
        {
          "internalType": "uint256",
          "name": "",
          "type": "uint256"
        }
      ],
      "stateMutability": "view",
      "type": "function"
    },
    {
      "inputs": [
        {
          "internalType": "address",
          "name": "newOwner",
          "type": "address"
        }
      ],
      "name": "transferOwnership",
      "outputs": [],
      "stateMutability": "nonpayable",
      "type": "function"
    },
    {
      "inputs": [],
      "name": "wave",
      "outputs": [
        {
          "internalType": "uint256",
          "name": "",
          "type": "uint256"
        }
      ],
      "stateMutability": "view",
      "type": "function"
    },
    {
      "inputs": [],
      "name": "waveBlockLength",
      "outputs": [
        {
          "internalType": "uint256",
          "name": "",
          "type": "uint256"
        }
      ],
      "stateMutability": "view",
      "type": "function"
    }
  ],
  "bytecode": "0x6080604052600060075560146008553480156200001b57600080fd5b50604051620017543803806200175483398181016040528101906200004191906200017e565b6000620000536200014860201b60201c565b9050806000806101000a81548173ffffffffffffffffffffffffffffffffffffffff021916908373ffffffffffffffffffffffffffffffffffffffff1602179055508073ffffffffffffffffffffffffffffffffffffffff16600073ffffffffffffffffffffffffffffffffffffffff167f8be0079c531659141344cd1fd0a4f28419497f9722a3daafe3b4186f6b6457e060405160405180910390a3506001808190555081600260006101000a81548173ffffffffffffffffffffffffffffffffffffffff021916908373ffffffffffffffffffffffffffffffffffffffff16021790555080600681905550505062000231565b600033905090565b6000815190506200016181620001fd565b92915050565b600081519050620001788162000217565b92915050565b600080604083850312156200019257600080fd5b6000620001a28582860162000150565b9250506020620001b58582860162000167565b9150509250929050565b6000620001cc82620001d3565b9050919050565b600073ffffffffffffffffffffffffffffffffffffffff82169050919050565b6000819050919050565b6200020881620001bf565b81146200021457600080fd5b50565b6200022281620001f3565b81146200022e57600080fd5b50565b61151380620002416000396000f3fe6080604052600436106100c25760003560e01c80638da5cb5b1161007f578063a47f2c7911610059578063a47f2c7914610234578063d96a094a1461025d578063e9d109a014610279578063f2fde38b146102a4576100c2565b80638da5cb5b146101b5578063a035b1fe146101e0578063a0712d681461020b576100c2565b806347ccca02146100c757806348cd4cb1146100f257806352a16bb01461011d5780636fe15b4414610148578063715018a6146101735780638473e55f1461018a575b600080fd5b3480156100d357600080fd5b506100dc6102cd565b6040516100e99190610f5c565b60405180910390f35b3480156100fe57600080fd5b506101076102f3565b60405161011491906110c0565b60405180910390f35b34801561012957600080fd5b506101326102f9565b60405161013f91906110c0565b60405180910390f35b34801561015457600080fd5b5061015d6102ff565b60405161016a91906110c0565b60405180910390f35b34801561017f57600080fd5b50610188610305565b005b34801561019657600080fd5b5061019f61043f565b6040516101ac91906110c0565b60405180910390f35b3480156101c157600080fd5b506101ca610445565b6040516101d79190610f5c565b60405180910390f35b3480156101ec57600080fd5b506101f561046e565b60405161020291906110c0565b60405180910390f35b34801561021757600080fd5b50610232600480360381019061022d9190610d79565b610474565b005b34801561024057600080fd5b5061025b60048036038101906102569190610d79565b610684565b005b61027760048036038101906102729190610d79565b6106e8565b005b34801561028557600080fd5b5061028e610ae0565b60405161029b91906110c0565b60405180910390f35b3480156102b057600080fd5b506102cb60048036038101906102c69190610d50565b610ae6565b005b600260009054906101000a900473ffffffffffffffffffffffffffffffffffffffff1681565b60065481565b60055481565b60075481565b61030d610c8f565b73ffffffffffffffffffffffffffffffffffffffff1661032b610445565b73ffffffffffffffffffffffffffffffffffffffff1614610381576040517f08c379a000000000000000000000000000000000000000000000000000000000815260040161037890611000565b60405180910390fd5b600073ffffffffffffffffffffffffffffffffffffffff1660008054906101000a900473ffffffffffffffffffffffffffffffffffffffff1673ffffffffffffffffffffffffffffffffffffffff167f8be0079c531659141344cd1fd0a4f28419497f9722a3daafe3b4186f6b6457e060405160405180910390a360008060006101000a81548173ffffffffffffffffffffffffffffffffffffffff021916908373ffffffffffffffffffffffffffffffffffffffff160217905550565b60045481565b60008060009054906101000a900473ffffffffffffffffffffffffffffffffffffffff16905090565b60035481565b6000811161048157600080fd5b600a60003373ffffffffffffffffffffffffffffffffffffffff1673ffffffffffffffffffffffffffffffffffffffff168152602001908152602001600020548111156104cd57600080fd5b80600a60003373ffffffffffffffffffffffffffffffffffffffff1673ffffffffffffffffffffffffffffffffffffffff168152602001908152602001600020600082825461051c91906111d8565b925050819055506000600260009054906101000a900473ffffffffffffffffffffffffffffffffffffffff1673ffffffffffffffffffffffffffffffffffffffff166318160ddd6040518163ffffffff1660e01b815260040160206040518083038186803b15801561058d57600080fd5b505afa1580156105a1573d6000803e3d6000fd5b505050506040513d601f19601f820116820180604052508101906105c59190610da2565b905060005b8281101561067f57600260009054906101000a900473ffffffffffffffffffffffffffffffffffffffff1673ffffffffffffffffffffffffffffffffffffffff166340c10f1933838561061d91906110f7565b6040518363ffffffff1660e01b815260040161063a929190610f77565b600060405180830381600087803b15801561065457600080fd5b505af1158015610668573d6000803e3d6000fd5b50505050808061067790611248565b9150506105ca565b505050565b600260009054906101000a900473ffffffffffffffffffffffffffffffffffffffff1673ffffffffffffffffffffffffffffffffffffffff163373ffffffffffffffffffffffffffffffffffffffff16146106de57600080fd5b8060048190555050565b6002600154141561072e576040517f08c379a0000000000000000000000000000000000000000000000000000000008152600401610725906110a0565b60405180910390fd5b6002600181905550600654431161077a576040517f08c379a000000000000000000000000000000000000000000000000000000000815260040161077190611080565b60405180910390fd5b600081116107bd576040517f08c379a00000000000000000000000000000000000000000000000000000000081526004016107b490610fe0565b60405180910390fd5b60045460055410610803576040517f08c379a00000000000000000000000000000000000000000000000000000000081526004016107fa90611020565b60405180910390fd5b61080b610c97565b60096000600754815260200190815260200160002060003373ffffffffffffffffffffffffffffffffffffffff1673ffffffffffffffffffffffffffffffffffffffff16815260200190815260200160002060009054906101000a900460ff16156108ab576040517f08c379a00000000000000000000000000000000000000000000000000000000081526004016108a290611040565b60405180910390fd5b6108b6600754610cd0565b81106108f7576040517f08c379a00000000000000000000000000000000000000000000000000000000081526004016108ee90611060565b60405180910390fd5b60006004548260055461090a91906110f7565b111561094457600060055460045461092291906111d8565b9050808361093091906111d8565b60035461093d919061117e565b9150809250505b816005600082825461095691906110f7565b9250508190555081600a60003373ffffffffffffffffffffffffffffffffffffffff1673ffffffffffffffffffffffffffffffffffffffff16815260200190815260200160002060008282546109ac91906110f7565b92505081905550600160096000600754815260200190815260200160002060003373ffffffffffffffffffffffffffffffffffffffff1673ffffffffffffffffffffffffffffffffffffffff16815260200190815260200160002060006101000a81548160ff0219169083151502179055506000811115610ad55760003373ffffffffffffffffffffffffffffffffffffffff1682604051610a4d90610f47565b60006040518083038185875af1925050503d8060008114610a8a576040519150601f19603f3d011682016040523d82523d6000602084013e610a8f565b606091505b5050905080610ad3576040517f08c379a0000000000000000000000000000000000000000000000000000000008152600401610aca90610fc0565b60405180910390fd5b505b506001808190555050565b60085481565b610aee610c8f565b73ffffffffffffffffffffffffffffffffffffffff16610b0c610445565b73ffffffffffffffffffffffffffffffffffffffff1614610b62576040517f08c379a0000000000000000000000000000000000000000000000000000000008152600401610b5990611000565b60405180910390fd5b600073ffffffffffffffffffffffffffffffffffffffff168173ffffffffffffffffffffffffffffffffffffffff161415610bd2576040517f08c379a0000000000000000000000000000000000000000000000000000000008152600401610bc990610fa0565b60405180910390fd5b8073ffffffffffffffffffffffffffffffffffffffff1660008054906101000a900473ffffffffffffffffffffffffffffffffffffffff1673ffffffffffffffffffffffffffffffffffffffff167f8be0079c531659141344cd1fd0a4f28419497f9722a3daafe3b4186f6b6457e060405160405180910390a3806000806101000a81548173ffffffffffffffffffffffffffffffffffffffff021916908373ffffffffffffffffffffffffffffffffffffffff16021790555050565b600033905090565b600060065443610ca791906111d8565b9050600060085482610cb9919061114d565b90506007548114610ccc57806007819055505b5050565b600080821415610ce35760029050610d0c565b6001821415610cf55760089050610d0c565b6002821415610d075760149050610d0c565b603290505b919050565b600081359050610d20816114af565b92915050565b600081359050610d35816114c6565b92915050565b600081519050610d4a816114c6565b92915050565b600060208284031215610d6257600080fd5b6000610d7084828501610d11565b91505092915050565b600060208284031215610d8b57600080fd5b6000610d9984828501610d26565b91505092915050565b600060208284031215610db457600080fd5b6000610dc284828501610d3b565b91505092915050565b610dd48161120c565b82525050565b6000610de76026836110e6565b9150610df2826112ef565b604082019050919050565b6000610e0a603a836110e6565b9150610e158261133e565b604082019050919050565b6000610e2d600d836110e6565b9150610e388261138d565b602082019050919050565b6000610e506020836110e6565b9150610e5b826113b6565b602082019050919050565b6000610e736010836110e6565b9150610e7e826113df565b602082019050919050565b6000610e966000836110db565b9150610ea182611408565b600082019050919050565b6000610eb96014836110e6565b9150610ec48261140b565b602082019050919050565b6000610edc6003836110e6565b9150610ee782611434565b602082019050919050565b6000610eff6014836110e6565b9150610f0a8261145d565b602082019050919050565b6000610f22601f836110e6565b9150610f2d82611486565b602082019050919050565b610f418161123e565b82525050565b6000610f5282610e89565b9150819050919050565b6000602082019050610f716000830184610dcb565b92915050565b6000604082019050610f8c6000830185610dcb565b610f996020830184610f38565b9392505050565b60006020820190508181036000830152610fb981610dda565b9050919050565b60006020820190508181036000830152610fd981610dfd565b9050919050565b60006020820190508181036000830152610ff981610e20565b9050919050565b6000602082019050818103600083015261101981610e43565b9050919050565b6000602082019050818103600083015261103981610e66565b9050919050565b6000602082019050818103600083015261105981610eac565b9050919050565b6000602082019050818103600083015261107981610ecf565b9050919050565b6000602082019050818103600083015261109981610ef2565b9050919050565b600060208201905081810360008301526110b981610f15565b9050919050565b60006020820190506110d56000830184610f38565b92915050565b600081905092915050565b600082825260208201905092915050565b60006111028261123e565b915061110d8361123e565b9250827fffffffffffffffffffffffffffffffffffffffffffffffffffffffffffffffff0382111561114257611141611291565b5b828201905092915050565b60006111588261123e565b91506111638361123e565b925082611173576111726112c0565b5b828204905092915050565b60006111898261123e565b91506111948361123e565b9250817fffffffffffffffffffffffffffffffffffffffffffffffffffffffffffffffff04831182151516156111cd576111cc611291565b5b828202905092915050565b60006111e38261123e565b91506111ee8361123e565b92508282101561120157611200611291565b5b828203905092915050565b60006112178261121e565b9050919050565b600073ffffffffffffffffffffffffffffffffffffffff82169050919050565b6000819050919050565b60006112538261123e565b91507fffffffffffffffffffffffffffffffffffffffffffffffffffffffffffffffff82141561128657611285611291565b5b600182019050919050565b7f4e487b7100000000000000000000000000000000000000000000000000000000600052601160045260246000fd5b7f4e487b7100000000000000000000000000000000000000000000000000000000600052601260045260246000fd5b7f4f776e61626c653a206e6577206f776e657220697320746865207a65726f206160008201527f6464726573730000000000000000000000000000000000000000000000000000602082015250565b7f416464726573733a20756e61626c6520746f2073656e642076616c75652c207260008201527f6563697069656e74206d61792068617665207265766572746564000000000000602082015250565b7f43616e6e6f74206d696e74203000000000000000000000000000000000000000600082015250565b7f4f776e61626c653a2063616c6c6572206973206e6f7420746865206f776e6572600082015250565b7f536f6c64206f75742120536f7272792100000000000000000000000000000000600082015250565b50565b7f4c6f636b656420666f7220746869732077617665000000000000000000000000600082015250565b7f4361700000000000000000000000000000000000000000000000000000000000600082015250565b7f53616c6520686173206e6f742073746172746564000000000000000000000000600082015250565b7f5265656e7472616e637947756172643a207265656e7472616e742063616c6c00600082015250565b6114b88161120c565b81146114c357600080fd5b50565b6114cf8161123e565b81146114da57600080fd5b5056fea2646970667358221220873794f9c559fddebc2126b75d9d8bcb69b9d40f73b93384aceac49b2c2a91bb64736f6c63430008040033",
  "linkReferences": {},
  "deployedLinkReferences": {}
}