{
  "_format": "hh-sol-artifact-1",
  "contractName": "UpgradeableBeacon",
  "sourceName": "contracts/contracts/proxy/UpgradeableBeacon.sol",
  "abi": [
    {
      "anonymous": false,
      "inputs": [
        {
          "indexed": true,
          "internalType": "address",
          "name": "previousOwner",
          "type": "address"
        },
        {
          "indexed": true,
          "internalType": "address",
          "name": "newOwner",
          "type": "address"
        }
      ],
      "name": "OwnershipTransferred",
      "type": "event"
    },
    {
      "anonymous": false,
      "inputs": [
        {
          "indexed": true,
          "internalType": "address",
          "name": "childImplementation",
          "type": "address"
        }
      ],
      "name": "Upgraded",
      "type": "event"
    },
    {
      "inputs": [
        {
          "internalType": "address",
          "name": "childImplementation_",
          "type": "address"
        }
      ],
      "name": "__UpgradeableBeacon__init",
      "outputs": [],
      "stateMutability": "nonpayable",
      "type": "function"
    },
    {
      "inputs": [],
      "name": "childImplementation",
      "outputs": [
        {
          "internalType": "address",
          "name": "",
          "type": "address"
        }
      ],
      "stateMutability": "view",
      "type": "function"
    },
    {
      "inputs": [],
      "name": "owner",
      "outputs": [
        {
          "internalType": "address",
          "name": "",
          "type": "address"
        }
      ],
      "stateMutability": "view",
      "type": "function"
    },
    {
      "inputs": [],
      "name": "renounceOwnership",
      "outputs": [],
      "stateMutability": "nonpayable",
      "type": "function"
    },
    {
      "inputs": [
        {
          "internalType": "address",
          "name": "newOwner",
          "type": "address"
        }
      ],
      "name": "transferOwnership",
      "outputs": [],
      "stateMutability": "nonpayable",
      "type": "function"
    },
    {
      "inputs": [
        {
          "internalType": "address",
          "name": "newChildImplementation",
          "type": "address"
        }
      ],
      "name": "upgradeChildTo",
      "outputs": [],
      "stateMutability": "nonpayable",
      "type": "function"
    }
  ],
  "bytecode": "0x608060405234801561001057600080fd5b506109ad806100206000396000f3fe608060405234801561001057600080fd5b50600436106100625760003560e01c80631f1713fc14610067578063715018a6146100835780638da5cb5b1461008d578063da525716146100ab578063e5956027146100c9578063f2fde38b146100e5575b600080fd5b610081600480360381019061007c91906106a8565b610101565b005b61008b610189565b005b6100956102c6565b6040516100a2919061076c565b60405180910390f35b6100b36102f0565b6040516100c0919061076c565b60405180910390f35b6100e360048036038101906100de91906106a8565b61031a565b005b6100ff60048036038101906100fa91906106a8565b6103fd565b005b6101096105a9565b73ffffffffffffffffffffffffffffffffffffffff166101276102c6565b73ffffffffffffffffffffffffffffffffffffffff161461017d576040517f08c379a0000000000000000000000000000000000000000000000000000000008152600401610174906107e7565b60405180910390fd5b610186816105b1565b50565b6101916105a9565b73ffffffffffffffffffffffffffffffffffffffff166101af6102c6565b73ffffffffffffffffffffffffffffffffffffffff1614610205576040517f08c379a00000000000000000000000000000000000000000000000000000000081526004016101fc906107e7565b60405180910390fd5b600073ffffffffffffffffffffffffffffffffffffffff16603360009054906101000a900473ffffffffffffffffffffffffffffffffffffffff1673ffffffffffffffffffffffffffffffffffffffff167f8be0079c531659141344cd1fd0a4f28419497f9722a3daafe3b4186f6b6457e060405160405180910390a36000603360006101000a81548173ffffffffffffffffffffffffffffffffffffffff021916908373ffffffffffffffffffffffffffffffffffffffff160217905550565b6000603360009054906101000a900473ffffffffffffffffffffffffffffffffffffffff16905090565b6000606560009054906101000a900473ffffffffffffffffffffffffffffffffffffffff16905090565b600060019054906101000a900460ff1680610340575060008054906101000a900460ff16155b61037f576040517f08c379a0000000000000000000000000000000000000000000000000000000008152600401610376906107a7565b60405180910390fd5b60008060019054906101000a900460ff1615905080156103cf576001600060016101000a81548160ff02191690831515021790555060016000806101000a81548160ff0219169083151502179055505b6103d8826105b1565b80156103f95760008060016101000a81548160ff0219169083151502179055505b5050565b6104056105a9565b73ffffffffffffffffffffffffffffffffffffffff166104236102c6565b73ffffffffffffffffffffffffffffffffffffffff1614610479576040517f08c379a0000000000000000000000000000000000000000000000000000000008152600401610470906107e7565b60405180910390fd5b600073ffffffffffffffffffffffffffffffffffffffff168173ffffffffffffffffffffffffffffffffffffffff1614156104e9576040517f08c379a00000000000000000000000000000000000000000000000000000000081526004016104e090610787565b60405180910390fd5b8073ffffffffffffffffffffffffffffffffffffffff16603360009054906101000a900473ffffffffffffffffffffffffffffffffffffffff1673ffffffffffffffffffffffffffffffffffffffff167f8be0079c531659141344cd1fd0a4f28419497f9722a3daafe3b4186f6b6457e060405160405180910390a380603360006101000a81548173ffffffffffffffffffffffffffffffffffffffff021916908373ffffffffffffffffffffffffffffffffffffffff16021790555050565b600033905090565b6105ba81610680565b6105f9576040517f08c379a00000000000000000000000000000000000000000000000000000000081526004016105f0906107c7565b60405180910390fd5b80606560006101000a81548173ffffffffffffffffffffffffffffffffffffffff021916908373ffffffffffffffffffffffffffffffffffffffff1602179055508073ffffffffffffffffffffffffffffffffffffffff167fbc7cd75a20ee27fd9adebab32041f755214dbc6bffa90cc0225b39da2e5c2d3b60405160405180910390a250565b600080823b905060008111915050919050565b6000813590506106a281610960565b92915050565b6000602082840312156106ba57600080fd5b60006106c884828501610693565b91505092915050565b6106da81610818565b82525050565b60006106ed602683610807565b91506106f88261084a565b604082019050919050565b6000610710602e83610807565b915061071b82610899565b604082019050919050565b6000610733603983610807565b915061073e826108e8565b604082019050919050565b6000610756602083610807565b915061076182610937565b602082019050919050565b600060208201905061078160008301846106d1565b92915050565b600060208201905081810360008301526107a0816106e0565b9050919050565b600060208201905081810360008301526107c081610703565b9050919050565b600060208201905081810360008301526107e081610726565b9050919050565b6000602082019050818103600083015261080081610749565b9050919050565b600082825260208201905092915050565b60006108238261082a565b9050919050565b600073ffffffffffffffffffffffffffffffffffffffff82169050919050565b7f4f776e61626c653a206e6577206f776e657220697320746865207a65726f206160008201527f6464726573730000000000000000000000000000000000000000000000000000602082015250565b7f496e697469616c697a61626c653a20636f6e747261637420697320616c72656160008201527f647920696e697469616c697a6564000000000000000000000000000000000000602082015250565b7f5570677261646561626c65426561636f6e3a206368696c6420696d706c656d6560008201527f6e746174696f6e206973206e6f74206120636f6e747261637400000000000000602082015250565b7f4f776e61626c653a2063616c6c6572206973206e6f7420746865206f776e6572600082015250565b61096981610818565b811461097457600080fd5b5056fea264697066735822122015a220c6d1812e2d663ee0d7edbd9c8ab036e6378128c8419a160f4a60fdc15a64736f6c63430008040033",
  "linkReferences": {},
  "deployedLinkReferences": {}
}