{
  "_format": "hh-sol-artifact-1",
  "contractName": "uwucrew",
  "sourceName": "contracts/uwucrew.sol",
  "abi": [
    {
      "inputs": [
        {
          "internalType": "string",
          "name": "_name",
          "type": "string"
        },
        {
          "internalType": "string",
          "name": "_symbol",
          "type": "string"
        },
        {
          "internalType": "uint256",
          "name": "maxSupply",
          "type": "uint256"
        }
      ],
      "stateMutability": "nonpayable",
      "type": "constructor"
    },
    {
      "anonymous": false,
      "inputs": [
        {
          "indexed": true,
          "internalType": "address",
          "name": "owner",
          "type": "address"
        },
        {
          "indexed": true,
          "internalType": "address",
          "name": "approved",
          "type": "address"
        },
        {
          "indexed": true,
          "internalType": "uint256",
          "name": "tokenId",
          "type": "uint256"
        }
      ],
      "name": "Approval",
      "type": "event"
    },
    {
      "anonymous": false,
      "inputs": [
        {
          "indexed": true,
          "internalType": "address",
          "name": "owner",
          "type": "address"
        },
        {
          "indexed": true,
          "internalType": "address",
          "name": "operator",
          "type": "address"
        },
        {
          "indexed": false,
          "internalType": "bool",
          "name": "approved",
          "type": "bool"
        }
      ],
      "name": "ApprovalForAll",
      "type": "event"
    },
    {
      "anonymous": false,
      "inputs": [
        {
          "indexed": true,
          "internalType": "address",
          "name": "previousOwner",
          "type": "address"
        },
        {
          "indexed": true,
          "internalType": "address",
          "name": "newOwner",
          "type": "address"
        }
      ],
      "name": "OwnershipTransferred",
      "type": "event"
    },
    {
      "anonymous": false,
      "inputs": [
        {
          "indexed": true,
          "internalType": "address",
          "name": "from",
          "type": "address"
        },
        {
          "indexed": true,
          "internalType": "address",
          "name": "to",
          "type": "address"
        },
        {
          "indexed": true,
          "internalType": "uint256",
          "name": "tokenId",
          "type": "uint256"
        }
      ],
      "name": "Transfer",
      "type": "event"
    },
    {
      "inputs": [],
      "name": "MAX_UWU",
      "outputs": [
        {
          "internalType": "uint256",
          "name": "",
          "type": "uint256"
        }
      ],
      "stateMutability": "view",
      "type": "function"
    },
    {
      "inputs": [],
      "name": "UWU_PROVENANCE",
      "outputs": [
        {
          "internalType": "string",
          "name": "",
          "type": "string"
        }
      ],
      "stateMutability": "view",
      "type": "function"
    },
    {
      "inputs": [],
      "name": "amountToLP",
      "outputs": [
        {
          "internalType": "uint256",
          "name": "",
          "type": "uint256"
        }
      ],
      "stateMutability": "view",
      "type": "function"
    },
    {
      "inputs": [
        {
          "internalType": "address",
          "name": "to",
          "type": "address"
        },
        {
          "internalType": "uint256",
          "name": "tokenId",
          "type": "uint256"
        }
      ],
      "name": "approve",
      "outputs": [],
      "stateMutability": "nonpayable",
      "type": "function"
    },
    {
      "inputs": [
        {
          "internalType": "address",
          "name": "owner",
          "type": "address"
        }
      ],
      "name": "balanceOf",
      "outputs": [
        {
          "internalType": "uint256",
          "name": "",
          "type": "uint256"
        }
      ],
      "stateMutability": "view",
      "type": "function"
    },
    {
      "inputs": [],
      "name": "baseURI",
      "outputs": [
        {
          "internalType": "string",
          "name": "",
          "type": "string"
        }
      ],
      "stateMutability": "view",
      "type": "function"
    },
    {
      "inputs": [],
      "name": "extraContract",
      "outputs": [
        {
          "internalType": "address",
          "name": "",
          "type": "address"
        }
      ],
      "stateMutability": "view",
      "type": "function"
    },
    {
      "inputs": [
        {
          "internalType": "uint256",
          "name": "tokenId",
          "type": "uint256"
        }
      ],
      "name": "getApproved",
      "outputs": [
        {
          "internalType": "address",
          "name": "",
          "type": "address"
        }
      ],
      "stateMutability": "view",
      "type": "function"
    },
    {
      "inputs": [
        {
          "internalType": "address",
          "name": "owner",
          "type": "address"
        },
        {
          "internalType": "address",
          "name": "operator",
          "type": "address"
        }
      ],
      "name": "isApprovedForAll",
      "outputs": [
        {
          "internalType": "bool",
          "name": "",
          "type": "bool"
        }
      ],
      "stateMutability": "view",
      "type": "function"
    },
    {
      "inputs": [
        {
          "internalType": "address",
          "name": "to",
          "type": "address"
        },
        {
          "internalType": "uint256",
          "name": "tokenId",
          "type": "uint256"
        }
      ],
      "name": "mint",
      "outputs": [],
      "stateMutability": "nonpayable",
      "type": "function"
    },
    {
      "inputs": [],
      "name": "name",
      "outputs": [
        {
          "internalType": "string",
          "name": "",
          "type": "string"
        }
      ],
      "stateMutability": "view",
      "type": "function"
    },
    {
      "inputs": [
        {
          "internalType": "address",
          "name": "",
          "type": "address"
        },
        {
          "internalType": "address",
          "name": "",
          "type": "address"
        },
        {
          "internalType": "uint256",
          "name": "",
          "type": "uint256"
        },
        {
          "internalType": "bytes",
          "name": "",
          "type": "bytes"
        }
      ],
      "name": "onERC721Received",
      "outputs": [
        {
          "internalType": "bytes4",
          "name": "",
          "type": "bytes4"
        }
      ],
      "stateMutability": "nonpayable",
      "type": "function"
    },
    {
      "inputs": [],
      "name": "owner",
      "outputs": [
        {
          "internalType": "address",
          "name": "",
          "type": "address"
        }
      ],
      "stateMutability": "view",
      "type": "function"
    },
    {
      "inputs": [
        {
          "internalType": "uint256",
          "name": "tokenId",
          "type": "uint256"
        }
      ],
      "name": "ownerOf",
      "outputs": [
        {
          "internalType": "address",
          "name": "",
          "type": "address"
        }
      ],
      "stateMutability": "view",
      "type": "function"
    },
    {
      "inputs": [
        {
          "internalType": "address",
          "name": "_saleContract",
          "type": "address"
        }
      ],
      "name": "prepareSale",
      "outputs": [],
      "stateMutability": "nonpayable",
      "type": "function"
    },
    {
      "inputs": [],
      "name": "renounceOwnership",
      "outputs": [],
      "stateMutability": "nonpayable",
      "type": "function"
    },
    {
      "inputs": [],
      "name": "reserveUWUS",
      "outputs": [],
      "stateMutability": "nonpayable",
      "type": "function"
    },
    {
      "inputs": [
        {
          "internalType": "address",
          "name": "from",
          "type": "address"
        },
        {
          "internalType": "address",
          "name": "to",
          "type": "address"
        },
        {
          "internalType": "uint256",
          "name": "tokenId",
          "type": "uint256"
        }
      ],
      "name": "safeTransferFrom",
      "outputs": [],
      "stateMutability": "nonpayable",
      "type": "function"
    },
    {
      "inputs": [
        {
          "internalType": "address",
          "name": "from",
          "type": "address"
        },
        {
          "internalType": "address",
          "name": "to",
          "type": "address"
        },
        {
          "internalType": "uint256",
          "name": "tokenId",
          "type": "uint256"
        },
        {
          "internalType": "bytes",
          "name": "_data",
          "type": "bytes"
        }
      ],
      "name": "safeTransferFrom",
      "outputs": [],
      "stateMutability": "nonpayable",
      "type": "function"
    },
    {
      "inputs": [],
      "name": "saleContract",
      "outputs": [
        {
          "internalType": "address",
          "name": "",
          "type": "address"
        }
      ],
      "stateMutability": "view",
      "type": "function"
    },
    {
      "inputs": [
        {
          "internalType": "address",
          "name": "operator",
          "type": "address"
        },
        {
          "internalType": "bool",
          "name": "approved",
          "type": "bool"
        }
      ],
      "name": "setApprovalForAll",
      "outputs": [],
      "stateMutability": "nonpayable",
      "type": "function"
    },
    {
      "inputs": [
        {
          "internalType": "string",
          "name": "newURI",
          "type": "string"
        }
      ],
      "name": "setBaseURI",
      "outputs": [],
      "stateMutability": "nonpayable",
      "type": "function"
    },
    {
      "inputs": [
        {
          "internalType": "address",
          "name": "_extraContract",
          "type": "address"
        }
      ],
      "name": "setExtraContract",
      "outputs": [],
      "stateMutability": "nonpayable",
      "type": "function"
    },
    {
      "inputs": [
        {
          "internalType": "string",
          "name": "provenanceHash",
          "type": "string"
        }
      ],
      "name": "setProvenanceHash",
      "outputs": [],
      "stateMutability": "nonpayable",
      "type": "function"
    },
    {
      "inputs": [
        {
          "internalType": "bytes4",
          "name": "interfaceId",
          "type": "bytes4"
        }
      ],
      "name": "supportsInterface",
      "outputs": [
        {
          "internalType": "bool",
          "name": "",
          "type": "bool"
        }
      ],
      "stateMutability": "view",
      "type": "function"
    },
    {
      "inputs": [],
      "name": "symbol",
      "outputs": [
        {
          "internalType": "string",
          "name": "",
          "type": "string"
        }
      ],
      "stateMutability": "view",
      "type": "function"
    },
    {
      "inputs": [
        {
          "internalType": "uint256",
          "name": "index",
          "type": "uint256"
        }
      ],
      "name": "tokenByIndex",
      "outputs": [
        {
          "internalType": "uint256",
          "name": "",
          "type": "uint256"
        }
      ],
      "stateMutability": "view",
      "type": "function"
    },
    {
      "inputs": [
        {
          "internalType": "address",
          "name": "owner",
          "type": "address"
        },
        {
          "internalType": "uint256",
          "name": "index",
          "type": "uint256"
        }
      ],
      "name": "tokenOfOwnerByIndex",
      "outputs": [
        {
          "internalType": "uint256",
          "name": "",
          "type": "uint256"
        }
      ],
      "stateMutability": "view",
      "type": "function"
    },
    {
      "inputs": [
        {
          "internalType": "uint256",
          "name": "tokenId",
          "type": "uint256"
        }
      ],
      "name": "tokenURI",
      "outputs": [
        {
          "internalType": "string",
          "name": "",
          "type": "string"
        }
      ],
      "stateMutability": "view",
      "type": "function"
    },
    {
      "inputs": [],
      "name": "totalSupply",
      "outputs": [
        {
          "internalType": "uint256",
          "name": "",
          "type": "uint256"
        }
      ],
      "stateMutability": "view",
      "type": "function"
    },
    {
      "inputs": [
        {
          "internalType": "address",
          "name": "from",
          "type": "address"
        },
        {
          "internalType": "address",
          "name": "to",
          "type": "address"
        },
        {
          "internalType": "uint256",
          "name": "tokenId",
          "type": "uint256"
        }
      ],
      "name": "transferFrom",
      "outputs": [],
      "stateMutability": "nonpayable",
      "type": "function"
    },
    {
      "inputs": [
        {
          "internalType": "address",
          "name": "newOwner",
          "type": "address"
        }
      ],
      "name": "transferOwnership",
      "outputs": [],
      "stateMutability": "nonpayable",
      "type": "function"
    }
  ],
  "bytecode": "0x60a060405260405180602001604052806000815250600e90805190602001906200002b9291906200015e565b503480156200003957600080fd5b506040516200449c3803806200449c83398181016040528101906200005f919062000297565b82826000620000736200015660201b60201c565b9050806000806101000a81548173ffffffffffffffffffffffffffffffffffffffff021916908373ffffffffffffffffffffffffffffffffffffffff1602179055508073ffffffffffffffffffffffffffffffffffffffff16600073ffffffffffffffffffffffffffffffffffffffff167f8be0079c531659141344cd1fd0a4f28419497f9722a3daafe3b4186f6b6457e060405160405180910390a3508160019080519060200190620001299291906200015e565b508060029080519060200190620001429291906200015e565b5050508060808181525050505050620004b3565b600033905090565b8280546200016c90620003be565b90600052602060002090601f016020900481019282620001905760008555620001dc565b82601f10620001ab57805160ff1916838001178555620001dc565b82800160010185558215620001dc579182015b82811115620001db578251825591602001919060010190620001be565b5b509050620001eb9190620001ef565b5090565b5b808211156200020a576000816000905550600101620001f0565b5090565b6000620002256200021f8462000348565b6200031f565b9050828152602081018484840111156200023e57600080fd5b6200024b84828562000388565b509392505050565b600082601f8301126200026557600080fd5b8151620002778482602086016200020e565b91505092915050565b600081519050620002918162000499565b92915050565b600080600060608486031215620002ad57600080fd5b600084015167ffffffffffffffff811115620002c857600080fd5b620002d68682870162000253565b935050602084015167ffffffffffffffff811115620002f457600080fd5b620003028682870162000253565b9250506040620003158682870162000280565b9150509250925092565b60006200032b6200033e565b9050620003398282620003f4565b919050565b6000604051905090565b600067ffffffffffffffff82111562000366576200036562000459565b5b620003718262000488565b9050602081019050919050565b6000819050919050565b60005b83811015620003a85780820151818401526020810190506200038b565b83811115620003b8576000848401525b50505050565b60006002820490506001821680620003d757607f821691505b60208210811415620003ee57620003ed6200042a565b5b50919050565b620003ff8262000488565b810181811067ffffffffffffffff8211171562000421576200042062000459565b5b80604052505050565b7f4e487b7100000000000000000000000000000000000000000000000000000000600052602260045260246000fd5b7f4e487b7100000000000000000000000000000000000000000000000000000000600052604160045260246000fd5b6000601f19601f8301169050919050565b620004a4816200037e565b8114620004b057600080fd5b50565b608051613fc6620004d6600039600081816117100152611eba0152613fc66000f3fe608060405234801561001057600080fd5b50600436106101f05760003560e01c80636352211e1161010f578063c5d67d54116100a2578063daf6ca3011610071578063daf6ca3014610591578063dd1a29f3146105af578063e985e9c5146105cd578063f2fde38b146105fd576101f0565b8063c5d67d541461051d578063c87b56dd14610539578063ce66440b14610569578063d3bab94814610587576101f0565b80638da5cb5b116100de5780638da5cb5b146104a957806395d89b41146104c7578063a22cb465146104e5578063b88d4fde14610501576101f0565b80636352211e146104215780636c0360eb1461045157806370a082311461046f578063715018a61461049f576101f0565b806320adb2681161018757806342842e0e1161015657806342842e0e1461039d5780634f6ccce7146103b957806355f804b3146103e9578063597d865314610405576101f0565b806320adb2681461031757806323b872dd146103355780632f745c591461035157806340c10f1914610381576101f0565b806310969523116101c3578063109695231461028f578063150b7a02146102ab57806318160ddd146102db57806318fad86a146102f9576101f0565b806301ffc9a7146101f557806306fdde0314610225578063081812fc14610243578063095ea7b314610273575b600080fd5b61020f600480360381019061020a9190612e32565b610619565b60405161021c9190613314565b60405180910390f35b61022d610693565b60405161023a919061334a565b60405180910390f35b61025d60048036038101906102589190612ec5565b610725565b60405161026a91906132ad565b60405180910390f35b61028d60048036038101906102889190612df6565b6107aa565b005b6102a960048036038101906102a49190612e84565b6108c2565b005b6102c560048036038101906102c09190612d3f565b610958565b6040516102d2919061332f565b60405180910390f35b6102e361096c565b6040516102f091906135ec565b60405180910390f35b610301610979565b60405161030e91906135ec565b60405180910390f35b61031f61097f565b60405161032c919061334a565b60405180910390f35b61034f600480360381019061034a9190612cf0565b610a0d565b005b61036b60048036038101906103669190612df6565b610a6d565b60405161037891906135ec565b60405180910390f35b61039b60048036038101906103969190612df6565b610b12565b005b6103b760048036038101906103b29190612cf0565b610c08565b005b6103d360048036038101906103ce9190612ec5565b610c28565b6040516103e091906135ec565b60405180910390f35b61040360048036038101906103fe9190612e84565b610cbf565b005b61041f600480360381019061041a9190612c8b565b610d55565b005b61043b60048036038101906104369190612ec5565b610e70565b60405161044891906132ad565b60405180910390f35b610459610f22565b604051610466919061334a565b60405180910390f35b61048960048036038101906104849190612c8b565b610fb0565b60405161049691906135ec565b60405180910390f35b6104a7611068565b005b6104b16111a2565b6040516104be91906132ad565b60405180910390f35b6104cf6111cb565b6040516104dc919061334a565b60405180910390f35b6104ff60048036038101906104fa9190612dba565b61125d565b005b61051b60048036038101906105169190612d3f565b6113de565b005b61053760048036038101906105329190612c8b565b611440565b005b610553600480360381019061054e9190612ec5565b61155b565b604051610560919061334a565b60405180910390f35b610571611602565b60405161057e91906132ad565b60405180910390f35b61058f611628565b005b6105996116e8565b6040516105a691906132ad565b60405180910390f35b6105b761170e565b6040516105c491906135ec565b60405180910390f35b6105e760048036038101906105e29190612cb4565b611732565b6040516105f49190613314565b60405180910390f35b61061760048036038101906106129190612c8b565b6117c6565b005b60007f780e9d63000000000000000000000000000000000000000000000000000000007bffffffffffffffffffffffffffffffffffffffffffffffffffffffff1916827bffffffffffffffffffffffffffffffffffffffffffffffffffffffff1916148061068c575061068b8261196f565b5b9050919050565b6060600180546106a290613842565b80601f01602080910402602001604051908101604052809291908181526020018280546106ce90613842565b801561071b5780601f106106f05761010080835404028352916020019161071b565b820191906000526020600020905b8154815290600101906020018083116106fe57829003601f168201915b5050505050905090565b600061073082611a51565b61076f576040517f08c379a0000000000000000000000000000000000000000000000000000000008152600401610766906134ec565b60405180910390fd5b6005600083815260200190815260200160002060009054906101000a900473ffffffffffffffffffffffffffffffffffffffff169050919050565b60006107b582610e70565b90508073ffffffffffffffffffffffffffffffffffffffff168373ffffffffffffffffffffffffffffffffffffffff161415610826576040517f08c379a000000000000000000000000000000000000000000000000000000000815260040161081d9061356c565b60405180910390fd5b8073ffffffffffffffffffffffffffffffffffffffff16610845611abd565b73ffffffffffffffffffffffffffffffffffffffff16148061087457506108738161086e611abd565b611732565b5b6108b3576040517f08c379a00000000000000000000000000000000000000000000000000000000081526004016108aa9061346c565b60405180910390fd5b6108bd8383611ac5565b505050565b6108ca611abd565b73ffffffffffffffffffffffffffffffffffffffff166108e86111a2565b73ffffffffffffffffffffffffffffffffffffffff161461093e576040517f08c379a00000000000000000000000000000000000000000000000000000000081526004016109359061350c565b60405180910390fd5b80600e9080519060200190610954929190612aaf565b5050565b600063150b7a0260e01b9050949350505050565b6000600980549050905090565b600d5481565b600e805461098c90613842565b80601f01602080910402602001604051908101604052809291908181526020018280546109b890613842565b8015610a055780601f106109da57610100808354040283529160200191610a05565b820191906000526020600020905b8154815290600101906020018083116109e857829003601f168201915b505050505081565b610a1e610a18611abd565b82611b7e565b610a5d576040517f08c379a0000000000000000000000000000000000000000000000000000000008152600401610a549061358c565b60405180910390fd5b610a68838383611c5c565b505050565b6000610a7883610fb0565b8210610ab9576040517f08c379a0000000000000000000000000000000000000000000000000000000008152600401610ab09061336c565b60405180910390fd5b600760008473ffffffffffffffffffffffffffffffffffffffff1673ffffffffffffffffffffffffffffffffffffffff168152602001908152602001600020600083815260200190815260200160002054905092915050565b600b60009054906101000a900473ffffffffffffffffffffffffffffffffffffffff1673ffffffffffffffffffffffffffffffffffffffff163373ffffffffffffffffffffffffffffffffffffffff161480610bbb5750600c60009054906101000a900473ffffffffffffffffffffffffffffffffffffffff1673ffffffffffffffffffffffffffffffffffffffff163373ffffffffffffffffffffffffffffffffffffffff16145b610bfa576040517f08c379a0000000000000000000000000000000000000000000000000000000008152600401610bf1906135cc565b60405180910390fd5b610c048282611eb8565b5050565b610c23838383604051806020016040528060008152506113de565b505050565b6000610c3261096c565b8210610c73576040517f08c379a0000000000000000000000000000000000000000000000000000000008152600401610c6a906135ac565b60405180910390fd5b60098281548110610cad577f4e487b7100000000000000000000000000000000000000000000000000000000600052603260045260246000fd5b90600052602060002001549050919050565b610cc7611abd565b73ffffffffffffffffffffffffffffffffffffffff16610ce56111a2565b73ffffffffffffffffffffffffffffffffffffffff1614610d3b576040517f08c379a0000000000000000000000000000000000000000000000000000000008152600401610d329061350c565b60405180910390fd5b80600f9080519060200190610d51929190612aaf565b5050565b610d5d611abd565b73ffffffffffffffffffffffffffffffffffffffff16610d7b6111a2565b73ffffffffffffffffffffffffffffffffffffffff1614610dd1576040517f08c379a0000000000000000000000000000000000000000000000000000000008152600401610dc89061350c565b60405180910390fd5b600073ffffffffffffffffffffffffffffffffffffffff16600c60009054906101000a900473ffffffffffffffffffffffffffffffffffffffff1673ffffffffffffffffffffffffffffffffffffffff1614610e2c57600080fd5b80600c60006101000a81548173ffffffffffffffffffffffffffffffffffffffff021916908373ffffffffffffffffffffffffffffffffffffffff16021790555050565b6000806003600084815260200190815260200160002060009054906101000a900473ffffffffffffffffffffffffffffffffffffffff169050600073ffffffffffffffffffffffffffffffffffffffff168173ffffffffffffffffffffffffffffffffffffffff161415610f19576040517f08c379a0000000000000000000000000000000000000000000000000000000008152600401610f10906134ac565b60405180910390fd5b80915050919050565b600f8054610f2f90613842565b80601f0160208091040260200160405190810160405280929190818152602001828054610f5b90613842565b8015610fa85780601f10610f7d57610100808354040283529160200191610fa8565b820191906000526020600020905b815481529060010190602001808311610f8b57829003601f168201915b505050505081565b60008073ffffffffffffffffffffffffffffffffffffffff168273ffffffffffffffffffffffffffffffffffffffff161415611021576040517f08c379a00000000000000000000000000000000000000000000000000000000081526004016110189061348c565b60405180910390fd5b600460008373ffffffffffffffffffffffffffffffffffffffff1673ffffffffffffffffffffffffffffffffffffffff168152602001908152602001600020549050919050565b611070611abd565b73ffffffffffffffffffffffffffffffffffffffff1661108e6111a2565b73ffffffffffffffffffffffffffffffffffffffff16146110e4576040517f08c379a00000000000000000000000000000000000000000000000000000000081526004016110db9061350c565b60405180910390fd5b600073ffffffffffffffffffffffffffffffffffffffff1660008054906101000a900473ffffffffffffffffffffffffffffffffffffffff1673ffffffffffffffffffffffffffffffffffffffff167f8be0079c531659141344cd1fd0a4f28419497f9722a3daafe3b4186f6b6457e060405160405180910390a360008060006101000a81548173ffffffffffffffffffffffffffffffffffffffff021916908373ffffffffffffffffffffffffffffffffffffffff160217905550565b60008060009054906101000a900473ffffffffffffffffffffffffffffffffffffffff16905090565b6060600280546111da90613842565b80601f016020809104026020016040519081016040528092919081815260200182805461120690613842565b80156112535780601f1061122857610100808354040283529160200191611253565b820191906000526020600020905b81548152906001019060200180831161123657829003601f168201915b5050505050905090565b611265611abd565b73ffffffffffffffffffffffffffffffffffffffff168273ffffffffffffffffffffffffffffffffffffffff1614156112d3576040517f08c379a00000000000000000000000000000000000000000000000000000000081526004016112ca9061340c565b60405180910390fd5b80600660006112e0611abd565b73ffffffffffffffffffffffffffffffffffffffff1673ffffffffffffffffffffffffffffffffffffffff16815260200190815260200160002060008473ffffffffffffffffffffffffffffffffffffffff1673ffffffffffffffffffffffffffffffffffffffff16815260200190815260200160002060006101000a81548160ff0219169083151502179055508173ffffffffffffffffffffffffffffffffffffffff1661138d611abd565b73ffffffffffffffffffffffffffffffffffffffff167f17307eab39ab6107e8899845ad3d59bd9653f200f220920489ca2b5937696c31836040516113d29190613314565b60405180910390a35050565b6113ef6113e9611abd565b83611b7e565b61142e576040517f08c379a00000000000000000000000000000000000000000000000000000000081526004016114259061358c565b60405180910390fd5b61143a84848484611f28565b50505050565b611448611abd565b73ffffffffffffffffffffffffffffffffffffffff166114666111a2565b73ffffffffffffffffffffffffffffffffffffffff16146114bc576040517f08c379a00000000000000000000000000000000000000000000000000000000081526004016114b39061350c565b60405180910390fd5b600073ffffffffffffffffffffffffffffffffffffffff16600b60009054906101000a900473ffffffffffffffffffffffffffffffffffffffff1673ffffffffffffffffffffffffffffffffffffffff161461151757600080fd5b80600b60006101000a81548173ffffffffffffffffffffffffffffffffffffffff021916908373ffffffffffffffffffffffffffffffffffffffff16021790555050565b606061156682611a51565b6115a5576040517f08c379a000000000000000000000000000000000000000000000000000000000815260040161159c9061354c565b60405180910390fd5b60006115af611f84565b905060008151116115cf57604051806020016040528060008152506115fa565b806115d984612016565b6040516020016115ea929190613289565b6040516020818303038152906040525b915050919050565b600c60009054906101000a900473ffffffffffffffffffffffffffffffffffffffff1681565b611630611abd565b73ffffffffffffffffffffffffffffffffffffffff1661164e6111a2565b73ffffffffffffffffffffffffffffffffffffffff16146116a4576040517f08c379a000000000000000000000000000000000000000000000000000000000815260040161169b9061350c565b60405180910390fd5b60006116ae61096c565b905060005b60328110156116e4576116d13382846116cc91906136d1565b611eb8565b80806116dc906138a5565b9150506116b3565b5050565b600b60009054906101000a900473ffffffffffffffffffffffffffffffffffffffff1681565b7f000000000000000000000000000000000000000000000000000000000000000081565b6000600660008473ffffffffffffffffffffffffffffffffffffffff1673ffffffffffffffffffffffffffffffffffffffff16815260200190815260200160002060008373ffffffffffffffffffffffffffffffffffffffff1673ffffffffffffffffffffffffffffffffffffffff16815260200190815260200160002060009054906101000a900460ff16905092915050565b6117ce611abd565b73ffffffffffffffffffffffffffffffffffffffff166117ec6111a2565b73ffffffffffffffffffffffffffffffffffffffff1614611842576040517f08c379a00000000000000000000000000000000000000000000000000000000081526004016118399061350c565b60405180910390fd5b600073ffffffffffffffffffffffffffffffffffffffff168173ffffffffffffffffffffffffffffffffffffffff1614156118b2576040517f08c379a00000000000000000000000000000000000000000000000000000000081526004016118a9906133ac565b60405180910390fd5b8073ffffffffffffffffffffffffffffffffffffffff1660008054906101000a900473ffffffffffffffffffffffffffffffffffffffff1673ffffffffffffffffffffffffffffffffffffffff167f8be0079c531659141344cd1fd0a4f28419497f9722a3daafe3b4186f6b6457e060405160405180910390a3806000806101000a81548173ffffffffffffffffffffffffffffffffffffffff021916908373ffffffffffffffffffffffffffffffffffffffff16021790555050565b60007f80ac58cd000000000000000000000000000000000000000000000000000000007bffffffffffffffffffffffffffffffffffffffffffffffffffffffff1916827bffffffffffffffffffffffffffffffffffffffffffffffffffffffff19161480611a3a57507f5b5e139f000000000000000000000000000000000000000000000000000000007bffffffffffffffffffffffffffffffffffffffffffffffffffffffff1916827bffffffffffffffffffffffffffffffffffffffffffffffffffffffff1916145b80611a4a5750611a49826121c3565b5b9050919050565b60008073ffffffffffffffffffffffffffffffffffffffff166003600084815260200190815260200160002060009054906101000a900473ffffffffffffffffffffffffffffffffffffffff1673ffffffffffffffffffffffffffffffffffffffff1614159050919050565b600033905090565b816005600083815260200190815260200160002060006101000a81548173ffffffffffffffffffffffffffffffffffffffff021916908373ffffffffffffffffffffffffffffffffffffffff160217905550808273ffffffffffffffffffffffffffffffffffffffff16611b3883610e70565b73ffffffffffffffffffffffffffffffffffffffff167f8c5be1e5ebec7d5bd14f71427d1e84f3dd0314c0f7b2291e5b200ac8c7c3b92560405160405180910390a45050565b6000611b8982611a51565b611bc8576040517f08c379a0000000000000000000000000000000000000000000000000000000008152600401611bbf9061342c565b60405180910390fd5b6000611bd383610e70565b90508073ffffffffffffffffffffffffffffffffffffffff168473ffffffffffffffffffffffffffffffffffffffff161480611c4257508373ffffffffffffffffffffffffffffffffffffffff16611c2a84610725565b73ffffffffffffffffffffffffffffffffffffffff16145b80611c535750611c528185611732565b5b91505092915050565b8273ffffffffffffffffffffffffffffffffffffffff16611c7c82610e70565b73ffffffffffffffffffffffffffffffffffffffff1614611cd2576040517f08c379a0000000000000000000000000000000000000000000000000000000008152600401611cc99061352c565b60405180910390fd5b600073ffffffffffffffffffffffffffffffffffffffff168273ffffffffffffffffffffffffffffffffffffffff161415611d42576040517f08c379a0000000000000000000000000000000000000000000000000000000008152600401611d39906133ec565b60405180910390fd5b611d4d83838361222d565b611d58600082611ac5565b6001600460008573ffffffffffffffffffffffffffffffffffffffff1673ffffffffffffffffffffffffffffffffffffffff1681526020019081526020016000206000828254611da89190613758565b925050819055506001600460008473ffffffffffffffffffffffffffffffffffffffff1673ffffffffffffffffffffffffffffffffffffffff1681526020019081526020016000206000828254611dff91906136d1565b92505081905550816003600083815260200190815260200160002060006101000a81548173ffffffffffffffffffffffffffffffffffffffff021916908373ffffffffffffffffffffffffffffffffffffffff160217905550808273ffffffffffffffffffffffffffffffffffffffff168473ffffffffffffffffffffffffffffffffffffffff167fddf252ad1be2c89b69c2b068fc378daa952ba7f163c4a11628f55a4df523b3ef60405160405180910390a4505050565b7f00000000000000000000000000000000000000000000000000000000000000008110611f1a576040517f08c379a0000000000000000000000000000000000000000000000000000000008152600401611f119061344c565b60405180910390fd5b611f248282612341565b5050565b611f33848484611c5c565b611f3f8484848461235f565b611f7e576040517f08c379a0000000000000000000000000000000000000000000000000000000008152600401611f759061338c565b60405180910390fd5b50505050565b6060600f8054611f9390613842565b80601f0160208091040260200160405190810160405280929190818152602001828054611fbf90613842565b801561200c5780601f10611fe15761010080835404028352916020019161200c565b820191906000526020600020905b815481529060010190602001808311611fef57829003601f168201915b5050505050905090565b6060600082141561205e576040518060400160405280600181526020017f300000000000000000000000000000000000000000000000000000000000000081525090506121be565b600082905060005b60008214612090578080612079906138a5565b915050600a826120899190613727565b9150612066565b60008167ffffffffffffffff8111156120d2577f4e487b7100000000000000000000000000000000000000000000000000000000600052604160045260246000fd5b6040519080825280601f01601f1916602001820160405280156121045781602001600182028036833780820191505090505b5090505b600085146121b75760018261211d9190613758565b9150600a8561212c91906138ee565b603061213891906136d1565b60f81b818381518110612174577f4e487b7100000000000000000000000000000000000000000000000000000000600052603260045260246000fd5b60200101907effffffffffffffffffffffffffffffffffffffffffffffffffffffffffffff1916908160001a905350600a856121b09190613727565b9450612108565b8093505050505b919050565b60007f01ffc9a7000000000000000000000000000000000000000000000000000000007bffffffffffffffffffffffffffffffffffffffffffffffffffffffff1916827bffffffffffffffffffffffffffffffffffffffffffffffffffffffff1916149050919050565b6122388383836124f6565b600073ffffffffffffffffffffffffffffffffffffffff168373ffffffffffffffffffffffffffffffffffffffff16141561227b57612276816124fb565b6122ba565b8173ffffffffffffffffffffffffffffffffffffffff168373ffffffffffffffffffffffffffffffffffffffff16146122b9576122b88382612544565b5b5b600073ffffffffffffffffffffffffffffffffffffffff168273ffffffffffffffffffffffffffffffffffffffff1614156122fd576122f8816126b1565b61233c565b8273ffffffffffffffffffffffffffffffffffffffff168273ffffffffffffffffffffffffffffffffffffffff161461233b5761233a82826127f4565b5b5b505050565b61235b828260405180602001604052806000815250612873565b5050565b60006123808473ffffffffffffffffffffffffffffffffffffffff166128ce565b156124e9578373ffffffffffffffffffffffffffffffffffffffff1663150b7a026123a9611abd565b8786866040518563ffffffff1660e01b81526004016123cb94939291906132c8565b602060405180830381600087803b1580156123e557600080fd5b505af192505050801561241657506040513d601f19601f820116820180604052508101906124139190612e5b565b60015b612499573d8060008114612446576040519150601f19603f3d011682016040523d82523d6000602084013e61244b565b606091505b50600081511415612491576040517f08c379a00000000000000000000000000000000000000000000000000000000081526004016124889061338c565b60405180910390fd5b805181602001fd5b63150b7a0260e01b7bffffffffffffffffffffffffffffffffffffffffffffffffffffffff1916817bffffffffffffffffffffffffffffffffffffffffffffffffffffffff1916149150506124ee565b600190505b949350505050565b505050565b600980549050600a600083815260200190815260200160002081905550600981908060018154018082558091505060019003906000526020600020016000909190919091505550565b6000600161255184610fb0565b61255b9190613758565b9050600060086000848152602001908152602001600020549050818114612640576000600760008673ffffffffffffffffffffffffffffffffffffffff1673ffffffffffffffffffffffffffffffffffffffff168152602001908152602001600020600084815260200190815260200160002054905080600760008773ffffffffffffffffffffffffffffffffffffffff1673ffffffffffffffffffffffffffffffffffffffff168152602001908152602001600020600084815260200190815260200160002081905550816008600083815260200190815260200160002081905550505b6008600084815260200190815260200160002060009055600760008573ffffffffffffffffffffffffffffffffffffffff1673ffffffffffffffffffffffffffffffffffffffff16815260200190815260200160002060008381526020019081526020016000206000905550505050565b600060016009805490506126c59190613758565b90506000600a600084815260200190815260200160002054905060006009838154811061271b577f4e487b7100000000000000000000000000000000000000000000000000000000600052603260045260246000fd5b906000526020600020015490508060098381548110612763577f4e487b7100000000000000000000000000000000000000000000000000000000600052603260045260246000fd5b906000526020600020018190555081600a600083815260200190815260200160002081905550600a60008581526020019081526020016000206000905560098054806127d8577f4e487b7100000000000000000000000000000000000000000000000000000000600052603160045260246000fd5b6001900381819060005260206000200160009055905550505050565b60006127ff83610fb0565b905081600760008573ffffffffffffffffffffffffffffffffffffffff1673ffffffffffffffffffffffffffffffffffffffff168152602001908152602001600020600083815260200190815260200160002081905550806008600084815260200190815260200160002081905550505050565b61287d83836128e1565b61288a600084848461235f565b6128c9576040517f08c379a00000000000000000000000000000000000000000000000000000000081526004016128c09061338c565b60405180910390fd5b505050565b600080823b905060008111915050919050565b600073ffffffffffffffffffffffffffffffffffffffff168273ffffffffffffffffffffffffffffffffffffffff161415612951576040517f08c379a0000000000000000000000000000000000000000000000000000000008152600401612948906134cc565b60405180910390fd5b61295a81611a51565b1561299a576040517f08c379a0000000000000000000000000000000000000000000000000000000008152600401612991906133cc565b60405180910390fd5b6129a66000838361222d565b6001600460008473ffffffffffffffffffffffffffffffffffffffff1673ffffffffffffffffffffffffffffffffffffffff16815260200190815260200160002060008282546129f691906136d1565b92505081905550816003600083815260200190815260200160002060006101000a81548173ffffffffffffffffffffffffffffffffffffffff021916908373ffffffffffffffffffffffffffffffffffffffff160217905550808273ffffffffffffffffffffffffffffffffffffffff16600073ffffffffffffffffffffffffffffffffffffffff167fddf252ad1be2c89b69c2b068fc378daa952ba7f163c4a11628f55a4df523b3ef60405160405180910390a45050565b828054612abb90613842565b90600052602060002090601f016020900481019282612add5760008555612b24565b82601f10612af657805160ff1916838001178555612b24565b82800160010185558215612b24579182015b82811115612b23578251825591602001919060010190612b08565b5b509050612b319190612b35565b5090565b5b80821115612b4e576000816000905550600101612b36565b5090565b6000612b65612b608461362c565b613607565b905082815260208101848484011115612b7d57600080fd5b612b88848285613800565b509392505050565b6000612ba3612b9e8461365d565b613607565b905082815260208101848484011115612bbb57600080fd5b612bc6848285613800565b509392505050565b600081359050612bdd81613f34565b92915050565b600081359050612bf281613f4b565b92915050565b600081359050612c0781613f62565b92915050565b600081519050612c1c81613f62565b92915050565b600082601f830112612c3357600080fd5b8135612c43848260208601612b52565b91505092915050565b600082601f830112612c5d57600080fd5b8135612c6d848260208601612b90565b91505092915050565b600081359050612c8581613f79565b92915050565b600060208284031215612c9d57600080fd5b6000612cab84828501612bce565b91505092915050565b60008060408385031215612cc757600080fd5b6000612cd585828601612bce565b9250506020612ce685828601612bce565b9150509250929050565b600080600060608486031215612d0557600080fd5b6000612d1386828701612bce565b9350506020612d2486828701612bce565b9250506040612d3586828701612c76565b9150509250925092565b60008060008060808587031215612d5557600080fd5b6000612d6387828801612bce565b9450506020612d7487828801612bce565b9350506040612d8587828801612c76565b925050606085013567ffffffffffffffff811115612da257600080fd5b612dae87828801612c22565b91505092959194509250565b60008060408385031215612dcd57600080fd5b6000612ddb85828601612bce565b9250506020612dec85828601612be3565b9150509250929050565b60008060408385031215612e0957600080fd5b6000612e1785828601612bce565b9250506020612e2885828601612c76565b9150509250929050565b600060208284031215612e4457600080fd5b6000612e5284828501612bf8565b91505092915050565b600060208284031215612e6d57600080fd5b6000612e7b84828501612c0d565b91505092915050565b600060208284031215612e9657600080fd5b600082013567ffffffffffffffff811115612eb057600080fd5b612ebc84828501612c4c565b91505092915050565b600060208284031215612ed757600080fd5b6000612ee584828501612c76565b91505092915050565b612ef78161378c565b82525050565b612f068161379e565b82525050565b612f15816137aa565b82525050565b6000612f268261368e565b612f3081856136a4565b9350612f4081856020860161380f565b612f49816139db565b840191505092915050565b6000612f5f82613699565b612f6981856136b5565b9350612f7981856020860161380f565b612f82816139db565b840191505092915050565b6000612f9882613699565b612fa281856136c6565b9350612fb281856020860161380f565b80840191505092915050565b6000612fcb602b836136b5565b9150612fd6826139ec565b604082019050919050565b6000612fee6032836136b5565b9150612ff982613a3b565b604082019050919050565b60006130116026836136b5565b915061301c82613a8a565b604082019050919050565b6000613034601c836136b5565b915061303f82613ad9565b602082019050919050565b60006130576024836136b5565b915061306282613b02565b604082019050919050565b600061307a6019836136b5565b915061308582613b51565b602082019050919050565b600061309d602c836136b5565b91506130a882613b7a565b604082019050919050565b60006130c0600a836136b5565b91506130cb82613bc9565b602082019050919050565b60006130e36038836136b5565b91506130ee82613bf2565b604082019050919050565b6000613106602a836136b5565b915061311182613c41565b604082019050919050565b60006131296029836136b5565b915061313482613c90565b604082019050919050565b600061314c6020836136b5565b915061315782613cdf565b602082019050919050565b600061316f602c836136b5565b915061317a82613d08565b604082019050919050565b60006131926020836136b5565b915061319d82613d57565b602082019050919050565b60006131b56029836136b5565b91506131c082613d80565b604082019050919050565b60006131d8602f836136b5565b91506131e382613dcf565b604082019050919050565b60006131fb6021836136b5565b915061320682613e1e565b604082019050919050565b600061321e6031836136b5565b915061322982613e6d565b604082019050919050565b6000613241602c836136b5565b915061324c82613ebc565b604082019050919050565b6000613264600c836136b5565b915061326f82613f0b565b602082019050919050565b613283816137f6565b82525050565b60006132958285612f8d565b91506132a18284612f8d565b91508190509392505050565b60006020820190506132c26000830184612eee565b92915050565b60006080820190506132dd6000830187612eee565b6132ea6020830186612eee565b6132f7604083018561327a565b81810360608301526133098184612f1b565b905095945050505050565b60006020820190506133296000830184612efd565b92915050565b60006020820190506133446000830184612f0c565b92915050565b600060208201905081810360008301526133648184612f54565b905092915050565b6000602082019050818103600083015261338581612fbe565b9050919050565b600060208201905081810360008301526133a581612fe1565b9050919050565b600060208201905081810360008301526133c581613004565b9050919050565b600060208201905081810360008301526133e581613027565b9050919050565b600060208201905081810360008301526134058161304a565b9050919050565b600060208201905081810360008301526134258161306d565b9050919050565b6000602082019050818103600083015261344581613090565b9050919050565b60006020820190508181036000830152613465816130b3565b9050919050565b60006020820190508181036000830152613485816130d6565b9050919050565b600060208201905081810360008301526134a5816130f9565b9050919050565b600060208201905081810360008301526134c58161311c565b9050919050565b600060208201905081810360008301526134e58161313f565b9050919050565b6000602082019050818103600083015261350581613162565b9050919050565b6000602082019050818103600083015261352581613185565b9050919050565b60006020820190508181036000830152613545816131a8565b9050919050565b60006020820190508181036000830152613565816131cb565b9050919050565b60006020820190508181036000830152613585816131ee565b9050919050565b600060208201905081810360008301526135a581613211565b9050919050565b600060208201905081810360008301526135c581613234565b9050919050565b600060208201905081810360008301526135e581613257565b9050919050565b6000602082019050613601600083018461327a565b92915050565b6000613611613622565b905061361d8282613874565b919050565b6000604051905090565b600067ffffffffffffffff821115613647576136466139ac565b5b613650826139db565b9050602081019050919050565b600067ffffffffffffffff821115613678576136776139ac565b5b613681826139db565b9050602081019050919050565b600081519050919050565b600081519050919050565b600082825260208201905092915050565b600082825260208201905092915050565b600081905092915050565b60006136dc826137f6565b91506136e7836137f6565b9250827fffffffffffffffffffffffffffffffffffffffffffffffffffffffffffffffff0382111561371c5761371b61391f565b5b828201905092915050565b6000613732826137f6565b915061373d836137f6565b92508261374d5761374c61394e565b5b828204905092915050565b6000613763826137f6565b915061376e836137f6565b9250828210156137815761378061391f565b5b828203905092915050565b6000613797826137d6565b9050919050565b60008115159050919050565b60007fffffffff0000000000000000000000000000000000000000000000000000000082169050919050565b600073ffffffffffffffffffffffffffffffffffffffff82169050919050565b6000819050919050565b82818337600083830152505050565b60005b8381101561382d578082015181840152602081019050613812565b8381111561383c576000848401525b50505050565b6000600282049050600182168061385a57607f821691505b6020821081141561386e5761386d61397d565b5b50919050565b61387d826139db565b810181811067ffffffffffffffff8211171561389c5761389b6139ac565b5b80604052505050565b60006138b0826137f6565b91507fffffffffffffffffffffffffffffffffffffffffffffffffffffffffffffffff8214156138e3576138e261391f565b5b600182019050919050565b60006138f9826137f6565b9150613904836137f6565b9250826139145761391361394e565b5b828206905092915050565b7f4e487b7100000000000000000000000000000000000000000000000000000000600052601160045260246000fd5b7f4e487b7100000000000000000000000000000000000000000000000000000000600052601260045260246000fd5b7f4e487b7100000000000000000000000000000000000000000000000000000000600052602260045260246000fd5b7f4e487b7100000000000000000000000000000000000000000000000000000000600052604160045260246000fd5b6000601f19601f8301169050919050565b7f455243373231456e756d657261626c653a206f776e657220696e646578206f7560008201527f74206f6620626f756e6473000000000000000000000000000000000000000000602082015250565b7f4552433732313a207472616e7366657220746f206e6f6e20455243373231526560008201527f63656976657220696d706c656d656e7465720000000000000000000000000000602082015250565b7f4f776e61626c653a206e6577206f776e657220697320746865207a65726f206160008201527f6464726573730000000000000000000000000000000000000000000000000000602082015250565b7f4552433732313a20746f6b656e20616c7265616479206d696e74656400000000600082015250565b7f4552433732313a207472616e7366657220746f20746865207a65726f2061646460008201527f7265737300000000000000000000000000000000000000000000000000000000602082015250565b7f4552433732313a20617070726f766520746f2063616c6c657200000000000000600082015250565b7f4552433732313a206f70657261746f7220717565727920666f72206e6f6e657860008201527f697374656e7420746f6b656e0000000000000000000000000000000000000000602082015250565b7f4d617820737570706c7900000000000000000000000000000000000000000000600082015250565b7f4552433732313a20617070726f76652063616c6c6572206973206e6f74206f7760008201527f6e6572206e6f7220617070726f76656420666f7220616c6c0000000000000000602082015250565b7f4552433732313a2062616c616e636520717565727920666f7220746865207a6560008201527f726f206164647265737300000000000000000000000000000000000000000000602082015250565b7f4552433732313a206f776e657220717565727920666f72206e6f6e657869737460008201527f656e7420746f6b656e0000000000000000000000000000000000000000000000602082015250565b7f4552433732313a206d696e7420746f20746865207a65726f2061646472657373600082015250565b7f4552433732313a20617070726f76656420717565727920666f72206e6f6e657860008201527f697374656e7420746f6b656e0000000000000000000000000000000000000000602082015250565b7f4f776e61626c653a2063616c6c6572206973206e6f7420746865206f776e6572600082015250565b7f4552433732313a207472616e73666572206f6620746f6b656e2074686174206960008201527f73206e6f74206f776e0000000000000000000000000000000000000000000000602082015250565b7f4552433732314d657461646174613a2055524920717565727920666f72206e6f60008201527f6e6578697374656e7420746f6b656e0000000000000000000000000000000000602082015250565b7f4552433732313a20617070726f76616c20746f2063757272656e74206f776e6560008201527f7200000000000000000000000000000000000000000000000000000000000000602082015250565b7f4552433732313a207472616e736665722063616c6c6572206973206e6f74206f60008201527f776e6572206e6f7220617070726f766564000000000000000000000000000000602082015250565b7f455243373231456e756d657261626c653a20676c6f62616c20696e646578206f60008201527f7574206f6620626f756e64730000000000000000000000000000000000000000602082015250565b7f4e69636520747279206c6f6c0000000000000000000000000000000000000000600082015250565b613f3d8161378c565b8114613f4857600080fd5b50565b613f548161379e565b8114613f5f57600080fd5b50565b613f6b816137aa565b8114613f7657600080fd5b50565b613f82816137f6565b8114613f8d57600080fd5b5056fea264697066735822122029f10dadd6079bcdd279048e41bb29d5657c97bb6780c96b5696e2e8593e8cd164736f6c63430008040033",
  "linkReferences": {},
  "deployedLinkReferences": {}
}