{
  "_format": "hh-sol-artifact-1",
  "contractName": "uwucrew",
  "sourceName": "contracts/uwucrew.sol",
  "abi": [
    {
      "inputs": [
        {
          "internalType": "string",
          "name": "_name",
          "type": "string"
        },
        {
          "internalType": "string",
          "name": "_symbol",
          "type": "string"
        }
      ],
      "stateMutability": "nonpayable",
      "type": "constructor"
    },
    {
      "anonymous": false,
      "inputs": [
        {
          "indexed": true,
          "internalType": "address",
          "name": "owner",
          "type": "address"
        },
        {
          "indexed": true,
          "internalType": "address",
          "name": "approved",
          "type": "address"
        },
        {
          "indexed": true,
          "internalType": "uint256",
          "name": "tokenId",
          "type": "uint256"
        }
      ],
      "name": "Approval",
      "type": "event"
    },
    {
      "anonymous": false,
      "inputs": [
        {
          "indexed": true,
          "internalType": "address",
          "name": "owner",
          "type": "address"
        },
        {
          "indexed": true,
          "internalType": "address",
          "name": "operator",
          "type": "address"
        },
        {
          "indexed": false,
          "internalType": "bool",
          "name": "approved",
          "type": "bool"
        }
      ],
      "name": "ApprovalForAll",
      "type": "event"
    },
    {
      "anonymous": false,
      "inputs": [
        {
          "indexed": true,
          "internalType": "address",
          "name": "previousOwner",
          "type": "address"
        },
        {
          "indexed": true,
          "internalType": "address",
          "name": "newOwner",
          "type": "address"
        }
      ],
      "name": "OwnershipTransferred",
      "type": "event"
    },
    {
      "anonymous": false,
      "inputs": [
        {
          "indexed": true,
          "internalType": "address",
          "name": "from",
          "type": "address"
        },
        {
          "indexed": true,
          "internalType": "address",
          "name": "to",
          "type": "address"
        },
        {
          "indexed": true,
          "internalType": "uint256",
          "name": "tokenId",
          "type": "uint256"
        }
      ],
      "name": "Transfer",
      "type": "event"
    },
    {
      "inputs": [],
      "name": "UWU_PROVENANCE",
      "outputs": [
        {
          "internalType": "string",
          "name": "",
          "type": "string"
        }
      ],
      "stateMutability": "view",
      "type": "function"
    },
    {
      "inputs": [],
      "name": "amountToLP",
      "outputs": [
        {
          "internalType": "uint256",
          "name": "",
          "type": "uint256"
        }
      ],
      "stateMutability": "view",
      "type": "function"
    },
    {
      "inputs": [
        {
          "internalType": "address",
          "name": "to",
          "type": "address"
        },
        {
          "internalType": "uint256",
          "name": "tokenId",
          "type": "uint256"
        }
      ],
      "name": "approve",
      "outputs": [],
      "stateMutability": "nonpayable",
      "type": "function"
    },
    {
      "inputs": [
        {
          "internalType": "address",
          "name": "owner",
          "type": "address"
        }
      ],
      "name": "balanceOf",
      "outputs": [
        {
          "internalType": "uint256",
          "name": "",
          "type": "uint256"
        }
      ],
      "stateMutability": "view",
      "type": "function"
    },
    {
      "inputs": [],
      "name": "baseURI",
      "outputs": [
        {
          "internalType": "string",
          "name": "",
          "type": "string"
        }
      ],
      "stateMutability": "view",
      "type": "function"
    },
    {
      "inputs": [
        {
          "internalType": "uint256",
          "name": "tokenId",
          "type": "uint256"
        }
      ],
      "name": "getApproved",
      "outputs": [
        {
          "internalType": "address",
          "name": "",
          "type": "address"
        }
      ],
      "stateMutability": "view",
      "type": "function"
    },
    {
      "inputs": [
        {
          "internalType": "address",
          "name": "owner",
          "type": "address"
        },
        {
          "internalType": "address",
          "name": "operator",
          "type": "address"
        }
      ],
      "name": "isApprovedForAll",
      "outputs": [
        {
          "internalType": "bool",
          "name": "",
          "type": "bool"
        }
      ],
      "stateMutability": "view",
      "type": "function"
    },
    {
      "inputs": [
        {
          "internalType": "address",
          "name": "to",
          "type": "address"
        },
        {
          "internalType": "uint256",
          "name": "tokenId",
          "type": "uint256"
        }
      ],
      "name": "mint",
      "outputs": [],
      "stateMutability": "nonpayable",
      "type": "function"
    },
    {
      "inputs": [],
      "name": "name",
      "outputs": [
        {
          "internalType": "string",
          "name": "",
          "type": "string"
        }
      ],
      "stateMutability": "view",
      "type": "function"
    },
    {
      "inputs": [
        {
          "internalType": "address",
          "name": "",
          "type": "address"
        },
        {
          "internalType": "address",
          "name": "",
          "type": "address"
        },
        {
          "internalType": "uint256",
          "name": "",
          "type": "uint256"
        },
        {
          "internalType": "bytes",
          "name": "",
          "type": "bytes"
        }
      ],
      "name": "onERC721Received",
      "outputs": [
        {
          "internalType": "bytes4",
          "name": "",
          "type": "bytes4"
        }
      ],
      "stateMutability": "nonpayable",
      "type": "function"
    },
    {
      "inputs": [],
      "name": "owner",
      "outputs": [
        {
          "internalType": "address",
          "name": "",
          "type": "address"
        }
      ],
      "stateMutability": "view",
      "type": "function"
    },
    {
      "inputs": [
        {
          "internalType": "uint256",
          "name": "tokenId",
          "type": "uint256"
        }
      ],
      "name": "ownerOf",
      "outputs": [
        {
          "internalType": "address",
          "name": "",
          "type": "address"
        }
      ],
      "stateMutability": "view",
      "type": "function"
    },
    {
      "inputs": [
        {
          "internalType": "address",
          "name": "_saleContract",
          "type": "address"
        }
      ],
      "name": "prepareSale",
      "outputs": [],
      "stateMutability": "nonpayable",
      "type": "function"
    },
    {
      "inputs": [],
      "name": "renounceOwnership",
      "outputs": [],
      "stateMutability": "nonpayable",
      "type": "function"
    },
    {
      "inputs": [],
      "name": "reserveUWUS",
      "outputs": [],
      "stateMutability": "nonpayable",
      "type": "function"
    },
    {
      "inputs": [
        {
          "internalType": "address",
          "name": "from",
          "type": "address"
        },
        {
          "internalType": "address",
          "name": "to",
          "type": "address"
        },
        {
          "internalType": "uint256",
          "name": "tokenId",
          "type": "uint256"
        }
      ],
      "name": "safeTransferFrom",
      "outputs": [],
      "stateMutability": "nonpayable",
      "type": "function"
    },
    {
      "inputs": [
        {
          "internalType": "address",
          "name": "from",
          "type": "address"
        },
        {
          "internalType": "address",
          "name": "to",
          "type": "address"
        },
        {
          "internalType": "uint256",
          "name": "tokenId",
          "type": "uint256"
        },
        {
          "internalType": "bytes",
          "name": "_data",
          "type": "bytes"
        }
      ],
      "name": "safeTransferFrom",
      "outputs": [],
      "stateMutability": "nonpayable",
      "type": "function"
    },
    {
      "inputs": [],
      "name": "saleContract",
      "outputs": [
        {
          "internalType": "address",
          "name": "",
          "type": "address"
        }
      ],
      "stateMutability": "view",
      "type": "function"
    },
    {
      "inputs": [
        {
          "internalType": "address",
          "name": "operator",
          "type": "address"
        },
        {
          "internalType": "bool",
          "name": "approved",
          "type": "bool"
        }
      ],
      "name": "setApprovalForAll",
      "outputs": [],
      "stateMutability": "nonpayable",
      "type": "function"
    },
    {
      "inputs": [
        {
          "internalType": "string",
          "name": "_baseURI",
          "type": "string"
        }
      ],
      "name": "setBaseURI",
      "outputs": [],
      "stateMutability": "nonpayable",
      "type": "function"
    },
    {
      "inputs": [
        {
          "internalType": "string",
          "name": "provenanceHash",
          "type": "string"
        }
      ],
      "name": "setProvenanceHash",
      "outputs": [],
      "stateMutability": "nonpayable",
      "type": "function"
    },
    {
      "inputs": [],
      "name": "startingIndex",
      "outputs": [
        {
          "internalType": "uint256",
          "name": "",
          "type": "uint256"
        }
      ],
      "stateMutability": "view",
      "type": "function"
    },
    {
      "inputs": [],
      "name": "startingIndexBlock",
      "outputs": [
        {
          "internalType": "uint256",
          "name": "",
          "type": "uint256"
        }
      ],
      "stateMutability": "view",
      "type": "function"
    },
    {
      "inputs": [
        {
          "internalType": "bytes4",
          "name": "interfaceId",
          "type": "bytes4"
        }
      ],
      "name": "supportsInterface",
      "outputs": [
        {
          "internalType": "bool",
          "name": "",
          "type": "bool"
        }
      ],
      "stateMutability": "view",
      "type": "function"
    },
    {
      "inputs": [],
      "name": "symbol",
      "outputs": [
        {
          "internalType": "string",
          "name": "",
          "type": "string"
        }
      ],
      "stateMutability": "view",
      "type": "function"
    },
    {
      "inputs": [
        {
          "internalType": "uint256",
          "name": "index",
          "type": "uint256"
        }
      ],
      "name": "tokenByIndex",
      "outputs": [
        {
          "internalType": "uint256",
          "name": "",
          "type": "uint256"
        }
      ],
      "stateMutability": "view",
      "type": "function"
    },
    {
      "inputs": [
        {
          "internalType": "address",
          "name": "owner",
          "type": "address"
        },
        {
          "internalType": "uint256",
          "name": "index",
          "type": "uint256"
        }
      ],
      "name": "tokenOfOwnerByIndex",
      "outputs": [
        {
          "internalType": "uint256",
          "name": "",
          "type": "uint256"
        }
      ],
      "stateMutability": "view",
      "type": "function"
    },
    {
      "inputs": [
        {
          "internalType": "uint256",
          "name": "tokenId",
          "type": "uint256"
        }
      ],
      "name": "tokenURI",
      "outputs": [
        {
          "internalType": "string",
          "name": "",
          "type": "string"
        }
      ],
      "stateMutability": "view",
      "type": "function"
    },
    {
      "inputs": [],
      "name": "totalSupply",
      "outputs": [
        {
          "internalType": "uint256",
          "name": "",
          "type": "uint256"
        }
      ],
      "stateMutability": "view",
      "type": "function"
    },
    {
      "inputs": [
        {
          "internalType": "address",
          "name": "from",
          "type": "address"
        },
        {
          "internalType": "address",
          "name": "to",
          "type": "address"
        },
        {
          "internalType": "uint256",
          "name": "tokenId",
          "type": "uint256"
        }
      ],
      "name": "transferFrom",
      "outputs": [],
      "stateMutability": "nonpayable",
      "type": "function"
    },
    {
      "inputs": [
        {
          "internalType": "address",
          "name": "newOwner",
          "type": "address"
        }
      ],
      "name": "transferOwnership",
      "outputs": [],
      "stateMutability": "nonpayable",
      "type": "function"
    }
  ],
  "bytecode": "0x608060405260405180602001604052806000815250600d90805190602001906200002b92919062000155565b503480156200003957600080fd5b506040516200429d3803806200429d83398181016040528101906200005f919062000277565b81816000620000736200014d60201b60201c565b9050806000806101000a81548173ffffffffffffffffffffffffffffffffffffffff021916908373ffffffffffffffffffffffffffffffffffffffff1602179055508073ffffffffffffffffffffffffffffffffffffffff16600073ffffffffffffffffffffffffffffffffffffffff167f8be0079c531659141344cd1fd0a4f28419497f9722a3daafe3b4186f6b6457e060405160405180910390a35081600190805190602001906200012992919062000155565b5080600290805190602001906200014292919062000155565b50505050506200045a565b600033905090565b82805462000163906200037f565b90600052602060002090601f016020900481019282620001875760008555620001d3565b82601f10620001a257805160ff1916838001178555620001d3565b82800160010185558215620001d3579182015b82811115620001d2578251825591602001919060010190620001b5565b5b509050620001e29190620001e6565b5090565b5b8082111562000201576000816000905550600101620001e7565b5090565b60006200021c620002168462000313565b620002ea565b9050828152602081018484840111156200023557600080fd5b6200024284828562000349565b509392505050565b600082601f8301126200025c57600080fd5b81516200026e84826020860162000205565b91505092915050565b600080604083850312156200028b57600080fd5b600083015167ffffffffffffffff811115620002a657600080fd5b620002b4858286016200024a565b925050602083015167ffffffffffffffff811115620002d257600080fd5b620002e0858286016200024a565b9150509250929050565b6000620002f662000309565b9050620003048282620003b5565b919050565b6000604051905090565b600067ffffffffffffffff8211156200033157620003306200041a565b5b6200033c8262000449565b9050602081019050919050565b60005b83811015620003695780820151818401526020810190506200034c565b8381111562000379576000848401525b50505050565b600060028204905060018216806200039857607f821691505b60208210811415620003af57620003ae620003eb565b5b50919050565b620003c08262000449565b810181811067ffffffffffffffff82111715620003e257620003e16200041a565b5b80604052505050565b7f4e487b7100000000000000000000000000000000000000000000000000000000600052602260045260246000fd5b7f4e487b7100000000000000000000000000000000000000000000000000000000600052604160045260246000fd5b6000601f19601f8301169050919050565b613e33806200046a6000396000f3fe608060405234801561001057600080fd5b50600436106101e55760003560e01c80636352211e1161010f578063c5d67d54116100a2578063daf6ca3011610071578063daf6ca301461056a578063e36d649814610588578063e985e9c5146105a6578063f2fde38b146105d6576101e5565b8063c5d67d54146104f6578063c87b56dd14610512578063cb774d4714610542578063d3bab94814610560576101e5565b80638da5cb5b116100de5780638da5cb5b1461048257806395d89b41146104a0578063a22cb465146104be578063b88d4fde146104da576101e5565b80636352211e146103fa5780636c0360eb1461042a57806370a0823114610448578063715018a614610478576101e5565b806318fad86a1161018757806340c10f191161015657806340c10f191461037657806342842e0e146103925780634f6ccce7146103ae57806355f804b3146103de576101e5565b806318fad86a146102ee57806320adb2681461030c57806323b872dd1461032a5780632f745c5914610346576101e5565b8063095ea7b3116101c3578063095ea7b3146102685780631096952314610284578063150b7a02146102a057806318160ddd146102d0576101e5565b806301ffc9a7146101ea57806306fdde031461021a578063081812fc14610238575b600080fd5b61020460048036038101906101ff9190612c9f565b6105f2565b6040516102119190613181565b60405180910390f35b61022261066c565b60405161022f91906131b7565b60405180910390f35b610252600480360381019061024d9190612d32565b6106fe565b60405161025f919061311a565b60405180910390f35b610282600480360381019061027d9190612c63565b610783565b005b61029e60048036038101906102999190612cf1565b61089b565b005b6102ba60048036038101906102b59190612bac565b610931565b6040516102c7919061319c565b60405180910390f35b6102d8610945565b6040516102e59190613459565b60405180910390f35b6102f6610952565b6040516103039190613459565b60405180910390f35b610314610958565b60405161032191906131b7565b60405180910390f35b610344600480360381019061033f9190612b5d565b6109e6565b005b610360600480360381019061035b9190612c63565b610a46565b60405161036d9190613459565b60405180910390f35b610390600480360381019061038b9190612c63565b610aeb565b005b6103ac60048036038101906103a79190612b5d565b610b7f565b005b6103c860048036038101906103c39190612d32565b610b9f565b6040516103d59190613459565b60405180910390f35b6103f860048036038101906103f39190612cf1565b610c36565b005b610414600480360381019061040f9190612d32565b610ccc565b604051610421919061311a565b60405180910390f35b610432610d7e565b60405161043f91906131b7565b60405180910390f35b610462600480360381019061045d9190612af8565b610e0c565b60405161046f9190613459565b60405180910390f35b610480610ec4565b005b61048a610ffe565b604051610497919061311a565b60405180910390f35b6104a8611027565b6040516104b591906131b7565b60405180910390f35b6104d860048036038101906104d39190612c27565b6110b9565b005b6104f460048036038101906104ef9190612bac565b61123a565b005b610510600480360381019061050b9190612af8565b61129c565b005b61052c60048036038101906105279190612d32565b611424565b60405161053991906131b7565b60405180910390f35b61054a6114cb565b6040516105579190613459565b60405180910390f35b6105686114d1565b005b610572611591565b60405161057f919061311a565b60405180910390f35b6105906115b7565b60405161059d9190613459565b60405180910390f35b6105c060048036038101906105bb9190612b21565b6115bd565b6040516105cd9190613181565b60405180910390f35b6105f060048036038101906105eb9190612af8565b611651565b005b60007f780e9d63000000000000000000000000000000000000000000000000000000007bffffffffffffffffffffffffffffffffffffffffffffffffffffffff1916827bffffffffffffffffffffffffffffffffffffffffffffffffffffffff191614806106655750610664826117fa565b5b9050919050565b60606001805461067b906136af565b80601f01602080910402602001604051908101604052809291908181526020018280546106a7906136af565b80156106f45780601f106106c9576101008083540402835291602001916106f4565b820191906000526020600020905b8154815290600101906020018083116106d757829003601f168201915b5050505050905090565b6000610709826118dc565b610748576040517f08c379a000000000000000000000000000000000000000000000000000000000815260040161073f90613359565b60405180910390fd5b6005600083815260200190815260200160002060009054906101000a900473ffffffffffffffffffffffffffffffffffffffff169050919050565b600061078e82610ccc565b90508073ffffffffffffffffffffffffffffffffffffffff168373ffffffffffffffffffffffffffffffffffffffff1614156107ff576040517f08c379a00000000000000000000000000000000000000000000000000000000081526004016107f6906133d9565b60405180910390fd5b8073ffffffffffffffffffffffffffffffffffffffff1661081e611948565b73ffffffffffffffffffffffffffffffffffffffff16148061084d575061084c81610847611948565b6115bd565b5b61088c576040517f08c379a0000000000000000000000000000000000000000000000000000000008152600401610883906132d9565b60405180910390fd5b6108968383611950565b505050565b6108a3611948565b73ffffffffffffffffffffffffffffffffffffffff166108c1610ffe565b73ffffffffffffffffffffffffffffffffffffffff1614610917576040517f08c379a000000000000000000000000000000000000000000000000000000000815260040161090e90613379565b60405180910390fd5b80600d908051906020019061092d92919061291c565b5050565b600063150b7a0260e01b9050949350505050565b6000600980549050905090565b600c5481565b600d8054610965906136af565b80601f0160208091040260200160405190810160405280929190818152602001828054610991906136af565b80156109de5780601f106109b3576101008083540402835291602001916109de565b820191906000526020600020905b8154815290600101906020018083116109c157829003601f168201915b505050505081565b6109f76109f1611948565b82611a09565b610a36576040517f08c379a0000000000000000000000000000000000000000000000000000000008152600401610a2d906133f9565b60405180910390fd5b610a41838383611ae7565b505050565b6000610a5183610e0c565b8210610a92576040517f08c379a0000000000000000000000000000000000000000000000000000000008152600401610a89906131d9565b60405180910390fd5b600760008473ffffffffffffffffffffffffffffffffffffffff1673ffffffffffffffffffffffffffffffffffffffff168152602001908152602001600020600083815260200190815260200160002054905092915050565b600b60009054906101000a900473ffffffffffffffffffffffffffffffffffffffff1673ffffffffffffffffffffffffffffffffffffffff163373ffffffffffffffffffffffffffffffffffffffff1614610b7b576040517f08c379a0000000000000000000000000000000000000000000000000000000008152600401610b7290613439565b60405180910390fd5b5050565b610b9a8383836040518060200160405280600081525061123a565b505050565b6000610ba9610945565b8210610bea576040517f08c379a0000000000000000000000000000000000000000000000000000000008152600401610be190613419565b60405180910390fd5b60098281548110610c24577f4e487b7100000000000000000000000000000000000000000000000000000000600052603260045260246000fd5b90600052602060002001549050919050565b610c3e611948565b73ffffffffffffffffffffffffffffffffffffffff16610c5c610ffe565b73ffffffffffffffffffffffffffffffffffffffff1614610cb2576040517f08c379a0000000000000000000000000000000000000000000000000000000008152600401610ca990613379565b60405180910390fd5b80600e9080519060200190610cc892919061291c565b5050565b6000806003600084815260200190815260200160002060009054906101000a900473ffffffffffffffffffffffffffffffffffffffff169050600073ffffffffffffffffffffffffffffffffffffffff168173ffffffffffffffffffffffffffffffffffffffff161415610d75576040517f08c379a0000000000000000000000000000000000000000000000000000000008152600401610d6c90613319565b60405180910390fd5b80915050919050565b600e8054610d8b906136af565b80601f0160208091040260200160405190810160405280929190818152602001828054610db7906136af565b8015610e045780601f10610dd957610100808354040283529160200191610e04565b820191906000526020600020905b815481529060010190602001808311610de757829003601f168201915b505050505081565b60008073ffffffffffffffffffffffffffffffffffffffff168273ffffffffffffffffffffffffffffffffffffffff161415610e7d576040517f08c379a0000000000000000000000000000000000000000000000000000000008152600401610e74906132f9565b60405180910390fd5b600460008373ffffffffffffffffffffffffffffffffffffffff1673ffffffffffffffffffffffffffffffffffffffff168152602001908152602001600020549050919050565b610ecc611948565b73ffffffffffffffffffffffffffffffffffffffff16610eea610ffe565b73ffffffffffffffffffffffffffffffffffffffff1614610f40576040517f08c379a0000000000000000000000000000000000000000000000000000000008152600401610f3790613379565b60405180910390fd5b600073ffffffffffffffffffffffffffffffffffffffff1660008054906101000a900473ffffffffffffffffffffffffffffffffffffffff1673ffffffffffffffffffffffffffffffffffffffff167f8be0079c531659141344cd1fd0a4f28419497f9722a3daafe3b4186f6b6457e060405160405180910390a360008060006101000a81548173ffffffffffffffffffffffffffffffffffffffff021916908373ffffffffffffffffffffffffffffffffffffffff160217905550565b60008060009054906101000a900473ffffffffffffffffffffffffffffffffffffffff16905090565b606060028054611036906136af565b80601f0160208091040260200160405190810160405280929190818152602001828054611062906136af565b80156110af5780601f10611084576101008083540402835291602001916110af565b820191906000526020600020905b81548152906001019060200180831161109257829003601f168201915b5050505050905090565b6110c1611948565b73ffffffffffffffffffffffffffffffffffffffff168273ffffffffffffffffffffffffffffffffffffffff16141561112f576040517f08c379a000000000000000000000000000000000000000000000000000000000815260040161112690613279565b60405180910390fd5b806006600061113c611948565b73ffffffffffffffffffffffffffffffffffffffff1673ffffffffffffffffffffffffffffffffffffffff16815260200190815260200160002060008473ffffffffffffffffffffffffffffffffffffffff1673ffffffffffffffffffffffffffffffffffffffff16815260200190815260200160002060006101000a81548160ff0219169083151502179055508173ffffffffffffffffffffffffffffffffffffffff166111e9611948565b73ffffffffffffffffffffffffffffffffffffffff167f17307eab39ab6107e8899845ad3d59bd9653f200f220920489ca2b5937696c318360405161122e9190613181565b60405180910390a35050565b61124b611245611948565b83611a09565b61128a576040517f08c379a0000000000000000000000000000000000000000000000000000000008152600401611281906133f9565b60405180910390fd5b61129684848484611d43565b50505050565b6112a4611948565b73ffffffffffffffffffffffffffffffffffffffff166112c2610ffe565b73ffffffffffffffffffffffffffffffffffffffff1614611318576040517f08c379a000000000000000000000000000000000000000000000000000000000815260040161130f90613379565b60405180910390fd5b600073ffffffffffffffffffffffffffffffffffffffff16600b60009054906101000a900473ffffffffffffffffffffffffffffffffffffffff1673ffffffffffffffffffffffffffffffffffffffff161461137357600080fd5b80600b60006101000a81548173ffffffffffffffffffffffffffffffffffffffff021916908373ffffffffffffffffffffffffffffffffffffffff1602179055508073ffffffffffffffffffffffffffffffffffffffff1663a47f2c796127106040518263ffffffff1660e01b81526004016113ef9190613459565b600060405180830381600087803b15801561140957600080fd5b505af115801561141d573d6000803e3d6000fd5b5050505050565b606061142f826118dc565b61146e576040517f08c379a0000000000000000000000000000000000000000000000000000000008152600401611465906133b9565b60405180910390fd5b6000611478611d9f565b9050600081511161149857604051806020016040528060008152506114c3565b806114a284611e31565b6040516020016114b39291906130f6565b6040516020818303038152906040525b915050919050565b600f5481565b6114d9611948565b73ffffffffffffffffffffffffffffffffffffffff166114f7610ffe565b73ffffffffffffffffffffffffffffffffffffffff161461154d576040517f08c379a000000000000000000000000000000000000000000000000000000000815260040161154490613379565b60405180910390fd5b6000611557610945565b905060005b605081101561158d5761157a338284611575919061353e565b611fde565b808061158590613712565b91505061155c565b5050565b600b60009054906101000a900473ffffffffffffffffffffffffffffffffffffffff1681565b60105481565b6000600660008473ffffffffffffffffffffffffffffffffffffffff1673ffffffffffffffffffffffffffffffffffffffff16815260200190815260200160002060008373ffffffffffffffffffffffffffffffffffffffff1673ffffffffffffffffffffffffffffffffffffffff16815260200190815260200160002060009054906101000a900460ff16905092915050565b611659611948565b73ffffffffffffffffffffffffffffffffffffffff16611677610ffe565b73ffffffffffffffffffffffffffffffffffffffff16146116cd576040517f08c379a00000000000000000000000000000000000000000000000000000000081526004016116c490613379565b60405180910390fd5b600073ffffffffffffffffffffffffffffffffffffffff168173ffffffffffffffffffffffffffffffffffffffff16141561173d576040517f08c379a000000000000000000000000000000000000000000000000000000000815260040161173490613219565b60405180910390fd5b8073ffffffffffffffffffffffffffffffffffffffff1660008054906101000a900473ffffffffffffffffffffffffffffffffffffffff1673ffffffffffffffffffffffffffffffffffffffff167f8be0079c531659141344cd1fd0a4f28419497f9722a3daafe3b4186f6b6457e060405160405180910390a3806000806101000a81548173ffffffffffffffffffffffffffffffffffffffff021916908373ffffffffffffffffffffffffffffffffffffffff16021790555050565b60007f80ac58cd000000000000000000000000000000000000000000000000000000007bffffffffffffffffffffffffffffffffffffffffffffffffffffffff1916827bffffffffffffffffffffffffffffffffffffffffffffffffffffffff191614806118c557507f5b5e139f000000000000000000000000000000000000000000000000000000007bffffffffffffffffffffffffffffffffffffffffffffffffffffffff1916827bffffffffffffffffffffffffffffffffffffffffffffffffffffffff1916145b806118d557506118d482612030565b5b9050919050565b60008073ffffffffffffffffffffffffffffffffffffffff166003600084815260200190815260200160002060009054906101000a900473ffffffffffffffffffffffffffffffffffffffff1673ffffffffffffffffffffffffffffffffffffffff1614159050919050565b600033905090565b816005600083815260200190815260200160002060006101000a81548173ffffffffffffffffffffffffffffffffffffffff021916908373ffffffffffffffffffffffffffffffffffffffff160217905550808273ffffffffffffffffffffffffffffffffffffffff166119c383610ccc565b73ffffffffffffffffffffffffffffffffffffffff167f8c5be1e5ebec7d5bd14f71427d1e84f3dd0314c0f7b2291e5b200ac8c7c3b92560405160405180910390a45050565b6000611a14826118dc565b611a53576040517f08c379a0000000000000000000000000000000000000000000000000000000008152600401611a4a90613299565b60405180910390fd5b6000611a5e83610ccc565b90508073ffffffffffffffffffffffffffffffffffffffff168473ffffffffffffffffffffffffffffffffffffffff161480611acd57508373ffffffffffffffffffffffffffffffffffffffff16611ab5846106fe565b73ffffffffffffffffffffffffffffffffffffffff16145b80611ade5750611add81856115bd565b5b91505092915050565b8273ffffffffffffffffffffffffffffffffffffffff16611b0782610ccc565b73ffffffffffffffffffffffffffffffffffffffff1614611b5d576040517f08c379a0000000000000000000000000000000000000000000000000000000008152600401611b5490613399565b60405180910390fd5b600073ffffffffffffffffffffffffffffffffffffffff168273ffffffffffffffffffffffffffffffffffffffff161415611bcd576040517f08c379a0000000000000000000000000000000000000000000000000000000008152600401611bc490613259565b60405180910390fd5b611bd883838361209a565b611be3600082611950565b6001600460008573ffffffffffffffffffffffffffffffffffffffff1673ffffffffffffffffffffffffffffffffffffffff1681526020019081526020016000206000828254611c3391906135c5565b925050819055506001600460008473ffffffffffffffffffffffffffffffffffffffff1673ffffffffffffffffffffffffffffffffffffffff1681526020019081526020016000206000828254611c8a919061353e565b92505081905550816003600083815260200190815260200160002060006101000a81548173ffffffffffffffffffffffffffffffffffffffff021916908373ffffffffffffffffffffffffffffffffffffffff160217905550808273ffffffffffffffffffffffffffffffffffffffff168473ffffffffffffffffffffffffffffffffffffffff167fddf252ad1be2c89b69c2b068fc378daa952ba7f163c4a11628f55a4df523b3ef60405160405180910390a4505050565b611d4e848484611ae7565b611d5a848484846121ae565b611d99576040517f08c379a0000000000000000000000000000000000000000000000000000000008152600401611d90906131f9565b60405180910390fd5b50505050565b6060600e8054611dae906136af565b80601f0160208091040260200160405190810160405280929190818152602001828054611dda906136af565b8015611e275780601f10611dfc57610100808354040283529160200191611e27565b820191906000526020600020905b815481529060010190602001808311611e0a57829003601f168201915b5050505050905090565b60606000821415611e79576040518060400160405280600181526020017f30000000000000000000000000000000000000000000000000000000000000008152509050611fd9565b600082905060005b60008214611eab578080611e9490613712565b915050600a82611ea49190613594565b9150611e81565b60008167ffffffffffffffff811115611eed577f4e487b7100000000000000000000000000000000000000000000000000000000600052604160045260246000fd5b6040519080825280601f01601f191660200182016040528015611f1f5781602001600182028036833780820191505090505b5090505b60008514611fd257600182611f3891906135c5565b9150600a85611f47919061375b565b6030611f53919061353e565b60f81b818381518110611f8f577f4e487b7100000000000000000000000000000000000000000000000000000000600052603260045260246000fd5b60200101907effffffffffffffffffffffffffffffffffffffffffffffffffffffffffffff1916908160001a905350600a85611fcb9190613594565b9450611f23565b8093505050505b919050565b6127108110612022576040517f08c379a0000000000000000000000000000000000000000000000000000000008152600401612019906132b9565b60405180910390fd5b61202c8282612345565b5050565b60007f01ffc9a7000000000000000000000000000000000000000000000000000000007bffffffffffffffffffffffffffffffffffffffffffffffffffffffff1916827bffffffffffffffffffffffffffffffffffffffffffffffffffffffff1916149050919050565b6120a5838383612363565b600073ffffffffffffffffffffffffffffffffffffffff168373ffffffffffffffffffffffffffffffffffffffff1614156120e8576120e381612368565b612127565b8173ffffffffffffffffffffffffffffffffffffffff168373ffffffffffffffffffffffffffffffffffffffff16146121265761212583826123b1565b5b5b600073ffffffffffffffffffffffffffffffffffffffff168273ffffffffffffffffffffffffffffffffffffffff16141561216a576121658161251e565b6121a9565b8273ffffffffffffffffffffffffffffffffffffffff168273ffffffffffffffffffffffffffffffffffffffff16146121a8576121a78282612661565b5b5b505050565b60006121cf8473ffffffffffffffffffffffffffffffffffffffff166126e0565b15612338578373ffffffffffffffffffffffffffffffffffffffff1663150b7a026121f8611948565b8786866040518563ffffffff1660e01b815260040161221a9493929190613135565b602060405180830381600087803b15801561223457600080fd5b505af192505050801561226557506040513d601f19601f820116820180604052508101906122629190612cc8565b60015b6122e8573d8060008114612295576040519150601f19603f3d011682016040523d82523d6000602084013e61229a565b606091505b506000815114156122e0576040517f08c379a00000000000000000000000000000000000000000000000000000000081526004016122d7906131f9565b60405180910390fd5b805181602001fd5b63150b7a0260e01b7bffffffffffffffffffffffffffffffffffffffffffffffffffffffff1916817bffffffffffffffffffffffffffffffffffffffffffffffffffffffff19161491505061233d565b600190505b949350505050565b61235f8282604051806020016040528060008152506126f3565b5050565b505050565b600980549050600a600083815260200190815260200160002081905550600981908060018154018082558091505060019003906000526020600020016000909190919091505550565b600060016123be84610e0c565b6123c891906135c5565b90506000600860008481526020019081526020016000205490508181146124ad576000600760008673ffffffffffffffffffffffffffffffffffffffff1673ffffffffffffffffffffffffffffffffffffffff168152602001908152602001600020600084815260200190815260200160002054905080600760008773ffffffffffffffffffffffffffffffffffffffff1673ffffffffffffffffffffffffffffffffffffffff168152602001908152602001600020600084815260200190815260200160002081905550816008600083815260200190815260200160002081905550505b6008600084815260200190815260200160002060009055600760008573ffffffffffffffffffffffffffffffffffffffff1673ffffffffffffffffffffffffffffffffffffffff16815260200190815260200160002060008381526020019081526020016000206000905550505050565b6000600160098054905061253291906135c5565b90506000600a6000848152602001908152602001600020549050600060098381548110612588577f4e487b7100000000000000000000000000000000000000000000000000000000600052603260045260246000fd5b9060005260206000200154905080600983815481106125d0577f4e487b7100000000000000000000000000000000000000000000000000000000600052603260045260246000fd5b906000526020600020018190555081600a600083815260200190815260200160002081905550600a6000858152602001908152602001600020600090556009805480612645577f4e487b7100000000000000000000000000000000000000000000000000000000600052603160045260246000fd5b6001900381819060005260206000200160009055905550505050565b600061266c83610e0c565b905081600760008573ffffffffffffffffffffffffffffffffffffffff1673ffffffffffffffffffffffffffffffffffffffff168152602001908152602001600020600083815260200190815260200160002081905550806008600084815260200190815260200160002081905550505050565b600080823b905060008111915050919050565b6126fd838361274e565b61270a60008484846121ae565b612749576040517f08c379a0000000000000000000000000000000000000000000000000000000008152600401612740906131f9565b60405180910390fd5b505050565b600073ffffffffffffffffffffffffffffffffffffffff168273ffffffffffffffffffffffffffffffffffffffff1614156127be576040517f08c379a00000000000000000000000000000000000000000000000000000000081526004016127b590613339565b60405180910390fd5b6127c7816118dc565b15612807576040517f08c379a00000000000000000000000000000000000000000000000000000000081526004016127fe90613239565b60405180910390fd5b6128136000838361209a565b6001600460008473ffffffffffffffffffffffffffffffffffffffff1673ffffffffffffffffffffffffffffffffffffffff1681526020019081526020016000206000828254612863919061353e565b92505081905550816003600083815260200190815260200160002060006101000a81548173ffffffffffffffffffffffffffffffffffffffff021916908373ffffffffffffffffffffffffffffffffffffffff160217905550808273ffffffffffffffffffffffffffffffffffffffff16600073ffffffffffffffffffffffffffffffffffffffff167fddf252ad1be2c89b69c2b068fc378daa952ba7f163c4a11628f55a4df523b3ef60405160405180910390a45050565b828054612928906136af565b90600052602060002090601f01602090048101928261294a5760008555612991565b82601f1061296357805160ff1916838001178555612991565b82800160010185558215612991579182015b82811115612990578251825591602001919060010190612975565b5b50905061299e91906129a2565b5090565b5b808211156129bb5760008160009055506001016129a3565b5090565b60006129d26129cd84613499565b613474565b9050828152602081018484840111156129ea57600080fd5b6129f584828561366d565b509392505050565b6000612a10612a0b846134ca565b613474565b905082815260208101848484011115612a2857600080fd5b612a3384828561366d565b509392505050565b600081359050612a4a81613da1565b92915050565b600081359050612a5f81613db8565b92915050565b600081359050612a7481613dcf565b92915050565b600081519050612a8981613dcf565b92915050565b600082601f830112612aa057600080fd5b8135612ab08482602086016129bf565b91505092915050565b600082601f830112612aca57600080fd5b8135612ada8482602086016129fd565b91505092915050565b600081359050612af281613de6565b92915050565b600060208284031215612b0a57600080fd5b6000612b1884828501612a3b565b91505092915050565b60008060408385031215612b3457600080fd5b6000612b4285828601612a3b565b9250506020612b5385828601612a3b565b9150509250929050565b600080600060608486031215612b7257600080fd5b6000612b8086828701612a3b565b9350506020612b9186828701612a3b565b9250506040612ba286828701612ae3565b9150509250925092565b60008060008060808587031215612bc257600080fd5b6000612bd087828801612a3b565b9450506020612be187828801612a3b565b9350506040612bf287828801612ae3565b925050606085013567ffffffffffffffff811115612c0f57600080fd5b612c1b87828801612a8f565b91505092959194509250565b60008060408385031215612c3a57600080fd5b6000612c4885828601612a3b565b9250506020612c5985828601612a50565b9150509250929050565b60008060408385031215612c7657600080fd5b6000612c8485828601612a3b565b9250506020612c9585828601612ae3565b9150509250929050565b600060208284031215612cb157600080fd5b6000612cbf84828501612a65565b91505092915050565b600060208284031215612cda57600080fd5b6000612ce884828501612a7a565b91505092915050565b600060208284031215612d0357600080fd5b600082013567ffffffffffffffff811115612d1d57600080fd5b612d2984828501612ab9565b91505092915050565b600060208284031215612d4457600080fd5b6000612d5284828501612ae3565b91505092915050565b612d64816135f9565b82525050565b612d738161360b565b82525050565b612d8281613617565b82525050565b6000612d93826134fb565b612d9d8185613511565b9350612dad81856020860161367c565b612db681613848565b840191505092915050565b6000612dcc82613506565b612dd68185613522565b9350612de681856020860161367c565b612def81613848565b840191505092915050565b6000612e0582613506565b612e0f8185613533565b9350612e1f81856020860161367c565b80840191505092915050565b6000612e38602b83613522565b9150612e4382613859565b604082019050919050565b6000612e5b603283613522565b9150612e66826138a8565b604082019050919050565b6000612e7e602683613522565b9150612e89826138f7565b604082019050919050565b6000612ea1601c83613522565b9150612eac82613946565b602082019050919050565b6000612ec4602483613522565b9150612ecf8261396f565b604082019050919050565b6000612ee7601983613522565b9150612ef2826139be565b602082019050919050565b6000612f0a602c83613522565b9150612f15826139e7565b604082019050919050565b6000612f2d600a83613522565b9150612f3882613a36565b602082019050919050565b6000612f50603883613522565b9150612f5b82613a5f565b604082019050919050565b6000612f73602a83613522565b9150612f7e82613aae565b604082019050919050565b6000612f96602983613522565b9150612fa182613afd565b604082019050919050565b6000612fb9602083613522565b9150612fc482613b4c565b602082019050919050565b6000612fdc602c83613522565b9150612fe782613b75565b604082019050919050565b6000612fff602083613522565b915061300a82613bc4565b602082019050919050565b6000613022602983613522565b915061302d82613bed565b604082019050919050565b6000613045602f83613522565b915061305082613c3c565b604082019050919050565b6000613068602183613522565b915061307382613c8b565b604082019050919050565b600061308b603183613522565b915061309682613cda565b604082019050919050565b60006130ae602c83613522565b91506130b982613d29565b604082019050919050565b60006130d1600c83613522565b91506130dc82613d78565b602082019050919050565b6130f081613663565b82525050565b60006131028285612dfa565b915061310e8284612dfa565b91508190509392505050565b600060208201905061312f6000830184612d5b565b92915050565b600060808201905061314a6000830187612d5b565b6131576020830186612d5b565b61316460408301856130e7565b81810360608301526131768184612d88565b905095945050505050565b60006020820190506131966000830184612d6a565b92915050565b60006020820190506131b16000830184612d79565b92915050565b600060208201905081810360008301526131d18184612dc1565b905092915050565b600060208201905081810360008301526131f281612e2b565b9050919050565b6000602082019050818103600083015261321281612e4e565b9050919050565b6000602082019050818103600083015261323281612e71565b9050919050565b6000602082019050818103600083015261325281612e94565b9050919050565b6000602082019050818103600083015261327281612eb7565b9050919050565b6000602082019050818103600083015261329281612eda565b9050919050565b600060208201905081810360008301526132b281612efd565b9050919050565b600060208201905081810360008301526132d281612f20565b9050919050565b600060208201905081810360008301526132f281612f43565b9050919050565b6000602082019050818103600083015261331281612f66565b9050919050565b6000602082019050818103600083015261333281612f89565b9050919050565b6000602082019050818103600083015261335281612fac565b9050919050565b6000602082019050818103600083015261337281612fcf565b9050919050565b6000602082019050818103600083015261339281612ff2565b9050919050565b600060208201905081810360008301526133b281613015565b9050919050565b600060208201905081810360008301526133d281613038565b9050919050565b600060208201905081810360008301526133f28161305b565b9050919050565b600060208201905081810360008301526134128161307e565b9050919050565b60006020820190508181036000830152613432816130a1565b9050919050565b60006020820190508181036000830152613452816130c4565b9050919050565b600060208201905061346e60008301846130e7565b92915050565b600061347e61348f565b905061348a82826136e1565b919050565b6000604051905090565b600067ffffffffffffffff8211156134b4576134b3613819565b5b6134bd82613848565b9050602081019050919050565b600067ffffffffffffffff8211156134e5576134e4613819565b5b6134ee82613848565b9050602081019050919050565b600081519050919050565b600081519050919050565b600082825260208201905092915050565b600082825260208201905092915050565b600081905092915050565b600061354982613663565b915061355483613663565b9250827fffffffffffffffffffffffffffffffffffffffffffffffffffffffffffffffff038211156135895761358861378c565b5b828201905092915050565b600061359f82613663565b91506135aa83613663565b9250826135ba576135b96137bb565b5b828204905092915050565b60006135d082613663565b91506135db83613663565b9250828210156135ee576135ed61378c565b5b828203905092915050565b600061360482613643565b9050919050565b60008115159050919050565b60007fffffffff0000000000000000000000000000000000000000000000000000000082169050919050565b600073ffffffffffffffffffffffffffffffffffffffff82169050919050565b6000819050919050565b82818337600083830152505050565b60005b8381101561369a57808201518184015260208101905061367f565b838111156136a9576000848401525b50505050565b600060028204905060018216806136c757607f821691505b602082108114156136db576136da6137ea565b5b50919050565b6136ea82613848565b810181811067ffffffffffffffff8211171561370957613708613819565b5b80604052505050565b600061371d82613663565b91507fffffffffffffffffffffffffffffffffffffffffffffffffffffffffffffffff8214156137505761374f61378c565b5b600182019050919050565b600061376682613663565b915061377183613663565b925082613781576137806137bb565b5b828206905092915050565b7f4e487b7100000000000000000000000000000000000000000000000000000000600052601160045260246000fd5b7f4e487b7100000000000000000000000000000000000000000000000000000000600052601260045260246000fd5b7f4e487b7100000000000000000000000000000000000000000000000000000000600052602260045260246000fd5b7f4e487b7100000000000000000000000000000000000000000000000000000000600052604160045260246000fd5b6000601f19601f8301169050919050565b7f455243373231456e756d657261626c653a206f776e657220696e646578206f7560008201527f74206f6620626f756e6473000000000000000000000000000000000000000000602082015250565b7f4552433732313a207472616e7366657220746f206e6f6e20455243373231526560008201527f63656976657220696d706c656d656e7465720000000000000000000000000000602082015250565b7f4f776e61626c653a206e6577206f776e657220697320746865207a65726f206160008201527f6464726573730000000000000000000000000000000000000000000000000000602082015250565b7f4552433732313a20746f6b656e20616c7265616479206d696e74656400000000600082015250565b7f4552433732313a207472616e7366657220746f20746865207a65726f2061646460008201527f7265737300000000000000000000000000000000000000000000000000000000602082015250565b7f4552433732313a20617070726f766520746f2063616c6c657200000000000000600082015250565b7f4552433732313a206f70657261746f7220717565727920666f72206e6f6e657860008201527f697374656e7420746f6b656e0000000000000000000000000000000000000000602082015250565b7f4d617820737570706c7900000000000000000000000000000000000000000000600082015250565b7f4552433732313a20617070726f76652063616c6c6572206973206e6f74206f7760008201527f6e6572206e6f7220617070726f76656420666f7220616c6c0000000000000000602082015250565b7f4552433732313a2062616c616e636520717565727920666f7220746865207a6560008201527f726f206164647265737300000000000000000000000000000000000000000000602082015250565b7f4552433732313a206f776e657220717565727920666f72206e6f6e657869737460008201527f656e7420746f6b656e0000000000000000000000000000000000000000000000602082015250565b7f4552433732313a206d696e7420746f20746865207a65726f2061646472657373600082015250565b7f4552433732313a20617070726f76656420717565727920666f72206e6f6e657860008201527f697374656e7420746f6b656e0000000000000000000000000000000000000000602082015250565b7f4f776e61626c653a2063616c6c6572206973206e6f7420746865206f776e6572600082015250565b7f4552433732313a207472616e73666572206f6620746f6b656e2074686174206960008201527f73206e6f74206f776e0000000000000000000000000000000000000000000000602082015250565b7f4552433732314d657461646174613a2055524920717565727920666f72206e6f60008201527f6e6578697374656e7420746f6b656e0000000000000000000000000000000000602082015250565b7f4552433732313a20617070726f76616c20746f2063757272656e74206f776e6560008201527f7200000000000000000000000000000000000000000000000000000000000000602082015250565b7f4552433732313a207472616e736665722063616c6c6572206973206e6f74206f60008201527f776e6572206e6f7220617070726f766564000000000000000000000000000000602082015250565b7f455243373231456e756d657261626c653a20676c6f62616c20696e646578206f60008201527f7574206f6620626f756e64730000000000000000000000000000000000000000602082015250565b7f4e69636520747279206c6f6c0000000000000000000000000000000000000000600082015250565b613daa816135f9565b8114613db557600080fd5b50565b613dc18161360b565b8114613dcc57600080fd5b50565b613dd881613617565b8114613de357600080fd5b50565b613def81613663565b8114613dfa57600080fd5b5056fea2646970667358221220a0e824be7bf1a7e70a56fe80c04ef276fd0dafa0aa3e485793edc8f39c84c0a564736f6c63430008040033",
  "linkReferences": {},
  "deployedLinkReferences": {}
}