{
  "_format": "hh-sol-artifact-1",
  "contractName": "uwucrew",
  "sourceName": "contracts/uwucrew.sol",
  "abi": [
    {
      "inputs": [
        {
          "internalType": "string",
          "name": "_name",
          "type": "string"
        },
        {
          "internalType": "string",
          "name": "_symbol",
          "type": "string"
        },
        {
          "internalType": "uint256",
          "name": "maxSupply",
          "type": "uint256"
        }
      ],
      "stateMutability": "nonpayable",
      "type": "constructor"
    },
    {
      "anonymous": false,
      "inputs": [
        {
          "indexed": true,
          "internalType": "address",
          "name": "owner",
          "type": "address"
        },
        {
          "indexed": true,
          "internalType": "address",
          "name": "approved",
          "type": "address"
        },
        {
          "indexed": true,
          "internalType": "uint256",
          "name": "tokenId",
          "type": "uint256"
        }
      ],
      "name": "Approval",
      "type": "event"
    },
    {
      "anonymous": false,
      "inputs": [
        {
          "indexed": true,
          "internalType": "address",
          "name": "owner",
          "type": "address"
        },
        {
          "indexed": true,
          "internalType": "address",
          "name": "operator",
          "type": "address"
        },
        {
          "indexed": false,
          "internalType": "bool",
          "name": "approved",
          "type": "bool"
        }
      ],
      "name": "ApprovalForAll",
      "type": "event"
    },
    {
      "anonymous": false,
      "inputs": [
        {
          "indexed": true,
          "internalType": "address",
          "name": "previousOwner",
          "type": "address"
        },
        {
          "indexed": true,
          "internalType": "address",
          "name": "newOwner",
          "type": "address"
        }
      ],
      "name": "OwnershipTransferred",
      "type": "event"
    },
    {
      "anonymous": false,
      "inputs": [
        {
          "indexed": true,
          "internalType": "address",
          "name": "from",
          "type": "address"
        },
        {
          "indexed": true,
          "internalType": "address",
          "name": "to",
          "type": "address"
        },
        {
          "indexed": true,
          "internalType": "uint256",
          "name": "tokenId",
          "type": "uint256"
        }
      ],
      "name": "Transfer",
      "type": "event"
    },
    {
      "inputs": [],
      "name": "MAX_UWU",
      "outputs": [
        {
          "internalType": "uint256",
          "name": "",
          "type": "uint256"
        }
      ],
      "stateMutability": "view",
      "type": "function"
    },
    {
      "inputs": [],
      "name": "UWU_PROVENANCE",
      "outputs": [
        {
          "internalType": "string",
          "name": "",
          "type": "string"
        }
      ],
      "stateMutability": "view",
      "type": "function"
    },
    {
      "inputs": [
        {
          "internalType": "address",
          "name": "to",
          "type": "address"
        },
        {
          "internalType": "uint256",
          "name": "tokenId",
          "type": "uint256"
        }
      ],
      "name": "approve",
      "outputs": [],
      "stateMutability": "nonpayable",
      "type": "function"
    },
    {
      "inputs": [
        {
          "internalType": "address",
          "name": "owner",
          "type": "address"
        }
      ],
      "name": "balanceOf",
      "outputs": [
        {
          "internalType": "uint256",
          "name": "",
          "type": "uint256"
        }
      ],
      "stateMutability": "view",
      "type": "function"
    },
    {
      "inputs": [],
      "name": "baseURI",
      "outputs": [
        {
          "internalType": "string",
          "name": "",
          "type": "string"
        }
      ],
      "stateMutability": "view",
      "type": "function"
    },
    {
      "inputs": [
        {
          "internalType": "address",
          "name": "",
          "type": "address"
        }
      ],
      "name": "cumulativeHodl",
      "outputs": [
        {
          "internalType": "uint256",
          "name": "",
          "type": "uint256"
        }
      ],
      "stateMutability": "view",
      "type": "function"
    },
    {
      "inputs": [],
      "name": "extraContract",
      "outputs": [
        {
          "internalType": "address",
          "name": "",
          "type": "address"
        }
      ],
      "stateMutability": "view",
      "type": "function"
    },
    {
      "inputs": [
        {
          "internalType": "uint256",
          "name": "tokenId",
          "type": "uint256"
        }
      ],
      "name": "getApproved",
      "outputs": [
        {
          "internalType": "address",
          "name": "",
          "type": "address"
        }
      ],
      "stateMutability": "view",
      "type": "function"
    },
    {
      "inputs": [
        {
          "internalType": "address",
          "name": "owner",
          "type": "address"
        },
        {
          "internalType": "address",
          "name": "operator",
          "type": "address"
        }
      ],
      "name": "isApprovedForAll",
      "outputs": [
        {
          "internalType": "bool",
          "name": "",
          "type": "bool"
        }
      ],
      "stateMutability": "view",
      "type": "function"
    },
    {
      "inputs": [
        {
          "internalType": "uint256",
          "name": "",
          "type": "uint256"
        }
      ],
      "name": "lastTransferTimestamp",
      "outputs": [
        {
          "internalType": "uint256",
          "name": "",
          "type": "uint256"
        }
      ],
      "stateMutability": "view",
      "type": "function"
    },
    {
      "inputs": [
        {
          "internalType": "address",
          "name": "user",
          "type": "address"
        }
      ],
      "name": "liveCumulativeHODL",
      "outputs": [
        {
          "internalType": "uint256",
          "name": "",
          "type": "uint256"
        }
      ],
      "stateMutability": "view",
      "type": "function"
    },
    {
      "inputs": [
        {
          "internalType": "address",
          "name": "to",
          "type": "address"
        },
        {
          "internalType": "uint256",
          "name": "tokenId",
          "type": "uint256"
        }
      ],
      "name": "mint",
      "outputs": [],
      "stateMutability": "nonpayable",
      "type": "function"
    },
    {
      "inputs": [],
      "name": "name",
      "outputs": [
        {
          "internalType": "string",
          "name": "",
          "type": "string"
        }
      ],
      "stateMutability": "view",
      "type": "function"
    },
    {
      "inputs": [
        {
          "internalType": "address",
          "name": "",
          "type": "address"
        },
        {
          "internalType": "address",
          "name": "",
          "type": "address"
        },
        {
          "internalType": "uint256",
          "name": "",
          "type": "uint256"
        },
        {
          "internalType": "bytes",
          "name": "",
          "type": "bytes"
        }
      ],
      "name": "onERC721Received",
      "outputs": [
        {
          "internalType": "bytes4",
          "name": "",
          "type": "bytes4"
        }
      ],
      "stateMutability": "nonpayable",
      "type": "function"
    },
    {
      "inputs": [],
      "name": "owner",
      "outputs": [
        {
          "internalType": "address",
          "name": "",
          "type": "address"
        }
      ],
      "stateMutability": "view",
      "type": "function"
    },
    {
      "inputs": [
        {
          "internalType": "uint256",
          "name": "tokenId",
          "type": "uint256"
        }
      ],
      "name": "ownerOf",
      "outputs": [
        {
          "internalType": "address",
          "name": "",
          "type": "address"
        }
      ],
      "stateMutability": "view",
      "type": "function"
    },
    {
      "inputs": [
        {
          "internalType": "address",
          "name": "_saleContract",
          "type": "address"
        }
      ],
      "name": "prepareSale",
      "outputs": [],
      "stateMutability": "nonpayable",
      "type": "function"
    },
    {
      "inputs": [],
      "name": "renounceMinting",
      "outputs": [],
      "stateMutability": "nonpayable",
      "type": "function"
    },
    {
      "inputs": [],
      "name": "renounceOwnership",
      "outputs": [],
      "stateMutability": "nonpayable",
      "type": "function"
    },
    {
      "inputs": [],
      "name": "reserveUWUS",
      "outputs": [],
      "stateMutability": "nonpayable",
      "type": "function"
    },
    {
      "inputs": [
        {
          "internalType": "address",
          "name": "from",
          "type": "address"
        },
        {
          "internalType": "address",
          "name": "to",
          "type": "address"
        },
        {
          "internalType": "uint256",
          "name": "tokenId",
          "type": "uint256"
        }
      ],
      "name": "safeTransferFrom",
      "outputs": [],
      "stateMutability": "nonpayable",
      "type": "function"
    },
    {
      "inputs": [
        {
          "internalType": "address",
          "name": "from",
          "type": "address"
        },
        {
          "internalType": "address",
          "name": "to",
          "type": "address"
        },
        {
          "internalType": "uint256",
          "name": "tokenId",
          "type": "uint256"
        },
        {
          "internalType": "bytes",
          "name": "_data",
          "type": "bytes"
        }
      ],
      "name": "safeTransferFrom",
      "outputs": [],
      "stateMutability": "nonpayable",
      "type": "function"
    },
    {
      "inputs": [],
      "name": "saleContract",
      "outputs": [
        {
          "internalType": "address",
          "name": "",
          "type": "address"
        }
      ],
      "stateMutability": "view",
      "type": "function"
    },
    {
      "inputs": [
        {
          "internalType": "address",
          "name": "operator",
          "type": "address"
        },
        {
          "internalType": "bool",
          "name": "approved",
          "type": "bool"
        }
      ],
      "name": "setApprovalForAll",
      "outputs": [],
      "stateMutability": "nonpayable",
      "type": "function"
    },
    {
      "inputs": [
        {
          "internalType": "string",
          "name": "newURI",
          "type": "string"
        }
      ],
      "name": "setBaseURI",
      "outputs": [],
      "stateMutability": "nonpayable",
      "type": "function"
    },
    {
      "inputs": [
        {
          "internalType": "address",
          "name": "_extraContract",
          "type": "address"
        }
      ],
      "name": "setExtraContract",
      "outputs": [],
      "stateMutability": "nonpayable",
      "type": "function"
    },
    {
      "inputs": [
        {
          "internalType": "string",
          "name": "provenanceHash",
          "type": "string"
        }
      ],
      "name": "setProvenanceHash",
      "outputs": [],
      "stateMutability": "nonpayable",
      "type": "function"
    },
    {
      "inputs": [
        {
          "internalType": "bytes4",
          "name": "interfaceId",
          "type": "bytes4"
        }
      ],
      "name": "supportsInterface",
      "outputs": [
        {
          "internalType": "bool",
          "name": "",
          "type": "bool"
        }
      ],
      "stateMutability": "view",
      "type": "function"
    },
    {
      "inputs": [],
      "name": "symbol",
      "outputs": [
        {
          "internalType": "string",
          "name": "",
          "type": "string"
        }
      ],
      "stateMutability": "view",
      "type": "function"
    },
    {
      "inputs": [
        {
          "internalType": "uint256",
          "name": "index",
          "type": "uint256"
        }
      ],
      "name": "tokenByIndex",
      "outputs": [
        {
          "internalType": "uint256",
          "name": "",
          "type": "uint256"
        }
      ],
      "stateMutability": "view",
      "type": "function"
    },
    {
      "inputs": [
        {
          "internalType": "address",
          "name": "owner",
          "type": "address"
        },
        {
          "internalType": "uint256",
          "name": "index",
          "type": "uint256"
        }
      ],
      "name": "tokenOfOwnerByIndex",
      "outputs": [
        {
          "internalType": "uint256",
          "name": "",
          "type": "uint256"
        }
      ],
      "stateMutability": "view",
      "type": "function"
    },
    {
      "inputs": [
        {
          "internalType": "uint256",
          "name": "tokenId",
          "type": "uint256"
        }
      ],
      "name": "tokenURI",
      "outputs": [
        {
          "internalType": "string",
          "name": "",
          "type": "string"
        }
      ],
      "stateMutability": "view",
      "type": "function"
    },
    {
      "inputs": [],
      "name": "totalSupply",
      "outputs": [
        {
          "internalType": "uint256",
          "name": "",
          "type": "uint256"
        }
      ],
      "stateMutability": "view",
      "type": "function"
    },
    {
      "inputs": [
        {
          "internalType": "address",
          "name": "from",
          "type": "address"
        },
        {
          "internalType": "address",
          "name": "to",
          "type": "address"
        },
        {
          "internalType": "uint256",
          "name": "tokenId",
          "type": "uint256"
        }
      ],
      "name": "transferFrom",
      "outputs": [],
      "stateMutability": "nonpayable",
      "type": "function"
    },
    {
      "inputs": [
        {
          "internalType": "address",
          "name": "newOwner",
          "type": "address"
        }
      ],
      "name": "transferOwnership",
      "outputs": [],
      "stateMutability": "nonpayable",
      "type": "function"
    }
  ],
  "bytecode": "0x60a060405260405180602001604052806000815250600d90805190602001906200002b9291906200015e565b503480156200003957600080fd5b50604051620047c3380380620047c383398181016040528101906200005f919062000297565b82826000620000736200015660201b60201c565b9050806000806101000a81548173ffffffffffffffffffffffffffffffffffffffff021916908373ffffffffffffffffffffffffffffffffffffffff1602179055508073ffffffffffffffffffffffffffffffffffffffff16600073ffffffffffffffffffffffffffffffffffffffff167f8be0079c531659141344cd1fd0a4f28419497f9722a3daafe3b4186f6b6457e060405160405180910390a3508160019080519060200190620001299291906200015e565b508060029080519060200190620001429291906200015e565b5050508060808181525050505050620004b3565b600033905090565b8280546200016c90620003be565b90600052602060002090601f016020900481019282620001905760008555620001dc565b82601f10620001ab57805160ff1916838001178555620001dc565b82800160010185558215620001dc579182015b82811115620001db578251825591602001919060010190620001be565b5b509050620001eb9190620001ef565b5090565b5b808211156200020a576000816000905550600101620001f0565b5090565b6000620002256200021f8462000348565b6200031f565b9050828152602081018484840111156200023e57600080fd5b6200024b84828562000388565b509392505050565b600082601f8301126200026557600080fd5b8151620002778482602086016200020e565b91505092915050565b600081519050620002918162000499565b92915050565b600080600060608486031215620002ad57600080fd5b600084015167ffffffffffffffff811115620002c857600080fd5b620002d68682870162000253565b935050602084015167ffffffffffffffff811115620002f457600080fd5b620003028682870162000253565b9250506040620003158682870162000280565b9150509250925092565b60006200032b6200033e565b9050620003398282620003f4565b919050565b6000604051905090565b600067ffffffffffffffff82111562000366576200036562000459565b5b620003718262000488565b9050602081019050919050565b6000819050919050565b60005b83811015620003a85780820151818401526020810190506200038b565b83811115620003b8576000848401525b50505050565b60006002820490506001821680620003d757607f821691505b60208210811415620003ee57620003ed6200042a565b5b50919050565b620003ff8262000488565b810181811067ffffffffffffffff8211171562000421576200042062000459565b5b80604052505050565b7f4e487b7100000000000000000000000000000000000000000000000000000000600052602260045260246000fd5b7f4e487b7100000000000000000000000000000000000000000000000000000000600052604160045260246000fd5b6000601f19601f8301169050919050565b620004a4816200037e565b8114620004b057600080fd5b50565b6080516142ed620004d660003960008181611995015261213f01526142ed6000f3fe608060405234801561001057600080fd5b50600436106102115760003560e01c80636352211e11610125578063c5d67d54116100ad578063da9122831161007c578063da912283146105fe578063daf6ca301461062e578063dd1a29f31461064c578063e985e9c51461066a578063f2fde38b1461069a57610211565b8063c5d67d541461058a578063c87b56dd146105a6578063ce66440b146105d6578063d3bab948146105f457610211565b80638da5cb5b116100f45780638da5cb5b146104e657806395d89b41146105045780639d7c828b14610522578063a22cb46514610552578063b88d4fde1461056e57610211565b80636352211e1461045e5780636c0360eb1461048e57806370a08231146104ac578063715018a6146104dc57610211565b806323b872dd116101a857806342842e0e1161017757806342842e0e146103d05780634f6ccce7146103ec578063510ffc9b1461041c57806355f804b314610426578063597d86531461044257610211565b806323b872dd146103385780632f745c59146103545780633b8a5fcd1461038457806340c10f19146103b457610211565b806310969523116101e457806310969523146102b0578063150b7a02146102cc57806318160ddd146102fc57806320adb2681461031a57610211565b806301ffc9a71461021657806306fdde0314610246578063081812fc14610264578063095ea7b314610294575b600080fd5b610230600480360381019061022b9190613159565b6106b6565b60405161023d919061363b565b60405180910390f35b61024e610730565b60405161025b9190613671565b60405180910390f35b61027e600480360381019061027991906131ec565b6107c2565b60405161028b91906135d4565b60405180910390f35b6102ae60048036038101906102a9919061311d565b610847565b005b6102ca60048036038101906102c591906131ab565b61095f565b005b6102e660048036038101906102e19190613066565b6109f5565b6040516102f39190613656565b60405180910390f35b610304610a09565b6040516103119190613913565b60405180910390f35b610322610a16565b60405161032f9190613671565b60405180910390f35b610352600480360381019061034d9190613017565b610aa4565b005b61036e6004803603810190610369919061311d565b610b04565b60405161037b9190613913565b60405180910390f35b61039e60048036038101906103999190612fb2565b610ba9565b6040516103ab9190613913565b60405180910390f35b6103ce60048036038101906103c9919061311d565b610bc1565b005b6103ea60048036038101906103e59190613017565b610cb7565b005b610406600480360381019061040191906131ec565b610cd7565b6040516104139190613913565b60405180910390f35b610424610d6e565b005b610440600480360381019061043b91906131ab565b610e70565b005b61045c60048036038101906104579190612fb2565b610f06565b005b610478600480360381019061047391906131ec565b611021565b60405161048591906135d4565b60405180910390f35b6104966110d3565b6040516104a39190613671565b60405180910390f35b6104c660048036038101906104c19190612fb2565b611161565b6040516104d39190613913565b60405180910390f35b6104e4611219565b005b6104ee611353565b6040516104fb91906135d4565b60405180910390f35b61050c61137c565b6040516105199190613671565b60405180910390f35b61053c600480360381019061053791906131ec565b61140e565b6040516105499190613913565b60405180910390f35b61056c600480360381019061056791906130e1565b611426565b005b61058860048036038101906105839190613066565b6115a7565b005b6105a4600480360381019061059f9190612fb2565b611609565b005b6105c060048036038101906105bb91906131ec565b611724565b6040516105cd9190613671565b60405180910390f35b6105de6117cb565b6040516105eb91906135d4565b60405180910390f35b6105fc6117f1565b005b61061860048036038101906106139190612fb2565b6118b1565b6040516106259190613913565b60405180910390f35b61063661196d565b60405161064391906135d4565b60405180910390f35b610654611993565b6040516106619190613913565b60405180910390f35b610684600480360381019061067f9190612fdb565b6119b7565b604051610691919061363b565b60405180910390f35b6106b460048036038101906106af9190612fb2565b611a4b565b005b60007f780e9d63000000000000000000000000000000000000000000000000000000007bffffffffffffffffffffffffffffffffffffffffffffffffffffffff1916827bffffffffffffffffffffffffffffffffffffffffffffffffffffffff19161480610729575061072882611bf4565b5b9050919050565b60606001805461073f90613b69565b80601f016020809104026020016040519081016040528092919081815260200182805461076b90613b69565b80156107b85780601f1061078d576101008083540402835291602001916107b8565b820191906000526020600020905b81548152906001019060200180831161079b57829003601f168201915b5050505050905090565b60006107cd82611cd6565b61080c576040517f08c379a000000000000000000000000000000000000000000000000000000000815260040161080390613813565b60405180910390fd5b6005600083815260200190815260200160002060009054906101000a900473ffffffffffffffffffffffffffffffffffffffff169050919050565b600061085282611021565b90508073ffffffffffffffffffffffffffffffffffffffff168373ffffffffffffffffffffffffffffffffffffffff1614156108c3576040517f08c379a00000000000000000000000000000000000000000000000000000000081526004016108ba90613893565b60405180910390fd5b8073ffffffffffffffffffffffffffffffffffffffff166108e2611d42565b73ffffffffffffffffffffffffffffffffffffffff16148061091157506109108161090b611d42565b6119b7565b5b610950576040517f08c379a000000000000000000000000000000000000000000000000000000000815260040161094790613793565b60405180910390fd5b61095a8383611d4a565b505050565b610967611d42565b73ffffffffffffffffffffffffffffffffffffffff16610985611353565b73ffffffffffffffffffffffffffffffffffffffff16146109db576040517f08c379a00000000000000000000000000000000000000000000000000000000081526004016109d290613833565b60405180910390fd5b80600d90805190602001906109f1929190612dd6565b5050565b600063150b7a0260e01b9050949350505050565b6000600980549050905090565b600d8054610a2390613b69565b80601f0160208091040260200160405190810160405280929190818152602001828054610a4f90613b69565b8015610a9c5780601f10610a7157610100808354040283529160200191610a9c565b820191906000526020600020905b815481529060010190602001808311610a7f57829003601f168201915b505050505081565b610ab5610aaf611d42565b82611e03565b610af4576040517f08c379a0000000000000000000000000000000000000000000000000000000008152600401610aeb906138b3565b60405180910390fd5b610aff838383611ee1565b505050565b6000610b0f83611161565b8210610b50576040517f08c379a0000000000000000000000000000000000000000000000000000000008152600401610b4790613693565b60405180910390fd5b600760008473ffffffffffffffffffffffffffffffffffffffff1673ffffffffffffffffffffffffffffffffffffffff168152602001908152602001600020600083815260200190815260200160002054905092915050565b60106020528060005260406000206000915090505481565b600b60009054906101000a900473ffffffffffffffffffffffffffffffffffffffff1673ffffffffffffffffffffffffffffffffffffffff163373ffffffffffffffffffffffffffffffffffffffff161480610c6a5750600c60009054906101000a900473ffffffffffffffffffffffffffffffffffffffff1673ffffffffffffffffffffffffffffffffffffffff163373ffffffffffffffffffffffffffffffffffffffff16145b610ca9576040517f08c379a0000000000000000000000000000000000000000000000000000000008152600401610ca0906138f3565b60405180910390fd5b610cb3828261213d565b5050565b610cd2838383604051806020016040528060008152506115a7565b505050565b6000610ce1610a09565b8210610d22576040517f08c379a0000000000000000000000000000000000000000000000000000000008152600401610d19906138d3565b60405180910390fd5b60098281548110610d5c577f4e487b7100000000000000000000000000000000000000000000000000000000600052603260045260246000fd5b90600052602060002001549050919050565b610d76611d42565b73ffffffffffffffffffffffffffffffffffffffff16610d94611353565b73ffffffffffffffffffffffffffffffffffffffff1614610dea576040517f08c379a0000000000000000000000000000000000000000000000000000000008152600401610de190613833565b60405180910390fd5b6000600b60006101000a81548173ffffffffffffffffffffffffffffffffffffffff021916908373ffffffffffffffffffffffffffffffffffffffff1602179055506000600c60006101000a81548173ffffffffffffffffffffffffffffffffffffffff021916908373ffffffffffffffffffffffffffffffffffffffff160217905550565b610e78611d42565b73ffffffffffffffffffffffffffffffffffffffff16610e96611353565b73ffffffffffffffffffffffffffffffffffffffff1614610eec576040517f08c379a0000000000000000000000000000000000000000000000000000000008152600401610ee390613833565b60405180910390fd5b80600e9080519060200190610f02929190612dd6565b5050565b610f0e611d42565b73ffffffffffffffffffffffffffffffffffffffff16610f2c611353565b73ffffffffffffffffffffffffffffffffffffffff1614610f82576040517f08c379a0000000000000000000000000000000000000000000000000000000008152600401610f7990613833565b60405180910390fd5b600073ffffffffffffffffffffffffffffffffffffffff16600c60009054906101000a900473ffffffffffffffffffffffffffffffffffffffff1673ffffffffffffffffffffffffffffffffffffffff1614610fdd57600080fd5b80600c60006101000a81548173ffffffffffffffffffffffffffffffffffffffff021916908373ffffffffffffffffffffffffffffffffffffffff16021790555050565b6000806003600084815260200190815260200160002060009054906101000a900473ffffffffffffffffffffffffffffffffffffffff169050600073ffffffffffffffffffffffffffffffffffffffff168173ffffffffffffffffffffffffffffffffffffffff1614156110ca576040517f08c379a00000000000000000000000000000000000000000000000000000000081526004016110c1906137d3565b60405180910390fd5b80915050919050565b600e80546110e090613b69565b80601f016020809104026020016040519081016040528092919081815260200182805461110c90613b69565b80156111595780601f1061112e57610100808354040283529160200191611159565b820191906000526020600020905b81548152906001019060200180831161113c57829003601f168201915b505050505081565b60008073ffffffffffffffffffffffffffffffffffffffff168273ffffffffffffffffffffffffffffffffffffffff1614156111d2576040517f08c379a00000000000000000000000000000000000000000000000000000000081526004016111c9906137b3565b60405180910390fd5b600460008373ffffffffffffffffffffffffffffffffffffffff1673ffffffffffffffffffffffffffffffffffffffff168152602001908152602001600020549050919050565b611221611d42565b73ffffffffffffffffffffffffffffffffffffffff1661123f611353565b73ffffffffffffffffffffffffffffffffffffffff1614611295576040517f08c379a000000000000000000000000000000000000000000000000000000000815260040161128c90613833565b60405180910390fd5b600073ffffffffffffffffffffffffffffffffffffffff1660008054906101000a900473ffffffffffffffffffffffffffffffffffffffff1673ffffffffffffffffffffffffffffffffffffffff167f8be0079c531659141344cd1fd0a4f28419497f9722a3daafe3b4186f6b6457e060405160405180910390a360008060006101000a81548173ffffffffffffffffffffffffffffffffffffffff021916908373ffffffffffffffffffffffffffffffffffffffff160217905550565b60008060009054906101000a900473ffffffffffffffffffffffffffffffffffffffff16905090565b60606002805461138b90613b69565b80601f01602080910402602001604051908101604052809291908181526020018280546113b790613b69565b80156114045780601f106113d957610100808354040283529160200191611404565b820191906000526020600020905b8154815290600101906020018083116113e757829003601f168201915b5050505050905090565b600f6020528060005260406000206000915090505481565b61142e611d42565b73ffffffffffffffffffffffffffffffffffffffff168273ffffffffffffffffffffffffffffffffffffffff16141561149c576040517f08c379a000000000000000000000000000000000000000000000000000000000815260040161149390613733565b60405180910390fd5b80600660006114a9611d42565b73ffffffffffffffffffffffffffffffffffffffff1673ffffffffffffffffffffffffffffffffffffffff16815260200190815260200160002060008473ffffffffffffffffffffffffffffffffffffffff1673ffffffffffffffffffffffffffffffffffffffff16815260200190815260200160002060006101000a81548160ff0219169083151502179055508173ffffffffffffffffffffffffffffffffffffffff16611556611d42565b73ffffffffffffffffffffffffffffffffffffffff167f17307eab39ab6107e8899845ad3d59bd9653f200f220920489ca2b5937696c318360405161159b919061363b565b60405180910390a35050565b6115b86115b2611d42565b83611e03565b6115f7576040517f08c379a00000000000000000000000000000000000000000000000000000000081526004016115ee906138b3565b60405180910390fd5b611603848484846121ad565b50505050565b611611611d42565b73ffffffffffffffffffffffffffffffffffffffff1661162f611353565b73ffffffffffffffffffffffffffffffffffffffff1614611685576040517f08c379a000000000000000000000000000000000000000000000000000000000815260040161167c90613833565b60405180910390fd5b600073ffffffffffffffffffffffffffffffffffffffff16600b60009054906101000a900473ffffffffffffffffffffffffffffffffffffffff1673ffffffffffffffffffffffffffffffffffffffff16146116e057600080fd5b80600b60006101000a81548173ffffffffffffffffffffffffffffffffffffffff021916908373ffffffffffffffffffffffffffffffffffffffff16021790555050565b606061172f82611cd6565b61176e576040517f08c379a000000000000000000000000000000000000000000000000000000000815260040161176590613873565b60405180910390fd5b6000611778612209565b9050600081511161179857604051806020016040528060008152506117c3565b806117a28461229b565b6040516020016117b39291906135b0565b6040516020818303038152906040525b915050919050565b600c60009054906101000a900473ffffffffffffffffffffffffffffffffffffffff1681565b6117f9611d42565b73ffffffffffffffffffffffffffffffffffffffff16611817611353565b73ffffffffffffffffffffffffffffffffffffffff161461186d576040517f08c379a000000000000000000000000000000000000000000000000000000000815260040161186490613833565b60405180910390fd5b6000611877610a09565b905060005b60328110156118ad5761189a33828461189591906139f8565b61213d565b80806118a590613bcc565b91505061187c565b5050565b600080601060008473ffffffffffffffffffffffffffffffffffffffff1673ffffffffffffffffffffffffffffffffffffffff168152602001908152602001600020549050600061190184611161565b905060005b8181101561196257600061191a8683610b04565b90506000600f6000838152602001908152602001600020544261193d9190613a7f565b9050808561194b91906139f8565b94505050808061195a90613bcc565b915050611906565b508192505050919050565b600b60009054906101000a900473ffffffffffffffffffffffffffffffffffffffff1681565b7f000000000000000000000000000000000000000000000000000000000000000081565b6000600660008473ffffffffffffffffffffffffffffffffffffffff1673ffffffffffffffffffffffffffffffffffffffff16815260200190815260200160002060008373ffffffffffffffffffffffffffffffffffffffff1673ffffffffffffffffffffffffffffffffffffffff16815260200190815260200160002060009054906101000a900460ff16905092915050565b611a53611d42565b73ffffffffffffffffffffffffffffffffffffffff16611a71611353565b73ffffffffffffffffffffffffffffffffffffffff1614611ac7576040517f08c379a0000000000000000000000000000000000000000000000000000000008152600401611abe90613833565b60405180910390fd5b600073ffffffffffffffffffffffffffffffffffffffff168173ffffffffffffffffffffffffffffffffffffffff161415611b37576040517f08c379a0000000000000000000000000000000000000000000000000000000008152600401611b2e906136d3565b60405180910390fd5b8073ffffffffffffffffffffffffffffffffffffffff1660008054906101000a900473ffffffffffffffffffffffffffffffffffffffff1673ffffffffffffffffffffffffffffffffffffffff167f8be0079c531659141344cd1fd0a4f28419497f9722a3daafe3b4186f6b6457e060405160405180910390a3806000806101000a81548173ffffffffffffffffffffffffffffffffffffffff021916908373ffffffffffffffffffffffffffffffffffffffff16021790555050565b60007f80ac58cd000000000000000000000000000000000000000000000000000000007bffffffffffffffffffffffffffffffffffffffffffffffffffffffff1916827bffffffffffffffffffffffffffffffffffffffffffffffffffffffff19161480611cbf57507f5b5e139f000000000000000000000000000000000000000000000000000000007bffffffffffffffffffffffffffffffffffffffffffffffffffffffff1916827bffffffffffffffffffffffffffffffffffffffffffffffffffffffff1916145b80611ccf5750611cce82612448565b5b9050919050565b60008073ffffffffffffffffffffffffffffffffffffffff166003600084815260200190815260200160002060009054906101000a900473ffffffffffffffffffffffffffffffffffffffff1673ffffffffffffffffffffffffffffffffffffffff1614159050919050565b600033905090565b816005600083815260200190815260200160002060006101000a81548173ffffffffffffffffffffffffffffffffffffffff021916908373ffffffffffffffffffffffffffffffffffffffff160217905550808273ffffffffffffffffffffffffffffffffffffffff16611dbd83611021565b73ffffffffffffffffffffffffffffffffffffffff167f8c5be1e5ebec7d5bd14f71427d1e84f3dd0314c0f7b2291e5b200ac8c7c3b92560405160405180910390a45050565b6000611e0e82611cd6565b611e4d576040517f08c379a0000000000000000000000000000000000000000000000000000000008152600401611e4490613753565b60405180910390fd5b6000611e5883611021565b90508073ffffffffffffffffffffffffffffffffffffffff168473ffffffffffffffffffffffffffffffffffffffff161480611ec757508373ffffffffffffffffffffffffffffffffffffffff16611eaf846107c2565b73ffffffffffffffffffffffffffffffffffffffff16145b80611ed85750611ed781856119b7565b5b91505092915050565b8273ffffffffffffffffffffffffffffffffffffffff16611f0182611021565b73ffffffffffffffffffffffffffffffffffffffff1614611f57576040517f08c379a0000000000000000000000000000000000000000000000000000000008152600401611f4e90613853565b60405180910390fd5b600073ffffffffffffffffffffffffffffffffffffffff168273ffffffffffffffffffffffffffffffffffffffff161415611fc7576040517f08c379a0000000000000000000000000000000000000000000000000000000008152600401611fbe90613713565b60405180910390fd5b611fd28383836124b2565b611fdd600082611d4a565b6001600460008573ffffffffffffffffffffffffffffffffffffffff1673ffffffffffffffffffffffffffffffffffffffff168152602001908152602001600020600082825461202d9190613a7f565b925050819055506001600460008473ffffffffffffffffffffffffffffffffffffffff1673ffffffffffffffffffffffffffffffffffffffff168152602001908152602001600020600082825461208491906139f8565b92505081905550816003600083815260200190815260200160002060006101000a81548173ffffffffffffffffffffffffffffffffffffffff021916908373ffffffffffffffffffffffffffffffffffffffff160217905550808273ffffffffffffffffffffffffffffffffffffffff168473ffffffffffffffffffffffffffffffffffffffff167fddf252ad1be2c89b69c2b068fc378daa952ba7f163c4a11628f55a4df523b3ef60405160405180910390a4505050565b7f0000000000000000000000000000000000000000000000000000000000000000811061219f576040517f08c379a000000000000000000000000000000000000000000000000000000000815260040161219690613773565b60405180910390fd5b6121a98282612554565b5050565b6121b8848484611ee1565b6121c484848484612572565b612203576040517f08c379a00000000000000000000000000000000000000000000000000000000081526004016121fa906136b3565b60405180910390fd5b50505050565b6060600e805461221890613b69565b80601f016020809104026020016040519081016040528092919081815260200182805461224490613b69565b80156122915780601f1061226657610100808354040283529160200191612291565b820191906000526020600020905b81548152906001019060200180831161227457829003601f168201915b5050505050905090565b606060008214156122e3576040518060400160405280600181526020017f30000000000000000000000000000000000000000000000000000000000000008152509050612443565b600082905060005b600082146123155780806122fe90613bcc565b915050600a8261230e9190613a4e565b91506122eb565b60008167ffffffffffffffff811115612357577f4e487b7100000000000000000000000000000000000000000000000000000000600052604160045260246000fd5b6040519080825280601f01601f1916602001820160405280156123895781602001600182028036833780820191505090505b5090505b6000851461243c576001826123a29190613a7f565b9150600a856123b19190613c15565b60306123bd91906139f8565b60f81b8183815181106123f9577f4e487b7100000000000000000000000000000000000000000000000000000000600052603260045260246000fd5b60200101907effffffffffffffffffffffffffffffffffffffffffffffffffffffffffffff1916908160001a905350600a856124359190613a4e565b945061238d565b8093505050505b919050565b60007f01ffc9a7000000000000000000000000000000000000000000000000000000007bffffffffffffffffffffffffffffffffffffffffffffffffffffffff1916827bffffffffffffffffffffffffffffffffffffffffffffffffffffffff1916149050919050565b6124bd838383612709565b6000600f600083815260200190815260200160002054426124de9190613a7f565b905080601060008673ffffffffffffffffffffffffffffffffffffffff1673ffffffffffffffffffffffffffffffffffffffff168152602001908152602001600020600082825461252f91906139f8565b9250508190555042600f60008481526020019081526020016000208190555050505050565b61256e82826040518060200160405280600081525061281d565b5050565b60006125938473ffffffffffffffffffffffffffffffffffffffff16612878565b156126fc578373ffffffffffffffffffffffffffffffffffffffff1663150b7a026125bc611d42565b8786866040518563ffffffff1660e01b81526004016125de94939291906135ef565b602060405180830381600087803b1580156125f857600080fd5b505af192505050801561262957506040513d601f19601f820116820180604052508101906126269190613182565b60015b6126ac573d8060008114612659576040519150601f19603f3d011682016040523d82523d6000602084013e61265e565b606091505b506000815114156126a4576040517f08c379a000000000000000000000000000000000000000000000000000000000815260040161269b906136b3565b60405180910390fd5b805181602001fd5b63150b7a0260e01b7bffffffffffffffffffffffffffffffffffffffffffffffffffffffff1916817bffffffffffffffffffffffffffffffffffffffffffffffffffffffff191614915050612701565b600190505b949350505050565b61271483838361288b565b600073ffffffffffffffffffffffffffffffffffffffff168373ffffffffffffffffffffffffffffffffffffffff1614156127575761275281612890565b612796565b8173ffffffffffffffffffffffffffffffffffffffff168373ffffffffffffffffffffffffffffffffffffffff16146127955761279483826128d9565b5b5b600073ffffffffffffffffffffffffffffffffffffffff168273ffffffffffffffffffffffffffffffffffffffff1614156127d9576127d481612a46565b612818565b8273ffffffffffffffffffffffffffffffffffffffff168273ffffffffffffffffffffffffffffffffffffffff1614612817576128168282612b89565b5b5b505050565b6128278383612c08565b6128346000848484612572565b612873576040517f08c379a000000000000000000000000000000000000000000000000000000000815260040161286a906136b3565b60405180910390fd5b505050565b600080823b905060008111915050919050565b505050565b600980549050600a600083815260200190815260200160002081905550600981908060018154018082558091505060019003906000526020600020016000909190919091505550565b600060016128e684611161565b6128f09190613a7f565b90506000600860008481526020019081526020016000205490508181146129d5576000600760008673ffffffffffffffffffffffffffffffffffffffff1673ffffffffffffffffffffffffffffffffffffffff168152602001908152602001600020600084815260200190815260200160002054905080600760008773ffffffffffffffffffffffffffffffffffffffff1673ffffffffffffffffffffffffffffffffffffffff168152602001908152602001600020600084815260200190815260200160002081905550816008600083815260200190815260200160002081905550505b6008600084815260200190815260200160002060009055600760008573ffffffffffffffffffffffffffffffffffffffff1673ffffffffffffffffffffffffffffffffffffffff16815260200190815260200160002060008381526020019081526020016000206000905550505050565b60006001600980549050612a5a9190613a7f565b90506000600a6000848152602001908152602001600020549050600060098381548110612ab0577f4e487b7100000000000000000000000000000000000000000000000000000000600052603260045260246000fd5b906000526020600020015490508060098381548110612af8577f4e487b7100000000000000000000000000000000000000000000000000000000600052603260045260246000fd5b906000526020600020018190555081600a600083815260200190815260200160002081905550600a6000858152602001908152602001600020600090556009805480612b6d577f4e487b7100000000000000000000000000000000000000000000000000000000600052603160045260246000fd5b6001900381819060005260206000200160009055905550505050565b6000612b9483611161565b905081600760008573ffffffffffffffffffffffffffffffffffffffff1673ffffffffffffffffffffffffffffffffffffffff168152602001908152602001600020600083815260200190815260200160002081905550806008600084815260200190815260200160002081905550505050565b600073ffffffffffffffffffffffffffffffffffffffff168273ffffffffffffffffffffffffffffffffffffffff161415612c78576040517f08c379a0000000000000000000000000000000000000000000000000000000008152600401612c6f906137f3565b60405180910390fd5b612c8181611cd6565b15612cc1576040517f08c379a0000000000000000000000000000000000000000000000000000000008152600401612cb8906136f3565b60405180910390fd5b612ccd600083836124b2565b6001600460008473ffffffffffffffffffffffffffffffffffffffff1673ffffffffffffffffffffffffffffffffffffffff1681526020019081526020016000206000828254612d1d91906139f8565b92505081905550816003600083815260200190815260200160002060006101000a81548173ffffffffffffffffffffffffffffffffffffffff021916908373ffffffffffffffffffffffffffffffffffffffff160217905550808273ffffffffffffffffffffffffffffffffffffffff16600073ffffffffffffffffffffffffffffffffffffffff167fddf252ad1be2c89b69c2b068fc378daa952ba7f163c4a11628f55a4df523b3ef60405160405180910390a45050565b828054612de290613b69565b90600052602060002090601f016020900481019282612e045760008555612e4b565b82601f10612e1d57805160ff1916838001178555612e4b565b82800160010185558215612e4b579182015b82811115612e4a578251825591602001919060010190612e2f565b5b509050612e589190612e5c565b5090565b5b80821115612e75576000816000905550600101612e5d565b5090565b6000612e8c612e8784613953565b61392e565b905082815260208101848484011115612ea457600080fd5b612eaf848285613b27565b509392505050565b6000612eca612ec584613984565b61392e565b905082815260208101848484011115612ee257600080fd5b612eed848285613b27565b509392505050565b600081359050612f048161425b565b92915050565b600081359050612f1981614272565b92915050565b600081359050612f2e81614289565b92915050565b600081519050612f4381614289565b92915050565b600082601f830112612f5a57600080fd5b8135612f6a848260208601612e79565b91505092915050565b600082601f830112612f8457600080fd5b8135612f94848260208601612eb7565b91505092915050565b600081359050612fac816142a0565b92915050565b600060208284031215612fc457600080fd5b6000612fd284828501612ef5565b91505092915050565b60008060408385031215612fee57600080fd5b6000612ffc85828601612ef5565b925050602061300d85828601612ef5565b9150509250929050565b60008060006060848603121561302c57600080fd5b600061303a86828701612ef5565b935050602061304b86828701612ef5565b925050604061305c86828701612f9d565b9150509250925092565b6000806000806080858703121561307c57600080fd5b600061308a87828801612ef5565b945050602061309b87828801612ef5565b93505060406130ac87828801612f9d565b925050606085013567ffffffffffffffff8111156130c957600080fd5b6130d587828801612f49565b91505092959194509250565b600080604083850312156130f457600080fd5b600061310285828601612ef5565b925050602061311385828601612f0a565b9150509250929050565b6000806040838503121561313057600080fd5b600061313e85828601612ef5565b925050602061314f85828601612f9d565b9150509250929050565b60006020828403121561316b57600080fd5b600061317984828501612f1f565b91505092915050565b60006020828403121561319457600080fd5b60006131a284828501612f34565b91505092915050565b6000602082840312156131bd57600080fd5b600082013567ffffffffffffffff8111156131d757600080fd5b6131e384828501612f73565b91505092915050565b6000602082840312156131fe57600080fd5b600061320c84828501612f9d565b91505092915050565b61321e81613ab3565b82525050565b61322d81613ac5565b82525050565b61323c81613ad1565b82525050565b600061324d826139b5565b61325781856139cb565b9350613267818560208601613b36565b61327081613d02565b840191505092915050565b6000613286826139c0565b61329081856139dc565b93506132a0818560208601613b36565b6132a981613d02565b840191505092915050565b60006132bf826139c0565b6132c981856139ed565b93506132d9818560208601613b36565b80840191505092915050565b60006132f2602b836139dc565b91506132fd82613d13565b604082019050919050565b60006133156032836139dc565b915061332082613d62565b604082019050919050565b60006133386026836139dc565b915061334382613db1565b604082019050919050565b600061335b601c836139dc565b915061336682613e00565b602082019050919050565b600061337e6024836139dc565b915061338982613e29565b604082019050919050565b60006133a16019836139dc565b91506133ac82613e78565b602082019050919050565b60006133c4602c836139dc565b91506133cf82613ea1565b604082019050919050565b60006133e7600a836139dc565b91506133f282613ef0565b602082019050919050565b600061340a6038836139dc565b915061341582613f19565b604082019050919050565b600061342d602a836139dc565b915061343882613f68565b604082019050919050565b60006134506029836139dc565b915061345b82613fb7565b604082019050919050565b60006134736020836139dc565b915061347e82614006565b602082019050919050565b6000613496602c836139dc565b91506134a18261402f565b604082019050919050565b60006134b96020836139dc565b91506134c48261407e565b602082019050919050565b60006134dc6029836139dc565b91506134e7826140a7565b604082019050919050565b60006134ff602f836139dc565b915061350a826140f6565b604082019050919050565b60006135226021836139dc565b915061352d82614145565b604082019050919050565b60006135456031836139dc565b915061355082614194565b604082019050919050565b6000613568602c836139dc565b9150613573826141e3565b604082019050919050565b600061358b600c836139dc565b915061359682614232565b602082019050919050565b6135aa81613b1d565b82525050565b60006135bc82856132b4565b91506135c882846132b4565b91508190509392505050565b60006020820190506135e96000830184613215565b92915050565b60006080820190506136046000830187613215565b6136116020830186613215565b61361e60408301856135a1565b81810360608301526136308184613242565b905095945050505050565b60006020820190506136506000830184613224565b92915050565b600060208201905061366b6000830184613233565b92915050565b6000602082019050818103600083015261368b818461327b565b905092915050565b600060208201905081810360008301526136ac816132e5565b9050919050565b600060208201905081810360008301526136cc81613308565b9050919050565b600060208201905081810360008301526136ec8161332b565b9050919050565b6000602082019050818103600083015261370c8161334e565b9050919050565b6000602082019050818103600083015261372c81613371565b9050919050565b6000602082019050818103600083015261374c81613394565b9050919050565b6000602082019050818103600083015261376c816133b7565b9050919050565b6000602082019050818103600083015261378c816133da565b9050919050565b600060208201905081810360008301526137ac816133fd565b9050919050565b600060208201905081810360008301526137cc81613420565b9050919050565b600060208201905081810360008301526137ec81613443565b9050919050565b6000602082019050818103600083015261380c81613466565b9050919050565b6000602082019050818103600083015261382c81613489565b9050919050565b6000602082019050818103600083015261384c816134ac565b9050919050565b6000602082019050818103600083015261386c816134cf565b9050919050565b6000602082019050818103600083015261388c816134f2565b9050919050565b600060208201905081810360008301526138ac81613515565b9050919050565b600060208201905081810360008301526138cc81613538565b9050919050565b600060208201905081810360008301526138ec8161355b565b9050919050565b6000602082019050818103600083015261390c8161357e565b9050919050565b600060208201905061392860008301846135a1565b92915050565b6000613938613949565b90506139448282613b9b565b919050565b6000604051905090565b600067ffffffffffffffff82111561396e5761396d613cd3565b5b61397782613d02565b9050602081019050919050565b600067ffffffffffffffff82111561399f5761399e613cd3565b5b6139a882613d02565b9050602081019050919050565b600081519050919050565b600081519050919050565b600082825260208201905092915050565b600082825260208201905092915050565b600081905092915050565b6000613a0382613b1d565b9150613a0e83613b1d565b9250827fffffffffffffffffffffffffffffffffffffffffffffffffffffffffffffffff03821115613a4357613a42613c46565b5b828201905092915050565b6000613a5982613b1d565b9150613a6483613b1d565b925082613a7457613a73613c75565b5b828204905092915050565b6000613a8a82613b1d565b9150613a9583613b1d565b925082821015613aa857613aa7613c46565b5b828203905092915050565b6000613abe82613afd565b9050919050565b60008115159050919050565b60007fffffffff0000000000000000000000000000000000000000000000000000000082169050919050565b600073ffffffffffffffffffffffffffffffffffffffff82169050919050565b6000819050919050565b82818337600083830152505050565b60005b83811015613b54578082015181840152602081019050613b39565b83811115613b63576000848401525b50505050565b60006002820490506001821680613b8157607f821691505b60208210811415613b9557613b94613ca4565b5b50919050565b613ba482613d02565b810181811067ffffffffffffffff82111715613bc357613bc2613cd3565b5b80604052505050565b6000613bd782613b1d565b91507fffffffffffffffffffffffffffffffffffffffffffffffffffffffffffffffff821415613c0a57613c09613c46565b5b600182019050919050565b6000613c2082613b1d565b9150613c2b83613b1d565b925082613c3b57613c3a613c75565b5b828206905092915050565b7f4e487b7100000000000000000000000000000000000000000000000000000000600052601160045260246000fd5b7f4e487b7100000000000000000000000000000000000000000000000000000000600052601260045260246000fd5b7f4e487b7100000000000000000000000000000000000000000000000000000000600052602260045260246000fd5b7f4e487b7100000000000000000000000000000000000000000000000000000000600052604160045260246000fd5b6000601f19601f8301169050919050565b7f455243373231456e756d657261626c653a206f776e657220696e646578206f7560008201527f74206f6620626f756e6473000000000000000000000000000000000000000000602082015250565b7f4552433732313a207472616e7366657220746f206e6f6e20455243373231526560008201527f63656976657220696d706c656d656e7465720000000000000000000000000000602082015250565b7f4f776e61626c653a206e6577206f776e657220697320746865207a65726f206160008201527f6464726573730000000000000000000000000000000000000000000000000000602082015250565b7f4552433732313a20746f6b656e20616c7265616479206d696e74656400000000600082015250565b7f4552433732313a207472616e7366657220746f20746865207a65726f2061646460008201527f7265737300000000000000000000000000000000000000000000000000000000602082015250565b7f4552433732313a20617070726f766520746f2063616c6c657200000000000000600082015250565b7f4552433732313a206f70657261746f7220717565727920666f72206e6f6e657860008201527f697374656e7420746f6b656e0000000000000000000000000000000000000000602082015250565b7f4d617820737570706c7900000000000000000000000000000000000000000000600082015250565b7f4552433732313a20617070726f76652063616c6c6572206973206e6f74206f7760008201527f6e6572206e6f7220617070726f76656420666f7220616c6c0000000000000000602082015250565b7f4552433732313a2062616c616e636520717565727920666f7220746865207a6560008201527f726f206164647265737300000000000000000000000000000000000000000000602082015250565b7f4552433732313a206f776e657220717565727920666f72206e6f6e657869737460008201527f656e7420746f6b656e0000000000000000000000000000000000000000000000602082015250565b7f4552433732313a206d696e7420746f20746865207a65726f2061646472657373600082015250565b7f4552433732313a20617070726f76656420717565727920666f72206e6f6e657860008201527f697374656e7420746f6b656e0000000000000000000000000000000000000000602082015250565b7f4f776e61626c653a2063616c6c6572206973206e6f7420746865206f776e6572600082015250565b7f4552433732313a207472616e73666572206f6620746f6b656e2074686174206960008201527f73206e6f74206f776e0000000000000000000000000000000000000000000000602082015250565b7f4552433732314d657461646174613a2055524920717565727920666f72206e6f60008201527f6e6578697374656e7420746f6b656e0000000000000000000000000000000000602082015250565b7f4552433732313a20617070726f76616c20746f2063757272656e74206f776e6560008201527f7200000000000000000000000000000000000000000000000000000000000000602082015250565b7f4552433732313a207472616e736665722063616c6c6572206973206e6f74206f60008201527f776e6572206e6f7220617070726f766564000000000000000000000000000000602082015250565b7f455243373231456e756d657261626c653a20676c6f62616c20696e646578206f60008201527f7574206f6620626f756e64730000000000000000000000000000000000000000602082015250565b7f4e69636520747279206c6f6c0000000000000000000000000000000000000000600082015250565b61426481613ab3565b811461426f57600080fd5b50565b61427b81613ac5565b811461428657600080fd5b50565b61429281613ad1565b811461429d57600080fd5b50565b6142a981613b1d565b81146142b457600080fd5b5056fea2646970667358221220f4e6f40be03047a1c3fe4b7c85d8e0666a580afd8c0a48dbb36ca1a829db576964736f6c63430008040033",
  "linkReferences": {},
  "deployedLinkReferences": {}
}