{
  "_format": "hh-sol-artifact-1",
  "contractName": "uwucrew",
  "sourceName": "contracts/uwucrew.sol",
  "abi": [
    {
      "inputs": [
        {
          "internalType": "string",
          "name": "_name",
          "type": "string"
        },
        {
          "internalType": "string",
          "name": "_symbol",
          "type": "string"
        },
        {
          "internalType": "uint256",
          "name": "maxSupply",
          "type": "uint256"
        }
      ],
      "stateMutability": "nonpayable",
      "type": "constructor"
    },
    {
      "anonymous": false,
      "inputs": [
        {
          "indexed": true,
          "internalType": "address",
          "name": "owner",
          "type": "address"
        },
        {
          "indexed": true,
          "internalType": "address",
          "name": "approved",
          "type": "address"
        },
        {
          "indexed": true,
          "internalType": "uint256",
          "name": "tokenId",
          "type": "uint256"
        }
      ],
      "name": "Approval",
      "type": "event"
    },
    {
      "anonymous": false,
      "inputs": [
        {
          "indexed": true,
          "internalType": "address",
          "name": "owner",
          "type": "address"
        },
        {
          "indexed": true,
          "internalType": "address",
          "name": "operator",
          "type": "address"
        },
        {
          "indexed": false,
          "internalType": "bool",
          "name": "approved",
          "type": "bool"
        }
      ],
      "name": "ApprovalForAll",
      "type": "event"
    },
    {
      "anonymous": false,
      "inputs": [
        {
          "indexed": true,
          "internalType": "address",
          "name": "previousOwner",
          "type": "address"
        },
        {
          "indexed": true,
          "internalType": "address",
          "name": "newOwner",
          "type": "address"
        }
      ],
      "name": "OwnershipTransferred",
      "type": "event"
    },
    {
      "anonymous": false,
      "inputs": [
        {
          "indexed": true,
          "internalType": "address",
          "name": "from",
          "type": "address"
        },
        {
          "indexed": true,
          "internalType": "address",
          "name": "to",
          "type": "address"
        },
        {
          "indexed": true,
          "internalType": "uint256",
          "name": "tokenId",
          "type": "uint256"
        }
      ],
      "name": "Transfer",
      "type": "event"
    },
    {
      "inputs": [],
      "name": "MAX_UWU",
      "outputs": [
        {
          "internalType": "uint256",
          "name": "",
          "type": "uint256"
        }
      ],
      "stateMutability": "view",
      "type": "function"
    },
    {
      "inputs": [],
      "name": "UWU_PROVENANCE",
      "outputs": [
        {
          "internalType": "string",
          "name": "",
          "type": "string"
        }
      ],
      "stateMutability": "view",
      "type": "function"
    },
    {
      "inputs": [],
      "name": "amountToLP",
      "outputs": [
        {
          "internalType": "uint256",
          "name": "",
          "type": "uint256"
        }
      ],
      "stateMutability": "view",
      "type": "function"
    },
    {
      "inputs": [
        {
          "internalType": "address",
          "name": "to",
          "type": "address"
        },
        {
          "internalType": "uint256",
          "name": "tokenId",
          "type": "uint256"
        }
      ],
      "name": "approve",
      "outputs": [],
      "stateMutability": "nonpayable",
      "type": "function"
    },
    {
      "inputs": [
        {
          "internalType": "address",
          "name": "owner",
          "type": "address"
        }
      ],
      "name": "balanceOf",
      "outputs": [
        {
          "internalType": "uint256",
          "name": "",
          "type": "uint256"
        }
      ],
      "stateMutability": "view",
      "type": "function"
    },
    {
      "inputs": [],
      "name": "baseURI",
      "outputs": [
        {
          "internalType": "string",
          "name": "",
          "type": "string"
        }
      ],
      "stateMutability": "view",
      "type": "function"
    },
    {
      "inputs": [],
      "name": "extraContract",
      "outputs": [
        {
          "internalType": "address",
          "name": "",
          "type": "address"
        }
      ],
      "stateMutability": "view",
      "type": "function"
    },
    {
      "inputs": [
        {
          "internalType": "uint256",
          "name": "tokenId",
          "type": "uint256"
        }
      ],
      "name": "getApproved",
      "outputs": [
        {
          "internalType": "address",
          "name": "",
          "type": "address"
        }
      ],
      "stateMutability": "view",
      "type": "function"
    },
    {
      "inputs": [
        {
          "internalType": "address",
          "name": "owner",
          "type": "address"
        },
        {
          "internalType": "address",
          "name": "operator",
          "type": "address"
        }
      ],
      "name": "isApprovedForAll",
      "outputs": [
        {
          "internalType": "bool",
          "name": "",
          "type": "bool"
        }
      ],
      "stateMutability": "view",
      "type": "function"
    },
    {
      "inputs": [
        {
          "internalType": "address",
          "name": "to",
          "type": "address"
        },
        {
          "internalType": "uint256",
          "name": "tokenId",
          "type": "uint256"
        }
      ],
      "name": "mint",
      "outputs": [],
      "stateMutability": "nonpayable",
      "type": "function"
    },
    {
      "inputs": [],
      "name": "name",
      "outputs": [
        {
          "internalType": "string",
          "name": "",
          "type": "string"
        }
      ],
      "stateMutability": "view",
      "type": "function"
    },
    {
      "inputs": [
        {
          "internalType": "address",
          "name": "",
          "type": "address"
        },
        {
          "internalType": "address",
          "name": "",
          "type": "address"
        },
        {
          "internalType": "uint256",
          "name": "",
          "type": "uint256"
        },
        {
          "internalType": "bytes",
          "name": "",
          "type": "bytes"
        }
      ],
      "name": "onERC721Received",
      "outputs": [
        {
          "internalType": "bytes4",
          "name": "",
          "type": "bytes4"
        }
      ],
      "stateMutability": "nonpayable",
      "type": "function"
    },
    {
      "inputs": [],
      "name": "owner",
      "outputs": [
        {
          "internalType": "address",
          "name": "",
          "type": "address"
        }
      ],
      "stateMutability": "view",
      "type": "function"
    },
    {
      "inputs": [
        {
          "internalType": "uint256",
          "name": "tokenId",
          "type": "uint256"
        }
      ],
      "name": "ownerOf",
      "outputs": [
        {
          "internalType": "address",
          "name": "",
          "type": "address"
        }
      ],
      "stateMutability": "view",
      "type": "function"
    },
    {
      "inputs": [
        {
          "internalType": "address",
          "name": "_saleContract",
          "type": "address"
        }
      ],
      "name": "prepareSale",
      "outputs": [],
      "stateMutability": "nonpayable",
      "type": "function"
    },
    {
      "inputs": [],
      "name": "renounceMinting",
      "outputs": [],
      "stateMutability": "nonpayable",
      "type": "function"
    },
    {
      "inputs": [],
      "name": "renounceOwnership",
      "outputs": [],
      "stateMutability": "nonpayable",
      "type": "function"
    },
    {
      "inputs": [],
      "name": "reserveUWUS",
      "outputs": [],
      "stateMutability": "nonpayable",
      "type": "function"
    },
    {
      "inputs": [
        {
          "internalType": "address",
          "name": "from",
          "type": "address"
        },
        {
          "internalType": "address",
          "name": "to",
          "type": "address"
        },
        {
          "internalType": "uint256",
          "name": "tokenId",
          "type": "uint256"
        }
      ],
      "name": "safeTransferFrom",
      "outputs": [],
      "stateMutability": "nonpayable",
      "type": "function"
    },
    {
      "inputs": [
        {
          "internalType": "address",
          "name": "from",
          "type": "address"
        },
        {
          "internalType": "address",
          "name": "to",
          "type": "address"
        },
        {
          "internalType": "uint256",
          "name": "tokenId",
          "type": "uint256"
        },
        {
          "internalType": "bytes",
          "name": "_data",
          "type": "bytes"
        }
      ],
      "name": "safeTransferFrom",
      "outputs": [],
      "stateMutability": "nonpayable",
      "type": "function"
    },
    {
      "inputs": [],
      "name": "saleContract",
      "outputs": [
        {
          "internalType": "address",
          "name": "",
          "type": "address"
        }
      ],
      "stateMutability": "view",
      "type": "function"
    },
    {
      "inputs": [
        {
          "internalType": "address",
          "name": "operator",
          "type": "address"
        },
        {
          "internalType": "bool",
          "name": "approved",
          "type": "bool"
        }
      ],
      "name": "setApprovalForAll",
      "outputs": [],
      "stateMutability": "nonpayable",
      "type": "function"
    },
    {
      "inputs": [
        {
          "internalType": "string",
          "name": "newURI",
          "type": "string"
        }
      ],
      "name": "setBaseURI",
      "outputs": [],
      "stateMutability": "nonpayable",
      "type": "function"
    },
    {
      "inputs": [
        {
          "internalType": "address",
          "name": "_extraContract",
          "type": "address"
        }
      ],
      "name": "setExtraContract",
      "outputs": [],
      "stateMutability": "nonpayable",
      "type": "function"
    },
    {
      "inputs": [
        {
          "internalType": "string",
          "name": "provenanceHash",
          "type": "string"
        }
      ],
      "name": "setProvenanceHash",
      "outputs": [],
      "stateMutability": "nonpayable",
      "type": "function"
    },
    {
      "inputs": [
        {
          "internalType": "bytes4",
          "name": "interfaceId",
          "type": "bytes4"
        }
      ],
      "name": "supportsInterface",
      "outputs": [
        {
          "internalType": "bool",
          "name": "",
          "type": "bool"
        }
      ],
      "stateMutability": "view",
      "type": "function"
    },
    {
      "inputs": [],
      "name": "symbol",
      "outputs": [
        {
          "internalType": "string",
          "name": "",
          "type": "string"
        }
      ],
      "stateMutability": "view",
      "type": "function"
    },
    {
      "inputs": [
        {
          "internalType": "uint256",
          "name": "index",
          "type": "uint256"
        }
      ],
      "name": "tokenByIndex",
      "outputs": [
        {
          "internalType": "uint256",
          "name": "",
          "type": "uint256"
        }
      ],
      "stateMutability": "view",
      "type": "function"
    },
    {
      "inputs": [
        {
          "internalType": "address",
          "name": "owner",
          "type": "address"
        },
        {
          "internalType": "uint256",
          "name": "index",
          "type": "uint256"
        }
      ],
      "name": "tokenOfOwnerByIndex",
      "outputs": [
        {
          "internalType": "uint256",
          "name": "",
          "type": "uint256"
        }
      ],
      "stateMutability": "view",
      "type": "function"
    },
    {
      "inputs": [
        {
          "internalType": "uint256",
          "name": "tokenId",
          "type": "uint256"
        }
      ],
      "name": "tokenURI",
      "outputs": [
        {
          "internalType": "string",
          "name": "",
          "type": "string"
        }
      ],
      "stateMutability": "view",
      "type": "function"
    },
    {
      "inputs": [],
      "name": "totalSupply",
      "outputs": [
        {
          "internalType": "uint256",
          "name": "",
          "type": "uint256"
        }
      ],
      "stateMutability": "view",
      "type": "function"
    },
    {
      "inputs": [
        {
          "internalType": "address",
          "name": "from",
          "type": "address"
        },
        {
          "internalType": "address",
          "name": "to",
          "type": "address"
        },
        {
          "internalType": "uint256",
          "name": "tokenId",
          "type": "uint256"
        }
      ],
      "name": "transferFrom",
      "outputs": [],
      "stateMutability": "nonpayable",
      "type": "function"
    },
    {
      "inputs": [
        {
          "internalType": "address",
          "name": "newOwner",
          "type": "address"
        }
      ],
      "name": "transferOwnership",
      "outputs": [],
      "stateMutability": "nonpayable",
      "type": "function"
    }
  ],
  "bytecode": "0x60a060405260405180602001604052806000815250600e90805190602001906200002b9291906200015e565b503480156200003957600080fd5b50604051620045b3380380620045b383398181016040528101906200005f919062000297565b82826000620000736200015660201b60201c565b9050806000806101000a81548173ffffffffffffffffffffffffffffffffffffffff021916908373ffffffffffffffffffffffffffffffffffffffff1602179055508073ffffffffffffffffffffffffffffffffffffffff16600073ffffffffffffffffffffffffffffffffffffffff167f8be0079c531659141344cd1fd0a4f28419497f9722a3daafe3b4186f6b6457e060405160405180910390a3508160019080519060200190620001299291906200015e565b508060029080519060200190620001429291906200015e565b5050508060808181525050505050620004b3565b600033905090565b8280546200016c90620003be565b90600052602060002090601f016020900481019282620001905760008555620001dc565b82601f10620001ab57805160ff1916838001178555620001dc565b82800160010185558215620001dc579182015b82811115620001db578251825591602001919060010190620001be565b5b509050620001eb9190620001ef565b5090565b5b808211156200020a576000816000905550600101620001f0565b5090565b6000620002256200021f8462000348565b6200031f565b9050828152602081018484840111156200023e57600080fd5b6200024b84828562000388565b509392505050565b600082601f8301126200026557600080fd5b8151620002778482602086016200020e565b91505092915050565b600081519050620002918162000499565b92915050565b600080600060608486031215620002ad57600080fd5b600084015167ffffffffffffffff811115620002c857600080fd5b620002d68682870162000253565b935050602084015167ffffffffffffffff811115620002f457600080fd5b620003028682870162000253565b9250506040620003158682870162000280565b9150509250925092565b60006200032b6200033e565b9050620003398282620003f4565b919050565b6000604051905090565b600067ffffffffffffffff82111562000366576200036562000459565b5b620003718262000488565b9050602081019050919050565b6000819050919050565b60005b83811015620003a85780820151818401526020810190506200038b565b83811115620003b8576000848401525b50505050565b60006002820490506001821680620003d757607f821691505b60208210811415620003ee57620003ed6200042a565b5b50919050565b620003ff8262000488565b810181811067ffffffffffffffff8211171562000421576200042062000459565b5b80604052505050565b7f4e487b7100000000000000000000000000000000000000000000000000000000600052602260045260246000fd5b7f4e487b7100000000000000000000000000000000000000000000000000000000600052604160045260246000fd5b6000601f19601f8301169050919050565b620004a4816200037e565b8114620004b057600080fd5b50565b6080516140dd620004d6600039600081816118270152611fd101526140dd6000f3fe608060405234801561001057600080fd5b50600436106101fb5760003560e01c8063597d86531161011a578063b88d4fde116100ad578063d3bab9481161007c578063d3bab9481461059c578063daf6ca30146105a6578063dd1a29f3146105c4578063e985e9c5146105e2578063f2fde38b14610612576101fb565b8063b88d4fde14610516578063c5d67d5414610532578063c87b56dd1461054e578063ce66440b1461057e576101fb565b8063715018a6116100e9578063715018a6146104b45780638da5cb5b146104be57806395d89b41146104dc578063a22cb465146104fa576101fb565b8063597d86531461041a5780636352211e146104365780636c0360eb1461046657806370a0823114610484576101fb565b806320adb2681161019257806342842e0e1161016157806342842e0e146103a85780634f6ccce7146103c4578063510ffc9b146103f457806355f804b3146103fe576101fb565b806320adb2681461032257806323b872dd146103405780632f745c591461035c57806340c10f191461038c576101fb565b806310969523116101ce578063109695231461029a578063150b7a02146102b657806318160ddd146102e657806318fad86a14610304576101fb565b806301ffc9a71461020057806306fdde0314610230578063081812fc1461024e578063095ea7b31461027e575b600080fd5b61021a60048036038101906102159190612f49565b61062e565b604051610227919061342b565b60405180910390f35b6102386106a8565b6040516102459190613461565b60405180910390f35b61026860048036038101906102639190612fdc565b61073a565b60405161027591906133c4565b60405180910390f35b61029860048036038101906102939190612f0d565b6107bf565b005b6102b460048036038101906102af9190612f9b565b6108d7565b005b6102d060048036038101906102cb9190612e56565b61096d565b6040516102dd9190613446565b60405180910390f35b6102ee610981565b6040516102fb9190613703565b60405180910390f35b61030c61098e565b6040516103199190613703565b60405180910390f35b61032a610994565b6040516103379190613461565b60405180910390f35b61035a60048036038101906103559190612e07565b610a22565b005b61037660048036038101906103719190612f0d565b610a82565b6040516103839190613703565b60405180910390f35b6103a660048036038101906103a19190612f0d565b610b27565b005b6103c260048036038101906103bd9190612e07565b610c1d565b005b6103de60048036038101906103d99190612fdc565b610c3d565b6040516103eb9190613703565b60405180910390f35b6103fc610cd4565b005b61041860048036038101906104139190612f9b565b610dd6565b005b610434600480360381019061042f9190612da2565b610e6c565b005b610450600480360381019061044b9190612fdc565b610f87565b60405161045d91906133c4565b60405180910390f35b61046e611039565b60405161047b9190613461565b60405180910390f35b61049e60048036038101906104999190612da2565b6110c7565b6040516104ab9190613703565b60405180910390f35b6104bc61117f565b005b6104c66112b9565b6040516104d391906133c4565b60405180910390f35b6104e46112e2565b6040516104f19190613461565b60405180910390f35b610514600480360381019061050f9190612ed1565b611374565b005b610530600480360381019061052b9190612e56565b6114f5565b005b61054c60048036038101906105479190612da2565b611557565b005b61056860048036038101906105639190612fdc565b611672565b6040516105759190613461565b60405180910390f35b610586611719565b60405161059391906133c4565b60405180910390f35b6105a461173f565b005b6105ae6117ff565b6040516105bb91906133c4565b60405180910390f35b6105cc611825565b6040516105d99190613703565b60405180910390f35b6105fc60048036038101906105f79190612dcb565b611849565b604051610609919061342b565b60405180910390f35b61062c60048036038101906106279190612da2565b6118dd565b005b60007f780e9d63000000000000000000000000000000000000000000000000000000007bffffffffffffffffffffffffffffffffffffffffffffffffffffffff1916827bffffffffffffffffffffffffffffffffffffffffffffffffffffffff191614806106a157506106a082611a86565b5b9050919050565b6060600180546106b790613959565b80601f01602080910402602001604051908101604052809291908181526020018280546106e390613959565b80156107305780601f1061070557610100808354040283529160200191610730565b820191906000526020600020905b81548152906001019060200180831161071357829003601f168201915b5050505050905090565b600061074582611b68565b610784576040517f08c379a000000000000000000000000000000000000000000000000000000000815260040161077b90613603565b60405180910390fd5b6005600083815260200190815260200160002060009054906101000a900473ffffffffffffffffffffffffffffffffffffffff169050919050565b60006107ca82610f87565b90508073ffffffffffffffffffffffffffffffffffffffff168373ffffffffffffffffffffffffffffffffffffffff16141561083b576040517f08c379a000000000000000000000000000000000000000000000000000000000815260040161083290613683565b60405180910390fd5b8073ffffffffffffffffffffffffffffffffffffffff1661085a611bd4565b73ffffffffffffffffffffffffffffffffffffffff161480610889575061088881610883611bd4565b611849565b5b6108c8576040517f08c379a00000000000000000000000000000000000000000000000000000000081526004016108bf90613583565b60405180910390fd5b6108d28383611bdc565b505050565b6108df611bd4565b73ffffffffffffffffffffffffffffffffffffffff166108fd6112b9565b73ffffffffffffffffffffffffffffffffffffffff1614610953576040517f08c379a000000000000000000000000000000000000000000000000000000000815260040161094a90613623565b60405180910390fd5b80600e9080519060200190610969929190612bc6565b5050565b600063150b7a0260e01b9050949350505050565b6000600980549050905090565b600d5481565b600e80546109a190613959565b80601f01602080910402602001604051908101604052809291908181526020018280546109cd90613959565b8015610a1a5780601f106109ef57610100808354040283529160200191610a1a565b820191906000526020600020905b8154815290600101906020018083116109fd57829003601f168201915b505050505081565b610a33610a2d611bd4565b82611c95565b610a72576040517f08c379a0000000000000000000000000000000000000000000000000000000008152600401610a69906136a3565b60405180910390fd5b610a7d838383611d73565b505050565b6000610a8d836110c7565b8210610ace576040517f08c379a0000000000000000000000000000000000000000000000000000000008152600401610ac590613483565b60405180910390fd5b600760008473ffffffffffffffffffffffffffffffffffffffff1673ffffffffffffffffffffffffffffffffffffffff168152602001908152602001600020600083815260200190815260200160002054905092915050565b600b60009054906101000a900473ffffffffffffffffffffffffffffffffffffffff1673ffffffffffffffffffffffffffffffffffffffff163373ffffffffffffffffffffffffffffffffffffffff161480610bd05750600c60009054906101000a900473ffffffffffffffffffffffffffffffffffffffff1673ffffffffffffffffffffffffffffffffffffffff163373ffffffffffffffffffffffffffffffffffffffff16145b610c0f576040517f08c379a0000000000000000000000000000000000000000000000000000000008152600401610c06906136e3565b60405180910390fd5b610c198282611fcf565b5050565b610c38838383604051806020016040528060008152506114f5565b505050565b6000610c47610981565b8210610c88576040517f08c379a0000000000000000000000000000000000000000000000000000000008152600401610c7f906136c3565b60405180910390fd5b60098281548110610cc2577f4e487b7100000000000000000000000000000000000000000000000000000000600052603260045260246000fd5b90600052602060002001549050919050565b610cdc611bd4565b73ffffffffffffffffffffffffffffffffffffffff16610cfa6112b9565b73ffffffffffffffffffffffffffffffffffffffff1614610d50576040517f08c379a0000000000000000000000000000000000000000000000000000000008152600401610d4790613623565b60405180910390fd5b6000600b60006101000a81548173ffffffffffffffffffffffffffffffffffffffff021916908373ffffffffffffffffffffffffffffffffffffffff1602179055506000600c60006101000a81548173ffffffffffffffffffffffffffffffffffffffff021916908373ffffffffffffffffffffffffffffffffffffffff160217905550565b610dde611bd4565b73ffffffffffffffffffffffffffffffffffffffff16610dfc6112b9565b73ffffffffffffffffffffffffffffffffffffffff1614610e52576040517f08c379a0000000000000000000000000000000000000000000000000000000008152600401610e4990613623565b60405180910390fd5b80600f9080519060200190610e68929190612bc6565b5050565b610e74611bd4565b73ffffffffffffffffffffffffffffffffffffffff16610e926112b9565b73ffffffffffffffffffffffffffffffffffffffff1614610ee8576040517f08c379a0000000000000000000000000000000000000000000000000000000008152600401610edf90613623565b60405180910390fd5b600073ffffffffffffffffffffffffffffffffffffffff16600c60009054906101000a900473ffffffffffffffffffffffffffffffffffffffff1673ffffffffffffffffffffffffffffffffffffffff1614610f4357600080fd5b80600c60006101000a81548173ffffffffffffffffffffffffffffffffffffffff021916908373ffffffffffffffffffffffffffffffffffffffff16021790555050565b6000806003600084815260200190815260200160002060009054906101000a900473ffffffffffffffffffffffffffffffffffffffff169050600073ffffffffffffffffffffffffffffffffffffffff168173ffffffffffffffffffffffffffffffffffffffff161415611030576040517f08c379a0000000000000000000000000000000000000000000000000000000008152600401611027906135c3565b60405180910390fd5b80915050919050565b600f805461104690613959565b80601f016020809104026020016040519081016040528092919081815260200182805461107290613959565b80156110bf5780601f10611094576101008083540402835291602001916110bf565b820191906000526020600020905b8154815290600101906020018083116110a257829003601f168201915b505050505081565b60008073ffffffffffffffffffffffffffffffffffffffff168273ffffffffffffffffffffffffffffffffffffffff161415611138576040517f08c379a000000000000000000000000000000000000000000000000000000000815260040161112f906135a3565b60405180910390fd5b600460008373ffffffffffffffffffffffffffffffffffffffff1673ffffffffffffffffffffffffffffffffffffffff168152602001908152602001600020549050919050565b611187611bd4565b73ffffffffffffffffffffffffffffffffffffffff166111a56112b9565b73ffffffffffffffffffffffffffffffffffffffff16146111fb576040517f08c379a00000000000000000000000000000000000000000000000000000000081526004016111f290613623565b60405180910390fd5b600073ffffffffffffffffffffffffffffffffffffffff1660008054906101000a900473ffffffffffffffffffffffffffffffffffffffff1673ffffffffffffffffffffffffffffffffffffffff167f8be0079c531659141344cd1fd0a4f28419497f9722a3daafe3b4186f6b6457e060405160405180910390a360008060006101000a81548173ffffffffffffffffffffffffffffffffffffffff021916908373ffffffffffffffffffffffffffffffffffffffff160217905550565b60008060009054906101000a900473ffffffffffffffffffffffffffffffffffffffff16905090565b6060600280546112f190613959565b80601f016020809104026020016040519081016040528092919081815260200182805461131d90613959565b801561136a5780601f1061133f5761010080835404028352916020019161136a565b820191906000526020600020905b81548152906001019060200180831161134d57829003601f168201915b5050505050905090565b61137c611bd4565b73ffffffffffffffffffffffffffffffffffffffff168273ffffffffffffffffffffffffffffffffffffffff1614156113ea576040517f08c379a00000000000000000000000000000000000000000000000000000000081526004016113e190613523565b60405180910390fd5b80600660006113f7611bd4565b73ffffffffffffffffffffffffffffffffffffffff1673ffffffffffffffffffffffffffffffffffffffff16815260200190815260200160002060008473ffffffffffffffffffffffffffffffffffffffff1673ffffffffffffffffffffffffffffffffffffffff16815260200190815260200160002060006101000a81548160ff0219169083151502179055508173ffffffffffffffffffffffffffffffffffffffff166114a4611bd4565b73ffffffffffffffffffffffffffffffffffffffff167f17307eab39ab6107e8899845ad3d59bd9653f200f220920489ca2b5937696c31836040516114e9919061342b565b60405180910390a35050565b611506611500611bd4565b83611c95565b611545576040517f08c379a000000000000000000000000000000000000000000000000000000000815260040161153c906136a3565b60405180910390fd5b6115518484848461203f565b50505050565b61155f611bd4565b73ffffffffffffffffffffffffffffffffffffffff1661157d6112b9565b73ffffffffffffffffffffffffffffffffffffffff16146115d3576040517f08c379a00000000000000000000000000000000000000000000000000000000081526004016115ca90613623565b60405180910390fd5b600073ffffffffffffffffffffffffffffffffffffffff16600b60009054906101000a900473ffffffffffffffffffffffffffffffffffffffff1673ffffffffffffffffffffffffffffffffffffffff161461162e57600080fd5b80600b60006101000a81548173ffffffffffffffffffffffffffffffffffffffff021916908373ffffffffffffffffffffffffffffffffffffffff16021790555050565b606061167d82611b68565b6116bc576040517f08c379a00000000000000000000000000000000000000000000000000000000081526004016116b390613663565b60405180910390fd5b60006116c661209b565b905060008151116116e65760405180602001604052806000815250611711565b806116f08461212d565b6040516020016117019291906133a0565b6040516020818303038152906040525b915050919050565b600c60009054906101000a900473ffffffffffffffffffffffffffffffffffffffff1681565b611747611bd4565b73ffffffffffffffffffffffffffffffffffffffff166117656112b9565b73ffffffffffffffffffffffffffffffffffffffff16146117bb576040517f08c379a00000000000000000000000000000000000000000000000000000000081526004016117b290613623565b60405180910390fd5b60006117c5610981565b905060005b60328110156117fb576117e83382846117e391906137e8565b611fcf565b80806117f3906139bc565b9150506117ca565b5050565b600b60009054906101000a900473ffffffffffffffffffffffffffffffffffffffff1681565b7f000000000000000000000000000000000000000000000000000000000000000081565b6000600660008473ffffffffffffffffffffffffffffffffffffffff1673ffffffffffffffffffffffffffffffffffffffff16815260200190815260200160002060008373ffffffffffffffffffffffffffffffffffffffff1673ffffffffffffffffffffffffffffffffffffffff16815260200190815260200160002060009054906101000a900460ff16905092915050565b6118e5611bd4565b73ffffffffffffffffffffffffffffffffffffffff166119036112b9565b73ffffffffffffffffffffffffffffffffffffffff1614611959576040517f08c379a000000000000000000000000000000000000000000000000000000000815260040161195090613623565b60405180910390fd5b600073ffffffffffffffffffffffffffffffffffffffff168173ffffffffffffffffffffffffffffffffffffffff1614156119c9576040517f08c379a00000000000000000000000000000000000000000000000000000000081526004016119c0906134c3565b60405180910390fd5b8073ffffffffffffffffffffffffffffffffffffffff1660008054906101000a900473ffffffffffffffffffffffffffffffffffffffff1673ffffffffffffffffffffffffffffffffffffffff167f8be0079c531659141344cd1fd0a4f28419497f9722a3daafe3b4186f6b6457e060405160405180910390a3806000806101000a81548173ffffffffffffffffffffffffffffffffffffffff021916908373ffffffffffffffffffffffffffffffffffffffff16021790555050565b60007f80ac58cd000000000000000000000000000000000000000000000000000000007bffffffffffffffffffffffffffffffffffffffffffffffffffffffff1916827bffffffffffffffffffffffffffffffffffffffffffffffffffffffff19161480611b5157507f5b5e139f000000000000000000000000000000000000000000000000000000007bffffffffffffffffffffffffffffffffffffffffffffffffffffffff1916827bffffffffffffffffffffffffffffffffffffffffffffffffffffffff1916145b80611b615750611b60826122da565b5b9050919050565b60008073ffffffffffffffffffffffffffffffffffffffff166003600084815260200190815260200160002060009054906101000a900473ffffffffffffffffffffffffffffffffffffffff1673ffffffffffffffffffffffffffffffffffffffff1614159050919050565b600033905090565b816005600083815260200190815260200160002060006101000a81548173ffffffffffffffffffffffffffffffffffffffff021916908373ffffffffffffffffffffffffffffffffffffffff160217905550808273ffffffffffffffffffffffffffffffffffffffff16611c4f83610f87565b73ffffffffffffffffffffffffffffffffffffffff167f8c5be1e5ebec7d5bd14f71427d1e84f3dd0314c0f7b2291e5b200ac8c7c3b92560405160405180910390a45050565b6000611ca082611b68565b611cdf576040517f08c379a0000000000000000000000000000000000000000000000000000000008152600401611cd690613543565b60405180910390fd5b6000611cea83610f87565b90508073ffffffffffffffffffffffffffffffffffffffff168473ffffffffffffffffffffffffffffffffffffffff161480611d5957508373ffffffffffffffffffffffffffffffffffffffff16611d418461073a565b73ffffffffffffffffffffffffffffffffffffffff16145b80611d6a5750611d698185611849565b5b91505092915050565b8273ffffffffffffffffffffffffffffffffffffffff16611d9382610f87565b73ffffffffffffffffffffffffffffffffffffffff1614611de9576040517f08c379a0000000000000000000000000000000000000000000000000000000008152600401611de090613643565b60405180910390fd5b600073ffffffffffffffffffffffffffffffffffffffff168273ffffffffffffffffffffffffffffffffffffffff161415611e59576040517f08c379a0000000000000000000000000000000000000000000000000000000008152600401611e5090613503565b60405180910390fd5b611e64838383612344565b611e6f600082611bdc565b6001600460008573ffffffffffffffffffffffffffffffffffffffff1673ffffffffffffffffffffffffffffffffffffffff1681526020019081526020016000206000828254611ebf919061386f565b925050819055506001600460008473ffffffffffffffffffffffffffffffffffffffff1673ffffffffffffffffffffffffffffffffffffffff1681526020019081526020016000206000828254611f1691906137e8565b92505081905550816003600083815260200190815260200160002060006101000a81548173ffffffffffffffffffffffffffffffffffffffff021916908373ffffffffffffffffffffffffffffffffffffffff160217905550808273ffffffffffffffffffffffffffffffffffffffff168473ffffffffffffffffffffffffffffffffffffffff167fddf252ad1be2c89b69c2b068fc378daa952ba7f163c4a11628f55a4df523b3ef60405160405180910390a4505050565b7f00000000000000000000000000000000000000000000000000000000000000008110612031576040517f08c379a000000000000000000000000000000000000000000000000000000000815260040161202890613563565b60405180910390fd5b61203b8282612458565b5050565b61204a848484611d73565b61205684848484612476565b612095576040517f08c379a000000000000000000000000000000000000000000000000000000000815260040161208c906134a3565b60405180910390fd5b50505050565b6060600f80546120aa90613959565b80601f01602080910402602001604051908101604052809291908181526020018280546120d690613959565b80156121235780601f106120f857610100808354040283529160200191612123565b820191906000526020600020905b81548152906001019060200180831161210657829003601f168201915b5050505050905090565b60606000821415612175576040518060400160405280600181526020017f300000000000000000000000000000000000000000000000000000000000000081525090506122d5565b600082905060005b600082146121a7578080612190906139bc565b915050600a826121a0919061383e565b915061217d565b60008167ffffffffffffffff8111156121e9577f4e487b7100000000000000000000000000000000000000000000000000000000600052604160045260246000fd5b6040519080825280601f01601f19166020018201604052801561221b5781602001600182028036833780820191505090505b5090505b600085146122ce57600182612234919061386f565b9150600a856122439190613a05565b603061224f91906137e8565b60f81b81838151811061228b577f4e487b7100000000000000000000000000000000000000000000000000000000600052603260045260246000fd5b60200101907effffffffffffffffffffffffffffffffffffffffffffffffffffffffffffff1916908160001a905350600a856122c7919061383e565b945061221f565b8093505050505b919050565b60007f01ffc9a7000000000000000000000000000000000000000000000000000000007bffffffffffffffffffffffffffffffffffffffffffffffffffffffff1916827bffffffffffffffffffffffffffffffffffffffffffffffffffffffff1916149050919050565b61234f83838361260d565b600073ffffffffffffffffffffffffffffffffffffffff168373ffffffffffffffffffffffffffffffffffffffff1614156123925761238d81612612565b6123d1565b8173ffffffffffffffffffffffffffffffffffffffff168373ffffffffffffffffffffffffffffffffffffffff16146123d0576123cf838261265b565b5b5b600073ffffffffffffffffffffffffffffffffffffffff168273ffffffffffffffffffffffffffffffffffffffff1614156124145761240f816127c8565b612453565b8273ffffffffffffffffffffffffffffffffffffffff168273ffffffffffffffffffffffffffffffffffffffff161461245257612451828261290b565b5b5b505050565b61247282826040518060200160405280600081525061298a565b5050565b60006124978473ffffffffffffffffffffffffffffffffffffffff166129e5565b15612600578373ffffffffffffffffffffffffffffffffffffffff1663150b7a026124c0611bd4565b8786866040518563ffffffff1660e01b81526004016124e294939291906133df565b602060405180830381600087803b1580156124fc57600080fd5b505af192505050801561252d57506040513d601f19601f8201168201806040525081019061252a9190612f72565b60015b6125b0573d806000811461255d576040519150601f19603f3d011682016040523d82523d6000602084013e612562565b606091505b506000815114156125a8576040517f08c379a000000000000000000000000000000000000000000000000000000000815260040161259f906134a3565b60405180910390fd5b805181602001fd5b63150b7a0260e01b7bffffffffffffffffffffffffffffffffffffffffffffffffffffffff1916817bffffffffffffffffffffffffffffffffffffffffffffffffffffffff191614915050612605565b600190505b949350505050565b505050565b600980549050600a600083815260200190815260200160002081905550600981908060018154018082558091505060019003906000526020600020016000909190919091505550565b60006001612668846110c7565b612672919061386f565b9050600060086000848152602001908152602001600020549050818114612757576000600760008673ffffffffffffffffffffffffffffffffffffffff1673ffffffffffffffffffffffffffffffffffffffff168152602001908152602001600020600084815260200190815260200160002054905080600760008773ffffffffffffffffffffffffffffffffffffffff1673ffffffffffffffffffffffffffffffffffffffff168152602001908152602001600020600084815260200190815260200160002081905550816008600083815260200190815260200160002081905550505b6008600084815260200190815260200160002060009055600760008573ffffffffffffffffffffffffffffffffffffffff1673ffffffffffffffffffffffffffffffffffffffff16815260200190815260200160002060008381526020019081526020016000206000905550505050565b600060016009805490506127dc919061386f565b90506000600a6000848152602001908152602001600020549050600060098381548110612832577f4e487b7100000000000000000000000000000000000000000000000000000000600052603260045260246000fd5b90600052602060002001549050806009838154811061287a577f4e487b7100000000000000000000000000000000000000000000000000000000600052603260045260246000fd5b906000526020600020018190555081600a600083815260200190815260200160002081905550600a60008581526020019081526020016000206000905560098054806128ef577f4e487b7100000000000000000000000000000000000000000000000000000000600052603160045260246000fd5b6001900381819060005260206000200160009055905550505050565b6000612916836110c7565b905081600760008573ffffffffffffffffffffffffffffffffffffffff1673ffffffffffffffffffffffffffffffffffffffff168152602001908152602001600020600083815260200190815260200160002081905550806008600084815260200190815260200160002081905550505050565b61299483836129f8565b6129a16000848484612476565b6129e0576040517f08c379a00000000000000000000000000000000000000000000000000000000081526004016129d7906134a3565b60405180910390fd5b505050565b600080823b905060008111915050919050565b600073ffffffffffffffffffffffffffffffffffffffff168273ffffffffffffffffffffffffffffffffffffffff161415612a68576040517f08c379a0000000000000000000000000000000000000000000000000000000008152600401612a5f906135e3565b60405180910390fd5b612a7181611b68565b15612ab1576040517f08c379a0000000000000000000000000000000000000000000000000000000008152600401612aa8906134e3565b60405180910390fd5b612abd60008383612344565b6001600460008473ffffffffffffffffffffffffffffffffffffffff1673ffffffffffffffffffffffffffffffffffffffff1681526020019081526020016000206000828254612b0d91906137e8565b92505081905550816003600083815260200190815260200160002060006101000a81548173ffffffffffffffffffffffffffffffffffffffff021916908373ffffffffffffffffffffffffffffffffffffffff160217905550808273ffffffffffffffffffffffffffffffffffffffff16600073ffffffffffffffffffffffffffffffffffffffff167fddf252ad1be2c89b69c2b068fc378daa952ba7f163c4a11628f55a4df523b3ef60405160405180910390a45050565b828054612bd290613959565b90600052602060002090601f016020900481019282612bf45760008555612c3b565b82601f10612c0d57805160ff1916838001178555612c3b565b82800160010185558215612c3b579182015b82811115612c3a578251825591602001919060010190612c1f565b5b509050612c489190612c4c565b5090565b5b80821115612c65576000816000905550600101612c4d565b5090565b6000612c7c612c7784613743565b61371e565b905082815260208101848484011115612c9457600080fd5b612c9f848285613917565b509392505050565b6000612cba612cb584613774565b61371e565b905082815260208101848484011115612cd257600080fd5b612cdd848285613917565b509392505050565b600081359050612cf48161404b565b92915050565b600081359050612d0981614062565b92915050565b600081359050612d1e81614079565b92915050565b600081519050612d3381614079565b92915050565b600082601f830112612d4a57600080fd5b8135612d5a848260208601612c69565b91505092915050565b600082601f830112612d7457600080fd5b8135612d84848260208601612ca7565b91505092915050565b600081359050612d9c81614090565b92915050565b600060208284031215612db457600080fd5b6000612dc284828501612ce5565b91505092915050565b60008060408385031215612dde57600080fd5b6000612dec85828601612ce5565b9250506020612dfd85828601612ce5565b9150509250929050565b600080600060608486031215612e1c57600080fd5b6000612e2a86828701612ce5565b9350506020612e3b86828701612ce5565b9250506040612e4c86828701612d8d565b9150509250925092565b60008060008060808587031215612e6c57600080fd5b6000612e7a87828801612ce5565b9450506020612e8b87828801612ce5565b9350506040612e9c87828801612d8d565b925050606085013567ffffffffffffffff811115612eb957600080fd5b612ec587828801612d39565b91505092959194509250565b60008060408385031215612ee457600080fd5b6000612ef285828601612ce5565b9250506020612f0385828601612cfa565b9150509250929050565b60008060408385031215612f2057600080fd5b6000612f2e85828601612ce5565b9250506020612f3f85828601612d8d565b9150509250929050565b600060208284031215612f5b57600080fd5b6000612f6984828501612d0f565b91505092915050565b600060208284031215612f8457600080fd5b6000612f9284828501612d24565b91505092915050565b600060208284031215612fad57600080fd5b600082013567ffffffffffffffff811115612fc757600080fd5b612fd384828501612d63565b91505092915050565b600060208284031215612fee57600080fd5b6000612ffc84828501612d8d565b91505092915050565b61300e816138a3565b82525050565b61301d816138b5565b82525050565b61302c816138c1565b82525050565b600061303d826137a5565b61304781856137bb565b9350613057818560208601613926565b61306081613af2565b840191505092915050565b6000613076826137b0565b61308081856137cc565b9350613090818560208601613926565b61309981613af2565b840191505092915050565b60006130af826137b0565b6130b981856137dd565b93506130c9818560208601613926565b80840191505092915050565b60006130e2602b836137cc565b91506130ed82613b03565b604082019050919050565b60006131056032836137cc565b915061311082613b52565b604082019050919050565b60006131286026836137cc565b915061313382613ba1565b604082019050919050565b600061314b601c836137cc565b915061315682613bf0565b602082019050919050565b600061316e6024836137cc565b915061317982613c19565b604082019050919050565b60006131916019836137cc565b915061319c82613c68565b602082019050919050565b60006131b4602c836137cc565b91506131bf82613c91565b604082019050919050565b60006131d7600a836137cc565b91506131e282613ce0565b602082019050919050565b60006131fa6038836137cc565b915061320582613d09565b604082019050919050565b600061321d602a836137cc565b915061322882613d58565b604082019050919050565b60006132406029836137cc565b915061324b82613da7565b604082019050919050565b60006132636020836137cc565b915061326e82613df6565b602082019050919050565b6000613286602c836137cc565b915061329182613e1f565b604082019050919050565b60006132a96020836137cc565b91506132b482613e6e565b602082019050919050565b60006132cc6029836137cc565b91506132d782613e97565b604082019050919050565b60006132ef602f836137cc565b91506132fa82613ee6565b604082019050919050565b60006133126021836137cc565b915061331d82613f35565b604082019050919050565b60006133356031836137cc565b915061334082613f84565b604082019050919050565b6000613358602c836137cc565b915061336382613fd3565b604082019050919050565b600061337b600c836137cc565b915061338682614022565b602082019050919050565b61339a8161390d565b82525050565b60006133ac82856130a4565b91506133b882846130a4565b91508190509392505050565b60006020820190506133d96000830184613005565b92915050565b60006080820190506133f46000830187613005565b6134016020830186613005565b61340e6040830185613391565b81810360608301526134208184613032565b905095945050505050565b60006020820190506134406000830184613014565b92915050565b600060208201905061345b6000830184613023565b92915050565b6000602082019050818103600083015261347b818461306b565b905092915050565b6000602082019050818103600083015261349c816130d5565b9050919050565b600060208201905081810360008301526134bc816130f8565b9050919050565b600060208201905081810360008301526134dc8161311b565b9050919050565b600060208201905081810360008301526134fc8161313e565b9050919050565b6000602082019050818103600083015261351c81613161565b9050919050565b6000602082019050818103600083015261353c81613184565b9050919050565b6000602082019050818103600083015261355c816131a7565b9050919050565b6000602082019050818103600083015261357c816131ca565b9050919050565b6000602082019050818103600083015261359c816131ed565b9050919050565b600060208201905081810360008301526135bc81613210565b9050919050565b600060208201905081810360008301526135dc81613233565b9050919050565b600060208201905081810360008301526135fc81613256565b9050919050565b6000602082019050818103600083015261361c81613279565b9050919050565b6000602082019050818103600083015261363c8161329c565b9050919050565b6000602082019050818103600083015261365c816132bf565b9050919050565b6000602082019050818103600083015261367c816132e2565b9050919050565b6000602082019050818103600083015261369c81613305565b9050919050565b600060208201905081810360008301526136bc81613328565b9050919050565b600060208201905081810360008301526136dc8161334b565b9050919050565b600060208201905081810360008301526136fc8161336e565b9050919050565b60006020820190506137186000830184613391565b92915050565b6000613728613739565b9050613734828261398b565b919050565b6000604051905090565b600067ffffffffffffffff82111561375e5761375d613ac3565b5b61376782613af2565b9050602081019050919050565b600067ffffffffffffffff82111561378f5761378e613ac3565b5b61379882613af2565b9050602081019050919050565b600081519050919050565b600081519050919050565b600082825260208201905092915050565b600082825260208201905092915050565b600081905092915050565b60006137f38261390d565b91506137fe8361390d565b9250827fffffffffffffffffffffffffffffffffffffffffffffffffffffffffffffffff0382111561383357613832613a36565b5b828201905092915050565b60006138498261390d565b91506138548361390d565b92508261386457613863613a65565b5b828204905092915050565b600061387a8261390d565b91506138858361390d565b92508282101561389857613897613a36565b5b828203905092915050565b60006138ae826138ed565b9050919050565b60008115159050919050565b60007fffffffff0000000000000000000000000000000000000000000000000000000082169050919050565b600073ffffffffffffffffffffffffffffffffffffffff82169050919050565b6000819050919050565b82818337600083830152505050565b60005b83811015613944578082015181840152602081019050613929565b83811115613953576000848401525b50505050565b6000600282049050600182168061397157607f821691505b6020821081141561398557613984613a94565b5b50919050565b61399482613af2565b810181811067ffffffffffffffff821117156139b3576139b2613ac3565b5b80604052505050565b60006139c78261390d565b91507fffffffffffffffffffffffffffffffffffffffffffffffffffffffffffffffff8214156139fa576139f9613a36565b5b600182019050919050565b6000613a108261390d565b9150613a1b8361390d565b925082613a2b57613a2a613a65565b5b828206905092915050565b7f4e487b7100000000000000000000000000000000000000000000000000000000600052601160045260246000fd5b7f4e487b7100000000000000000000000000000000000000000000000000000000600052601260045260246000fd5b7f4e487b7100000000000000000000000000000000000000000000000000000000600052602260045260246000fd5b7f4e487b7100000000000000000000000000000000000000000000000000000000600052604160045260246000fd5b6000601f19601f8301169050919050565b7f455243373231456e756d657261626c653a206f776e657220696e646578206f7560008201527f74206f6620626f756e6473000000000000000000000000000000000000000000602082015250565b7f4552433732313a207472616e7366657220746f206e6f6e20455243373231526560008201527f63656976657220696d706c656d656e7465720000000000000000000000000000602082015250565b7f4f776e61626c653a206e6577206f776e657220697320746865207a65726f206160008201527f6464726573730000000000000000000000000000000000000000000000000000602082015250565b7f4552433732313a20746f6b656e20616c7265616479206d696e74656400000000600082015250565b7f4552433732313a207472616e7366657220746f20746865207a65726f2061646460008201527f7265737300000000000000000000000000000000000000000000000000000000602082015250565b7f4552433732313a20617070726f766520746f2063616c6c657200000000000000600082015250565b7f4552433732313a206f70657261746f7220717565727920666f72206e6f6e657860008201527f697374656e7420746f6b656e0000000000000000000000000000000000000000602082015250565b7f4d617820737570706c7900000000000000000000000000000000000000000000600082015250565b7f4552433732313a20617070726f76652063616c6c6572206973206e6f74206f7760008201527f6e6572206e6f7220617070726f76656420666f7220616c6c0000000000000000602082015250565b7f4552433732313a2062616c616e636520717565727920666f7220746865207a6560008201527f726f206164647265737300000000000000000000000000000000000000000000602082015250565b7f4552433732313a206f776e657220717565727920666f72206e6f6e657869737460008201527f656e7420746f6b656e0000000000000000000000000000000000000000000000602082015250565b7f4552433732313a206d696e7420746f20746865207a65726f2061646472657373600082015250565b7f4552433732313a20617070726f76656420717565727920666f72206e6f6e657860008201527f697374656e7420746f6b656e0000000000000000000000000000000000000000602082015250565b7f4f776e61626c653a2063616c6c6572206973206e6f7420746865206f776e6572600082015250565b7f4552433732313a207472616e73666572206f6620746f6b656e2074686174206960008201527f73206e6f74206f776e0000000000000000000000000000000000000000000000602082015250565b7f4552433732314d657461646174613a2055524920717565727920666f72206e6f60008201527f6e6578697374656e7420746f6b656e0000000000000000000000000000000000602082015250565b7f4552433732313a20617070726f76616c20746f2063757272656e74206f776e6560008201527f7200000000000000000000000000000000000000000000000000000000000000602082015250565b7f4552433732313a207472616e736665722063616c6c6572206973206e6f74206f60008201527f776e6572206e6f7220617070726f766564000000000000000000000000000000602082015250565b7f455243373231456e756d657261626c653a20676c6f62616c20696e646578206f60008201527f7574206f6620626f756e64730000000000000000000000000000000000000000602082015250565b7f4e69636520747279206c6f6c0000000000000000000000000000000000000000600082015250565b614054816138a3565b811461405f57600080fd5b50565b61406b816138b5565b811461407657600080fd5b50565b614082816138c1565b811461408d57600080fd5b50565b6140998161390d565b81146140a457600080fd5b5056fea2646970667358221220ec213f131c9e9d8a9aaffffa6196e8fba12a6e5906f0d6e99ea332d98acc8cb964736f6c63430008040033",
  "linkReferences": {},
  "deployedLinkReferences": {}
}