{
  "_format": "hh-sol-artifact-1",
  "contractName": "uwucrewBSCWaveLockSale",
  "sourceName": "contracts/uwucrewBSCWetSale.sol",
  "abi": [
    {
      "inputs": [
        {
          "internalType": "uint256",
          "name": "_startTime",
          "type": "uint256"
        },
        {
          "internalType": "uint256",
          "name": "saleCount",
          "type": "uint256"
        }
      ],
      "stateMutability": "nonpayable",
      "type": "constructor"
    },
    {
      "anonymous": false,
      "inputs": [
        {
          "indexed": true,
          "internalType": "address",
          "name": "previousOwner",
          "type": "address"
        },
        {
          "indexed": true,
          "internalType": "address",
          "name": "newOwner",
          "type": "address"
        }
      ],
      "name": "OwnershipTransferred",
      "type": "event"
    },
    {
      "inputs": [],
      "name": "BURNADDR",
      "outputs": [
        {
          "internalType": "address",
          "name": "",
          "type": "address"
        }
      ],
      "stateMutability": "view",
      "type": "function"
    },
    {
      "inputs": [],
      "name": "WET",
      "outputs": [
        {
          "internalType": "address",
          "name": "",
          "type": "address"
        }
      ],
      "stateMutability": "view",
      "type": "function"
    },
    {
      "inputs": [],
      "name": "allContributors",
      "outputs": [
        {
          "internalType": "address[]",
          "name": "",
          "type": "address[]"
        }
      ],
      "stateMutability": "view",
      "type": "function"
    },
    {
      "inputs": [],
      "name": "allContributorsBalance",
      "outputs": [
        {
          "internalType": "uint256[]",
          "name": "",
          "type": "uint256[]"
        }
      ],
      "stateMutability": "view",
      "type": "function"
    },
    {
      "inputs": [],
      "name": "amountForSale",
      "outputs": [
        {
          "internalType": "uint256",
          "name": "",
          "type": "uint256"
        }
      ],
      "stateMutability": "view",
      "type": "function"
    },
    {
      "inputs": [],
      "name": "amountSold",
      "outputs": [
        {
          "internalType": "uint256",
          "name": "",
          "type": "uint256"
        }
      ],
      "stateMutability": "view",
      "type": "function"
    },
    {
      "inputs": [
        {
          "internalType": "address",
          "name": "",
          "type": "address"
        }
      ],
      "name": "balance",
      "outputs": [
        {
          "internalType": "uint256",
          "name": "",
          "type": "uint256"
        }
      ],
      "stateMutability": "view",
      "type": "function"
    },
    {
      "inputs": [
        {
          "internalType": "uint256",
          "name": "count",
          "type": "uint256"
        }
      ],
      "name": "buy",
      "outputs": [],
      "stateMutability": "nonpayable",
      "type": "function"
    },
    {
      "inputs": [],
      "name": "buyPrice",
      "outputs": [
        {
          "internalType": "uint256",
          "name": "",
          "type": "uint256"
        }
      ],
      "stateMutability": "view",
      "type": "function"
    },
    {
      "inputs": [
        {
          "internalType": "address",
          "name": "",
          "type": "address"
        }
      ],
      "name": "contributed",
      "outputs": [
        {
          "internalType": "bool",
          "name": "",
          "type": "bool"
        }
      ],
      "stateMutability": "view",
      "type": "function"
    },
    {
      "inputs": [],
      "name": "currentMaxPerTX",
      "outputs": [
        {
          "internalType": "uint256",
          "name": "",
          "type": "uint256"
        }
      ],
      "stateMutability": "view",
      "type": "function"
    },
    {
      "inputs": [],
      "name": "nextWaveBlock",
      "outputs": [
        {
          "internalType": "uint256",
          "name": "",
          "type": "uint256"
        }
      ],
      "stateMutability": "view",
      "type": "function"
    },
    {
      "inputs": [],
      "name": "owner",
      "outputs": [
        {
          "internalType": "address",
          "name": "",
          "type": "address"
        }
      ],
      "stateMutability": "view",
      "type": "function"
    },
    {
      "inputs": [],
      "name": "renounceOwnership",
      "outputs": [],
      "stateMutability": "nonpayable",
      "type": "function"
    },
    {
      "inputs": [],
      "name": "startBlock",
      "outputs": [
        {
          "internalType": "uint256",
          "name": "",
          "type": "uint256"
        }
      ],
      "stateMutability": "view",
      "type": "function"
    },
    {
      "inputs": [],
      "name": "startTime",
      "outputs": [
        {
          "internalType": "uint256",
          "name": "",
          "type": "uint256"
        }
      ],
      "stateMutability": "view",
      "type": "function"
    },
    {
      "inputs": [
        {
          "internalType": "address",
          "name": "newOwner",
          "type": "address"
        }
      ],
      "name": "transferOwnership",
      "outputs": [],
      "stateMutability": "nonpayable",
      "type": "function"
    },
    {
      "inputs": [],
      "name": "wave",
      "outputs": [
        {
          "internalType": "uint256",
          "name": "",
          "type": "uint256"
        }
      ],
      "stateMutability": "view",
      "type": "function"
    },
    {
      "inputs": [],
      "name": "waveBlockLength",
      "outputs": [
        {
          "internalType": "uint256",
          "name": "",
          "type": "uint256"
        }
      ],
      "stateMutability": "view",
      "type": "function"
    },
    {
      "inputs": [
        {
          "internalType": "uint256",
          "name": "",
          "type": "uint256"
        },
        {
          "internalType": "address",
          "name": "",
          "type": "address"
        }
      ],
      "name": "waveLock",
      "outputs": [
        {
          "internalType": "bool",
          "name": "",
          "type": "bool"
        }
      ],
      "stateMutability": "view",
      "type": "function"
    }
  ],
  "bytecode": "0x6080604052670de0b6b3a7640000612ae46200001c919062000189565b6004556000600755603c6008553480156200003657600080fd5b5060405162001b7038038062001b7083398181016040528101906200005c919062000148565b60006200006e6200012960201b60201c565b9050806000806101000a81548173ffffffffffffffffffffffffffffffffffffffff021916908373ffffffffffffffffffffffffffffffffffffffff1602179055508073ffffffffffffffffffffffffffffffffffffffff16600073ffffffffffffffffffffffffffffffffffffffff167f8be0079c531659141344cd1fd0a4f28419497f9722a3daafe3b4186f6b6457e060405160405180910390a35060018081905550816005819055508060028190555050506200023d565b600033905090565b600081519050620001428162000223565b92915050565b600080604083850312156200015c57600080fd5b60006200016c8582860162000131565b92505060206200017f8582860162000131565b9150509250929050565b60006200019682620001ea565b9150620001a383620001ea565b9250817fffffffffffffffffffffffffffffffffffffffffffffffffffffffffffffffff0483118215151615620001df57620001de620001f4565b5b828202905092915050565b6000819050919050565b7f4e487b7100000000000000000000000000000000000000000000000000000000600052601160045260246000fd5b6200022e81620001ea565b81146200023a57600080fd5b50565b611923806200024d6000396000f3fe608060405234801561001057600080fd5b506004361061012c5760003560e01c80638620410b116100ad578063d96a094a11610071578063d96a094a14610303578063dfb23d111461031f578063e3d670d71461033d578063e9d109a01461036d578063f2fde38b1461038b5761012c565b80638620410b146102495780638da5cb5b14610267578063995c5e9d14610285578063afa060e6146102b5578063d360af92146102e55761012c565b806352a16bb0116100f457806352a16bb0146101c75780636fe15b44146101e5578063715018a61461020357806378e979251461020d5780638473e55f1461022b5761012c565b806313b8b97f146101315780631c99263a1461014f57806348cd4cb11461016d5780634c1ac7881461018b5780634eaed81c146101a9575b600080fd5b6101396103a7565b604051610146919061135b565b60405180910390f35b610157610595565b6040516101649190611498565b60405180910390f35b6101756105a7565b6040516101829190611498565b60405180910390f35b6101936105ad565b6040516101a09190611339565b60405180910390f35b6101b161063b565b6040516101be9190611498565b60405180910390f35b6101cf610665565b6040516101dc9190611498565b60405180910390f35b6101ed61066b565b6040516101fa9190611498565b60405180910390f35b61020b610671565b005b6102156107ab565b6040516102229190611498565b60405180910390f35b6102336107b1565b6040516102409190611498565b60405180910390f35b6102516107b7565b60405161025e9190611498565b60405180910390f35b61026f6107bd565b60405161027c91906112e7565b60405180910390f35b61029f600480360381019061029a9190610fe1565b6107e6565b6040516102ac919061137d565b60405180910390f35b6102cf60048036038101906102ca919061105c565b610806565b6040516102dc919061137d565b60405180910390f35b6102ed610835565b6040516102fa91906112e7565b60405180910390f35b61031d60048036038101906103189190611033565b61083c565b005b610327610d21565b60405161033491906112e7565b60405180910390f35b61035760048036038101906103529190610fe1565b610d39565b6040516103649190611498565b60405180910390f35b610375610d51565b6040516103829190611498565b60405180910390f35b6103a560048036038101906103a09190610fe1565b610d57565b005b60606000600b80548060200260200160405190810160405280929190818152602001828054801561042d57602002820191906000526020600020905b8160009054906101000a900473ffffffffffffffffffffffffffffffffffffffff1673ffffffffffffffffffffffffffffffffffffffff16815260200190600101908083116103e3575b505050505090506000815167ffffffffffffffff811115610477577f4e487b7100000000000000000000000000000000000000000000000000000000600052604160045260246000fd5b6040519080825280602002602001820160405280156104a55781602001602082028036833780820191505090505b50905060005b825181101561058c57600a60008483815181106104f1577f4e487b7100000000000000000000000000000000000000000000000000000000600052603260045260246000fd5b602002602001015173ffffffffffffffffffffffffffffffffffffffff1673ffffffffffffffffffffffffffffffffffffffff1681526020019081526020016000205482828151811061056d577f4e487b7100000000000000000000000000000000000000000000000000000000600052603260045260246000fd5b602002602001018181525050808061058490611693565b9150506104ab565b50809250505090565b60006105a2600754610f00565b905090565b60065481565b6060600b80548060200260200160405190810160405280929190818152602001828054801561063157602002820191906000526020600020905b8160009054906101000a900473ffffffffffffffffffffffffffffffffffffffff1673ffffffffffffffffffffffffffffffffffffffff16815260200190600101908083116105e7575b5050505050905090565b6000806006544361064c9190611617565b905060006008548261065e91906115bd565b9050505090565b60035481565b60075481565b610679610f41565b73ffffffffffffffffffffffffffffffffffffffff166106976107bd565b73ffffffffffffffffffffffffffffffffffffffff16146106ed576040517f08c379a00000000000000000000000000000000000000000000000000000000081526004016106e4906113f8565b60405180910390fd5b600073ffffffffffffffffffffffffffffffffffffffff1660008054906101000a900473ffffffffffffffffffffffffffffffffffffffff1673ffffffffffffffffffffffffffffffffffffffff167f8be0079c531659141344cd1fd0a4f28419497f9722a3daafe3b4186f6b6457e060405160405180910390a360008060006101000a81548173ffffffffffffffffffffffffffffffffffffffff021916908373ffffffffffffffffffffffffffffffffffffffff160217905550565b60055481565b60025481565b60045481565b60008060009054906101000a900473ffffffffffffffffffffffffffffffffffffffff16905090565b600c6020528060005260406000206000915054906101000a900460ff1681565b60096020528160005260406000206020528060005260406000206000915091509054906101000a900460ff1681565b6208008581565b60026001541415610882576040517f08c379a000000000000000000000000000000000000000000000000000000000815260040161087990611478565b60405180910390fd5b600260018190555060055442116108ce576040517f08c379a00000000000000000000000000000000000000000000000000000000081526004016108c590611458565b60405180910390fd5b60008111610911576040517f08c379a0000000000000000000000000000000000000000000000000000000008152600401610908906113b8565b60405180910390fd5b60025460035410610957576040517f08c379a000000000000000000000000000000000000000000000000000000000815260040161094e90611418565b60405180910390fd5b61095f610f49565b60096000600754815260200190815260200160002060003373ffffffffffffffffffffffffffffffffffffffff1673ffffffffffffffffffffffffffffffffffffffff16815260200190815260200160002060009054906101000a900460ff16156109ff576040517f08c379a00000000000000000000000000000000000000000000000000000000081526004016109f690611438565b60405180910390fd5b610a0a600754610f00565b811115610a4c576040517f08c379a0000000000000000000000000000000000000000000000000000000008152600401610a43906113d8565b60405180910390fd5b60025481600354610a5d9190611536565b1115610a7c576000600354600254610a759190611617565b9050809150505b7376280af9d18a868a0af3dca95b57dde816c1aaf273ffffffffffffffffffffffffffffffffffffffff166323b872dd336208008560045485610abf91906115bd565b6040518463ffffffff1660e01b8152600401610add93929190611302565b602060405180830381600087803b158015610af757600080fd5b505af1158015610b0b573d6000803e3d6000fd5b505050506040513d601f19601f82011682018060405250810190610b2f919061100a565b50600c60003373ffffffffffffffffffffffffffffffffffffffff1673ffffffffffffffffffffffffffffffffffffffff16815260200190815260200160002060009054906101000a900460ff16610c3d57600b339080600181540180825580915050600190039060005260206000200160009091909190916101000a81548173ffffffffffffffffffffffffffffffffffffffff021916908373ffffffffffffffffffffffffffffffffffffffff1602179055506001600c60003373ffffffffffffffffffffffffffffffffffffffff1673ffffffffffffffffffffffffffffffffffffffff16815260200190815260200160002060006101000a81548160ff0219169083151502179055505b8060036000828254610c4f9190611536565b9250508190555080600a60003373ffffffffffffffffffffffffffffffffffffffff1673ffffffffffffffffffffffffffffffffffffffff1681526020019081526020016000206000828254610ca59190611536565b92505081905550600160096000600754815260200190815260200160002060003373ffffffffffffffffffffffffffffffffffffffff1673ffffffffffffffffffffffffffffffffffffffff16815260200190815260200160002060006101000a81548160ff0219169083151502179055506001808190555050565b7376280af9d18a868a0af3dca95b57dde816c1aaf281565b600a6020528060005260406000206000915090505481565b60085481565b610d5f610f41565b73ffffffffffffffffffffffffffffffffffffffff16610d7d6107bd565b73ffffffffffffffffffffffffffffffffffffffff1614610dd3576040517f08c379a0000000000000000000000000000000000000000000000000000000008152600401610dca906113f8565b60405180910390fd5b600073ffffffffffffffffffffffffffffffffffffffff168173ffffffffffffffffffffffffffffffffffffffff161415610e43576040517f08c379a0000000000000000000000000000000000000000000000000000000008152600401610e3a90611398565b60405180910390fd5b8073ffffffffffffffffffffffffffffffffffffffff1660008054906101000a900473ffffffffffffffffffffffffffffffffffffffff1673ffffffffffffffffffffffffffffffffffffffff167f8be0079c531659141344cd1fd0a4f28419497f9722a3daafe3b4186f6b6457e060405160405180910390a3806000806101000a81548173ffffffffffffffffffffffffffffffffffffffff021916908373ffffffffffffffffffffffffffffffffffffffff16021790555050565b600080821415610f135760049050610f3c565b6001821415610f255760109050610f3c565b6002821415610f375760209050610f3c565b604090505b919050565b600033905090565b6000600654148015610f5c575060055442115b15610f6957436006819055505b600060065443610f799190611617565b9050600060085482610f8b919061158c565b90506007548114610f9e57806007819055505b5050565b600081359050610fb1816118a8565b92915050565b600081519050610fc6816118bf565b92915050565b600081359050610fdb816118d6565b92915050565b600060208284031215610ff357600080fd5b600061100184828501610fa2565b91505092915050565b60006020828403121561101c57600080fd5b600061102a84828501610fb7565b91505092915050565b60006020828403121561104557600080fd5b600061105384828501610fcc565b91505092915050565b6000806040838503121561106f57600080fd5b600061107d85828601610fcc565b925050602061108e85828601610fa2565b9150509250929050565b60006110a483836110c8565b60208301905092915050565b60006110bc83836112c9565b60208301905092915050565b6110d18161164b565b82525050565b6110e08161164b565b82525050565b60006110f1826114d3565b6110fb8185611503565b9350611106836114b3565b8060005b8381101561113757815161111e8882611098565b9750611129836114e9565b92505060018101905061110a565b5085935050505092915050565b600061114f826114de565b6111598185611514565b9350611164836114c3565b8060005b8381101561119557815161117c88826110b0565b9750611187836114f6565b925050600181019050611168565b5085935050505092915050565b6111ab8161165d565b82525050565b60006111be602683611525565b91506111c98261173a565b604082019050919050565b60006111e1600d83611525565b91506111ec82611789565b602082019050919050565b6000611204601783611525565b915061120f826117b2565b602082019050919050565b6000611227602083611525565b9150611232826117db565b602082019050919050565b600061124a601083611525565b915061125582611804565b602082019050919050565b600061126d601483611525565b91506112788261182d565b602082019050919050565b6000611290601483611525565b915061129b82611856565b602082019050919050565b60006112b3601f83611525565b91506112be8261187f565b602082019050919050565b6112d281611689565b82525050565b6112e181611689565b82525050565b60006020820190506112fc60008301846110d7565b92915050565b600060608201905061131760008301866110d7565b61132460208301856110d7565b61133160408301846112d8565b949350505050565b6000602082019050818103600083015261135381846110e6565b905092915050565b600060208201905081810360008301526113758184611144565b905092915050565b600060208201905061139260008301846111a2565b92915050565b600060208201905081810360008301526113b1816111b1565b9050919050565b600060208201905081810360008301526113d1816111d4565b9050919050565b600060208201905081810360008301526113f1816111f7565b9050919050565b600060208201905081810360008301526114118161121a565b9050919050565b600060208201905081810360008301526114318161123d565b9050919050565b6000602082019050818103600083015261145181611260565b9050919050565b6000602082019050818103600083015261147181611283565b9050919050565b60006020820190508181036000830152611491816112a6565b9050919050565b60006020820190506114ad60008301846112d8565b92915050565b6000819050602082019050919050565b6000819050602082019050919050565b600081519050919050565b600081519050919050565b6000602082019050919050565b6000602082019050919050565b600082825260208201905092915050565b600082825260208201905092915050565b600082825260208201905092915050565b600061154182611689565b915061154c83611689565b9250827fffffffffffffffffffffffffffffffffffffffffffffffffffffffffffffffff03821115611581576115806116dc565b5b828201905092915050565b600061159782611689565b91506115a283611689565b9250826115b2576115b161170b565b5b828204905092915050565b60006115c882611689565b91506115d383611689565b9250817fffffffffffffffffffffffffffffffffffffffffffffffffffffffffffffffff048311821515161561160c5761160b6116dc565b5b828202905092915050565b600061162282611689565b915061162d83611689565b9250828210156116405761163f6116dc565b5b828203905092915050565b600061165682611669565b9050919050565b60008115159050919050565b600073ffffffffffffffffffffffffffffffffffffffff82169050919050565b6000819050919050565b600061169e82611689565b91507fffffffffffffffffffffffffffffffffffffffffffffffffffffffffffffffff8214156116d1576116d06116dc565b5b600182019050919050565b7f4e487b7100000000000000000000000000000000000000000000000000000000600052601160045260246000fd5b7f4e487b7100000000000000000000000000000000000000000000000000000000600052601260045260246000fd5b7f4f776e61626c653a206e6577206f776e657220697320746865207a65726f206160008201527f6464726573730000000000000000000000000000000000000000000000000000602082015250565b7f43616e6e6f74206d696e74203000000000000000000000000000000000000000600082015250565b7f4d617820666f7220545820696e20746869732077617665000000000000000000600082015250565b7f4f776e61626c653a2063616c6c6572206973206e6f7420746865206f776e6572600082015250565b7f536f6c64206f75742120536f7272792100000000000000000000000000000000600082015250565b7f4c6f636b656420666f7220746869732077617665000000000000000000000000600082015250565b7f53616c6520686173206e6f742073746172746564000000000000000000000000600082015250565b7f5265656e7472616e637947756172643a207265656e7472616e742063616c6c00600082015250565b6118b18161164b565b81146118bc57600080fd5b50565b6118c88161165d565b81146118d357600080fd5b50565b6118df81611689565b81146118ea57600080fd5b5056fea2646970667358221220aa707a291c3486a83efdb63dc1bcbb22ac660dbe7d00a670933de22779eea08264736f6c63430008040033",
  "linkReferences": {},
  "deployedLinkReferences": {}
}