{
  "_format": "hh-sol-artifact-1",
  "contractName": "uwucrewBSCWaveLockSale",
  "sourceName": "contracts/uwucrewBSCWetSale.sol",
  "abi": [
    {
      "inputs": [
        {
          "internalType": "uint256",
          "name": "_startTime",
          "type": "uint256"
        },
        {
          "internalType": "uint256",
          "name": "saleCount",
          "type": "uint256"
        }
      ],
      "stateMutability": "nonpayable",
      "type": "constructor"
    },
    {
      "anonymous": false,
      "inputs": [
        {
          "indexed": true,
          "internalType": "address",
          "name": "previousOwner",
          "type": "address"
        },
        {
          "indexed": true,
          "internalType": "address",
          "name": "newOwner",
          "type": "address"
        }
      ],
      "name": "OwnershipTransferred",
      "type": "event"
    },
    {
      "inputs": [],
      "name": "BURNADDR",
      "outputs": [
        {
          "internalType": "address",
          "name": "",
          "type": "address"
        }
      ],
      "stateMutability": "view",
      "type": "function"
    },
    {
      "inputs": [],
      "name": "WAIFUSION",
      "outputs": [
        {
          "internalType": "contract IERC721Enumerable",
          "name": "",
          "type": "address"
        }
      ],
      "stateMutability": "view",
      "type": "function"
    },
    {
      "inputs": [],
      "name": "WET",
      "outputs": [
        {
          "internalType": "address",
          "name": "",
          "type": "address"
        }
      ],
      "stateMutability": "view",
      "type": "function"
    },
    {
      "inputs": [],
      "name": "allContributors",
      "outputs": [
        {
          "internalType": "address[]",
          "name": "",
          "type": "address[]"
        }
      ],
      "stateMutability": "view",
      "type": "function"
    },
    {
      "inputs": [],
      "name": "allContributorsBalance",
      "outputs": [
        {
          "internalType": "uint256[]",
          "name": "",
          "type": "uint256[]"
        }
      ],
      "stateMutability": "view",
      "type": "function"
    },
    {
      "inputs": [],
      "name": "allContributorsEthAddrs",
      "outputs": [
        {
          "internalType": "address[]",
          "name": "",
          "type": "address[]"
        }
      ],
      "stateMutability": "view",
      "type": "function"
    },
    {
      "inputs": [],
      "name": "amountForSale",
      "outputs": [
        {
          "internalType": "uint256",
          "name": "",
          "type": "uint256"
        }
      ],
      "stateMutability": "view",
      "type": "function"
    },
    {
      "inputs": [],
      "name": "amountSold",
      "outputs": [
        {
          "internalType": "uint256",
          "name": "",
          "type": "uint256"
        }
      ],
      "stateMutability": "view",
      "type": "function"
    },
    {
      "inputs": [
        {
          "internalType": "address",
          "name": "",
          "type": "address"
        }
      ],
      "name": "balance",
      "outputs": [
        {
          "internalType": "uint256",
          "name": "",
          "type": "uint256"
        }
      ],
      "stateMutability": "view",
      "type": "function"
    },
    {
      "inputs": [
        {
          "internalType": "address",
          "name": "",
          "type": "address"
        }
      ],
      "name": "bscToEthAddr",
      "outputs": [
        {
          "internalType": "address",
          "name": "",
          "type": "address"
        }
      ],
      "stateMutability": "view",
      "type": "function"
    },
    {
      "inputs": [
        {
          "internalType": "uint256",
          "name": "count",
          "type": "uint256"
        },
        {
          "internalType": "address",
          "name": "ethAddress",
          "type": "address"
        }
      ],
      "name": "buy",
      "outputs": [],
      "stateMutability": "nonpayable",
      "type": "function"
    },
    {
      "inputs": [],
      "name": "buyPrice",
      "outputs": [
        {
          "internalType": "uint256",
          "name": "",
          "type": "uint256"
        }
      ],
      "stateMutability": "view",
      "type": "function"
    },
    {
      "inputs": [
        {
          "internalType": "address",
          "name": "",
          "type": "address"
        }
      ],
      "name": "contributed",
      "outputs": [
        {
          "internalType": "bool",
          "name": "",
          "type": "bool"
        }
      ],
      "stateMutability": "view",
      "type": "function"
    },
    {
      "inputs": [],
      "name": "currentMaxPerTX",
      "outputs": [
        {
          "internalType": "uint256",
          "name": "",
          "type": "uint256"
        }
      ],
      "stateMutability": "view",
      "type": "function"
    },
    {
      "inputs": [
        {
          "internalType": "uint256",
          "name": "_wave",
          "type": "uint256"
        }
      ],
      "name": "maxPerTX",
      "outputs": [
        {
          "internalType": "uint256",
          "name": "",
          "type": "uint256"
        }
      ],
      "stateMutability": "pure",
      "type": "function"
    },
    {
      "inputs": [],
      "name": "owner",
      "outputs": [
        {
          "internalType": "address",
          "name": "",
          "type": "address"
        }
      ],
      "stateMutability": "view",
      "type": "function"
    },
    {
      "inputs": [],
      "name": "renounceOwnership",
      "outputs": [],
      "stateMutability": "nonpayable",
      "type": "function"
    },
    {
      "inputs": [
        {
          "internalType": "uint256",
          "name": "_startTime",
          "type": "uint256"
        }
      ],
      "name": "setStartTime",
      "outputs": [],
      "stateMutability": "nonpayable",
      "type": "function"
    },
    {
      "inputs": [],
      "name": "startBlock",
      "outputs": [
        {
          "internalType": "uint256",
          "name": "",
          "type": "uint256"
        }
      ],
      "stateMutability": "view",
      "type": "function"
    },
    {
      "inputs": [],
      "name": "startTime",
      "outputs": [
        {
          "internalType": "uint256",
          "name": "",
          "type": "uint256"
        }
      ],
      "stateMutability": "view",
      "type": "function"
    },
    {
      "inputs": [
        {
          "internalType": "address",
          "name": "newOwner",
          "type": "address"
        }
      ],
      "name": "transferOwnership",
      "outputs": [],
      "stateMutability": "nonpayable",
      "type": "function"
    },
    {
      "inputs": [],
      "name": "wave",
      "outputs": [
        {
          "internalType": "uint256",
          "name": "",
          "type": "uint256"
        }
      ],
      "stateMutability": "view",
      "type": "function"
    },
    {
      "inputs": [],
      "name": "waveBlockLength",
      "outputs": [
        {
          "internalType": "uint256",
          "name": "",
          "type": "uint256"
        }
      ],
      "stateMutability": "view",
      "type": "function"
    },
    {
      "inputs": [
        {
          "internalType": "uint256",
          "name": "",
          "type": "uint256"
        },
        {
          "internalType": "address",
          "name": "",
          "type": "address"
        }
      ],
      "name": "waveLock",
      "outputs": [
        {
          "internalType": "bool",
          "name": "",
          "type": "bool"
        }
      ],
      "stateMutability": "view",
      "type": "function"
    }
  ],
  "bytecode": "0x6080604052670de0b6b3a7640000612ae46200001c919062000184565b60045560006007553480156200003157600080fd5b506040516200217038038062002170833981810160405281019062000057919062000143565b6000620000696200012460201b60201c565b9050806000806101000a81548173ffffffffffffffffffffffffffffffffffffffff021916908373ffffffffffffffffffffffffffffffffffffffff1602179055508073ffffffffffffffffffffffffffffffffffffffff16600073ffffffffffffffffffffffffffffffffffffffff167f8be0079c531659141344cd1fd0a4f28419497f9722a3daafe3b4186f6b6457e060405160405180910390a350600180819055508160058190555080600281905550505062000238565b600033905090565b6000815190506200013d816200021e565b92915050565b600080604083850312156200015757600080fd5b600062000167858286016200012c565b92505060206200017a858286016200012c565b9150509250929050565b60006200019182620001e5565b91506200019e83620001e5565b9250817fffffffffffffffffffffffffffffffffffffffffffffffffffffffffffffffff0483118215151615620001da57620001d9620001ef565b5b828202905092915050565b6000819050919050565b7f4e487b7100000000000000000000000000000000000000000000000000000000600052601160045260246000fd5b6200022981620001e5565b81146200023557600080fd5b50565b611f2880620002486000396000f3fe608060405234801561001057600080fd5b50600436106101585760003560e01c80638473e55f116100c3578063d360af921161007c578063d360af9214610397578063dfb23d11146103b5578063e3d670d7146103d3578063e9d109a014610403578063f2fde38b14610421578063f6aa12b51461043d57610158565b80638473e55f146102bf5780638620410b146102dd5780638da5cb5b146102fb578063995c5e9d14610319578063aab86a9e14610349578063afa060e61461036757610158565b806352a16bb01161011557806352a16bb01461020f5780636fe15b441461022d578063715018a61461024b57806378e97925146102555780637deb602514610273578063804215ff1461028f57610158565b806313b8b97f1461015d5780631c99263a1461017b5780633e0a322d1461019957806348cd4cb1146101b55780634a875397146101d35780634c1ac788146101f1575b600080fd5b61016561046d565b60405161017291906118d8565b60405180910390f35b61018361065b565b6040516101909190611a50565b60405180910390f35b6101b360048036038101906101ae9190611555565b61066d565b005b6101bd6106fb565b6040516101ca9190611a50565b60405180910390f35b6101db610701565b6040516101e891906118b6565b60405180910390f35b6101f961093d565b60405161020691906118b6565b60405180910390f35b6102176109cb565b6040516102249190611a50565b60405180910390f35b6102356109d1565b6040516102429190611a50565b60405180910390f35b6102536109d7565b005b61025d610b11565b60405161026a9190611a50565b60405180910390f35b61028d600480360381019061028891906115a7565b610b17565b005b6102a960048036038101906102a49190611555565b61115a565b6040516102b69190611a50565b60405180910390f35b6102c761119b565b6040516102d49190611a50565b60405180910390f35b6102e56111a1565b6040516102f29190611a50565b60405180910390f35b6103036111a7565b6040516103109190611864565b60405180910390f35b610333600480360381019061032e9190611503565b6111d0565b60405161034091906118fa565b60405180910390f35b6103516111f0565b60405161035e9190611915565b60405180910390f35b610381600480360381019061037c91906115a7565b611208565b60405161038e91906118fa565b60405180910390f35b61039f611237565b6040516103ac9190611864565b60405180910390f35b6103bd61123e565b6040516103ca9190611864565b60405180910390f35b6103ed60048036038101906103e89190611503565b611256565b6040516103fa9190611a50565b60405180910390f35b61040b61126e565b6040516104189190611a50565b60405180910390f35b61043b60048036038101906104369190611503565b611273565b005b61045760048036038101906104529190611503565b61141c565b6040516104649190611864565b60405180910390f35b60606000600a8054806020026020016040519081016040528092919081815260200182805480156104f357602002820191906000526020600020905b8160009054906101000a900473ffffffffffffffffffffffffffffffffffffffff1673ffffffffffffffffffffffffffffffffffffffff16815260200190600101908083116104a9575b505050505090506000815167ffffffffffffffff81111561053d577f4e487b7100000000000000000000000000000000000000000000000000000000600052604160045260246000fd5b60405190808252806020026020018201604052801561056b5781602001602082028036833780820191505090505b50905060005b825181101561065257600960008483815181106105b7577f4e487b7100000000000000000000000000000000000000000000000000000000600052603260045260246000fd5b602002602001015173ffffffffffffffffffffffffffffffffffffffff1673ffffffffffffffffffffffffffffffffffffffff16815260200190815260200160002054828281518110610633577f4e487b7100000000000000000000000000000000000000000000000000000000600052603260045260246000fd5b602002602001018181525050808061064a90611c6f565b915050610571565b50809250505090565b600061066860075461115a565b905090565b61067561144f565b73ffffffffffffffffffffffffffffffffffffffff166106936111a7565b73ffffffffffffffffffffffffffffffffffffffff16146106e9576040517f08c379a00000000000000000000000000000000000000000000000000000000081526004016106e0906119b0565b60405180910390fd5b80600581905550600060068190555050565b60065481565b60606000600a80548060200260200160405190810160405280929190818152602001828054801561078757602002820191906000526020600020905b8160009054906101000a900473ffffffffffffffffffffffffffffffffffffffff1673ffffffffffffffffffffffffffffffffffffffff168152602001906001019080831161073d575b505050505090506000815167ffffffffffffffff8111156107d1577f4e487b7100000000000000000000000000000000000000000000000000000000600052604160045260246000fd5b6040519080825280602002602001820160405280156107ff5781602001602082028036833780820191505090505b50905060005b825181101561093457600c600084838151811061084b577f4e487b7100000000000000000000000000000000000000000000000000000000600052603260045260246000fd5b602002602001015173ffffffffffffffffffffffffffffffffffffffff1673ffffffffffffffffffffffffffffffffffffffff16815260200190815260200160002060009054906101000a900473ffffffffffffffffffffffffffffffffffffffff168282815181106108e7577f4e487b7100000000000000000000000000000000000000000000000000000000600052603260045260246000fd5b602002602001019073ffffffffffffffffffffffffffffffffffffffff16908173ffffffffffffffffffffffffffffffffffffffff1681525050808061092c90611c6f565b915050610805565b50809250505090565b6060600a8054806020026020016040519081016040528092919081815260200182805480156109c157602002820191906000526020600020905b8160009054906101000a900473ffffffffffffffffffffffffffffffffffffffff1673ffffffffffffffffffffffffffffffffffffffff1681526020019060010190808311610977575b5050505050905090565b60035481565b60075481565b6109df61144f565b73ffffffffffffffffffffffffffffffffffffffff166109fd6111a7565b73ffffffffffffffffffffffffffffffffffffffff1614610a53576040517f08c379a0000000000000000000000000000000000000000000000000000000008152600401610a4a906119b0565b60405180910390fd5b600073ffffffffffffffffffffffffffffffffffffffff1660008054906101000a900473ffffffffffffffffffffffffffffffffffffffff1673ffffffffffffffffffffffffffffffffffffffff167f8be0079c531659141344cd1fd0a4f28419497f9722a3daafe3b4186f6b6457e060405160405180910390a360008060006101000a81548173ffffffffffffffffffffffffffffffffffffffff021916908373ffffffffffffffffffffffffffffffffffffffff160217905550565b60055481565b60026001541415610b5d576040517f08c379a0000000000000000000000000000000000000000000000000000000008152600401610b5490611a30565b60405180910390fd5b60026001819055506005544211610ba9576040517f08c379a0000000000000000000000000000000000000000000000000000000008152600401610ba090611a10565b60405180910390fd5b60008211610bec576040517f08c379a0000000000000000000000000000000000000000000000000000000008152600401610be390611970565b60405180910390fd5b60025460035410610c32576040517f08c379a0000000000000000000000000000000000000000000000000000000008152600401610c29906119d0565b60405180910390fd5b6000732216d47494e516d8206b70fca8585820ed3c494673ffffffffffffffffffffffffffffffffffffffff166370a08231336040518263ffffffff1660e01b8152600401610c819190611864565b60206040518083038186803b158015610c9957600080fd5b505afa158015610cad573d6000803e3d6000fd5b505050506040513d601f19601f82011682018060405250810190610cd1919061157e565b11610d11576040517f08c379a0000000000000000000000000000000000000000000000000000000008152600401610d0890611930565b60405180910390fd5b610d19611457565b60086000600754815260200190815260200160002060003373ffffffffffffffffffffffffffffffffffffffff1673ffffffffffffffffffffffffffffffffffffffff16815260200190815260200160002060009054906101000a900460ff1615610db9576040517f08c379a0000000000000000000000000000000000000000000000000000000008152600401610db0906119f0565b60405180910390fd5b610dc460075461115a565b821115610e06576040517f08c379a0000000000000000000000000000000000000000000000000000000008152600401610dfd90611990565b60405180910390fd5b60025482600354610e179190611aee565b1115610e36576000600354600254610e2f9190611bcf565b9050809250505b7376280af9d18a868a0af3dca95b57dde816c1aaf273ffffffffffffffffffffffffffffffffffffffff166323b872dd336208008560045486610e799190611b75565b6040518463ffffffff1660e01b8152600401610e979392919061187f565b602060405180830381600087803b158015610eb157600080fd5b505af1158015610ec5573d6000803e3d6000fd5b505050506040513d601f19601f82011682018060405250810190610ee9919061152c565b50600b60003373ffffffffffffffffffffffffffffffffffffffff1673ffffffffffffffffffffffffffffffffffffffff16815260200190815260200160002060009054906101000a900460ff1661107557600a339080600181540180825580915050600190039060005260206000200160009091909190916101000a81548173ffffffffffffffffffffffffffffffffffffffff021916908373ffffffffffffffffffffffffffffffffffffffff1602179055506001600b60003373ffffffffffffffffffffffffffffffffffffffff1673ffffffffffffffffffffffffffffffffffffffff16815260200190815260200160002060006101000a81548160ff02191690831515021790555080600c60003373ffffffffffffffffffffffffffffffffffffffff1673ffffffffffffffffffffffffffffffffffffffff16815260200190815260200160002060006101000a81548173ffffffffffffffffffffffffffffffffffffffff021916908373ffffffffffffffffffffffffffffffffffffffff1602179055505b81600360008282546110879190611aee565b9250508190555081600960003373ffffffffffffffffffffffffffffffffffffffff1673ffffffffffffffffffffffffffffffffffffffff16815260200190815260200160002060008282546110dd9190611aee565b92505081905550600160086000600754815260200190815260200160002060003373ffffffffffffffffffffffffffffffffffffffff1673ffffffffffffffffffffffffffffffffffffffff16815260200190815260200160002060006101000a81548160ff021916908315150217905550600180819055505050565b60008082141561116d5760049050611196565b600182141561117f5760109050611196565b60028214156111915760209050611196565b602090505b919050565b60025481565b60045481565b60008060009054906101000a900473ffffffffffffffffffffffffffffffffffffffff16905090565b600b6020528060005260406000206000915054906101000a900460ff1681565b732216d47494e516d8206b70fca8585820ed3c494681565b60086020528160005260406000206020528060005260406000206000915091509054906101000a900460ff1681565b6208008581565b7376280af9d18a868a0af3dca95b57dde816c1aaf281565b60096020528060005260406000206000915090505481565b603c81565b61127b61144f565b73ffffffffffffffffffffffffffffffffffffffff166112996111a7565b73ffffffffffffffffffffffffffffffffffffffff16146112ef576040517f08c379a00000000000000000000000000000000000000000000000000000000081526004016112e6906119b0565b60405180910390fd5b600073ffffffffffffffffffffffffffffffffffffffff168173ffffffffffffffffffffffffffffffffffffffff16141561135f576040517f08c379a000000000000000000000000000000000000000000000000000000000815260040161135690611950565b60405180910390fd5b8073ffffffffffffffffffffffffffffffffffffffff1660008054906101000a900473ffffffffffffffffffffffffffffffffffffffff1673ffffffffffffffffffffffffffffffffffffffff167f8be0079c531659141344cd1fd0a4f28419497f9722a3daafe3b4186f6b6457e060405160405180910390a3806000806101000a81548173ffffffffffffffffffffffffffffffffffffffff021916908373ffffffffffffffffffffffffffffffffffffffff16021790555050565b600c6020528060005260406000206000915054906101000a900473ffffffffffffffffffffffffffffffffffffffff1681565b600033905090565b600060065414801561146a575060055442115b1561147757436006819055505b6000600654436114879190611bcf565b90506000603c826114989190611b44565b905060075481146114ab57806007819055505b5050565b6000813590506114be81611ead565b92915050565b6000815190506114d381611ec4565b92915050565b6000813590506114e881611edb565b92915050565b6000815190506114fd81611edb565b92915050565b60006020828403121561151557600080fd5b6000611523848285016114af565b91505092915050565b60006020828403121561153e57600080fd5b600061154c848285016114c4565b91505092915050565b60006020828403121561156757600080fd5b6000611575848285016114d9565b91505092915050565b60006020828403121561159057600080fd5b600061159e848285016114ee565b91505092915050565b600080604083850312156115ba57600080fd5b60006115c8858286016114d9565b92505060206115d9858286016114af565b9150509250929050565b60006115ef8383611613565b60208301905092915050565b60006116078383611846565b60208301905092915050565b61161c81611c03565b82525050565b61162b81611c03565b82525050565b600061163c82611a8b565b6116468185611abb565b935061165183611a6b565b8060005b8381101561168257815161166988826115e3565b975061167483611aa1565b925050600181019050611655565b5085935050505092915050565b600061169a82611a96565b6116a48185611acc565b93506116af83611a7b565b8060005b838110156116e05781516116c788826115fb565b97506116d283611aae565b9250506001810190506116b3565b5085935050505092915050565b6116f681611c15565b82525050565b61170581611c4b565b82525050565b6000611718601583611add565b915061172382611d16565b602082019050919050565b600061173b602683611add565b915061174682611d3f565b604082019050919050565b600061175e600d83611add565b915061176982611d8e565b602082019050919050565b6000611781601783611add565b915061178c82611db7565b602082019050919050565b60006117a4602083611add565b91506117af82611de0565b602082019050919050565b60006117c7601083611add565b91506117d282611e09565b602082019050919050565b60006117ea601483611add565b91506117f582611e32565b602082019050919050565b600061180d601483611add565b915061181882611e5b565b602082019050919050565b6000611830601f83611add565b915061183b82611e84565b602082019050919050565b61184f81611c41565b82525050565b61185e81611c41565b82525050565b60006020820190506118796000830184611622565b92915050565b60006060820190506118946000830186611622565b6118a16020830185611622565b6118ae6040830184611855565b949350505050565b600060208201905081810360008301526118d08184611631565b905092915050565b600060208201905081810360008301526118f2818461168f565b905092915050565b600060208201905061190f60008301846116ed565b92915050565b600060208201905061192a60008301846116fc565b92915050565b600060208201905081810360008301526119498161170b565b9050919050565b600060208201905081810360008301526119698161172e565b9050919050565b6000602082019050818103600083015261198981611751565b9050919050565b600060208201905081810360008301526119a981611774565b9050919050565b600060208201905081810360008301526119c981611797565b9050919050565b600060208201905081810360008301526119e9816117ba565b9050919050565b60006020820190508181036000830152611a09816117dd565b9050919050565b60006020820190508181036000830152611a2981611800565b9050919050565b60006020820190508181036000830152611a4981611823565b9050919050565b6000602082019050611a656000830184611855565b92915050565b6000819050602082019050919050565b6000819050602082019050919050565b600081519050919050565b600081519050919050565b6000602082019050919050565b6000602082019050919050565b600082825260208201905092915050565b600082825260208201905092915050565b600082825260208201905092915050565b6000611af982611c41565b9150611b0483611c41565b9250827fffffffffffffffffffffffffffffffffffffffffffffffffffffffffffffffff03821115611b3957611b38611cb8565b5b828201905092915050565b6000611b4f82611c41565b9150611b5a83611c41565b925082611b6a57611b69611ce7565b5b828204905092915050565b6000611b8082611c41565b9150611b8b83611c41565b9250817fffffffffffffffffffffffffffffffffffffffffffffffffffffffffffffffff0483118215151615611bc457611bc3611cb8565b5b828202905092915050565b6000611bda82611c41565b9150611be583611c41565b925082821015611bf857611bf7611cb8565b5b828203905092915050565b6000611c0e82611c21565b9050919050565b60008115159050919050565b600073ffffffffffffffffffffffffffffffffffffffff82169050919050565b6000819050919050565b6000611c5682611c5d565b9050919050565b6000611c6882611c21565b9050919050565b6000611c7a82611c41565b91507fffffffffffffffffffffffffffffffffffffffffffffffffffffffffffffffff821415611cad57611cac611cb8565b5b600182019050919050565b7f4e487b7100000000000000000000000000000000000000000000000000000000600052601160045260246000fd5b7f4e487b7100000000000000000000000000000000000000000000000000000000600052601260045260246000fd5b7f4d75737420686f6c6420424e4220776169667573210000000000000000000000600082015250565b7f4f776e61626c653a206e6577206f776e657220697320746865207a65726f206160008201527f6464726573730000000000000000000000000000000000000000000000000000602082015250565b7f43616e6e6f74206d696e74203000000000000000000000000000000000000000600082015250565b7f4d617820666f7220545820696e20746869732077617665000000000000000000600082015250565b7f4f776e61626c653a2063616c6c6572206973206e6f7420746865206f776e6572600082015250565b7f536f6c64206f75742120536f7272792100000000000000000000000000000000600082015250565b7f4c6f636b656420666f7220746869732077617665000000000000000000000000600082015250565b7f53616c6520686173206e6f742073746172746564000000000000000000000000600082015250565b7f5265656e7472616e637947756172643a207265656e7472616e742063616c6c00600082015250565b611eb681611c03565b8114611ec157600080fd5b50565b611ecd81611c15565b8114611ed857600080fd5b50565b611ee481611c41565b8114611eef57600080fd5b5056fea26469706673582212205b15fe767b2b1b23ccc6869f14437b681db7fc20570bf0b3452fb7558bd695d064736f6c63430008040033",
  "linkReferences": {},
  "deployedLinkReferences": {}
}