{
  "_format": "hh-sol-artifact-1",
  "contractName": "uwucrewBSCWaveLockSale",
  "sourceName": "contracts/uwucrewBSCWetSale.sol",
  "abi": [
    {
      "inputs": [
        {
          "internalType": "uint256",
          "name": "_startTime",
          "type": "uint256"
        },
        {
          "internalType": "uint256",
          "name": "saleCount",
          "type": "uint256"
        }
      ],
      "stateMutability": "nonpayable",
      "type": "constructor"
    },
    {
      "anonymous": false,
      "inputs": [
        {
          "indexed": true,
          "internalType": "address",
          "name": "previousOwner",
          "type": "address"
        },
        {
          "indexed": true,
          "internalType": "address",
          "name": "newOwner",
          "type": "address"
        }
      ],
      "name": "OwnershipTransferred",
      "type": "event"
    },
    {
      "inputs": [],
      "name": "BURNADDR",
      "outputs": [
        {
          "internalType": "address",
          "name": "",
          "type": "address"
        }
      ],
      "stateMutability": "view",
      "type": "function"
    },
    {
      "inputs": [],
      "name": "WET",
      "outputs": [
        {
          "internalType": "address",
          "name": "",
          "type": "address"
        }
      ],
      "stateMutability": "view",
      "type": "function"
    },
    {
      "inputs": [],
      "name": "allContributors",
      "outputs": [
        {
          "internalType": "address[]",
          "name": "",
          "type": "address[]"
        }
      ],
      "stateMutability": "view",
      "type": "function"
    },
    {
      "inputs": [],
      "name": "allContributorsBalance",
      "outputs": [
        {
          "internalType": "uint256[]",
          "name": "",
          "type": "uint256[]"
        }
      ],
      "stateMutability": "view",
      "type": "function"
    },
    {
      "inputs": [],
      "name": "amountForSale",
      "outputs": [
        {
          "internalType": "uint256",
          "name": "",
          "type": "uint256"
        }
      ],
      "stateMutability": "view",
      "type": "function"
    },
    {
      "inputs": [],
      "name": "amountSold",
      "outputs": [
        {
          "internalType": "uint256",
          "name": "",
          "type": "uint256"
        }
      ],
      "stateMutability": "view",
      "type": "function"
    },
    {
      "inputs": [
        {
          "internalType": "address",
          "name": "",
          "type": "address"
        }
      ],
      "name": "balance",
      "outputs": [
        {
          "internalType": "uint256",
          "name": "",
          "type": "uint256"
        }
      ],
      "stateMutability": "view",
      "type": "function"
    },
    {
      "inputs": [
        {
          "internalType": "uint256",
          "name": "count",
          "type": "uint256"
        }
      ],
      "name": "buy",
      "outputs": [],
      "stateMutability": "nonpayable",
      "type": "function"
    },
    {
      "inputs": [],
      "name": "buyPrice",
      "outputs": [
        {
          "internalType": "uint256",
          "name": "",
          "type": "uint256"
        }
      ],
      "stateMutability": "view",
      "type": "function"
    },
    {
      "inputs": [
        {
          "internalType": "address",
          "name": "",
          "type": "address"
        }
      ],
      "name": "contributed",
      "outputs": [
        {
          "internalType": "bool",
          "name": "",
          "type": "bool"
        }
      ],
      "stateMutability": "view",
      "type": "function"
    },
    {
      "inputs": [],
      "name": "currentMaxPerTX",
      "outputs": [
        {
          "internalType": "uint256",
          "name": "",
          "type": "uint256"
        }
      ],
      "stateMutability": "view",
      "type": "function"
    },
    {
      "inputs": [],
      "name": "owner",
      "outputs": [
        {
          "internalType": "address",
          "name": "",
          "type": "address"
        }
      ],
      "stateMutability": "view",
      "type": "function"
    },
    {
      "inputs": [],
      "name": "renounceOwnership",
      "outputs": [],
      "stateMutability": "nonpayable",
      "type": "function"
    },
    {
      "inputs": [
        {
          "internalType": "uint256",
          "name": "_startTime",
          "type": "uint256"
        }
      ],
      "name": "setStartTime",
      "outputs": [],
      "stateMutability": "nonpayable",
      "type": "function"
    },
    {
      "inputs": [],
      "name": "startBlock",
      "outputs": [
        {
          "internalType": "uint256",
          "name": "",
          "type": "uint256"
        }
      ],
      "stateMutability": "view",
      "type": "function"
    },
    {
      "inputs": [],
      "name": "startTime",
      "outputs": [
        {
          "internalType": "uint256",
          "name": "",
          "type": "uint256"
        }
      ],
      "stateMutability": "view",
      "type": "function"
    },
    {
      "inputs": [
        {
          "internalType": "address",
          "name": "newOwner",
          "type": "address"
        }
      ],
      "name": "transferOwnership",
      "outputs": [],
      "stateMutability": "nonpayable",
      "type": "function"
    },
    {
      "inputs": [],
      "name": "wave",
      "outputs": [
        {
          "internalType": "uint256",
          "name": "",
          "type": "uint256"
        }
      ],
      "stateMutability": "view",
      "type": "function"
    },
    {
      "inputs": [],
      "name": "waveBlockLength",
      "outputs": [
        {
          "internalType": "uint256",
          "name": "",
          "type": "uint256"
        }
      ],
      "stateMutability": "view",
      "type": "function"
    },
    {
      "inputs": [
        {
          "internalType": "uint256",
          "name": "",
          "type": "uint256"
        },
        {
          "internalType": "address",
          "name": "",
          "type": "address"
        }
      ],
      "name": "waveLock",
      "outputs": [
        {
          "internalType": "bool",
          "name": "",
          "type": "bool"
        }
      ],
      "stateMutability": "view",
      "type": "function"
    }
  ],
  "bytecode": "0x6080604052670de0b6b3a7640000612ae46200001c919062000189565b6004556000600755603c6008553480156200003657600080fd5b5060405162001bca38038062001bca83398181016040528101906200005c919062000148565b60006200006e6200012960201b60201c565b9050806000806101000a81548173ffffffffffffffffffffffffffffffffffffffff021916908373ffffffffffffffffffffffffffffffffffffffff1602179055508073ffffffffffffffffffffffffffffffffffffffff16600073ffffffffffffffffffffffffffffffffffffffff167f8be0079c531659141344cd1fd0a4f28419497f9722a3daafe3b4186f6b6457e060405160405180910390a35060018081905550816005819055508060028190555050506200023d565b600033905090565b600081519050620001428162000223565b92915050565b600080604083850312156200015c57600080fd5b60006200016c8582860162000131565b92505060206200017f8582860162000131565b9150509250929050565b60006200019682620001ea565b9150620001a383620001ea565b9250817fffffffffffffffffffffffffffffffffffffffffffffffffffffffffffffffff0483118215151615620001df57620001de620001f4565b5b828202905092915050565b6000819050919050565b7f4e487b7100000000000000000000000000000000000000000000000000000000600052601160045260246000fd5b6200022e81620001ea565b81146200023a57600080fd5b50565b61197d806200024d6000396000f3fe608060405234801561001057600080fd5b506004361061012c5760003560e01c80638620410b116100ad578063d96a094a11610071578063d96a094a14610301578063dfb23d111461031d578063e3d670d71461033b578063e9d109a01461036b578063f2fde38b146103895761012c565b80638620410b146102475780638da5cb5b14610265578063995c5e9d14610283578063afa060e6146102b3578063d360af92146102e35761012c565b806352a16bb0116100f457806352a16bb0146101c55780636fe15b44146101e3578063715018a61461020157806378e979251461020b5780638473e55f146102295761012c565b806313b8b97f146101315780631c99263a1461014f5780633e0a322d1461016d57806348cd4cb1146101895780634c1ac788146101a7575b600080fd5b6101396103a5565b60405161014691906113b5565b60405180910390f35b610157610593565b60405161016491906114f2565b60405180910390f35b6101876004803603810190610182919061108d565b6105a5565b005b61019161062b565b60405161019e91906114f2565b60405180910390f35b6101af610631565b6040516101bc9190611393565b60405180910390f35b6101cd6106bf565b6040516101da91906114f2565b60405180910390f35b6101eb6106c5565b6040516101f891906114f2565b60405180910390f35b6102096106cb565b005b610213610805565b60405161022091906114f2565b60405180910390f35b61023161080b565b60405161023e91906114f2565b60405180910390f35b61024f610811565b60405161025c91906114f2565b60405180910390f35b61026d610817565b60405161027a9190611341565b60405180910390f35b61029d6004803603810190610298919061103b565b610840565b6040516102aa91906113d7565b60405180910390f35b6102cd60048036038101906102c891906110b6565b610860565b6040516102da91906113d7565b60405180910390f35b6102eb61088f565b6040516102f89190611341565b60405180910390f35b61031b6004803603810190610316919061108d565b610896565b005b610325610d7b565b6040516103329190611341565b60405180910390f35b6103556004803603810190610350919061103b565b610d93565b60405161036291906114f2565b60405180910390f35b610373610dab565b60405161038091906114f2565b60405180910390f35b6103a3600480360381019061039e919061103b565b610db1565b005b60606000600b80548060200260200160405190810160405280929190818152602001828054801561042b57602002820191906000526020600020905b8160009054906101000a900473ffffffffffffffffffffffffffffffffffffffff1673ffffffffffffffffffffffffffffffffffffffff16815260200190600101908083116103e1575b505050505090506000815167ffffffffffffffff811115610475577f4e487b7100000000000000000000000000000000000000000000000000000000600052604160045260246000fd5b6040519080825280602002602001820160405280156104a35781602001602082028036833780820191505090505b50905060005b825181101561058a57600a60008483815181106104ef577f4e487b7100000000000000000000000000000000000000000000000000000000600052603260045260246000fd5b602002602001015173ffffffffffffffffffffffffffffffffffffffff1673ffffffffffffffffffffffffffffffffffffffff1681526020019081526020016000205482828151811061056b577f4e487b7100000000000000000000000000000000000000000000000000000000600052603260045260246000fd5b6020026020010181815250508080610582906116ed565b9150506104a9565b50809250505090565b60006105a0600754610f5a565b905090565b6105ad610f9b565b73ffffffffffffffffffffffffffffffffffffffff166105cb610817565b73ffffffffffffffffffffffffffffffffffffffff1614610621576040517f08c379a000000000000000000000000000000000000000000000000000000000815260040161061890611452565b60405180910390fd5b8060058190555050565b60065481565b6060600b8054806020026020016040519081016040528092919081815260200182805480156106b557602002820191906000526020600020905b8160009054906101000a900473ffffffffffffffffffffffffffffffffffffffff1673ffffffffffffffffffffffffffffffffffffffff168152602001906001019080831161066b575b5050505050905090565b60035481565b60075481565b6106d3610f9b565b73ffffffffffffffffffffffffffffffffffffffff166106f1610817565b73ffffffffffffffffffffffffffffffffffffffff1614610747576040517f08c379a000000000000000000000000000000000000000000000000000000000815260040161073e90611452565b60405180910390fd5b600073ffffffffffffffffffffffffffffffffffffffff1660008054906101000a900473ffffffffffffffffffffffffffffffffffffffff1673ffffffffffffffffffffffffffffffffffffffff167f8be0079c531659141344cd1fd0a4f28419497f9722a3daafe3b4186f6b6457e060405160405180910390a360008060006101000a81548173ffffffffffffffffffffffffffffffffffffffff021916908373ffffffffffffffffffffffffffffffffffffffff160217905550565b60055481565b60025481565b60045481565b60008060009054906101000a900473ffffffffffffffffffffffffffffffffffffffff16905090565b600c6020528060005260406000206000915054906101000a900460ff1681565b60096020528160005260406000206020528060005260406000206000915091509054906101000a900460ff1681565b6208008581565b600260015414156108dc576040517f08c379a00000000000000000000000000000000000000000000000000000000081526004016108d3906114d2565b60405180910390fd5b60026001819055506005544211610928576040517f08c379a000000000000000000000000000000000000000000000000000000000815260040161091f906114b2565b60405180910390fd5b6000811161096b576040517f08c379a000000000000000000000000000000000000000000000000000000000815260040161096290611412565b60405180910390fd5b600254600354106109b1576040517f08c379a00000000000000000000000000000000000000000000000000000000081526004016109a890611472565b60405180910390fd5b6109b9610fa3565b60096000600754815260200190815260200160002060003373ffffffffffffffffffffffffffffffffffffffff1673ffffffffffffffffffffffffffffffffffffffff16815260200190815260200160002060009054906101000a900460ff1615610a59576040517f08c379a0000000000000000000000000000000000000000000000000000000008152600401610a5090611492565b60405180910390fd5b610a64600754610f5a565b811115610aa6576040517f08c379a0000000000000000000000000000000000000000000000000000000008152600401610a9d90611432565b60405180910390fd5b60025481600354610ab79190611590565b1115610ad6576000600354600254610acf9190611671565b9050809150505b7376280af9d18a868a0af3dca95b57dde816c1aaf273ffffffffffffffffffffffffffffffffffffffff166323b872dd336208008560045485610b199190611617565b6040518463ffffffff1660e01b8152600401610b379392919061135c565b602060405180830381600087803b158015610b5157600080fd5b505af1158015610b65573d6000803e3d6000fd5b505050506040513d601f19601f82011682018060405250810190610b899190611064565b50600c60003373ffffffffffffffffffffffffffffffffffffffff1673ffffffffffffffffffffffffffffffffffffffff16815260200190815260200160002060009054906101000a900460ff16610c9757600b339080600181540180825580915050600190039060005260206000200160009091909190916101000a81548173ffffffffffffffffffffffffffffffffffffffff021916908373ffffffffffffffffffffffffffffffffffffffff1602179055506001600c60003373ffffffffffffffffffffffffffffffffffffffff1673ffffffffffffffffffffffffffffffffffffffff16815260200190815260200160002060006101000a81548160ff0219169083151502179055505b8060036000828254610ca99190611590565b9250508190555080600a60003373ffffffffffffffffffffffffffffffffffffffff1673ffffffffffffffffffffffffffffffffffffffff1681526020019081526020016000206000828254610cff9190611590565b92505081905550600160096000600754815260200190815260200160002060003373ffffffffffffffffffffffffffffffffffffffff1673ffffffffffffffffffffffffffffffffffffffff16815260200190815260200160002060006101000a81548160ff0219169083151502179055506001808190555050565b7376280af9d18a868a0af3dca95b57dde816c1aaf281565b600a6020528060005260406000206000915090505481565b60085481565b610db9610f9b565b73ffffffffffffffffffffffffffffffffffffffff16610dd7610817565b73ffffffffffffffffffffffffffffffffffffffff1614610e2d576040517f08c379a0000000000000000000000000000000000000000000000000000000008152600401610e2490611452565b60405180910390fd5b600073ffffffffffffffffffffffffffffffffffffffff168173ffffffffffffffffffffffffffffffffffffffff161415610e9d576040517f08c379a0000000000000000000000000000000000000000000000000000000008152600401610e94906113f2565b60405180910390fd5b8073ffffffffffffffffffffffffffffffffffffffff1660008054906101000a900473ffffffffffffffffffffffffffffffffffffffff1673ffffffffffffffffffffffffffffffffffffffff167f8be0079c531659141344cd1fd0a4f28419497f9722a3daafe3b4186f6b6457e060405160405180910390a3806000806101000a81548173ffffffffffffffffffffffffffffffffffffffff021916908373ffffffffffffffffffffffffffffffffffffffff16021790555050565b600080821415610f6d5760049050610f96565b6001821415610f7f5760109050610f96565b6002821415610f915760209050610f96565b604090505b919050565b600033905090565b6000600654148015610fb6575060055442115b15610fc357436006819055505b600060065443610fd39190611671565b9050600060085482610fe591906115e6565b90506007548114610ff857806007819055505b5050565b60008135905061100b81611902565b92915050565b60008151905061102081611919565b92915050565b60008135905061103581611930565b92915050565b60006020828403121561104d57600080fd5b600061105b84828501610ffc565b91505092915050565b60006020828403121561107657600080fd5b600061108484828501611011565b91505092915050565b60006020828403121561109f57600080fd5b60006110ad84828501611026565b91505092915050565b600080604083850312156110c957600080fd5b60006110d785828601611026565b92505060206110e885828601610ffc565b9150509250929050565b60006110fe8383611122565b60208301905092915050565b60006111168383611323565b60208301905092915050565b61112b816116a5565b82525050565b61113a816116a5565b82525050565b600061114b8261152d565b611155818561155d565b93506111608361150d565b8060005b8381101561119157815161117888826110f2565b975061118383611543565b925050600181019050611164565b5085935050505092915050565b60006111a982611538565b6111b3818561156e565b93506111be8361151d565b8060005b838110156111ef5781516111d6888261110a565b97506111e183611550565b9250506001810190506111c2565b5085935050505092915050565b611205816116b7565b82525050565b600061121860268361157f565b915061122382611794565b604082019050919050565b600061123b600d8361157f565b9150611246826117e3565b602082019050919050565b600061125e60178361157f565b91506112698261180c565b602082019050919050565b600061128160208361157f565b915061128c82611835565b602082019050919050565b60006112a460108361157f565b91506112af8261185e565b602082019050919050565b60006112c760148361157f565b91506112d282611887565b602082019050919050565b60006112ea60148361157f565b91506112f5826118b0565b602082019050919050565b600061130d601f8361157f565b9150611318826118d9565b602082019050919050565b61132c816116e3565b82525050565b61133b816116e3565b82525050565b60006020820190506113566000830184611131565b92915050565b60006060820190506113716000830186611131565b61137e6020830185611131565b61138b6040830184611332565b949350505050565b600060208201905081810360008301526113ad8184611140565b905092915050565b600060208201905081810360008301526113cf818461119e565b905092915050565b60006020820190506113ec60008301846111fc565b92915050565b6000602082019050818103600083015261140b8161120b565b9050919050565b6000602082019050818103600083015261142b8161122e565b9050919050565b6000602082019050818103600083015261144b81611251565b9050919050565b6000602082019050818103600083015261146b81611274565b9050919050565b6000602082019050818103600083015261148b81611297565b9050919050565b600060208201905081810360008301526114ab816112ba565b9050919050565b600060208201905081810360008301526114cb816112dd565b9050919050565b600060208201905081810360008301526114eb81611300565b9050919050565b60006020820190506115076000830184611332565b92915050565b6000819050602082019050919050565b6000819050602082019050919050565b600081519050919050565b600081519050919050565b6000602082019050919050565b6000602082019050919050565b600082825260208201905092915050565b600082825260208201905092915050565b600082825260208201905092915050565b600061159b826116e3565b91506115a6836116e3565b9250827fffffffffffffffffffffffffffffffffffffffffffffffffffffffffffffffff038211156115db576115da611736565b5b828201905092915050565b60006115f1826116e3565b91506115fc836116e3565b92508261160c5761160b611765565b5b828204905092915050565b6000611622826116e3565b915061162d836116e3565b9250817fffffffffffffffffffffffffffffffffffffffffffffffffffffffffffffffff048311821515161561166657611665611736565b5b828202905092915050565b600061167c826116e3565b9150611687836116e3565b92508282101561169a57611699611736565b5b828203905092915050565b60006116b0826116c3565b9050919050565b60008115159050919050565b600073ffffffffffffffffffffffffffffffffffffffff82169050919050565b6000819050919050565b60006116f8826116e3565b91507fffffffffffffffffffffffffffffffffffffffffffffffffffffffffffffffff82141561172b5761172a611736565b5b600182019050919050565b7f4e487b7100000000000000000000000000000000000000000000000000000000600052601160045260246000fd5b7f4e487b7100000000000000000000000000000000000000000000000000000000600052601260045260246000fd5b7f4f776e61626c653a206e6577206f776e657220697320746865207a65726f206160008201527f6464726573730000000000000000000000000000000000000000000000000000602082015250565b7f43616e6e6f74206d696e74203000000000000000000000000000000000000000600082015250565b7f4d617820666f7220545820696e20746869732077617665000000000000000000600082015250565b7f4f776e61626c653a2063616c6c6572206973206e6f7420746865206f776e6572600082015250565b7f536f6c64206f75742120536f7272792100000000000000000000000000000000600082015250565b7f4c6f636b656420666f7220746869732077617665000000000000000000000000600082015250565b7f53616c6520686173206e6f742073746172746564000000000000000000000000600082015250565b7f5265656e7472616e637947756172643a207265656e7472616e742063616c6c00600082015250565b61190b816116a5565b811461191657600080fd5b50565b611922816116b7565b811461192d57600080fd5b50565b611939816116e3565b811461194457600080fd5b5056fea26469706673582212209628a38f8025a6d1f1967ebbb6e74ce9e71778ffdf9e69de12e0db8a9daf881a64736f6c63430008040033",
  "linkReferences": {},
  "deployedLinkReferences": {}
}