{
  "_format": "hh-sol-artifact-1",
  "contractName": "uwucrewBSCWaveLockSale",
  "sourceName": "contracts/uwucrewBSCWetSale.sol",
  "abi": [
    {
      "inputs": [
        {
          "internalType": "uint256",
          "name": "_startTime",
          "type": "uint256"
        },
        {
          "internalType": "uint256",
          "name": "saleCount",
          "type": "uint256"
        }
      ],
      "stateMutability": "nonpayable",
      "type": "constructor"
    },
    {
      "anonymous": false,
      "inputs": [
        {
          "indexed": true,
          "internalType": "address",
          "name": "previousOwner",
          "type": "address"
        },
        {
          "indexed": true,
          "internalType": "address",
          "name": "newOwner",
          "type": "address"
        }
      ],
      "name": "OwnershipTransferred",
      "type": "event"
    },
    {
      "inputs": [],
      "name": "BURNADDR",
      "outputs": [
        {
          "internalType": "address",
          "name": "",
          "type": "address"
        }
      ],
      "stateMutability": "view",
      "type": "function"
    },
    {
      "inputs": [],
      "name": "WET",
      "outputs": [
        {
          "internalType": "address",
          "name": "",
          "type": "address"
        }
      ],
      "stateMutability": "view",
      "type": "function"
    },
    {
      "inputs": [],
      "name": "allContributors",
      "outputs": [
        {
          "internalType": "address[]",
          "name": "",
          "type": "address[]"
        }
      ],
      "stateMutability": "view",
      "type": "function"
    },
    {
      "inputs": [],
      "name": "allContributorsBalance",
      "outputs": [
        {
          "internalType": "uint256[]",
          "name": "",
          "type": "uint256[]"
        }
      ],
      "stateMutability": "view",
      "type": "function"
    },
    {
      "inputs": [],
      "name": "allContributorsEthAddrs",
      "outputs": [
        {
          "internalType": "address[]",
          "name": "",
          "type": "address[]"
        }
      ],
      "stateMutability": "view",
      "type": "function"
    },
    {
      "inputs": [],
      "name": "amountForSale",
      "outputs": [
        {
          "internalType": "uint256",
          "name": "",
          "type": "uint256"
        }
      ],
      "stateMutability": "view",
      "type": "function"
    },
    {
      "inputs": [],
      "name": "amountSold",
      "outputs": [
        {
          "internalType": "uint256",
          "name": "",
          "type": "uint256"
        }
      ],
      "stateMutability": "view",
      "type": "function"
    },
    {
      "inputs": [
        {
          "internalType": "address",
          "name": "",
          "type": "address"
        }
      ],
      "name": "balance",
      "outputs": [
        {
          "internalType": "uint256",
          "name": "",
          "type": "uint256"
        }
      ],
      "stateMutability": "view",
      "type": "function"
    },
    {
      "inputs": [
        {
          "internalType": "address",
          "name": "",
          "type": "address"
        }
      ],
      "name": "bscToEthAddr",
      "outputs": [
        {
          "internalType": "address",
          "name": "",
          "type": "address"
        }
      ],
      "stateMutability": "view",
      "type": "function"
    },
    {
      "inputs": [
        {
          "internalType": "uint256",
          "name": "count",
          "type": "uint256"
        },
        {
          "internalType": "address",
          "name": "ethAddress",
          "type": "address"
        }
      ],
      "name": "buy",
      "outputs": [],
      "stateMutability": "nonpayable",
      "type": "function"
    },
    {
      "inputs": [],
      "name": "buyPrice",
      "outputs": [
        {
          "internalType": "uint256",
          "name": "",
          "type": "uint256"
        }
      ],
      "stateMutability": "view",
      "type": "function"
    },
    {
      "inputs": [
        {
          "internalType": "address",
          "name": "",
          "type": "address"
        }
      ],
      "name": "contributed",
      "outputs": [
        {
          "internalType": "bool",
          "name": "",
          "type": "bool"
        }
      ],
      "stateMutability": "view",
      "type": "function"
    },
    {
      "inputs": [],
      "name": "currentMaxPerTX",
      "outputs": [
        {
          "internalType": "uint256",
          "name": "",
          "type": "uint256"
        }
      ],
      "stateMutability": "view",
      "type": "function"
    },
    {
      "inputs": [],
      "name": "owner",
      "outputs": [
        {
          "internalType": "address",
          "name": "",
          "type": "address"
        }
      ],
      "stateMutability": "view",
      "type": "function"
    },
    {
      "inputs": [],
      "name": "renounceOwnership",
      "outputs": [],
      "stateMutability": "nonpayable",
      "type": "function"
    },
    {
      "inputs": [
        {
          "internalType": "uint256",
          "name": "_startTime",
          "type": "uint256"
        }
      ],
      "name": "setStartTime",
      "outputs": [],
      "stateMutability": "nonpayable",
      "type": "function"
    },
    {
      "inputs": [],
      "name": "startBlock",
      "outputs": [
        {
          "internalType": "uint256",
          "name": "",
          "type": "uint256"
        }
      ],
      "stateMutability": "view",
      "type": "function"
    },
    {
      "inputs": [],
      "name": "startTime",
      "outputs": [
        {
          "internalType": "uint256",
          "name": "",
          "type": "uint256"
        }
      ],
      "stateMutability": "view",
      "type": "function"
    },
    {
      "inputs": [
        {
          "internalType": "address",
          "name": "newOwner",
          "type": "address"
        }
      ],
      "name": "transferOwnership",
      "outputs": [],
      "stateMutability": "nonpayable",
      "type": "function"
    },
    {
      "inputs": [],
      "name": "wave",
      "outputs": [
        {
          "internalType": "uint256",
          "name": "",
          "type": "uint256"
        }
      ],
      "stateMutability": "view",
      "type": "function"
    },
    {
      "inputs": [],
      "name": "waveBlockLength",
      "outputs": [
        {
          "internalType": "uint256",
          "name": "",
          "type": "uint256"
        }
      ],
      "stateMutability": "view",
      "type": "function"
    },
    {
      "inputs": [
        {
          "internalType": "uint256",
          "name": "",
          "type": "uint256"
        },
        {
          "internalType": "address",
          "name": "",
          "type": "address"
        }
      ],
      "name": "waveLock",
      "outputs": [
        {
          "internalType": "bool",
          "name": "",
          "type": "bool"
        }
      ],
      "stateMutability": "view",
      "type": "function"
    }
  ],
  "bytecode": "0x6080604052670de0b6b3a7640000612ae46200001c919062000184565b60045560006007553480156200003157600080fd5b5060405162001f1538038062001f15833981810160405281019062000057919062000143565b6000620000696200012460201b60201c565b9050806000806101000a81548173ffffffffffffffffffffffffffffffffffffffff021916908373ffffffffffffffffffffffffffffffffffffffff1602179055508073ffffffffffffffffffffffffffffffffffffffff16600073ffffffffffffffffffffffffffffffffffffffff167f8be0079c531659141344cd1fd0a4f28419497f9722a3daafe3b4186f6b6457e060405160405180910390a350600180819055508160058190555080600281905550505062000238565b600033905090565b6000815190506200013d816200021e565b92915050565b600080604083850312156200015757600080fd5b600062000167858286016200012c565b92505060206200017a858286016200012c565b9150509250929050565b60006200019182620001e5565b91506200019e83620001e5565b9250817fffffffffffffffffffffffffffffffffffffffffffffffffffffffffffffffff0483118215151615620001da57620001d9620001ef565b5b828202905092915050565b6000819050919050565b7f4e487b7100000000000000000000000000000000000000000000000000000000600052601160045260246000fd5b6200022981620001e5565b81146200023557600080fd5b50565b611ccd80620002486000396000f3fe608060405234801561001057600080fd5b50600436106101425760003560e01c80638473e55f116100b8578063d360af921161007c578063d360af9214610333578063dfb23d1114610351578063e3d670d71461036f578063e9d109a01461039f578063f2fde38b146103bd578063f6aa12b5146103d957610142565b80638473e55f146102795780638620410b146102975780638da5cb5b146102b5578063995c5e9d146102d3578063afa060e61461030357610142565b80634c1ac7881161010a5780634c1ac788146101db57806352a16bb0146101f95780636fe15b4414610217578063715018a61461023557806378e979251461023f5780637deb60251461025d57610142565b806313b8b97f146101475780631c99263a146101655780633e0a322d1461018357806348cd4cb11461019f5780634a875397146101bd575b600080fd5b61014f610409565b60405161015c9190611705565b60405180910390f35b61016d6105f7565b60405161017a9190611842565b60405180910390f35b61019d600480360381019061019891906113dd565b610609565b005b6101a761068f565b6040516101b49190611842565b60405180910390f35b6101c5610695565b6040516101d291906116e3565b60405180910390f35b6101e36108d1565b6040516101f091906116e3565b60405180910390f35b61020161095f565b60405161020e9190611842565b60405180910390f35b61021f610965565b60405161022c9190611842565b60405180910390f35b61023d61096b565b005b610247610aa5565b6040516102549190611842565b60405180910390f35b61027760048036038101906102729190611406565b610aab565b005b61028161100f565b60405161028e9190611842565b60405180910390f35b61029f611015565b6040516102ac9190611842565b60405180910390f35b6102bd61101b565b6040516102ca9190611691565b60405180910390f35b6102ed60048036038101906102e8919061138b565b611044565b6040516102fa9190611727565b60405180910390f35b61031d60048036038101906103189190611406565b611064565b60405161032a9190611727565b60405180910390f35b61033b611093565b6040516103489190611691565b60405180910390f35b61035961109a565b6040516103669190611691565b60405180910390f35b6103896004803603810190610384919061138b565b6110b2565b6040516103969190611842565b60405180910390f35b6103a76110ca565b6040516103b49190611842565b60405180910390f35b6103d760048036038101906103d2919061138b565b6110cf565b005b6103f360048036038101906103ee919061138b565b611278565b6040516104009190611691565b60405180910390f35b60606000600a80548060200260200160405190810160405280929190818152602001828054801561048f57602002820191906000526020600020905b8160009054906101000a900473ffffffffffffffffffffffffffffffffffffffff1673ffffffffffffffffffffffffffffffffffffffff1681526020019060010190808311610445575b505050505090506000815167ffffffffffffffff8111156104d9577f4e487b7100000000000000000000000000000000000000000000000000000000600052604160045260246000fd5b6040519080825280602002602001820160405280156105075781602001602082028036833780820191505090505b50905060005b82518110156105ee5760096000848381518110610553577f4e487b7100000000000000000000000000000000000000000000000000000000600052603260045260246000fd5b602002602001015173ffffffffffffffffffffffffffffffffffffffff1673ffffffffffffffffffffffffffffffffffffffff168152602001908152602001600020548282815181106105cf577f4e487b7100000000000000000000000000000000000000000000000000000000600052603260045260246000fd5b60200260200101818152505080806105e690611a3d565b91505061050d565b50809250505090565b60006106046007546112ab565b905090565b6106116112ec565b73ffffffffffffffffffffffffffffffffffffffff1661062f61101b565b73ffffffffffffffffffffffffffffffffffffffff1614610685576040517f08c379a000000000000000000000000000000000000000000000000000000000815260040161067c906117a2565b60405180910390fd5b8060058190555050565b60065481565b60606000600a80548060200260200160405190810160405280929190818152602001828054801561071b57602002820191906000526020600020905b8160009054906101000a900473ffffffffffffffffffffffffffffffffffffffff1673ffffffffffffffffffffffffffffffffffffffff16815260200190600101908083116106d1575b505050505090506000815167ffffffffffffffff811115610765577f4e487b7100000000000000000000000000000000000000000000000000000000600052604160045260246000fd5b6040519080825280602002602001820160405280156107935781602001602082028036833780820191505090505b50905060005b82518110156108c857600c60008483815181106107df577f4e487b7100000000000000000000000000000000000000000000000000000000600052603260045260246000fd5b602002602001015173ffffffffffffffffffffffffffffffffffffffff1673ffffffffffffffffffffffffffffffffffffffff16815260200190815260200160002060009054906101000a900473ffffffffffffffffffffffffffffffffffffffff1682828151811061087b577f4e487b7100000000000000000000000000000000000000000000000000000000600052603260045260246000fd5b602002602001019073ffffffffffffffffffffffffffffffffffffffff16908173ffffffffffffffffffffffffffffffffffffffff168152505080806108c090611a3d565b915050610799565b50809250505090565b6060600a80548060200260200160405190810160405280929190818152602001828054801561095557602002820191906000526020600020905b8160009054906101000a900473ffffffffffffffffffffffffffffffffffffffff1673ffffffffffffffffffffffffffffffffffffffff168152602001906001019080831161090b575b5050505050905090565b60035481565b60075481565b6109736112ec565b73ffffffffffffffffffffffffffffffffffffffff1661099161101b565b73ffffffffffffffffffffffffffffffffffffffff16146109e7576040517f08c379a00000000000000000000000000000000000000000000000000000000081526004016109de906117a2565b60405180910390fd5b600073ffffffffffffffffffffffffffffffffffffffff1660008054906101000a900473ffffffffffffffffffffffffffffffffffffffff1673ffffffffffffffffffffffffffffffffffffffff167f8be0079c531659141344cd1fd0a4f28419497f9722a3daafe3b4186f6b6457e060405160405180910390a360008060006101000a81548173ffffffffffffffffffffffffffffffffffffffff021916908373ffffffffffffffffffffffffffffffffffffffff160217905550565b60055481565b60026001541415610af1576040517f08c379a0000000000000000000000000000000000000000000000000000000008152600401610ae890611822565b60405180910390fd5b60026001819055506005544211610b3d576040517f08c379a0000000000000000000000000000000000000000000000000000000008152600401610b3490611802565b60405180910390fd5b60008211610b80576040517f08c379a0000000000000000000000000000000000000000000000000000000008152600401610b7790611762565b60405180910390fd5b60025460035410610bc6576040517f08c379a0000000000000000000000000000000000000000000000000000000008152600401610bbd906117c2565b60405180910390fd5b610bce6112f4565b60086000600754815260200190815260200160002060003373ffffffffffffffffffffffffffffffffffffffff1673ffffffffffffffffffffffffffffffffffffffff16815260200190815260200160002060009054906101000a900460ff1615610c6e576040517f08c379a0000000000000000000000000000000000000000000000000000000008152600401610c65906117e2565b60405180910390fd5b610c796007546112ab565b821115610cbb576040517f08c379a0000000000000000000000000000000000000000000000000000000008152600401610cb290611782565b60405180910390fd5b60025482600354610ccc91906118e0565b1115610ceb576000600354600254610ce491906119c1565b9050809250505b7376280af9d18a868a0af3dca95b57dde816c1aaf273ffffffffffffffffffffffffffffffffffffffff166323b872dd336208008560045486610d2e9190611967565b6040518463ffffffff1660e01b8152600401610d4c939291906116ac565b602060405180830381600087803b158015610d6657600080fd5b505af1158015610d7a573d6000803e3d6000fd5b505050506040513d601f19601f82011682018060405250810190610d9e91906113b4565b50600b60003373ffffffffffffffffffffffffffffffffffffffff1673ffffffffffffffffffffffffffffffffffffffff16815260200190815260200160002060009054906101000a900460ff16610f2a57600a339080600181540180825580915050600190039060005260206000200160009091909190916101000a81548173ffffffffffffffffffffffffffffffffffffffff021916908373ffffffffffffffffffffffffffffffffffffffff1602179055506001600b60003373ffffffffffffffffffffffffffffffffffffffff1673ffffffffffffffffffffffffffffffffffffffff16815260200190815260200160002060006101000a81548160ff02191690831515021790555080600c60003373ffffffffffffffffffffffffffffffffffffffff1673ffffffffffffffffffffffffffffffffffffffff16815260200190815260200160002060006101000a81548173ffffffffffffffffffffffffffffffffffffffff021916908373ffffffffffffffffffffffffffffffffffffffff1602179055505b8160036000828254610f3c91906118e0565b9250508190555081600960003373ffffffffffffffffffffffffffffffffffffffff1673ffffffffffffffffffffffffffffffffffffffff1681526020019081526020016000206000828254610f9291906118e0565b92505081905550600160086000600754815260200190815260200160002060003373ffffffffffffffffffffffffffffffffffffffff1673ffffffffffffffffffffffffffffffffffffffff16815260200190815260200160002060006101000a81548160ff021916908315150217905550600180819055505050565b60025481565b60045481565b60008060009054906101000a900473ffffffffffffffffffffffffffffffffffffffff16905090565b600b6020528060005260406000206000915054906101000a900460ff1681565b60086020528160005260406000206020528060005260406000206000915091509054906101000a900460ff1681565b6208008581565b7376280af9d18a868a0af3dca95b57dde816c1aaf281565b60096020528060005260406000206000915090505481565b603c81565b6110d76112ec565b73ffffffffffffffffffffffffffffffffffffffff166110f561101b565b73ffffffffffffffffffffffffffffffffffffffff161461114b576040517f08c379a0000000000000000000000000000000000000000000000000000000008152600401611142906117a2565b60405180910390fd5b600073ffffffffffffffffffffffffffffffffffffffff168173ffffffffffffffffffffffffffffffffffffffff1614156111bb576040517f08c379a00000000000000000000000000000000000000000000000000000000081526004016111b290611742565b60405180910390fd5b8073ffffffffffffffffffffffffffffffffffffffff1660008054906101000a900473ffffffffffffffffffffffffffffffffffffffff1673ffffffffffffffffffffffffffffffffffffffff167f8be0079c531659141344cd1fd0a4f28419497f9722a3daafe3b4186f6b6457e060405160405180910390a3806000806101000a81548173ffffffffffffffffffffffffffffffffffffffff021916908373ffffffffffffffffffffffffffffffffffffffff16021790555050565b600c6020528060005260406000206000915054906101000a900473ffffffffffffffffffffffffffffffffffffffff1681565b6000808214156112be57600490506112e7565b60018214156112d057601090506112e7565b60028214156112e257602090506112e7565b604090505b919050565b600033905090565b6000600654148015611307575060055442115b1561131457436006819055505b60006006544361132491906119c1565b90506000603c826113359190611936565b9050600754811461134857806007819055505b5050565b60008135905061135b81611c52565b92915050565b60008151905061137081611c69565b92915050565b60008135905061138581611c80565b92915050565b60006020828403121561139d57600080fd5b60006113ab8482850161134c565b91505092915050565b6000602082840312156113c657600080fd5b60006113d484828501611361565b91505092915050565b6000602082840312156113ef57600080fd5b60006113fd84828501611376565b91505092915050565b6000806040838503121561141957600080fd5b600061142785828601611376565b92505060206114388582860161134c565b9150509250929050565b600061144e8383611472565b60208301905092915050565b60006114668383611673565b60208301905092915050565b61147b816119f5565b82525050565b61148a816119f5565b82525050565b600061149b8261187d565b6114a581856118ad565b93506114b08361185d565b8060005b838110156114e15781516114c88882611442565b97506114d383611893565b9250506001810190506114b4565b5085935050505092915050565b60006114f982611888565b61150381856118be565b935061150e8361186d565b8060005b8381101561153f578151611526888261145a565b9750611531836118a0565b925050600181019050611512565b5085935050505092915050565b61155581611a07565b82525050565b60006115686026836118cf565b915061157382611ae4565b604082019050919050565b600061158b600d836118cf565b915061159682611b33565b602082019050919050565b60006115ae6017836118cf565b91506115b982611b5c565b602082019050919050565b60006115d16020836118cf565b91506115dc82611b85565b602082019050919050565b60006115f46010836118cf565b91506115ff82611bae565b602082019050919050565b60006116176014836118cf565b915061162282611bd7565b602082019050919050565b600061163a6014836118cf565b915061164582611c00565b602082019050919050565b600061165d601f836118cf565b915061166882611c29565b602082019050919050565b61167c81611a33565b82525050565b61168b81611a33565b82525050565b60006020820190506116a66000830184611481565b92915050565b60006060820190506116c16000830186611481565b6116ce6020830185611481565b6116db6040830184611682565b949350505050565b600060208201905081810360008301526116fd8184611490565b905092915050565b6000602082019050818103600083015261171f81846114ee565b905092915050565b600060208201905061173c600083018461154c565b92915050565b6000602082019050818103600083015261175b8161155b565b9050919050565b6000602082019050818103600083015261177b8161157e565b9050919050565b6000602082019050818103600083015261179b816115a1565b9050919050565b600060208201905081810360008301526117bb816115c4565b9050919050565b600060208201905081810360008301526117db816115e7565b9050919050565b600060208201905081810360008301526117fb8161160a565b9050919050565b6000602082019050818103600083015261181b8161162d565b9050919050565b6000602082019050818103600083015261183b81611650565b9050919050565b60006020820190506118576000830184611682565b92915050565b6000819050602082019050919050565b6000819050602082019050919050565b600081519050919050565b600081519050919050565b6000602082019050919050565b6000602082019050919050565b600082825260208201905092915050565b600082825260208201905092915050565b600082825260208201905092915050565b60006118eb82611a33565b91506118f683611a33565b9250827fffffffffffffffffffffffffffffffffffffffffffffffffffffffffffffffff0382111561192b5761192a611a86565b5b828201905092915050565b600061194182611a33565b915061194c83611a33565b92508261195c5761195b611ab5565b5b828204905092915050565b600061197282611a33565b915061197d83611a33565b9250817fffffffffffffffffffffffffffffffffffffffffffffffffffffffffffffffff04831182151516156119b6576119b5611a86565b5b828202905092915050565b60006119cc82611a33565b91506119d783611a33565b9250828210156119ea576119e9611a86565b5b828203905092915050565b6000611a0082611a13565b9050919050565b60008115159050919050565b600073ffffffffffffffffffffffffffffffffffffffff82169050919050565b6000819050919050565b6000611a4882611a33565b91507fffffffffffffffffffffffffffffffffffffffffffffffffffffffffffffffff821415611a7b57611a7a611a86565b5b600182019050919050565b7f4e487b7100000000000000000000000000000000000000000000000000000000600052601160045260246000fd5b7f4e487b7100000000000000000000000000000000000000000000000000000000600052601260045260246000fd5b7f4f776e61626c653a206e6577206f776e657220697320746865207a65726f206160008201527f6464726573730000000000000000000000000000000000000000000000000000602082015250565b7f43616e6e6f74206d696e74203000000000000000000000000000000000000000600082015250565b7f4d617820666f7220545820696e20746869732077617665000000000000000000600082015250565b7f4f776e61626c653a2063616c6c6572206973206e6f7420746865206f776e6572600082015250565b7f536f6c64206f75742120536f7272792100000000000000000000000000000000600082015250565b7f4c6f636b656420666f7220746869732077617665000000000000000000000000600082015250565b7f53616c6520686173206e6f742073746172746564000000000000000000000000600082015250565b7f5265656e7472616e637947756172643a207265656e7472616e742063616c6c00600082015250565b611c5b816119f5565b8114611c6657600080fd5b50565b611c7281611a07565b8114611c7d57600080fd5b50565b611c8981611a33565b8114611c9457600080fd5b5056fea264697066735822122055ceaa9ed55b56646d0000d3c8dab58de02547058c0623466731334b9eebb50a64736f6c63430008040033",
  "linkReferences": {},
  "deployedLinkReferences": {}
}