{
  "_format": "hh-sol-artifact-1",
  "contractName": "ProxyController",
  "sourceName": "contracts/contracts/proxy/ProxyController.sol",
  "abi": [
    {
      "inputs": [
        {
          "internalType": "address",
          "name": "vaultFactory",
          "type": "address"
        },
        {
          "internalType": "address",
          "name": "eligManager",
          "type": "address"
        },
        {
          "internalType": "address",
          "name": "stakingProvider",
          "type": "address"
        },
        {
          "internalType": "address",
          "name": "staking",
          "type": "address"
        },
        {
          "internalType": "address",
          "name": "feeDistrib",
          "type": "address"
        }
      ],
      "stateMutability": "nonpayable",
      "type": "constructor"
    },
    {
      "anonymous": false,
      "inputs": [
        {
          "indexed": false,
          "internalType": "uint256",
          "name": "index",
          "type": "uint256"
        },
        {
          "indexed": false,
          "internalType": "address",
          "name": "impl",
          "type": "address"
        }
      ],
      "name": "ImplAddressSet",
      "type": "event"
    },
    {
      "anonymous": false,
      "inputs": [
        {
          "indexed": true,
          "internalType": "address",
          "name": "previousOwner",
          "type": "address"
        },
        {
          "indexed": true,
          "internalType": "address",
          "name": "newOwner",
          "type": "address"
        }
      ],
      "name": "OwnershipTransferred",
      "type": "event"
    },
    {
      "anonymous": false,
      "inputs": [
        {
          "indexed": false,
          "internalType": "uint256",
          "name": "index",
          "type": "uint256"
        },
        {
          "indexed": false,
          "internalType": "address",
          "name": "newAdmin",
          "type": "address"
        }
      ],
      "name": "ProxyAdminChanged",
      "type": "event"
    },
    {
      "inputs": [
        {
          "internalType": "address",
          "name": "newAdmin",
          "type": "address"
        }
      ],
      "name": "changeAllProxyAdmins",
      "outputs": [],
      "stateMutability": "nonpayable",
      "type": "function"
    },
    {
      "inputs": [
        {
          "internalType": "uint256",
          "name": "index",
          "type": "uint256"
        },
        {
          "internalType": "address",
          "name": "newAdmin",
          "type": "address"
        }
      ],
      "name": "changeProxyAdmin",
      "outputs": [],
      "stateMutability": "nonpayable",
      "type": "function"
    },
    {
      "inputs": [],
      "name": "eligManagerImpl",
      "outputs": [
        {
          "internalType": "address",
          "name": "",
          "type": "address"
        }
      ],
      "stateMutability": "view",
      "type": "function"
    },
    {
      "inputs": [],
      "name": "feeDistribImpl",
      "outputs": [
        {
          "internalType": "address",
          "name": "",
          "type": "address"
        }
      ],
      "stateMutability": "view",
      "type": "function"
    },
    {
      "inputs": [
        {
          "internalType": "uint256",
          "name": "index",
          "type": "uint256"
        }
      ],
      "name": "fetchImplAddress",
      "outputs": [],
      "stateMutability": "nonpayable",
      "type": "function"
    },
    {
      "inputs": [
        {
          "internalType": "uint256",
          "name": "index",
          "type": "uint256"
        }
      ],
      "name": "getAdmin",
      "outputs": [
        {
          "internalType": "address",
          "name": "admin",
          "type": "address"
        }
      ],
      "stateMutability": "view",
      "type": "function"
    },
    {
      "inputs": [],
      "name": "owner",
      "outputs": [
        {
          "internalType": "address",
          "name": "",
          "type": "address"
        }
      ],
      "stateMutability": "view",
      "type": "function"
    },
    {
      "inputs": [],
      "name": "renounceOwnership",
      "outputs": [],
      "stateMutability": "nonpayable",
      "type": "function"
    },
    {
      "inputs": [],
      "name": "stakingImpl",
      "outputs": [
        {
          "internalType": "address",
          "name": "",
          "type": "address"
        }
      ],
      "stateMutability": "view",
      "type": "function"
    },
    {
      "inputs": [],
      "name": "stakingProviderImpl",
      "outputs": [
        {
          "internalType": "address",
          "name": "",
          "type": "address"
        }
      ],
      "stateMutability": "view",
      "type": "function"
    },
    {
      "inputs": [
        {
          "internalType": "address",
          "name": "newOwner",
          "type": "address"
        }
      ],
      "name": "transferOwnership",
      "outputs": [],
      "stateMutability": "nonpayable",
      "type": "function"
    },
    {
      "inputs": [
        {
          "internalType": "uint256",
          "name": "index",
          "type": "uint256"
        },
        {
          "internalType": "address",
          "name": "newImpl",
          "type": "address"
        }
      ],
      "name": "upgradeProxyTo",
      "outputs": [],
      "stateMutability": "nonpayable",
      "type": "function"
    },
    {
      "inputs": [],
      "name": "vaultFactoryImpl",
      "outputs": [
        {
          "internalType": "address",
          "name": "",
          "type": "address"
        }
      ],
      "stateMutability": "view",
      "type": "function"
    }
  ],
  "bytecode": "0x60806040523480156200001157600080fd5b5060405162001e8c38038062001e8c833981810160405281019062000037919062000256565b6000620000496200023760201b60201c565b9050806000806101000a81548173ffffffffffffffffffffffffffffffffffffffff021916908373ffffffffffffffffffffffffffffffffffffffff1602179055508073ffffffffffffffffffffffffffffffffffffffff16600073ffffffffffffffffffffffffffffffffffffffff167f8be0079c531659141344cd1fd0a4f28419497f9722a3daafe3b4186f6b6457e060405160405180910390a35084600660006101000a81548173ffffffffffffffffffffffffffffffffffffffff021916908373ffffffffffffffffffffffffffffffffffffffff16021790555083600760006101000a81548173ffffffffffffffffffffffffffffffffffffffff021916908373ffffffffffffffffffffffffffffffffffffffff16021790555082600860006101000a81548173ffffffffffffffffffffffffffffffffffffffff021916908373ffffffffffffffffffffffffffffffffffffffff16021790555081600960006101000a81548173ffffffffffffffffffffffffffffffffffffffff021916908373ffffffffffffffffffffffffffffffffffffffff16021790555080600a60006101000a81548173ffffffffffffffffffffffffffffffffffffffff021916908373ffffffffffffffffffffffffffffffffffffffff160217905550505050505062000326565b600033905090565b60008151905062000250816200030c565b92915050565b600080600080600060a086880312156200026f57600080fd5b60006200027f888289016200023f565b955050602062000292888289016200023f565b9450506040620002a5888289016200023f565b9350506060620002b8888289016200023f565b9250506080620002cb888289016200023f565b9150509295509295909350565b6000620002e582620002ec565b9050919050565b600073ffffffffffffffffffffffffffffffffffffffff82169050919050565b6200031781620002d8565b81146200032357600080fd5b50565b611b5680620003366000396000f3fe608060405234801561001057600080fd5b50600436106100cf5760003560e01c8063b9d1abba1161008c578063e5e412cf11610066578063e5e412cf146101da578063ef1dcd51146101f8578063f0dce62914610214578063f2fde38b14610232576100cf565b8063b9d1abba14610184578063be91ae02146101a2578063c003d667146101be576100cf565b8063111fd88b146100d4578063194376a7146101045780634acaaec914610122578063715018a61461013e5780638da5cb5b14610148578063b4113cc814610166575b600080fd5b6100ee60048036038101906100e99190611896565b61024e565b6040516100fb919061196e565b60405180910390f35b61010c6105c5565b604051610119919061196e565b60405180910390f35b61013c600480360381019061013791906118bf565b6105eb565b005b610146610972565b005b610150610aac565b60405161015d919061196e565b60405180910390f35b61016e610ad5565b60405161017b919061196e565b60405180910390f35b61018c610afb565b604051610199919061196e565b60405180910390f35b6101bc60048036038101906101b79190611844565b610b21565b005b6101d860048036038101906101d39190611896565b610bd7565b005b6101e2611248565b6040516101ef919061196e565b60405180910390f35b610212600480360381019061020d91906118bf565b61126e565b005b61021c61162e565b604051610229919061196e565b60405180910390f35b61024c60048036038101906102479190611844565b611654565b005b6000808214156102ff57600660009054906101000a900473ffffffffffffffffffffffffffffffffffffffff1673ffffffffffffffffffffffffffffffffffffffff1663f851a4406040518163ffffffff1660e01b815260040160206040518083038186803b1580156102c057600080fd5b505afa1580156102d4573d6000803e3d6000fd5b505050506040513d601f19601f820116820180604052508101906102f8919061186d565b90506105c0565b60018214156103af57600760009054906101000a900473ffffffffffffffffffffffffffffffffffffffff1673ffffffffffffffffffffffffffffffffffffffff1663f851a4406040518163ffffffff1660e01b815260040160206040518083038186803b15801561037057600080fd5b505afa158015610384573d6000803e3d6000fd5b505050506040513d601f19601f820116820180604052508101906103a8919061186d565b90506105c0565b600282141561045f57600860009054906101000a900473ffffffffffffffffffffffffffffffffffffffff1673ffffffffffffffffffffffffffffffffffffffff1663f851a4406040518163ffffffff1660e01b815260040160206040518083038186803b15801561042057600080fd5b505afa158015610434573d6000803e3d6000fd5b505050506040513d601f19601f82011682018060405250810190610458919061186d565b90506105c0565b600382141561050f57600960009054906101000a900473ffffffffffffffffffffffffffffffffffffffff1673ffffffffffffffffffffffffffffffffffffffff1663f851a4406040518163ffffffff1660e01b815260040160206040518083038186803b1580156104d057600080fd5b505afa1580156104e4573d6000803e3d6000fd5b505050506040513d601f19601f82011682018060405250810190610508919061186d565b90506105c0565b60048214156105bf57600a60009054906101000a900473ffffffffffffffffffffffffffffffffffffffff1673ffffffffffffffffffffffffffffffffffffffff1663f851a4406040518163ffffffff1660e01b815260040160206040518083038186803b15801561058057600080fd5b505afa158015610594573d6000803e3d6000fd5b505050506040513d601f19601f820116820180604052508101906105b8919061186d565b90506105c0565b5b919050565b600260009054906101000a900473ffffffffffffffffffffffffffffffffffffffff1681565b6105f36117fd565b73ffffffffffffffffffffffffffffffffffffffff16610611610aac565b73ffffffffffffffffffffffffffffffffffffffff1614610667576040517f08c379a000000000000000000000000000000000000000000000000000000000815260040161065e906119d2565b60405180910390fd5b600082141561070257600660009054906101000a900473ffffffffffffffffffffffffffffffffffffffff1673ffffffffffffffffffffffffffffffffffffffff16633659cfe6826040518263ffffffff1660e01b81526004016106cb919061196e565b600060405180830381600087803b1580156106e557600080fd5b505af11580156106f9573d6000803e3d6000fd5b5050505061096e565b600182141561079d57600760009054906101000a900473ffffffffffffffffffffffffffffffffffffffff1673ffffffffffffffffffffffffffffffffffffffff16633659cfe6826040518263ffffffff1660e01b8152600401610766919061196e565b600060405180830381600087803b15801561078057600080fd5b505af1158015610794573d6000803e3d6000fd5b5050505061096d565b600282141561083857600860009054906101000a900473ffffffffffffffffffffffffffffffffffffffff1673ffffffffffffffffffffffffffffffffffffffff16633659cfe6826040518263ffffffff1660e01b8152600401610801919061196e565b600060405180830381600087803b15801561081b57600080fd5b505af115801561082f573d6000803e3d6000fd5b5050505061096c565b60038214156108d357600960009054906101000a900473ffffffffffffffffffffffffffffffffffffffff1673ffffffffffffffffffffffffffffffffffffffff16633659cfe6826040518263ffffffff1660e01b815260040161089c919061196e565b600060405180830381600087803b1580156108b657600080fd5b505af11580156108ca573d6000803e3d6000fd5b5050505061096b565b600482141561096a57600a60009054906101000a900473ffffffffffffffffffffffffffffffffffffffff1673ffffffffffffffffffffffffffffffffffffffff16633659cfe6826040518263ffffffff1660e01b8152600401610937919061196e565b600060405180830381600087803b15801561095157600080fd5b505af1158015610965573d6000803e3d6000fd5b505050505b5b5b5b5b5050565b61097a6117fd565b73ffffffffffffffffffffffffffffffffffffffff16610998610aac565b73ffffffffffffffffffffffffffffffffffffffff16146109ee576040517f08c379a00000000000000000000000000000000000000000000000000000000081526004016109e5906119d2565b60405180910390fd5b600073ffffffffffffffffffffffffffffffffffffffff1660008054906101000a900473ffffffffffffffffffffffffffffffffffffffff1673ffffffffffffffffffffffffffffffffffffffff167f8be0079c531659141344cd1fd0a4f28419497f9722a3daafe3b4186f6b6457e060405160405180910390a360008060006101000a81548173ffffffffffffffffffffffffffffffffffffffff021916908373ffffffffffffffffffffffffffffffffffffffff160217905550565b60008060009054906101000a900473ffffffffffffffffffffffffffffffffffffffff16905090565b600460009054906101000a900473ffffffffffffffffffffffffffffffffffffffff1681565b600360009054906101000a900473ffffffffffffffffffffffffffffffffffffffff1681565b610b296117fd565b73ffffffffffffffffffffffffffffffffffffffff16610b47610aac565b73ffffffffffffffffffffffffffffffffffffffff1614610b9d576040517f08c379a0000000000000000000000000000000000000000000000000000000008152600401610b94906119d2565b60405180910390fd5b610ba860008261126e565b610bb360018261126e565b610bbe60028261126e565b610bc960038261126e565b610bd460048261126e565b50565b6000811415610d2157600660009054906101000a900473ffffffffffffffffffffffffffffffffffffffff1673ffffffffffffffffffffffffffffffffffffffff16635c60da1b6040518163ffffffff1660e01b815260040160206040518083038186803b158015610c4857600080fd5b505afa158015610c5c573d6000803e3d6000fd5b505050506040513d601f19601f82011682018060405250810190610c80919061186d565b600160006101000a81548173ffffffffffffffffffffffffffffffffffffffff021916908373ffffffffffffffffffffffffffffffffffffffff1602179055507f7de8ab8b77228d35af67c8e9749f12679e02c3aeda9375749a9c354dd0066b656000600160009054906101000a900473ffffffffffffffffffffffffffffffffffffffff16604051610d14929190611989565b60405180910390a1611245565b6001811415610e6a57600760009054906101000a900473ffffffffffffffffffffffffffffffffffffffff1673ffffffffffffffffffffffffffffffffffffffff16635c60da1b6040518163ffffffff1660e01b815260040160206040518083038186803b158015610d9257600080fd5b505afa158015610da6573d6000803e3d6000fd5b505050506040513d601f19601f82011682018060405250810190610dca919061186d565b600260006101000a81548173ffffffffffffffffffffffffffffffffffffffff021916908373ffffffffffffffffffffffffffffffffffffffff1602179055507f7de8ab8b77228d35af67c8e9749f12679e02c3aeda9375749a9c354dd0066b6581600260009054906101000a900473ffffffffffffffffffffffffffffffffffffffff16604051610e5d9291906119f2565b60405180910390a1611244565b6002811415610fb357600860009054906101000a900473ffffffffffffffffffffffffffffffffffffffff1673ffffffffffffffffffffffffffffffffffffffff16635c60da1b6040518163ffffffff1660e01b815260040160206040518083038186803b158015610edb57600080fd5b505afa158015610eef573d6000803e3d6000fd5b505050506040513d601f19601f82011682018060405250810190610f13919061186d565b600360006101000a81548173ffffffffffffffffffffffffffffffffffffffff021916908373ffffffffffffffffffffffffffffffffffffffff1602179055507f7de8ab8b77228d35af67c8e9749f12679e02c3aeda9375749a9c354dd0066b6581600360009054906101000a900473ffffffffffffffffffffffffffffffffffffffff16604051610fa69291906119f2565b60405180910390a1611243565b60038114156110fc57600960009054906101000a900473ffffffffffffffffffffffffffffffffffffffff1673ffffffffffffffffffffffffffffffffffffffff16635c60da1b6040518163ffffffff1660e01b815260040160206040518083038186803b15801561102457600080fd5b505afa158015611038573d6000803e3d6000fd5b505050506040513d601f19601f8201168201806040525081019061105c919061186d565b600460006101000a81548173ffffffffffffffffffffffffffffffffffffffff021916908373ffffffffffffffffffffffffffffffffffffffff1602179055507f7de8ab8b77228d35af67c8e9749f12679e02c3aeda9375749a9c354dd0066b6581600460009054906101000a900473ffffffffffffffffffffffffffffffffffffffff166040516110ef9291906119f2565b60405180910390a1611242565b600481141561124157600a60009054906101000a900473ffffffffffffffffffffffffffffffffffffffff1673ffffffffffffffffffffffffffffffffffffffff16635c60da1b6040518163ffffffff1660e01b815260040160206040518083038186803b15801561116d57600080fd5b505afa158015611181573d6000803e3d6000fd5b505050506040513d601f19601f820116820180604052508101906111a5919061186d565b600560006101000a81548173ffffffffffffffffffffffffffffffffffffffff021916908373ffffffffffffffffffffffffffffffffffffffff1602179055507f7de8ab8b77228d35af67c8e9749f12679e02c3aeda9375749a9c354dd0066b6581600560009054906101000a900473ffffffffffffffffffffffffffffffffffffffff166040516112389291906119f2565b60405180910390a15b5b5b5b5b50565b600560009054906101000a900473ffffffffffffffffffffffffffffffffffffffff1681565b6112766117fd565b73ffffffffffffffffffffffffffffffffffffffff16611294610aac565b73ffffffffffffffffffffffffffffffffffffffff16146112ea576040517f08c379a00000000000000000000000000000000000000000000000000000000081526004016112e1906119d2565b60405180910390fd5b600082141561138557600660009054906101000a900473ffffffffffffffffffffffffffffffffffffffff1673ffffffffffffffffffffffffffffffffffffffff16638f283970826040518263ffffffff1660e01b815260040161134e919061196e565b600060405180830381600087803b15801561136857600080fd5b505af115801561137c573d6000803e3d6000fd5b505050506115f1565b600182141561142057600760009054906101000a900473ffffffffffffffffffffffffffffffffffffffff1673ffffffffffffffffffffffffffffffffffffffff16638f283970826040518263ffffffff1660e01b81526004016113e9919061196e565b600060405180830381600087803b15801561140357600080fd5b505af1158015611417573d6000803e3d6000fd5b505050506115f0565b60028214156114bb57600860009054906101000a900473ffffffffffffffffffffffffffffffffffffffff1673ffffffffffffffffffffffffffffffffffffffff16638f283970826040518263ffffffff1660e01b8152600401611484919061196e565b600060405180830381600087803b15801561149e57600080fd5b505af11580156114b2573d6000803e3d6000fd5b505050506115ef565b600382141561155657600960009054906101000a900473ffffffffffffffffffffffffffffffffffffffff1673ffffffffffffffffffffffffffffffffffffffff16638f283970826040518263ffffffff1660e01b815260040161151f919061196e565b600060405180830381600087803b15801561153957600080fd5b505af115801561154d573d6000803e3d6000fd5b505050506115ee565b60048214156115ed57600a60009054906101000a900473ffffffffffffffffffffffffffffffffffffffff1673ffffffffffffffffffffffffffffffffffffffff16638f283970826040518263ffffffff1660e01b81526004016115ba919061196e565b600060405180830381600087803b1580156115d457600080fd5b505af11580156115e8573d6000803e3d6000fd5b505050505b5b5b5b5b7fdd46f7a110d29e571d4200939ad89fe6fd13f4bbdb521c01f8a8cef93ec2dd8d82826040516116229291906119f2565b60405180910390a15050565b600160009054906101000a900473ffffffffffffffffffffffffffffffffffffffff1681565b61165c6117fd565b73ffffffffffffffffffffffffffffffffffffffff1661167a610aac565b73ffffffffffffffffffffffffffffffffffffffff16146116d0576040517f08c379a00000000000000000000000000000000000000000000000000000000081526004016116c7906119d2565b60405180910390fd5b600073ffffffffffffffffffffffffffffffffffffffff168173ffffffffffffffffffffffffffffffffffffffff161415611740576040517f08c379a0000000000000000000000000000000000000000000000000000000008152600401611737906119b2565b60405180910390fd5b8073ffffffffffffffffffffffffffffffffffffffff1660008054906101000a900473ffffffffffffffffffffffffffffffffffffffff1673ffffffffffffffffffffffffffffffffffffffff167f8be0079c531659141344cd1fd0a4f28419497f9722a3daafe3b4186f6b6457e060405160405180910390a3806000806101000a81548173ffffffffffffffffffffffffffffffffffffffff021916908373ffffffffffffffffffffffffffffffffffffffff16021790555050565b600033905090565b60008135905061181481611af2565b92915050565b60008151905061182981611af2565b92915050565b60008135905061183e81611b09565b92915050565b60006020828403121561185657600080fd5b600061186484828501611805565b91505092915050565b60006020828403121561187f57600080fd5b600061188d8482850161181a565b91505092915050565b6000602082840312156118a857600080fd5b60006118b68482850161182f565b91505092915050565b600080604083850312156118d257600080fd5b60006118e08582860161182f565b92505060206118f185828601611805565b9150509250929050565b61190481611a2c565b82525050565b61191381611a68565b82525050565b6000611926602683611a1b565b915061193182611a7a565b604082019050919050565b6000611949602083611a1b565b915061195482611ac9565b602082019050919050565b61196881611a5e565b82525050565b600060208201905061198360008301846118fb565b92915050565b600060408201905061199e600083018561190a565b6119ab60208301846118fb565b9392505050565b600060208201905081810360008301526119cb81611919565b9050919050565b600060208201905081810360008301526119eb8161193c565b9050919050565b6000604082019050611a07600083018561195f565b611a1460208301846118fb565b9392505050565b600082825260208201905092915050565b6000611a3782611a3e565b9050919050565b600073ffffffffffffffffffffffffffffffffffffffff82169050919050565b6000819050919050565b6000611a7382611a5e565b9050919050565b7f4f776e61626c653a206e6577206f776e657220697320746865207a65726f206160008201527f6464726573730000000000000000000000000000000000000000000000000000602082015250565b7f4f776e61626c653a2063616c6c6572206973206e6f7420746865206f776e6572600082015250565b611afb81611a2c565b8114611b0657600080fd5b50565b611b1281611a5e565b8114611b1d57600080fd5b5056fea26469706673582212202392ce74be54833005215227dd3a6a31767539fa13e4ca717e59071a5280ee5664736f6c63430008040033",
  "linkReferences": {},
  "deployedLinkReferences": {}
}