{
  "_format": "hh-sol-artifact-1",
  "contractName": "uwucrewWaveLockSaleWithMint",
  "sourceName": "contracts/uwucrewWaveLockMintSale.sol",
  "abi": [
    {
      "inputs": [
        {
          "internalType": "address",
          "name": "_nft",
          "type": "address"
        },
        {
          "internalType": "uint256",
          "name": "_startTime",
          "type": "uint256"
        },
        {
          "internalType": "uint256",
          "name": "saleCount",
          "type": "uint256"
        },
        {
          "internalType": "uint256",
          "name": "swapCount",
          "type": "uint256"
        },
        {
          "internalType": "uint256",
          "name": "_lpCount",
          "type": "uint256"
        }
      ],
      "stateMutability": "nonpayable",
      "type": "constructor"
    },
    {
      "anonymous": false,
      "inputs": [
        {
          "indexed": true,
          "internalType": "address",
          "name": "previousOwner",
          "type": "address"
        },
        {
          "indexed": true,
          "internalType": "address",
          "name": "newOwner",
          "type": "address"
        }
      ],
      "name": "OwnershipTransferred",
      "type": "event"
    },
    {
      "inputs": [],
      "name": "BURNADDR",
      "outputs": [
        {
          "internalType": "address",
          "name": "",
          "type": "address"
        }
      ],
      "stateMutability": "view",
      "type": "function"
    },
    {
      "inputs": [],
      "name": "WAIFUSION",
      "outputs": [
        {
          "internalType": "address",
          "name": "",
          "type": "address"
        }
      ],
      "stateMutability": "view",
      "type": "function"
    },
    {
      "inputs": [],
      "name": "WET",
      "outputs": [
        {
          "internalType": "address",
          "name": "",
          "type": "address"
        }
      ],
      "stateMutability": "view",
      "type": "function"
    },
    {
      "inputs": [
        {
          "internalType": "address",
          "name": "account",
          "type": "address"
        },
        {
          "internalType": "uint256",
          "name": "count",
          "type": "uint256"
        }
      ],
      "name": "_mint",
      "outputs": [],
      "stateMutability": "nonpayable",
      "type": "function"
    },
    {
      "inputs": [
        {
          "internalType": "uint256",
          "name": "count",
          "type": "uint256"
        }
      ],
      "name": "addExtraToSale",
      "outputs": [],
      "stateMutability": "nonpayable",
      "type": "function"
    },
    {
      "inputs": [],
      "name": "amountForSale",
      "outputs": [
        {
          "internalType": "uint256",
          "name": "",
          "type": "uint256"
        }
      ],
      "stateMutability": "view",
      "type": "function"
    },
    {
      "inputs": [],
      "name": "amountForSwap",
      "outputs": [
        {
          "internalType": "uint256",
          "name": "",
          "type": "uint256"
        }
      ],
      "stateMutability": "view",
      "type": "function"
    },
    {
      "inputs": [],
      "name": "amountSold",
      "outputs": [
        {
          "internalType": "uint256",
          "name": "",
          "type": "uint256"
        }
      ],
      "stateMutability": "view",
      "type": "function"
    },
    {
      "inputs": [],
      "name": "amountSwapped",
      "outputs": [
        {
          "internalType": "uint256",
          "name": "",
          "type": "uint256"
        }
      ],
      "stateMutability": "view",
      "type": "function"
    },
    {
      "inputs": [
        {
          "internalType": "address",
          "name": "",
          "type": "address"
        }
      ],
      "name": "balance",
      "outputs": [
        {
          "internalType": "uint256",
          "name": "",
          "type": "uint256"
        }
      ],
      "stateMutability": "view",
      "type": "function"
    },
    {
      "inputs": [
        {
          "internalType": "uint256",
          "name": "count",
          "type": "uint256"
        }
      ],
      "name": "buy",
      "outputs": [],
      "stateMutability": "payable",
      "type": "function"
    },
    {
      "inputs": [],
      "name": "buyPrice",
      "outputs": [
        {
          "internalType": "uint256",
          "name": "",
          "type": "uint256"
        }
      ],
      "stateMutability": "view",
      "type": "function"
    },
    {
      "inputs": [],
      "name": "closeSwapToOwner",
      "outputs": [],
      "stateMutability": "nonpayable",
      "type": "function"
    },
    {
      "inputs": [],
      "name": "closeSwapToSale",
      "outputs": [],
      "stateMutability": "nonpayable",
      "type": "function"
    },
    {
      "inputs": [],
      "name": "currentMaxPerTX",
      "outputs": [
        {
          "internalType": "uint256",
          "name": "",
          "type": "uint256"
        }
      ],
      "stateMutability": "view",
      "type": "function"
    },
    {
      "inputs": [
        {
          "internalType": "address",
          "name": "account",
          "type": "address"
        },
        {
          "internalType": "uint256",
          "name": "count",
          "type": "uint256"
        }
      ],
      "name": "forceMint",
      "outputs": [],
      "stateMutability": "nonpayable",
      "type": "function"
    },
    {
      "inputs": [
        {
          "internalType": "uint256",
          "name": "count",
          "type": "uint256"
        }
      ],
      "name": "mint",
      "outputs": [],
      "stateMutability": "nonpayable",
      "type": "function"
    },
    {
      "inputs": [],
      "name": "nft",
      "outputs": [
        {
          "internalType": "address",
          "name": "",
          "type": "address"
        }
      ],
      "stateMutability": "view",
      "type": "function"
    },
    {
      "inputs": [],
      "name": "owner",
      "outputs": [
        {
          "internalType": "address",
          "name": "",
          "type": "address"
        }
      ],
      "stateMutability": "view",
      "type": "function"
    },
    {
      "inputs": [],
      "name": "renounceOwnership",
      "outputs": [],
      "stateMutability": "nonpayable",
      "type": "function"
    },
    {
      "inputs": [],
      "name": "startBlock",
      "outputs": [
        {
          "internalType": "uint256",
          "name": "",
          "type": "uint256"
        }
      ],
      "stateMutability": "view",
      "type": "function"
    },
    {
      "inputs": [],
      "name": "startTime",
      "outputs": [
        {
          "internalType": "uint256",
          "name": "",
          "type": "uint256"
        }
      ],
      "stateMutability": "view",
      "type": "function"
    },
    {
      "inputs": [
        {
          "internalType": "uint256[]",
          "name": "ids",
          "type": "uint256[]"
        }
      ],
      "name": "swapAndMint",
      "outputs": [],
      "stateMutability": "nonpayable",
      "type": "function"
    },
    {
      "inputs": [],
      "name": "swapPrice",
      "outputs": [
        {
          "internalType": "uint256",
          "name": "",
          "type": "uint256"
        }
      ],
      "stateMutability": "view",
      "type": "function"
    },
    {
      "inputs": [
        {
          "internalType": "uint256[]",
          "name": "ids",
          "type": "uint256[]"
        }
      ],
      "name": "swapWFforUWU",
      "outputs": [],
      "stateMutability": "nonpayable",
      "type": "function"
    },
    {
      "inputs": [
        {
          "internalType": "address",
          "name": "newOwner",
          "type": "address"
        }
      ],
      "name": "transferOwnership",
      "outputs": [],
      "stateMutability": "nonpayable",
      "type": "function"
    },
    {
      "inputs": [],
      "name": "wave",
      "outputs": [
        {
          "internalType": "uint256",
          "name": "",
          "type": "uint256"
        }
      ],
      "stateMutability": "view",
      "type": "function"
    },
    {
      "inputs": [],
      "name": "waveBlockLength",
      "outputs": [
        {
          "internalType": "uint256",
          "name": "",
          "type": "uint256"
        }
      ],
      "stateMutability": "view",
      "type": "function"
    },
    {
      "inputs": [
        {
          "internalType": "uint256",
          "name": "",
          "type": "uint256"
        },
        {
          "internalType": "address",
          "name": "",
          "type": "address"
        }
      ],
      "name": "waveLock",
      "outputs": [
        {
          "internalType": "bool",
          "name": "",
          "type": "bool"
        }
      ],
      "stateMutability": "view",
      "type": "function"
    }
  ],
  "bytecode": "0x60a060405266d529ae9e860000600655670de0b6b3a764000061072662000027919062000482565b6007556000600a556014600b553480156200004157600080fd5b5060405162002b5838038062002b5883398181016040528101906200006791906200031d565b600062000079620002be60201b60201c565b9050806000806101000a81548173ffffffffffffffffffffffffffffffffffffffff021916908373ffffffffffffffffffffffffffffffffffffffff1602179055508073ffffffffffffffffffffffffffffffffffffffff16600073ffffffffffffffffffffffffffffffffffffffff167f8be0079c531659141344cd1fd0a4f28419497f9722a3daafe3b4186f6b6457e060405160405180910390a350600180819055508473ffffffffffffffffffffffffffffffffffffffff1660808173ffffffffffffffffffffffffffffffffffffffff1660601b8152505080828462000164919062000425565b62000170919062000425565b8573ffffffffffffffffffffffffffffffffffffffff1663dd1a29f36040518163ffffffff1660e01b8152600401602060405180830381600087803b158015620001b957600080fd5b505af1158015620001ce573d6000803e3d6000fd5b505050506040513d601f19601f82011682018060405250810190620001f491906200039f565b1162000237576040517f08c379a00000000000000000000000000000000000000000000000000000000081526004016200022e90620003f2565b60405180910390fd5b83600881905550826002819055508160048190555080600d600062000261620002c660201b60201c565b73ffffffffffffffffffffffffffffffffffffffff1673ffffffffffffffffffffffffffffffffffffffff1681526020019081526020016000206000828254620002ac919062000425565b925050819055505050505050620005ad565b600033905090565b60008060009054906101000a900473ffffffffffffffffffffffffffffffffffffffff16905090565b600081519050620003008162000579565b92915050565b600081519050620003178162000593565b92915050565b600080600080600060a086880312156200033657600080fd5b60006200034688828901620002ef565b9550506020620003598882890162000306565b94505060406200036c8882890162000306565b93505060606200037f8882890162000306565b9250506080620003928882890162000306565b9150509295509295909350565b600060208284031215620003b257600080fd5b6000620003c28482850162000306565b91505092915050565b6000620003da60108362000414565b9150620003e78262000550565b602082019050919050565b600060208201905081810360008301526200040d81620003cb565b9050919050565b600082825260208201905092915050565b6000620004328262000517565b91506200043f8362000517565b9250827fffffffffffffffffffffffffffffffffffffffffffffffffffffffffffffffff0382111562000477576200047662000521565b5b828201905092915050565b60006200048f8262000517565b91506200049c8362000517565b9250817fffffffffffffffffffffffffffffffffffffffffffffffffffffffffffffffff0483118215151615620004d857620004d762000521565b5b828202905092915050565b6000620004f082620004f7565b9050919050565b600073ffffffffffffffffffffffffffffffffffffffff82169050919050565b6000819050919050565b7f4e487b7100000000000000000000000000000000000000000000000000000000600052601160045260246000fd5b7f4d6f7265207468616e20737570706c7900000000000000000000000000000000600082015250565b6200058481620004e3565b81146200059057600080fd5b50565b6200059e8162000517565b8114620005aa57600080fd5b50565b60805160601c61257e620005da600039600081816107820152818161090d01526109b8015261257e6000f3fe6080604052600436106101c25760003560e01c806378e97925116100f7578063afa060e611610095578063dfb23d1111610064578063dfb23d11146105b5578063e3d670d7146105e0578063e9d109a01461061d578063f2fde38b14610648576101c2565b8063afa060e614610508578063b55431df14610545578063d360af921461056e578063d96a094a14610599576101c2565b80638da5cb5b116100d15780638da5cb5b14610460578063a0712d681461048b578063aab86a9e146104b4578063ae2ffd29146104df576101c2565b806378e97925146103df5780638473e55f1461040a5780638620410b14610435576101c2565b8063516cd040116101645780636831e0d81161013e5780636831e0d8146103495780636a9d5c84146103745780636fe15b441461039d578063715018a6146103c8576101c2565b8063516cd040146102de57806352a16bb0146102f5578063639ca91914610320576101c2565b806332d79dd6116101a057806332d79dd61461023457806347ccca021461025f57806348cd4cb11461028a5780634e6ec247146102b5576101c2565b80630ebdeba8146101c75780631c99263a146101de5780633227f32014610209575b600080fd5b3480156101d357600080fd5b506101dc610671565b005b3480156101ea57600080fd5b506101f3610762565b6040516102009190611f2a565b60405180910390f35b34801561021557600080fd5b5061021e610774565b60405161022b9190611f2a565b60405180910390f35b34801561024057600080fd5b5061024961077a565b6040516102569190611f2a565b60405180910390f35b34801561026b57600080fd5b50610274610780565b6040516102819190611cb4565b60405180910390f35b34801561029657600080fd5b5061029f6107a4565b6040516102ac9190611f2a565b60405180910390f35b3480156102c157600080fd5b506102dc60048036038101906102d7919061190e565b6107aa565b005b3480156102ea57600080fd5b506102f3610a67565b005b34801561030157600080fd5b5061030a610b1b565b6040516103179190611f2a565b60405180910390f35b34801561032c57600080fd5b506103476004803603810190610342919061194a565b610b21565b005b34801561035557600080fd5b5061035e610dc7565b60405161036b9190611f2a565b60405180910390f35b34801561038057600080fd5b5061039b6004803603810190610396919061190e565b610dcd565b005b3480156103a957600080fd5b506103b2610e57565b6040516103bf9190611f2a565b60405180910390f35b3480156103d457600080fd5b506103dd610e5d565b005b3480156103eb57600080fd5b506103f4610f97565b6040516104019190611f2a565b60405180910390f35b34801561041657600080fd5b5061041f610f9d565b60405161042c9190611f2a565b60405180910390f35b34801561044157600080fd5b5061044a610fa3565b6040516104579190611f2a565b60405180910390f35b34801561046c57600080fd5b50610475610fa9565b6040516104829190611cb4565b60405180910390f35b34801561049757600080fd5b506104b260048036038101906104ad91906119b4565b610fd2565b005b3480156104c057600080fd5b506104c9610fdf565b6040516104d69190611cb4565b60405180910390f35b3480156104eb57600080fd5b50610506600480360381019061050191906119b4565b610ff7565b005b34801561051457600080fd5b5061052f600480360381019061052a9190611a06565b6110e5565b60405161053c9190611d2f565b60405180910390f35b34801561055157600080fd5b5061056c6004803603810190610567919061194a565b611114565b005b34801561057a57600080fd5b5061058361112a565b6040516105909190611cb4565b60405180910390f35b6105b360048036038101906105ae91906119b4565b611131565b005b3480156105c157600080fd5b506105ca61157a565b6040516105d79190611cb4565b60405180910390f35b3480156105ec57600080fd5b50610607600480360381019061060291906118e5565b611592565b6040516106149190611f2a565b60405180910390f35b34801561062957600080fd5b506106326115aa565b60405161063f9190611f2a565b60405180910390f35b34801561065457600080fd5b5061066f600480360381019061066a91906118e5565b6115b0565b005b610679611759565b73ffffffffffffffffffffffffffffffffffffffff16610697610fa9565b73ffffffffffffffffffffffffffffffffffffffff16146106ed576040517f08c379a00000000000000000000000000000000000000000000000000000000081526004016106e490611e6a565b60405180910390fd5b60006005546004546106ff9190612093565b9050600060048190555080600d60003373ffffffffffffffffffffffffffffffffffffffff1673ffffffffffffffffffffffffffffffffffffffff16815260200190815260200160002060008282546107589190611fb2565b9250508190555050565b600061076f600a54611761565b905090565b60045481565b60055481565b7f000000000000000000000000000000000000000000000000000000000000000081565b60095481565b600081116107ed576040517f08c379a00000000000000000000000000000000000000000000000000000000081526004016107e490611dca565b60405180910390fd5b600d60008373ffffffffffffffffffffffffffffffffffffffff1673ffffffffffffffffffffffffffffffffffffffff1681526020019081526020016000205481111561086f576040517f08c379a000000000000000000000000000000000000000000000000000000000815260040161086690611e0a565b60405180910390fd5b60085442116108b3576040517f08c379a00000000000000000000000000000000000000000000000000000000081526004016108aa90611d6a565b60405180910390fd5b80600d60008473ffffffffffffffffffffffffffffffffffffffff1673ffffffffffffffffffffffffffffffffffffffff16815260200190815260200160002060008282546109029190612093565b9250508190555060007f000000000000000000000000000000000000000000000000000000000000000073ffffffffffffffffffffffffffffffffffffffff166318160ddd6040518163ffffffff1660e01b815260040160206040518083038186803b15801561097157600080fd5b505afa158015610985573d6000803e3d6000fd5b505050506040513d601f19601f820116820180604052508101906109a991906119dd565b905060005b82811015610a61577f000000000000000000000000000000000000000000000000000000000000000073ffffffffffffffffffffffffffffffffffffffff166340c10f198583856109ff9190611fb2565b6040518363ffffffff1660e01b8152600401610a1c929190611d06565b600060405180830381600087803b158015610a3657600080fd5b505af1158015610a4a573d6000803e3d6000fd5b505050508080610a5990612140565b9150506109ae565b50505050565b610a6f611759565b73ffffffffffffffffffffffffffffffffffffffff16610a8d610fa9565b73ffffffffffffffffffffffffffffffffffffffff1614610ae3576040517f08c379a0000000000000000000000000000000000000000000000000000000008152600401610ada90611e6a565b60405180910390fd5b6000600554600454610af59190612093565b905060006004819055508060026000828254610b119190611fb2565b9250508190555050565b60035481565b60008151905060008111610b6a576040517f08c379a0000000000000000000000000000000000000000000000000000000008152600401610b6190611d8a565b60405180910390fd5b60045481600554610b7b9190611fb2565b10610bbb576040517f08c379a0000000000000000000000000000000000000000000000000000000008152600401610bb290611eca565b60405180910390fd5b7376280af9d18a868a0af3dca95b57dde816c1aaf273ffffffffffffffffffffffffffffffffffffffff166323b872dd336208008560075485610bfe9190612039565b6040518463ffffffff1660e01b8152600401610c1c93929190611ccf565b602060405180830381600087803b158015610c3657600080fd5b505af1158015610c4a573d6000803e3d6000fd5b505050506040513d601f19601f82011682018060405250810190610c6e919061198b565b5060005b81811015610d5357732216d47494e516d8206b70fca8585820ed3c494673ffffffffffffffffffffffffffffffffffffffff166323b872dd3362080085868581518110610ce8577f4e487b7100000000000000000000000000000000000000000000000000000000600052603260045260246000fd5b60200260200101516040518463ffffffff1660e01b8152600401610d0e93929190611ccf565b600060405180830381600087803b158015610d2857600080fd5b505af1158015610d3c573d6000803e3d6000fd5b505050508080610d4b90612140565b915050610c72565b508060056000828254610d669190611fb2565b9250508190555080600d60003373ffffffffffffffffffffffffffffffffffffffff1673ffffffffffffffffffffffffffffffffffffffff1681526020019081526020016000206000828254610dbc9190611fb2565b925050819055505050565b60075481565b610dd5611759565b73ffffffffffffffffffffffffffffffffffffffff16610df3610fa9565b73ffffffffffffffffffffffffffffffffffffffff1614610e49576040517f08c379a0000000000000000000000000000000000000000000000000000000008152600401610e4090611e6a565b60405180910390fd5b610e5382826107aa565b5050565b600a5481565b610e65611759565b73ffffffffffffffffffffffffffffffffffffffff16610e83610fa9565b73ffffffffffffffffffffffffffffffffffffffff1614610ed9576040517f08c379a0000000000000000000000000000000000000000000000000000000008152600401610ed090611e6a565b60405180910390fd5b600073ffffffffffffffffffffffffffffffffffffffff1660008054906101000a900473ffffffffffffffffffffffffffffffffffffffff1673ffffffffffffffffffffffffffffffffffffffff167f8be0079c531659141344cd1fd0a4f28419497f9722a3daafe3b4186f6b6457e060405160405180910390a360008060006101000a81548173ffffffffffffffffffffffffffffffffffffffff021916908373ffffffffffffffffffffffffffffffffffffffff160217905550565b60085481565b60025481565b60065481565b60008060009054906101000a900473ffffffffffffffffffffffffffffffffffffffff16905090565b610fdc33826107aa565b50565b732216d47494e516d8206b70fca8585820ed3c494681565b610fff611759565b73ffffffffffffffffffffffffffffffffffffffff1661101d610fa9565b73ffffffffffffffffffffffffffffffffffffffff1614611073576040517f08c379a000000000000000000000000000000000000000000000000000000000815260040161106a90611e6a565b60405180910390fd5b80600d60003373ffffffffffffffffffffffffffffffffffffffff1673ffffffffffffffffffffffffffffffffffffffff16815260200190815260200160002060008282546110c29190612093565b9250508190555080600260008282546110db9190611fb2565b9250508190555050565b600c6020528160005260406000206020528060005260406000206000915091509054906101000a900460ff1681565b61111d81610b21565b6111278151610fd2565b50565b6208008581565b60026001541415611177576040517f08c379a000000000000000000000000000000000000000000000000000000000815260040161116e90611f0a565b60405180910390fd5b600260018190555060085442116111c3576040517f08c379a00000000000000000000000000000000000000000000000000000000081526004016111ba90611eea565b60405180910390fd5b60008111611206576040517f08c379a00000000000000000000000000000000000000000000000000000000081526004016111fd90611dea565b60405180910390fd5b6002546003541061124c576040517f08c379a000000000000000000000000000000000000000000000000000000000815260040161124390611e8a565b60405180910390fd5b6112546117a2565b600c6000600a54815260200190815260200160002060003373ffffffffffffffffffffffffffffffffffffffff1673ffffffffffffffffffffffffffffffffffffffff16815260200190815260200160002060009054906101000a900460ff16156112f4576040517f08c379a00000000000000000000000000000000000000000000000000000000081526004016112eb90611eaa565b60405180910390fd5b6112ff600a54611761565b811115611341576040517f08c379a000000000000000000000000000000000000000000000000000000000815260040161133890611e2a565b60405180910390fd5b6006548161134f9190612039565b341015611391576040517f08c379a000000000000000000000000000000000000000000000000000000000815260040161138890611e4a565b60405180910390fd5b6000600254826003546113a49190611fb2565b11156113de5760006003546002546113bc9190612093565b905080836113ca9190612093565b6006546113d79190612039565b9150809250505b81600360008282546113f09190611fb2565b9250508190555081600d60003373ffffffffffffffffffffffffffffffffffffffff1673ffffffffffffffffffffffffffffffffffffffff16815260200190815260200160002060008282546114469190611fb2565b925050819055506001600c6000600a54815260200190815260200160002060003373ffffffffffffffffffffffffffffffffffffffff1673ffffffffffffffffffffffffffffffffffffffff16815260200190815260200160002060006101000a81548160ff021916908315150217905550600081111561156f5760003373ffffffffffffffffffffffffffffffffffffffff16826040516114e790611c9f565b60006040518083038185875af1925050503d8060008114611524576040519150601f19603f3d011682016040523d82523d6000602084013e611529565b606091505b505090508061156d576040517f08c379a000000000000000000000000000000000000000000000000000000000815260040161156490611daa565b60405180910390fd5b505b506001808190555050565b7376280af9d18a868a0af3dca95b57dde816c1aaf281565b600d6020528060005260406000206000915090505481565b600b5481565b6115b8611759565b73ffffffffffffffffffffffffffffffffffffffff166115d6610fa9565b73ffffffffffffffffffffffffffffffffffffffff161461162c576040517f08c379a000000000000000000000000000000000000000000000000000000000815260040161162390611e6a565b60405180910390fd5b600073ffffffffffffffffffffffffffffffffffffffff168173ffffffffffffffffffffffffffffffffffffffff16141561169c576040517f08c379a000000000000000000000000000000000000000000000000000000000815260040161169390611d4a565b60405180910390fd5b8073ffffffffffffffffffffffffffffffffffffffff1660008054906101000a900473ffffffffffffffffffffffffffffffffffffffff1673ffffffffffffffffffffffffffffffffffffffff167f8be0079c531659141344cd1fd0a4f28419497f9722a3daafe3b4186f6b6457e060405160405180910390a3806000806101000a81548173ffffffffffffffffffffffffffffffffffffffff021916908373ffffffffffffffffffffffffffffffffffffffff16021790555050565b600033905090565b600080821415611774576004905061179d565b6001821415611786576010905061179d565b6002821415611798576020905061179d565b602090505b919050565b60006009541480156117b5575060085442115b156117c257436009819055505b6000600954436117d29190612093565b90506000600b54826117e49190612008565b9050600a5481146117f75780600a819055505b5050565b600061180e61180984611f6a565b611f45565b9050808382526020820190508285602086028201111561182d57600080fd5b60005b8581101561185d578161184388826118bb565b845260208401935060208301925050600181019050611830565b5050509392505050565b60008135905061187681612503565b92915050565b600082601f83011261188d57600080fd5b813561189d8482602086016117fb565b91505092915050565b6000815190506118b58161251a565b92915050565b6000813590506118ca81612531565b92915050565b6000815190506118df81612531565b92915050565b6000602082840312156118f757600080fd5b600061190584828501611867565b91505092915050565b6000806040838503121561192157600080fd5b600061192f85828601611867565b9250506020611940858286016118bb565b9150509250929050565b60006020828403121561195c57600080fd5b600082013567ffffffffffffffff81111561197657600080fd5b6119828482850161187c565b91505092915050565b60006020828403121561199d57600080fd5b60006119ab848285016118a6565b91505092915050565b6000602082840312156119c657600080fd5b60006119d4848285016118bb565b91505092915050565b6000602082840312156119ef57600080fd5b60006119fd848285016118d0565b91505092915050565b60008060408385031215611a1957600080fd5b6000611a27858286016118bb565b9250506020611a3885828601611867565b9150509250929050565b611a4b816120c7565b82525050565b611a5a816120d9565b82525050565b6000611a6d602683611fa1565b9150611a7882612227565b604082019050919050565b6000611a90602683611fa1565b9150611a9b82612276565b604082019050919050565b6000611ab3600b83611fa1565b9150611abe826122c5565b602082019050919050565b6000611ad6603a83611fa1565b9150611ae1826122ee565b604082019050919050565b6000611af9600283611fa1565b9150611b048261233d565b602082019050919050565b6000611b1c600d83611fa1565b9150611b2782612366565b602082019050919050565b6000611b3f601283611fa1565b9150611b4a8261238f565b602082019050919050565b6000611b62601783611fa1565b9150611b6d826123b8565b602082019050919050565b6000611b85600e83611fa1565b9150611b90826123e1565b602082019050919050565b6000611ba8602083611fa1565b9150611bb38261240a565b602082019050919050565b6000611bcb601083611fa1565b9150611bd682612433565b602082019050919050565b6000611bee600083611f96565b9150611bf98261245c565b600082019050919050565b6000611c11601483611fa1565b9150611c1c8261245f565b602082019050919050565b6000611c34601183611fa1565b9150611c3f82612488565b602082019050919050565b6000611c57601483611fa1565b9150611c62826124b1565b602082019050919050565b6000611c7a601f83611fa1565b9150611c85826124da565b602082019050919050565b611c9981612105565b82525050565b6000611caa82611be1565b9150819050919050565b6000602082019050611cc96000830184611a42565b92915050565b6000606082019050611ce46000830186611a42565b611cf16020830185611a42565b611cfe6040830184611c90565b949350505050565b6000604082019050611d1b6000830185611a42565b611d286020830184611c90565b9392505050565b6000602082019050611d446000830184611a51565b92915050565b60006020820190508181036000830152611d6381611a60565b9050919050565b60006020820190508181036000830152611d8381611a83565b9050919050565b60006020820190508181036000830152611da381611aa6565b9050919050565b60006020820190508181036000830152611dc381611ac9565b9050919050565b60006020820190508181036000830152611de381611aec565b9050919050565b60006020820190508181036000830152611e0381611b0f565b9050919050565b60006020820190508181036000830152611e2381611b32565b9050919050565b60006020820190508181036000830152611e4381611b55565b9050919050565b60006020820190508181036000830152611e6381611b78565b9050919050565b60006020820190508181036000830152611e8381611b9b565b9050919050565b60006020820190508181036000830152611ea381611bbe565b9050919050565b60006020820190508181036000830152611ec381611c04565b9050919050565b60006020820190508181036000830152611ee381611c27565b9050919050565b60006020820190508181036000830152611f0381611c4a565b9050919050565b60006020820190508181036000830152611f2381611c6d565b9050919050565b6000602082019050611f3f6000830184611c90565b92915050565b6000611f4f611f60565b9050611f5b828261210f565b919050565b6000604051905090565b600067ffffffffffffffff821115611f8557611f846121e7565b5b602082029050602081019050919050565b600081905092915050565b600082825260208201905092915050565b6000611fbd82612105565b9150611fc883612105565b9250827fffffffffffffffffffffffffffffffffffffffffffffffffffffffffffffffff03821115611ffd57611ffc612189565b5b828201905092915050565b600061201382612105565b915061201e83612105565b92508261202e5761202d6121b8565b5b828204905092915050565b600061204482612105565b915061204f83612105565b9250817fffffffffffffffffffffffffffffffffffffffffffffffffffffffffffffffff048311821515161561208857612087612189565b5b828202905092915050565b600061209e82612105565b91506120a983612105565b9250828210156120bc576120bb612189565b5b828203905092915050565b60006120d2826120e5565b9050919050565b60008115159050919050565b600073ffffffffffffffffffffffffffffffffffffffff82169050919050565b6000819050919050565b61211882612216565b810181811067ffffffffffffffff82111715612137576121366121e7565b5b80604052505050565b600061214b82612105565b91507fffffffffffffffffffffffffffffffffffffffffffffffffffffffffffffffff82141561217e5761217d612189565b5b600182019050919050565b7f4e487b7100000000000000000000000000000000000000000000000000000000600052601160045260246000fd5b7f4e487b7100000000000000000000000000000000000000000000000000000000600052601260045260246000fd5b7f4e487b7100000000000000000000000000000000000000000000000000000000600052604160045260246000fd5b6000601f19601f8301169050919050565b7f4f776e61626c653a206e6577206f776e657220697320746865207a65726f206160008201527f6464726573730000000000000000000000000000000000000000000000000000602082015250565b7f43616e206f6e6c79206d696e74206166746572207468652073616c652068617360008201527f20626567756e0000000000000000000000000000000000000000000000000000602082015250565b7f43616e7420737761702030000000000000000000000000000000000000000000600082015250565b7f416464726573733a20756e61626c6520746f2073656e642076616c75652c207260008201527f6563697069656e74206d61792068617665207265766572746564000000000000602082015250565b7f303f000000000000000000000000000000000000000000000000000000000000600082015250565b7f43616e6e6f74206d696e74203000000000000000000000000000000000000000600082015250565b7f4e6f7420656e6f7567682062616c616e63650000000000000000000000000000600082015250565b7f4d617820666f7220545820696e20746869732077617665000000000000000000600082015250565b7f4e6f7420656e6f75676820455448000000000000000000000000000000000000600082015250565b7f4f776e61626c653a2063616c6c6572206973206e6f7420746865206f776e6572600082015250565b7f536f6c64206f75742120536f7272792100000000000000000000000000000000600082015250565b50565b7f4c6f636b656420666f7220746869732077617665000000000000000000000000600082015250565b7f5377617070696e6720746f6f206d616e79000000000000000000000000000000600082015250565b7f53616c6520686173206e6f742073746172746564000000000000000000000000600082015250565b7f5265656e7472616e637947756172643a207265656e7472616e742063616c6c00600082015250565b61250c816120c7565b811461251757600080fd5b50565b612523816120d9565b811461252e57600080fd5b50565b61253a81612105565b811461254557600080fd5b5056fea264697066735822122054cea1aa2ff9dc3c5da8b2221f72ba1cbdf7b7eabd6586f1352c7e57038b1c2b64736f6c63430008040033",
  "linkReferences": {},
  "deployedLinkReferences": {}
}