{
  "_format": "hh-sol-artifact-1",
  "contractName": "uwucrewWaveLockSaleWithMint",
  "sourceName": "contracts/uwucrewWaveLockMintSale.sol",
  "abi": [
    {
      "inputs": [
        {
          "internalType": "address",
          "name": "_nft",
          "type": "address"
        },
        {
          "internalType": "uint256",
          "name": "_startTime",
          "type": "uint256"
        },
        {
          "internalType": "uint256",
          "name": "saleCount",
          "type": "uint256"
        },
        {
          "internalType": "uint256",
          "name": "swapCount",
          "type": "uint256"
        },
        {
          "internalType": "uint256",
          "name": "_lpCount",
          "type": "uint256"
        }
      ],
      "stateMutability": "nonpayable",
      "type": "constructor"
    },
    {
      "anonymous": false,
      "inputs": [
        {
          "indexed": true,
          "internalType": "address",
          "name": "previousOwner",
          "type": "address"
        },
        {
          "indexed": true,
          "internalType": "address",
          "name": "newOwner",
          "type": "address"
        }
      ],
      "name": "OwnershipTransferred",
      "type": "event"
    },
    {
      "inputs": [],
      "name": "BURNADDR",
      "outputs": [
        {
          "internalType": "address",
          "name": "",
          "type": "address"
        }
      ],
      "stateMutability": "view",
      "type": "function"
    },
    {
      "inputs": [],
      "name": "WAIFUSION",
      "outputs": [
        {
          "internalType": "address",
          "name": "",
          "type": "address"
        }
      ],
      "stateMutability": "view",
      "type": "function"
    },
    {
      "inputs": [],
      "name": "WET",
      "outputs": [
        {
          "internalType": "address",
          "name": "",
          "type": "address"
        }
      ],
      "stateMutability": "view",
      "type": "function"
    },
    {
      "inputs": [
        {
          "internalType": "address",
          "name": "account",
          "type": "address"
        },
        {
          "internalType": "uint256",
          "name": "count",
          "type": "uint256"
        }
      ],
      "name": "_mint",
      "outputs": [],
      "stateMutability": "nonpayable",
      "type": "function"
    },
    {
      "inputs": [
        {
          "internalType": "uint256",
          "name": "count",
          "type": "uint256"
        }
      ],
      "name": "addExtraToSale",
      "outputs": [],
      "stateMutability": "nonpayable",
      "type": "function"
    },
    {
      "inputs": [],
      "name": "amountForSale",
      "outputs": [
        {
          "internalType": "uint256",
          "name": "",
          "type": "uint256"
        }
      ],
      "stateMutability": "view",
      "type": "function"
    },
    {
      "inputs": [],
      "name": "amountForSwap",
      "outputs": [
        {
          "internalType": "uint256",
          "name": "",
          "type": "uint256"
        }
      ],
      "stateMutability": "view",
      "type": "function"
    },
    {
      "inputs": [],
      "name": "amountSold",
      "outputs": [
        {
          "internalType": "uint256",
          "name": "",
          "type": "uint256"
        }
      ],
      "stateMutability": "view",
      "type": "function"
    },
    {
      "inputs": [],
      "name": "amountSwapped",
      "outputs": [
        {
          "internalType": "uint256",
          "name": "",
          "type": "uint256"
        }
      ],
      "stateMutability": "view",
      "type": "function"
    },
    {
      "inputs": [
        {
          "internalType": "address",
          "name": "",
          "type": "address"
        }
      ],
      "name": "balance",
      "outputs": [
        {
          "internalType": "uint256",
          "name": "",
          "type": "uint256"
        }
      ],
      "stateMutability": "view",
      "type": "function"
    },
    {
      "inputs": [
        {
          "internalType": "uint256",
          "name": "count",
          "type": "uint256"
        }
      ],
      "name": "buy",
      "outputs": [],
      "stateMutability": "payable",
      "type": "function"
    },
    {
      "inputs": [],
      "name": "buyPrice",
      "outputs": [
        {
          "internalType": "uint256",
          "name": "",
          "type": "uint256"
        }
      ],
      "stateMutability": "view",
      "type": "function"
    },
    {
      "inputs": [],
      "name": "closeSwapToOwner",
      "outputs": [],
      "stateMutability": "nonpayable",
      "type": "function"
    },
    {
      "inputs": [],
      "name": "closeSwapToSale",
      "outputs": [],
      "stateMutability": "nonpayable",
      "type": "function"
    },
    {
      "inputs": [],
      "name": "currentMaxPerTX",
      "outputs": [
        {
          "internalType": "uint256",
          "name": "",
          "type": "uint256"
        }
      ],
      "stateMutability": "view",
      "type": "function"
    },
    {
      "inputs": [
        {
          "internalType": "address",
          "name": "account",
          "type": "address"
        },
        {
          "internalType": "uint256",
          "name": "count",
          "type": "uint256"
        }
      ],
      "name": "forceMint",
      "outputs": [],
      "stateMutability": "nonpayable",
      "type": "function"
    },
    {
      "inputs": [
        {
          "internalType": "uint256",
          "name": "count",
          "type": "uint256"
        }
      ],
      "name": "mint",
      "outputs": [],
      "stateMutability": "nonpayable",
      "type": "function"
    },
    {
      "inputs": [],
      "name": "nft",
      "outputs": [
        {
          "internalType": "address",
          "name": "",
          "type": "address"
        }
      ],
      "stateMutability": "view",
      "type": "function"
    },
    {
      "inputs": [],
      "name": "owner",
      "outputs": [
        {
          "internalType": "address",
          "name": "",
          "type": "address"
        }
      ],
      "stateMutability": "view",
      "type": "function"
    },
    {
      "inputs": [],
      "name": "renounceOwnership",
      "outputs": [],
      "stateMutability": "nonpayable",
      "type": "function"
    },
    {
      "inputs": [],
      "name": "startBlock",
      "outputs": [
        {
          "internalType": "uint256",
          "name": "",
          "type": "uint256"
        }
      ],
      "stateMutability": "view",
      "type": "function"
    },
    {
      "inputs": [],
      "name": "startTime",
      "outputs": [
        {
          "internalType": "uint256",
          "name": "",
          "type": "uint256"
        }
      ],
      "stateMutability": "view",
      "type": "function"
    },
    {
      "inputs": [
        {
          "internalType": "uint256[]",
          "name": "ids",
          "type": "uint256[]"
        }
      ],
      "name": "swapAndMint",
      "outputs": [],
      "stateMutability": "nonpayable",
      "type": "function"
    },
    {
      "inputs": [],
      "name": "swapPrice",
      "outputs": [
        {
          "internalType": "uint256",
          "name": "",
          "type": "uint256"
        }
      ],
      "stateMutability": "view",
      "type": "function"
    },
    {
      "inputs": [
        {
          "internalType": "uint256[]",
          "name": "ids",
          "type": "uint256[]"
        }
      ],
      "name": "swapWFforUWU",
      "outputs": [],
      "stateMutability": "nonpayable",
      "type": "function"
    },
    {
      "inputs": [
        {
          "internalType": "address",
          "name": "newOwner",
          "type": "address"
        }
      ],
      "name": "transferOwnership",
      "outputs": [],
      "stateMutability": "nonpayable",
      "type": "function"
    },
    {
      "inputs": [],
      "name": "wave",
      "outputs": [
        {
          "internalType": "uint256",
          "name": "",
          "type": "uint256"
        }
      ],
      "stateMutability": "view",
      "type": "function"
    },
    {
      "inputs": [],
      "name": "waveBlockLength",
      "outputs": [
        {
          "internalType": "uint256",
          "name": "",
          "type": "uint256"
        }
      ],
      "stateMutability": "view",
      "type": "function"
    },
    {
      "inputs": [
        {
          "internalType": "uint256",
          "name": "",
          "type": "uint256"
        },
        {
          "internalType": "address",
          "name": "",
          "type": "address"
        }
      ],
      "name": "waveLock",
      "outputs": [
        {
          "internalType": "bool",
          "name": "",
          "type": "bool"
        }
      ],
      "stateMutability": "view",
      "type": "function"
    }
  ],
  "bytecode": "0x608060405266d529ae9e860000600755670de0b6b3a7640000610726620000279190620004ae565b6008556000600b556014600c553480156200004157600080fd5b5060405162002b8f38038062002b8f833981810160405281019062000067919062000349565b600062000079620002ea60201b60201c565b9050806000806101000a81548173ffffffffffffffffffffffffffffffffffffffff021916908373ffffffffffffffffffffffffffffffffffffffff1602179055508073ffffffffffffffffffffffffffffffffffffffff16600073ffffffffffffffffffffffffffffffffffffffff167f8be0079c531659141344cd1fd0a4f28419497f9722a3daafe3b4186f6b6457e060405160405180910390a3506001808190555084600260006101000a81548173ffffffffffffffffffffffffffffffffffffffff021916908373ffffffffffffffffffffffffffffffffffffffff1602179055508082846200016e919062000451565b6200017a919062000451565b600260009054906101000a900473ffffffffffffffffffffffffffffffffffffffff1673ffffffffffffffffffffffffffffffffffffffff1663dd1a29f36040518163ffffffff1660e01b8152600401602060405180830381600087803b158015620001e557600080fd5b505af1158015620001fa573d6000803e3d6000fd5b505050506040513d601f19601f82011682018060405250810190620002209190620003cb565b1162000263576040517f08c379a00000000000000000000000000000000000000000000000000000000081526004016200025a906200041e565b60405180910390fd5b83600981905550826003819055508160058190555080600e60006200028d620002f260201b60201c565b73ffffffffffffffffffffffffffffffffffffffff1673ffffffffffffffffffffffffffffffffffffffff1681526020019081526020016000206000828254620002d8919062000451565b925050819055505050505050620005d9565b600033905090565b60008060009054906101000a900473ffffffffffffffffffffffffffffffffffffffff16905090565b6000815190506200032c81620005a5565b92915050565b6000815190506200034381620005bf565b92915050565b600080600080600060a086880312156200036257600080fd5b600062000372888289016200031b565b9550506020620003858882890162000332565b9450506040620003988882890162000332565b9350506060620003ab8882890162000332565b9250506080620003be8882890162000332565b9150509295509295909350565b600060208284031215620003de57600080fd5b6000620003ee8482850162000332565b91505092915050565b60006200040660108362000440565b915062000413826200057c565b602082019050919050565b600060208201905081810360008301526200043981620003f7565b9050919050565b600082825260208201905092915050565b60006200045e8262000543565b91506200046b8362000543565b9250827fffffffffffffffffffffffffffffffffffffffffffffffffffffffffffffffff03821115620004a357620004a26200054d565b5b828201905092915050565b6000620004bb8262000543565b9150620004c88362000543565b9250817fffffffffffffffffffffffffffffffffffffffffffffffffffffffffffffffff04831182151516156200050457620005036200054d565b5b828202905092915050565b60006200051c8262000523565b9050919050565b600073ffffffffffffffffffffffffffffffffffffffff82169050919050565b6000819050919050565b7f4e487b7100000000000000000000000000000000000000000000000000000000600052601160045260246000fd5b7f4d6f7265207468616e20737570706c7900000000000000000000000000000000600082015250565b620005b0816200050f565b8114620005bc57600080fd5b50565b620005ca8162000543565b8114620005d657600080fd5b50565b6125a680620005e96000396000f3fe6080604052600436106101c25760003560e01c806378e97925116100f7578063afa060e611610095578063dfb23d1111610064578063dfb23d11146105b5578063e3d670d7146105e0578063e9d109a01461061d578063f2fde38b14610648576101c2565b8063afa060e614610508578063b55431df14610545578063d360af921461056e578063d96a094a14610599576101c2565b80638da5cb5b116100d15780638da5cb5b14610460578063a0712d681461048b578063aab86a9e146104b4578063ae2ffd29146104df576101c2565b806378e97925146103df5780638473e55f1461040a5780638620410b14610435576101c2565b8063516cd040116101645780636831e0d81161013e5780636831e0d8146103495780636a9d5c84146103745780636fe15b441461039d578063715018a6146103c8576101c2565b8063516cd040146102de57806352a16bb0146102f5578063639ca91914610320576101c2565b806332d79dd6116101a057806332d79dd61461023457806347ccca021461025f57806348cd4cb11461028a5780634e6ec247146102b5576101c2565b80630ebdeba8146101c75780631c99263a146101de5780633227f32014610209575b600080fd5b3480156101d357600080fd5b506101dc610671565b005b3480156101ea57600080fd5b506101f3610773565b6040516102009190611f52565b60405180910390f35b34801561021557600080fd5b5061021e610785565b60405161022b9190611f52565b60405180910390f35b34801561024057600080fd5b5061024961078b565b6040516102569190611f52565b60405180910390f35b34801561026b57600080fd5b50610274610791565b6040516102819190611cdc565b60405180910390f35b34801561029657600080fd5b5061029f6107b7565b6040516102ac9190611f52565b60405180910390f35b3480156102c157600080fd5b506102dc60048036038101906102d79190611936565b6107bd565b005b3480156102ea57600080fd5b506102f3610a7e565b005b34801561030157600080fd5b5061030a610b43565b6040516103179190611f52565b60405180910390f35b34801561032c57600080fd5b5061034760048036038101906103429190611972565b610b49565b005b34801561035557600080fd5b5061035e610def565b60405161036b9190611f52565b60405180910390f35b34801561038057600080fd5b5061039b60048036038101906103969190611936565b610df5565b005b3480156103a957600080fd5b506103b2610e7f565b6040516103bf9190611f52565b60405180910390f35b3480156103d457600080fd5b506103dd610e85565b005b3480156103eb57600080fd5b506103f4610fbf565b6040516104019190611f52565b60405180910390f35b34801561041657600080fd5b5061041f610fc5565b60405161042c9190611f52565b60405180910390f35b34801561044157600080fd5b5061044a610fcb565b6040516104579190611f52565b60405180910390f35b34801561046c57600080fd5b50610475610fd1565b6040516104829190611cdc565b60405180910390f35b34801561049757600080fd5b506104b260048036038101906104ad91906119dc565b610ffa565b005b3480156104c057600080fd5b506104c9611007565b6040516104d69190611cdc565b60405180910390f35b3480156104eb57600080fd5b50610506600480360381019061050191906119dc565b61101f565b005b34801561051457600080fd5b5061052f600480360381019061052a9190611a2e565b61110d565b60405161053c9190611d57565b60405180910390f35b34801561055157600080fd5b5061056c60048036038101906105679190611972565b61113c565b005b34801561057a57600080fd5b50610583611152565b6040516105909190611cdc565b60405180910390f35b6105b360048036038101906105ae91906119dc565b611159565b005b3480156105c157600080fd5b506105ca6115a2565b6040516105d79190611cdc565b60405180910390f35b3480156105ec57600080fd5b506106076004803603810190610602919061190d565b6115ba565b6040516106149190611f52565b60405180910390f35b34801561062957600080fd5b506106326115d2565b60405161063f9190611f52565b60405180910390f35b34801561065457600080fd5b5061066f600480360381019061066a919061190d565b6115d8565b005b610679611781565b73ffffffffffffffffffffffffffffffffffffffff16610697610fd1565b73ffffffffffffffffffffffffffffffffffffffff16146106ed576040517f08c379a00000000000000000000000000000000000000000000000000000000081526004016106e490611e92565b60405180910390fd5b60006006546005546106ff91906120bb565b9050806005600082825461071391906120bb565b9250508190555080600e60003373ffffffffffffffffffffffffffffffffffffffff1673ffffffffffffffffffffffffffffffffffffffff16815260200190815260200160002060008282546107699190611fda565b9250508190555050565b6000610780600b54611789565b905090565b60055481565b60065481565b600260009054906101000a900473ffffffffffffffffffffffffffffffffffffffff1681565b600a5481565b60008111610800576040517f08c379a00000000000000000000000000000000000000000000000000000000081526004016107f790611df2565b60405180910390fd5b600e60008373ffffffffffffffffffffffffffffffffffffffff1673ffffffffffffffffffffffffffffffffffffffff16815260200190815260200160002054811115610882576040517f08c379a000000000000000000000000000000000000000000000000000000000815260040161087990611e32565b60405180910390fd5b60095442116108c6576040517f08c379a00000000000000000000000000000000000000000000000000000000081526004016108bd90611d92565b60405180910390fd5b80600e60008473ffffffffffffffffffffffffffffffffffffffff1673ffffffffffffffffffffffffffffffffffffffff168152602001908152602001600020600082825461091591906120bb565b925050819055506000600260009054906101000a900473ffffffffffffffffffffffffffffffffffffffff1673ffffffffffffffffffffffffffffffffffffffff166318160ddd6040518163ffffffff1660e01b815260040160206040518083038186803b15801561098657600080fd5b505afa15801561099a573d6000803e3d6000fd5b505050506040513d601f19601f820116820180604052508101906109be9190611a05565b905060005b82811015610a7857600260009054906101000a900473ffffffffffffffffffffffffffffffffffffffff1673ffffffffffffffffffffffffffffffffffffffff166340c10f19858385610a169190611fda565b6040518363ffffffff1660e01b8152600401610a33929190611d2e565b600060405180830381600087803b158015610a4d57600080fd5b505af1158015610a61573d6000803e3d6000fd5b505050508080610a7090612168565b9150506109c3565b50505050565b610a86611781565b73ffffffffffffffffffffffffffffffffffffffff16610aa4610fd1565b73ffffffffffffffffffffffffffffffffffffffff1614610afa576040517f08c379a0000000000000000000000000000000000000000000000000000000008152600401610af190611e92565b60405180910390fd5b6000600654600554610b0c91906120bb565b90508060056000828254610b2091906120bb565b925050819055508060036000828254610b399190611fda565b9250508190555050565b60045481565b60008151905060008111610b92576040517f08c379a0000000000000000000000000000000000000000000000000000000008152600401610b8990611db2565b60405180910390fd5b60055481600654610ba39190611fda565b10610be3576040517f08c379a0000000000000000000000000000000000000000000000000000000008152600401610bda90611ef2565b60405180910390fd5b60005b81811015610cc757732216d47494e516d8206b70fca8585820ed3c494673ffffffffffffffffffffffffffffffffffffffff166342842e0e3362080085868581518110610c5c577f4e487b7100000000000000000000000000000000000000000000000000000000600052603260045260246000fd5b60200260200101516040518463ffffffff1660e01b8152600401610c8293929190611cf7565b600060405180830381600087803b158015610c9c57600080fd5b505af1158015610cb0573d6000803e3d6000fd5b505050508080610cbf90612168565b915050610be6565b507376280af9d18a868a0af3dca95b57dde816c1aaf273ffffffffffffffffffffffffffffffffffffffff166323b872dd336208008560085485610d0b9190612061565b6040518463ffffffff1660e01b8152600401610d2993929190611cf7565b602060405180830381600087803b158015610d4357600080fd5b505af1158015610d57573d6000803e3d6000fd5b505050506040513d601f19601f82011682018060405250810190610d7b91906119b3565b508060066000828254610d8e9190611fda565b9250508190555080600e60003373ffffffffffffffffffffffffffffffffffffffff1673ffffffffffffffffffffffffffffffffffffffff1681526020019081526020016000206000828254610de49190611fda565b925050819055505050565b60085481565b610dfd611781565b73ffffffffffffffffffffffffffffffffffffffff16610e1b610fd1565b73ffffffffffffffffffffffffffffffffffffffff1614610e71576040517f08c379a0000000000000000000000000000000000000000000000000000000008152600401610e6890611e92565b60405180910390fd5b610e7b82826107bd565b5050565b600b5481565b610e8d611781565b73ffffffffffffffffffffffffffffffffffffffff16610eab610fd1565b73ffffffffffffffffffffffffffffffffffffffff1614610f01576040517f08c379a0000000000000000000000000000000000000000000000000000000008152600401610ef890611e92565b60405180910390fd5b600073ffffffffffffffffffffffffffffffffffffffff1660008054906101000a900473ffffffffffffffffffffffffffffffffffffffff1673ffffffffffffffffffffffffffffffffffffffff167f8be0079c531659141344cd1fd0a4f28419497f9722a3daafe3b4186f6b6457e060405160405180910390a360008060006101000a81548173ffffffffffffffffffffffffffffffffffffffff021916908373ffffffffffffffffffffffffffffffffffffffff160217905550565b60095481565b60035481565b60075481565b60008060009054906101000a900473ffffffffffffffffffffffffffffffffffffffff16905090565b61100433826107bd565b50565b732216d47494e516d8206b70fca8585820ed3c494681565b611027611781565b73ffffffffffffffffffffffffffffffffffffffff16611045610fd1565b73ffffffffffffffffffffffffffffffffffffffff161461109b576040517f08c379a000000000000000000000000000000000000000000000000000000000815260040161109290611e92565b60405180910390fd5b80600e60003373ffffffffffffffffffffffffffffffffffffffff1673ffffffffffffffffffffffffffffffffffffffff16815260200190815260200160002060008282546110ea91906120bb565b9250508190555080600360008282546111039190611fda565b9250508190555050565b600d6020528160005260406000206020528060005260406000206000915091509054906101000a900460ff1681565b61114581610b49565b61114f8151610ffa565b50565b6208008581565b6002600154141561119f576040517f08c379a000000000000000000000000000000000000000000000000000000000815260040161119690611f32565b60405180910390fd5b600260018190555060095442116111eb576040517f08c379a00000000000000000000000000000000000000000000000000000000081526004016111e290611f12565b60405180910390fd5b6000811161122e576040517f08c379a000000000000000000000000000000000000000000000000000000000815260040161122590611e12565b60405180910390fd5b60035460045410611274576040517f08c379a000000000000000000000000000000000000000000000000000000000815260040161126b90611eb2565b60405180910390fd5b61127c6117ca565b600d6000600b54815260200190815260200160002060003373ffffffffffffffffffffffffffffffffffffffff1673ffffffffffffffffffffffffffffffffffffffff16815260200190815260200160002060009054906101000a900460ff161561131c576040517f08c379a000000000000000000000000000000000000000000000000000000000815260040161131390611ed2565b60405180910390fd5b611327600b54611789565b811115611369576040517f08c379a000000000000000000000000000000000000000000000000000000000815260040161136090611e52565b60405180910390fd5b600754816113779190612061565b3410156113b9576040517f08c379a00000000000000000000000000000000000000000000000000000000081526004016113b090611e72565b60405180910390fd5b6000600354826004546113cc9190611fda565b11156114065760006004546003546113e491906120bb565b905080836113f291906120bb565b6007546113ff9190612061565b9150809250505b81600460008282546114189190611fda565b9250508190555081600e60003373ffffffffffffffffffffffffffffffffffffffff1673ffffffffffffffffffffffffffffffffffffffff168152602001908152602001600020600082825461146e9190611fda565b925050819055506001600d6000600b54815260200190815260200160002060003373ffffffffffffffffffffffffffffffffffffffff1673ffffffffffffffffffffffffffffffffffffffff16815260200190815260200160002060006101000a81548160ff02191690831515021790555060008111156115975760003373ffffffffffffffffffffffffffffffffffffffff168260405161150f90611cc7565b60006040518083038185875af1925050503d806000811461154c576040519150601f19603f3d011682016040523d82523d6000602084013e611551565b606091505b5050905080611595576040517f08c379a000000000000000000000000000000000000000000000000000000000815260040161158c90611dd2565b60405180910390fd5b505b506001808190555050565b7376280af9d18a868a0af3dca95b57dde816c1aaf281565b600e6020528060005260406000206000915090505481565b600c5481565b6115e0611781565b73ffffffffffffffffffffffffffffffffffffffff166115fe610fd1565b73ffffffffffffffffffffffffffffffffffffffff1614611654576040517f08c379a000000000000000000000000000000000000000000000000000000000815260040161164b90611e92565b60405180910390fd5b600073ffffffffffffffffffffffffffffffffffffffff168173ffffffffffffffffffffffffffffffffffffffff1614156116c4576040517f08c379a00000000000000000000000000000000000000000000000000000000081526004016116bb90611d72565b60405180910390fd5b8073ffffffffffffffffffffffffffffffffffffffff1660008054906101000a900473ffffffffffffffffffffffffffffffffffffffff1673ffffffffffffffffffffffffffffffffffffffff167f8be0079c531659141344cd1fd0a4f28419497f9722a3daafe3b4186f6b6457e060405160405180910390a3806000806101000a81548173ffffffffffffffffffffffffffffffffffffffff021916908373ffffffffffffffffffffffffffffffffffffffff16021790555050565b600033905090565b60008082141561179c57600490506117c5565b60018214156117ae57601090506117c5565b60028214156117c057602090506117c5565b602090505b919050565b6000600a541480156117dd575060095442115b156117ea5743600a819055505b6000600a54436117fa91906120bb565b90506000600c548261180c9190612030565b9050600b54811461181f5780600b819055505b5050565b600061183661183184611f92565b611f6d565b9050808382526020820190508285602086028201111561185557600080fd5b60005b85811015611885578161186b88826118e3565b845260208401935060208301925050600181019050611858565b5050509392505050565b60008135905061189e8161252b565b92915050565b600082601f8301126118b557600080fd5b81356118c5848260208601611823565b91505092915050565b6000815190506118dd81612542565b92915050565b6000813590506118f281612559565b92915050565b60008151905061190781612559565b92915050565b60006020828403121561191f57600080fd5b600061192d8482850161188f565b91505092915050565b6000806040838503121561194957600080fd5b60006119578582860161188f565b9250506020611968858286016118e3565b9150509250929050565b60006020828403121561198457600080fd5b600082013567ffffffffffffffff81111561199e57600080fd5b6119aa848285016118a4565b91505092915050565b6000602082840312156119c557600080fd5b60006119d3848285016118ce565b91505092915050565b6000602082840312156119ee57600080fd5b60006119fc848285016118e3565b91505092915050565b600060208284031215611a1757600080fd5b6000611a25848285016118f8565b91505092915050565b60008060408385031215611a4157600080fd5b6000611a4f858286016118e3565b9250506020611a608582860161188f565b9150509250929050565b611a73816120ef565b82525050565b611a8281612101565b82525050565b6000611a95602683611fc9565b9150611aa08261224f565b604082019050919050565b6000611ab8602683611fc9565b9150611ac38261229e565b604082019050919050565b6000611adb600b83611fc9565b9150611ae6826122ed565b602082019050919050565b6000611afe603a83611fc9565b9150611b0982612316565b604082019050919050565b6000611b21600283611fc9565b9150611b2c82612365565b602082019050919050565b6000611b44600d83611fc9565b9150611b4f8261238e565b602082019050919050565b6000611b67601283611fc9565b9150611b72826123b7565b602082019050919050565b6000611b8a601783611fc9565b9150611b95826123e0565b602082019050919050565b6000611bad600e83611fc9565b9150611bb882612409565b602082019050919050565b6000611bd0602083611fc9565b9150611bdb82612432565b602082019050919050565b6000611bf3601083611fc9565b9150611bfe8261245b565b602082019050919050565b6000611c16600083611fbe565b9150611c2182612484565b600082019050919050565b6000611c39601483611fc9565b9150611c4482612487565b602082019050919050565b6000611c5c601183611fc9565b9150611c67826124b0565b602082019050919050565b6000611c7f601483611fc9565b9150611c8a826124d9565b602082019050919050565b6000611ca2601f83611fc9565b9150611cad82612502565b602082019050919050565b611cc18161212d565b82525050565b6000611cd282611c09565b9150819050919050565b6000602082019050611cf16000830184611a6a565b92915050565b6000606082019050611d0c6000830186611a6a565b611d196020830185611a6a565b611d266040830184611cb8565b949350505050565b6000604082019050611d436000830185611a6a565b611d506020830184611cb8565b9392505050565b6000602082019050611d6c6000830184611a79565b92915050565b60006020820190508181036000830152611d8b81611a88565b9050919050565b60006020820190508181036000830152611dab81611aab565b9050919050565b60006020820190508181036000830152611dcb81611ace565b9050919050565b60006020820190508181036000830152611deb81611af1565b9050919050565b60006020820190508181036000830152611e0b81611b14565b9050919050565b60006020820190508181036000830152611e2b81611b37565b9050919050565b60006020820190508181036000830152611e4b81611b5a565b9050919050565b60006020820190508181036000830152611e6b81611b7d565b9050919050565b60006020820190508181036000830152611e8b81611ba0565b9050919050565b60006020820190508181036000830152611eab81611bc3565b9050919050565b60006020820190508181036000830152611ecb81611be6565b9050919050565b60006020820190508181036000830152611eeb81611c2c565b9050919050565b60006020820190508181036000830152611f0b81611c4f565b9050919050565b60006020820190508181036000830152611f2b81611c72565b9050919050565b60006020820190508181036000830152611f4b81611c95565b9050919050565b6000602082019050611f676000830184611cb8565b92915050565b6000611f77611f88565b9050611f838282612137565b919050565b6000604051905090565b600067ffffffffffffffff821115611fad57611fac61220f565b5b602082029050602081019050919050565b600081905092915050565b600082825260208201905092915050565b6000611fe58261212d565b9150611ff08361212d565b9250827fffffffffffffffffffffffffffffffffffffffffffffffffffffffffffffffff03821115612025576120246121b1565b5b828201905092915050565b600061203b8261212d565b91506120468361212d565b925082612056576120556121e0565b5b828204905092915050565b600061206c8261212d565b91506120778361212d565b9250817fffffffffffffffffffffffffffffffffffffffffffffffffffffffffffffffff04831182151516156120b0576120af6121b1565b5b828202905092915050565b60006120c68261212d565b91506120d18361212d565b9250828210156120e4576120e36121b1565b5b828203905092915050565b60006120fa8261210d565b9050919050565b60008115159050919050565b600073ffffffffffffffffffffffffffffffffffffffff82169050919050565b6000819050919050565b6121408261223e565b810181811067ffffffffffffffff8211171561215f5761215e61220f565b5b80604052505050565b60006121738261212d565b91507fffffffffffffffffffffffffffffffffffffffffffffffffffffffffffffffff8214156121a6576121a56121b1565b5b600182019050919050565b7f4e487b7100000000000000000000000000000000000000000000000000000000600052601160045260246000fd5b7f4e487b7100000000000000000000000000000000000000000000000000000000600052601260045260246000fd5b7f4e487b7100000000000000000000000000000000000000000000000000000000600052604160045260246000fd5b6000601f19601f8301169050919050565b7f4f776e61626c653a206e6577206f776e657220697320746865207a65726f206160008201527f6464726573730000000000000000000000000000000000000000000000000000602082015250565b7f43616e206f6e6c79206d696e74206166746572207468652073616c652068617360008201527f20626567756e0000000000000000000000000000000000000000000000000000602082015250565b7f43616e7420737761702030000000000000000000000000000000000000000000600082015250565b7f416464726573733a20756e61626c6520746f2073656e642076616c75652c207260008201527f6563697069656e74206d61792068617665207265766572746564000000000000602082015250565b7f303f000000000000000000000000000000000000000000000000000000000000600082015250565b7f43616e6e6f74206d696e74203000000000000000000000000000000000000000600082015250565b7f4e6f7420656e6f7567682062616c616e63650000000000000000000000000000600082015250565b7f4d617820666f7220545820696e20746869732077617665000000000000000000600082015250565b7f4e6f7420656e6f75676820455448000000000000000000000000000000000000600082015250565b7f4f776e61626c653a2063616c6c6572206973206e6f7420746865206f776e6572600082015250565b7f536f6c64206f75742120536f7272792100000000000000000000000000000000600082015250565b50565b7f4c6f636b656420666f7220746869732077617665000000000000000000000000600082015250565b7f5377617070696e6720746f6f206d616e79000000000000000000000000000000600082015250565b7f53616c6520686173206e6f742073746172746564000000000000000000000000600082015250565b7f5265656e7472616e637947756172643a207265656e7472616e742063616c6c00600082015250565b612534816120ef565b811461253f57600080fd5b50565b61254b81612101565b811461255657600080fd5b50565b6125628161212d565b811461256d57600080fd5b5056fea2646970667358221220d1dfc3a339c29ba1e9e23f0556aa94b7199e11d1288650be749a55b640b4072e64736f6c63430008040033",
  "linkReferences": {},
  "deployedLinkReferences": {}
}