{
  "_format": "hh-sol-artifact-1",
  "contractName": "WaveLockSaleWithMint",
  "sourceName": "contracts/uwucrewWaveLockMintSale.sol",
  "abi": [
    {
      "inputs": [
        {
          "internalType": "address",
          "name": "_nft",
          "type": "address"
        },
        {
          "internalType": "uint256",
          "name": "_startBlock",
          "type": "uint256"
        }
      ],
      "stateMutability": "nonpayable",
      "type": "constructor"
    },
    {
      "anonymous": false,
      "inputs": [
        {
          "indexed": true,
          "internalType": "address",
          "name": "previousOwner",
          "type": "address"
        },
        {
          "indexed": true,
          "internalType": "address",
          "name": "newOwner",
          "type": "address"
        }
      ],
      "name": "OwnershipTransferred",
      "type": "event"
    },
    {
      "inputs": [],
      "name": "BURNADDR",
      "outputs": [
        {
          "internalType": "address",
          "name": "",
          "type": "address"
        }
      ],
      "stateMutability": "view",
      "type": "function"
    },
    {
      "inputs": [],
      "name": "WAIFUSION",
      "outputs": [
        {
          "internalType": "address",
          "name": "",
          "type": "address"
        }
      ],
      "stateMutability": "view",
      "type": "function"
    },
    {
      "inputs": [],
      "name": "WET",
      "outputs": [
        {
          "internalType": "address",
          "name": "",
          "type": "address"
        }
      ],
      "stateMutability": "view",
      "type": "function"
    },
    {
      "inputs": [],
      "name": "amountForSale",
      "outputs": [
        {
          "internalType": "uint256",
          "name": "",
          "type": "uint256"
        }
      ],
      "stateMutability": "view",
      "type": "function"
    },
    {
      "inputs": [],
      "name": "amountForSwap",
      "outputs": [
        {
          "internalType": "uint256",
          "name": "",
          "type": "uint256"
        }
      ],
      "stateMutability": "view",
      "type": "function"
    },
    {
      "inputs": [],
      "name": "amountSold",
      "outputs": [
        {
          "internalType": "uint256",
          "name": "",
          "type": "uint256"
        }
      ],
      "stateMutability": "view",
      "type": "function"
    },
    {
      "inputs": [],
      "name": "amountSwapped",
      "outputs": [
        {
          "internalType": "uint256",
          "name": "",
          "type": "uint256"
        }
      ],
      "stateMutability": "view",
      "type": "function"
    },
    {
      "inputs": [
        {
          "internalType": "uint256[]",
          "name": "ids",
          "type": "uint256[]"
        }
      ],
      "name": "burnWFforUWU",
      "outputs": [],
      "stateMutability": "nonpayable",
      "type": "function"
    },
    {
      "inputs": [
        {
          "internalType": "uint256",
          "name": "count",
          "type": "uint256"
        }
      ],
      "name": "buy",
      "outputs": [],
      "stateMutability": "payable",
      "type": "function"
    },
    {
      "inputs": [
        {
          "internalType": "uint256",
          "name": "count",
          "type": "uint256"
        }
      ],
      "name": "loadSale",
      "outputs": [],
      "stateMutability": "nonpayable",
      "type": "function"
    },
    {
      "inputs": [
        {
          "internalType": "uint256",
          "name": "count",
          "type": "uint256"
        }
      ],
      "name": "mint",
      "outputs": [],
      "stateMutability": "nonpayable",
      "type": "function"
    },
    {
      "inputs": [],
      "name": "nft",
      "outputs": [
        {
          "internalType": "address",
          "name": "",
          "type": "address"
        }
      ],
      "stateMutability": "view",
      "type": "function"
    },
    {
      "inputs": [],
      "name": "owner",
      "outputs": [
        {
          "internalType": "address",
          "name": "",
          "type": "address"
        }
      ],
      "stateMutability": "view",
      "type": "function"
    },
    {
      "inputs": [],
      "name": "price",
      "outputs": [
        {
          "internalType": "uint256",
          "name": "",
          "type": "uint256"
        }
      ],
      "stateMutability": "view",
      "type": "function"
    },
    {
      "inputs": [],
      "name": "renounceOwnership",
      "outputs": [],
      "stateMutability": "nonpayable",
      "type": "function"
    },
    {
      "inputs": [],
      "name": "startBlock",
      "outputs": [
        {
          "internalType": "uint256",
          "name": "",
          "type": "uint256"
        }
      ],
      "stateMutability": "view",
      "type": "function"
    },
    {
      "inputs": [
        {
          "internalType": "address",
          "name": "newOwner",
          "type": "address"
        }
      ],
      "name": "transferOwnership",
      "outputs": [],
      "stateMutability": "nonpayable",
      "type": "function"
    },
    {
      "inputs": [],
      "name": "wave",
      "outputs": [
        {
          "internalType": "uint256",
          "name": "",
          "type": "uint256"
        }
      ],
      "stateMutability": "view",
      "type": "function"
    },
    {
      "inputs": [],
      "name": "waveBlockLength",
      "outputs": [
        {
          "internalType": "uint256",
          "name": "",
          "type": "uint256"
        }
      ],
      "stateMutability": "view",
      "type": "function"
    }
  ],
  "bytecode": "0x608060405260006009556014600a553480156200001b57600080fd5b5060405162001d3f38038062001d3f83398181016040528101906200004191906200017e565b6000620000536200014860201b60201c565b9050806000806101000a81548173ffffffffffffffffffffffffffffffffffffffff021916908373ffffffffffffffffffffffffffffffffffffffff1602179055508073ffffffffffffffffffffffffffffffffffffffff16600073ffffffffffffffffffffffffffffffffffffffff167f8be0079c531659141344cd1fd0a4f28419497f9722a3daafe3b4186f6b6457e060405160405180910390a3506001808190555081600260006101000a81548173ffffffffffffffffffffffffffffffffffffffff021916908373ffffffffffffffffffffffffffffffffffffffff16021790555080600881905550505062000231565b600033905090565b6000815190506200016181620001fd565b92915050565b600081519050620001788162000217565b92915050565b600080604083850312156200019257600080fd5b6000620001a28582860162000150565b9250506020620001b58582860162000167565b9150509250929050565b6000620001cc82620001d3565b9050919050565b600073ffffffffffffffffffffffffffffffffffffffff82169050919050565b6000819050919050565b6200020881620001bf565b81146200021457600080fd5b50565b6200022281620001f3565b81146200022e57600080fd5b50565b611afe80620002416000396000f3fe6080604052600436106101145760003560e01c80638da5cb5b116100a0578063d360af9211610064578063d360af9214610359578063d96a094a14610384578063dfb23d11146103a0578063e9d109a0146103cb578063f2fde38b146103f657610114565b80638da5cb5b14610286578063a035b1fe146102b1578063a0712d68146102dc578063a47f2c7914610305578063aab86a9e1461032e57610114565b806348cd4cb1116100e757806348cd4cb1146101c357806352a16bb0146101ee5780636fe15b4414610219578063715018a6146102445780638473e55f1461025b57610114565b80632b882e69146101195780633227f3201461014257806332d79dd61461016d57806347ccca0214610198575b600080fd5b34801561012557600080fd5b50610140600480360381019061013b91906111de565b61041f565b005b34801561014e57600080fd5b50610157610644565b60405161016491906115c6565b60405180910390f35b34801561017957600080fd5b5061018261064a565b60405161018f91906115c6565b60405180910390f35b3480156101a457600080fd5b506101ad610650565b6040516101ba919061142b565b60405180910390f35b3480156101cf57600080fd5b506101d8610676565b6040516101e591906115c6565b60405180910390f35b3480156101fa57600080fd5b5061020361067c565b60405161021091906115c6565b60405180910390f35b34801561022557600080fd5b5061022e610682565b60405161023b91906115c6565b60405180910390f35b34801561025057600080fd5b50610259610688565b005b34801561026757600080fd5b506102706107c2565b60405161027d91906115c6565b60405180910390f35b34801561029257600080fd5b5061029b6107c8565b6040516102a8919061142b565b60405180910390f35b3480156102bd57600080fd5b506102c66107f1565b6040516102d391906115c6565b60405180910390f35b3480156102e857600080fd5b5061030360048036038101906102fe9190611248565b6107f7565b005b34801561031157600080fd5b5061032c60048036038101906103279190611248565b610a07565b005b34801561033a57600080fd5b50610343610a6b565b604051610350919061142b565b60405180910390f35b34801561036557600080fd5b5061036e610a83565b60405161037b919061142b565b60405180910390f35b61039e60048036038101906103999190611248565b610a8a565b005b3480156103ac57600080fd5b506103b5610e82565b6040516103c2919061142b565b60405180910390f35b3480156103d757600080fd5b506103e0610e9a565b6040516103ed91906115c6565b60405180910390f35b34801561040257600080fd5b5061041d600480360381019061041891906111b5565b610ea0565b005b60008151905060005b8181101561050957732216d47494e516d8206b70fca8585820ed3c494673ffffffffffffffffffffffffffffffffffffffff166342842e0e336208008586858151811061049e577f4e487b7100000000000000000000000000000000000000000000000000000000600052603260045260246000fd5b60200260200101516040518463ffffffff1660e01b81526004016104c493929190611446565b600060405180830381600087803b1580156104de57600080fd5b505af11580156104f2573d6000803e3d6000fd5b505050508080610501906117dc565b915050610428565b507376280af9d18a868a0af3dca95b57dde816c1aaf273ffffffffffffffffffffffffffffffffffffffff166323b872dd3362080085670de0b6b3a764000061072661055591906116d5565b8561056091906116d5565b6040518463ffffffff1660e01b815260040161057e93929190611446565b602060405180830381600087803b15801561059857600080fd5b505af11580156105ac573d6000803e3d6000fd5b505050506040513d601f19601f820116820180604052508101906105d0919061121f565b5080600760008282546105e3919061164e565b9250508190555080600c60003373ffffffffffffffffffffffffffffffffffffffff1673ffffffffffffffffffffffffffffffffffffffff1681526020019081526020016000206000828254610639919061164e565b925050819055505050565b60065481565b60075481565b600260009054906101000a900473ffffffffffffffffffffffffffffffffffffffff1681565b60085481565b60055481565b60095481565b610690611049565b73ffffffffffffffffffffffffffffffffffffffff166106ae6107c8565b73ffffffffffffffffffffffffffffffffffffffff1614610704576040517f08c379a00000000000000000000000000000000000000000000000000000000081526004016106fb90611506565b60405180910390fd5b600073ffffffffffffffffffffffffffffffffffffffff1660008054906101000a900473ffffffffffffffffffffffffffffffffffffffff1673ffffffffffffffffffffffffffffffffffffffff167f8be0079c531659141344cd1fd0a4f28419497f9722a3daafe3b4186f6b6457e060405160405180910390a360008060006101000a81548173ffffffffffffffffffffffffffffffffffffffff021916908373ffffffffffffffffffffffffffffffffffffffff160217905550565b60045481565b60008060009054906101000a900473ffffffffffffffffffffffffffffffffffffffff16905090565b60035481565b6000811161080457600080fd5b600c60003373ffffffffffffffffffffffffffffffffffffffff1673ffffffffffffffffffffffffffffffffffffffff1681526020019081526020016000205481111561085057600080fd5b80600c60003373ffffffffffffffffffffffffffffffffffffffff1673ffffffffffffffffffffffffffffffffffffffff168152602001908152602001600020600082825461089f919061172f565b925050819055506000600260009054906101000a900473ffffffffffffffffffffffffffffffffffffffff1673ffffffffffffffffffffffffffffffffffffffff166318160ddd6040518163ffffffff1660e01b815260040160206040518083038186803b15801561091057600080fd5b505afa158015610924573d6000803e3d6000fd5b505050506040513d601f19601f820116820180604052508101906109489190611271565b905060005b82811015610a0257600260009054906101000a900473ffffffffffffffffffffffffffffffffffffffff1673ffffffffffffffffffffffffffffffffffffffff166340c10f193383856109a0919061164e565b6040518363ffffffff1660e01b81526004016109bd92919061147d565b600060405180830381600087803b1580156109d757600080fd5b505af11580156109eb573d6000803e3d6000fd5b5050505080806109fa906117dc565b91505061094d565b505050565b600260009054906101000a900473ffffffffffffffffffffffffffffffffffffffff1673ffffffffffffffffffffffffffffffffffffffff163373ffffffffffffffffffffffffffffffffffffffff1614610a6157600080fd5b8060048190555050565b732216d47494e516d8206b70fca8585820ed3c494681565b6208008581565b60026001541415610ad0576040517f08c379a0000000000000000000000000000000000000000000000000000000008152600401610ac7906115a6565b60405180910390fd5b60026001819055506008544311610b1c576040517f08c379a0000000000000000000000000000000000000000000000000000000008152600401610b1390611586565b60405180910390fd5b60008111610b5f576040517f08c379a0000000000000000000000000000000000000000000000000000000008152600401610b56906114e6565b60405180910390fd5b60045460055410610ba5576040517f08c379a0000000000000000000000000000000000000000000000000000000008152600401610b9c90611526565b60405180910390fd5b610bad611051565b600b6000600954815260200190815260200160002060003373ffffffffffffffffffffffffffffffffffffffff1673ffffffffffffffffffffffffffffffffffffffff16815260200190815260200160002060009054906101000a900460ff1615610c4d576040517f08c379a0000000000000000000000000000000000000000000000000000000008152600401610c4490611546565b60405180910390fd5b610c5860095461108a565b8110610c99576040517f08c379a0000000000000000000000000000000000000000000000000000000008152600401610c9090611566565b60405180910390fd5b600060045482600554610cac919061164e565b1115610ce6576000600554600454610cc4919061172f565b90508083610cd2919061172f565b600354610cdf91906116d5565b9150809250505b8160056000828254610cf8919061164e565b9250508190555081600c60003373ffffffffffffffffffffffffffffffffffffffff1673ffffffffffffffffffffffffffffffffffffffff1681526020019081526020016000206000828254610d4e919061164e565b925050819055506001600b6000600954815260200190815260200160002060003373ffffffffffffffffffffffffffffffffffffffff1673ffffffffffffffffffffffffffffffffffffffff16815260200190815260200160002060006101000a81548160ff0219169083151502179055506000811115610e775760003373ffffffffffffffffffffffffffffffffffffffff1682604051610def90611416565b60006040518083038185875af1925050503d8060008114610e2c576040519150601f19603f3d011682016040523d82523d6000602084013e610e31565b606091505b5050905080610e75576040517f08c379a0000000000000000000000000000000000000000000000000000000008152600401610e6c906114c6565b60405180910390fd5b505b506001808190555050565b7376280af9d18a868a0af3dca95b57dde816c1aaf281565b600a5481565b610ea8611049565b73ffffffffffffffffffffffffffffffffffffffff16610ec66107c8565b73ffffffffffffffffffffffffffffffffffffffff1614610f1c576040517f08c379a0000000000000000000000000000000000000000000000000000000008152600401610f1390611506565b60405180910390fd5b600073ffffffffffffffffffffffffffffffffffffffff168173ffffffffffffffffffffffffffffffffffffffff161415610f8c576040517f08c379a0000000000000000000000000000000000000000000000000000000008152600401610f83906114a6565b60405180910390fd5b8073ffffffffffffffffffffffffffffffffffffffff1660008054906101000a900473ffffffffffffffffffffffffffffffffffffffff1673ffffffffffffffffffffffffffffffffffffffff167f8be0079c531659141344cd1fd0a4f28419497f9722a3daafe3b4186f6b6457e060405160405180910390a3806000806101000a81548173ffffffffffffffffffffffffffffffffffffffff021916908373ffffffffffffffffffffffffffffffffffffffff16021790555050565b600033905090565b600060085443611061919061172f565b90506000600a548261107391906116a4565b9050600954811461108657806009819055505b5050565b60008082141561109d57600290506110c6565b60018214156110af57600890506110c6565b60028214156110c157601490506110c6565b603290505b919050565b60006110de6110d984611606565b6115e1565b905080838252602082019050828560208602820111156110fd57600080fd5b60005b8581101561112d5781611113888261118b565b845260208401935060208301925050600181019050611100565b5050509392505050565b60008135905061114681611a83565b92915050565b600082601f83011261115d57600080fd5b813561116d8482602086016110cb565b91505092915050565b60008151905061118581611a9a565b92915050565b60008135905061119a81611ab1565b92915050565b6000815190506111af81611ab1565b92915050565b6000602082840312156111c757600080fd5b60006111d584828501611137565b91505092915050565b6000602082840312156111f057600080fd5b600082013567ffffffffffffffff81111561120a57600080fd5b6112168482850161114c565b91505092915050565b60006020828403121561123157600080fd5b600061123f84828501611176565b91505092915050565b60006020828403121561125a57600080fd5b60006112688482850161118b565b91505092915050565b60006020828403121561128357600080fd5b6000611291848285016111a0565b91505092915050565b6112a381611763565b82525050565b60006112b660268361163d565b91506112c1826118c3565b604082019050919050565b60006112d9603a8361163d565b91506112e482611912565b604082019050919050565b60006112fc600d8361163d565b915061130782611961565b602082019050919050565b600061131f60208361163d565b915061132a8261198a565b602082019050919050565b600061134260108361163d565b915061134d826119b3565b602082019050919050565b6000611365600083611632565b9150611370826119dc565b600082019050919050565b600061138860148361163d565b9150611393826119df565b602082019050919050565b60006113ab60038361163d565b91506113b682611a08565b602082019050919050565b60006113ce60148361163d565b91506113d982611a31565b602082019050919050565b60006113f1601f8361163d565b91506113fc82611a5a565b602082019050919050565b611410816117a1565b82525050565b600061142182611358565b9150819050919050565b6000602082019050611440600083018461129a565b92915050565b600060608201905061145b600083018661129a565b611468602083018561129a565b6114756040830184611407565b949350505050565b6000604082019050611492600083018561129a565b61149f6020830184611407565b9392505050565b600060208201905081810360008301526114bf816112a9565b9050919050565b600060208201905081810360008301526114df816112cc565b9050919050565b600060208201905081810360008301526114ff816112ef565b9050919050565b6000602082019050818103600083015261151f81611312565b9050919050565b6000602082019050818103600083015261153f81611335565b9050919050565b6000602082019050818103600083015261155f8161137b565b9050919050565b6000602082019050818103600083015261157f8161139e565b9050919050565b6000602082019050818103600083015261159f816113c1565b9050919050565b600060208201905081810360008301526115bf816113e4565b9050919050565b60006020820190506115db6000830184611407565b92915050565b60006115eb6115fc565b90506115f782826117ab565b919050565b6000604051905090565b600067ffffffffffffffff82111561162157611620611883565b5b602082029050602081019050919050565b600081905092915050565b600082825260208201905092915050565b6000611659826117a1565b9150611664836117a1565b9250827fffffffffffffffffffffffffffffffffffffffffffffffffffffffffffffffff0382111561169957611698611825565b5b828201905092915050565b60006116af826117a1565b91506116ba836117a1565b9250826116ca576116c9611854565b5b828204905092915050565b60006116e0826117a1565b91506116eb836117a1565b9250817fffffffffffffffffffffffffffffffffffffffffffffffffffffffffffffffff048311821515161561172457611723611825565b5b828202905092915050565b600061173a826117a1565b9150611745836117a1565b92508282101561175857611757611825565b5b828203905092915050565b600061176e82611781565b9050919050565b60008115159050919050565b600073ffffffffffffffffffffffffffffffffffffffff82169050919050565b6000819050919050565b6117b4826118b2565b810181811067ffffffffffffffff821117156117d3576117d2611883565b5b80604052505050565b60006117e7826117a1565b91507fffffffffffffffffffffffffffffffffffffffffffffffffffffffffffffffff82141561181a57611819611825565b5b600182019050919050565b7f4e487b7100000000000000000000000000000000000000000000000000000000600052601160045260246000fd5b7f4e487b7100000000000000000000000000000000000000000000000000000000600052601260045260246000fd5b7f4e487b7100000000000000000000000000000000000000000000000000000000600052604160045260246000fd5b6000601f19601f8301169050919050565b7f4f776e61626c653a206e6577206f776e657220697320746865207a65726f206160008201527f6464726573730000000000000000000000000000000000000000000000000000602082015250565b7f416464726573733a20756e61626c6520746f2073656e642076616c75652c207260008201527f6563697069656e74206d61792068617665207265766572746564000000000000602082015250565b7f43616e6e6f74206d696e74203000000000000000000000000000000000000000600082015250565b7f4f776e61626c653a2063616c6c6572206973206e6f7420746865206f776e6572600082015250565b7f536f6c64206f75742120536f7272792100000000000000000000000000000000600082015250565b50565b7f4c6f636b656420666f7220746869732077617665000000000000000000000000600082015250565b7f4361700000000000000000000000000000000000000000000000000000000000600082015250565b7f53616c6520686173206e6f742073746172746564000000000000000000000000600082015250565b7f5265656e7472616e637947756172643a207265656e7472616e742063616c6c00600082015250565b611a8c81611763565b8114611a9757600080fd5b50565b611aa381611775565b8114611aae57600080fd5b50565b611aba816117a1565b8114611ac557600080fd5b5056fea26469706673582212201704ec8c23fd5f0e03a960c14cbe0831ff1d7385be7c306be9cc0d52d97afb7d64736f6c63430008040033",
  "linkReferences": {},
  "deployedLinkReferences": {}
}