{
  "_format": "hh-sol-artifact-1",
  "contractName": "NFTMerkleDistributor",
  "sourceName": "contracts/uwucrewBSCClaim.sol",
  "abi": [
    {
      "inputs": [
        {
          "internalType": "address",
          "name": "nft_",
          "type": "address"
        },
        {
          "internalType": "bytes32",
          "name": "merkleRoot_",
          "type": "bytes32"
        }
      ],
      "stateMutability": "nonpayable",
      "type": "constructor"
    },
    {
      "anonymous": false,
      "inputs": [
        {
          "indexed": false,
          "internalType": "uint256",
          "name": "index",
          "type": "uint256"
        },
        {
          "indexed": false,
          "internalType": "address",
          "name": "account",
          "type": "address"
        },
        {
          "indexed": false,
          "internalType": "uint256",
          "name": "amount",
          "type": "uint256"
        }
      ],
      "name": "Claimed",
      "type": "event"
    },
    {
      "inputs": [
        {
          "internalType": "uint256",
          "name": "index",
          "type": "uint256"
        },
        {
          "internalType": "address",
          "name": "account",
          "type": "address"
        },
        {
          "internalType": "uint256",
          "name": "amount",
          "type": "uint256"
        },
        {
          "internalType": "uint256",
          "name": "amountToMint",
          "type": "uint256"
        },
        {
          "internalType": "bytes32[]",
          "name": "merkleProof",
          "type": "bytes32[]"
        }
      ],
      "name": "claim",
      "outputs": [],
      "stateMutability": "nonpayable",
      "type": "function"
    },
    {
      "inputs": [
        {
          "internalType": "uint256",
          "name": "index",
          "type": "uint256"
        }
      ],
      "name": "isClaimed",
      "outputs": [
        {
          "internalType": "bool",
          "name": "",
          "type": "bool"
        }
      ],
      "stateMutability": "view",
      "type": "function"
    },
    {
      "inputs": [],
      "name": "merkleRoot",
      "outputs": [
        {
          "internalType": "bytes32",
          "name": "",
          "type": "bytes32"
        }
      ],
      "stateMutability": "view",
      "type": "function"
    },
    {
      "inputs": [
        {
          "internalType": "address",
          "name": "",
          "type": "address"
        }
      ],
      "name": "mintedPerAccount",
      "outputs": [
        {
          "internalType": "uint256",
          "name": "",
          "type": "uint256"
        }
      ],
      "stateMutability": "view",
      "type": "function"
    },
    {
      "inputs": [],
      "name": "nft",
      "outputs": [
        {
          "internalType": "address",
          "name": "",
          "type": "address"
        }
      ],
      "stateMutability": "view",
      "type": "function"
    }
  ],
  "bytecode": "0x60c06040523480156200001157600080fd5b5060405162000eca38038062000eca8339818101604052810190620000379190620000ac565b8173ffffffffffffffffffffffffffffffffffffffff1660808173ffffffffffffffffffffffffffffffffffffffff1660601b815250508060a0818152505050506200015f565b6000815190506200008f816200012b565b92915050565b600081519050620000a68162000145565b92915050565b60008060408385031215620000c057600080fd5b6000620000d0858286016200007e565b9250506020620000e38582860162000095565b9150509250929050565b6000620000fa826200010b565b9050919050565b6000819050919050565b600073ffffffffffffffffffffffffffffffffffffffff82169050919050565b6200013681620000ed565b81146200014257600080fd5b50565b620001508162000101565b81146200015c57600080fd5b50565b60805160601c60a051610d34620001966000396000818161012e015261020f01526000818161035b015261047d0152610d346000f3fe608060405234801561001057600080fd5b50600436106100575760003560e01c806323f54f371461005c5780632eb4a7ab1461008c5780633e4fcb21146100aa57806347ccca02146100c65780639e34070f146100e4575b600080fd5b6100766004803603810190610071919061069f565b610114565b60405161008391906109b0565b60405180910390f35b61009461012c565b6040516100a19190610935565b60405180910390f35b6100c460048036038101906100bf91906106f1565b610150565b005b6100ce61047b565b6040516100db91906108d6565b60405180910390f35b6100fe60048036038101906100f991906106c8565b61049f565b60405161010b919061091a565b60405180910390f35b60006020528060005260406000206000915090505481565b7f000000000000000000000000000000000000000000000000000000000000000081565b6101598661049f565b15610199576040517f08c379a000000000000000000000000000000000000000000000000000000000815260040161019090610950565b60405180910390fd5b60008686866040516020016101b093929190610899565b604051602081830303815290604052805190602001209050610234838380806020026020016040519081016040528093929190818152602001838360200280828437600081840152601f19601f820116905080830192505050505050507f0000000000000000000000000000000000000000000000000000000000000000836104f5565b610273576040517f08c379a000000000000000000000000000000000000000000000000000000000815260040161026a90610970565b60405180910390fd5b6000846000808973ffffffffffffffffffffffffffffffffffffffff1673ffffffffffffffffffffffffffffffffffffffff168152602001908152602001600020546102bf9190610a13565b905085811115610304576040517f08c379a00000000000000000000000000000000000000000000000000000000081526004016102fb90610990565b60405180910390fd5b846000808973ffffffffffffffffffffffffffffffffffffffff1673ffffffffffffffffffffffffffffffffffffffff16815260200190815260200160002060008282546103529190610a13565b925050819055507f000000000000000000000000000000000000000000000000000000000000000073ffffffffffffffffffffffffffffffffffffffff166340c10f1988876040518363ffffffff1660e01b81526004016103b49291906108f1565b600060405180830381600087803b1580156103ce57600080fd5b505af11580156103e2573d6000803e3d6000fd5b50505050856000808973ffffffffffffffffffffffffffffffffffffffff1673ffffffffffffffffffffffffffffffffffffffff16815260200190815260200160002054141561043657610435886105d1565b5b7f4ec90e965519d92681267467f775ada5bd214aa92c0dc93d90a5e880ce9ed026888888604051610469939291906109cb565b60405180910390a15050505050505050565b7f000000000000000000000000000000000000000000000000000000000000000081565b600080610100836104b09190610a69565b90506000610100846104c29190610b6d565b90506000600160008481526020019081526020016000205490506000826001901b90508081831614945050505050919050565b60008082905060005b85518110156105c3576000868281518110610542577f4e487b7100000000000000000000000000000000000000000000000000000000600052603260045260246000fd5b6020026020010151905080831161058357828160405160200161056692919061086d565b6040516020818303038152906040528051906020012092506105af565b808360405160200161059692919061086d565b6040516020818303038152906040528051906020012092505b5080806105bb90610aec565b9150506104fe565b508381149150509392505050565b6000610100826105e19190610a69565b90506000610100836105f39190610b6d565b9050806001901b6001600084815260200190815260200160002054176001600084815260200190815260200160002081905550505050565b60008135905061063a81610cd0565b92915050565b60008083601f84011261065257600080fd5b8235905067ffffffffffffffff81111561066b57600080fd5b60208301915083602082028301111561068357600080fd5b9250929050565b60008135905061069981610ce7565b92915050565b6000602082840312156106b157600080fd5b60006106bf8482850161062b565b91505092915050565b6000602082840312156106da57600080fd5b60006106e88482850161068a565b91505092915050565b60008060008060008060a0878903121561070a57600080fd5b600061071889828a0161068a565b965050602061072989828a0161062b565b955050604061073a89828a0161068a565b945050606061074b89828a0161068a565b935050608087013567ffffffffffffffff81111561076857600080fd5b61077489828a01610640565b92509250509295509295509295565b61078c81610a9a565b82525050565b6107a361079e82610a9a565b610b35565b82525050565b6107b281610aac565b82525050565b6107c181610ab8565b82525050565b6107d86107d382610ab8565b610b47565b82525050565b60006107eb602883610a02565b91506107f682610c09565b604082019050919050565b600061080e602183610a02565b915061081982610c58565b604082019050919050565b6000610831601783610a02565b915061083c82610ca7565b602082019050919050565b61085081610ae2565b82525050565b61086761086282610ae2565b610b63565b82525050565b600061087982856107c7565b60208201915061088982846107c7565b6020820191508190509392505050565b60006108a58286610856565b6020820191506108b58285610792565b6014820191506108c58284610856565b602082019150819050949350505050565b60006020820190506108eb6000830184610783565b92915050565b60006040820190506109066000830185610783565b6109136020830184610847565b9392505050565b600060208201905061092f60008301846107a9565b92915050565b600060208201905061094a60008301846107b8565b92915050565b60006020820190508181036000830152610969816107de565b9050919050565b6000602082019050818103600083015261098981610801565b9050919050565b600060208201905081810360008301526109a981610824565b9050919050565b60006020820190506109c56000830184610847565b92915050565b60006060820190506109e06000830186610847565b6109ed6020830185610783565b6109fa6040830184610847565b949350505050565b600082825260208201905092915050565b6000610a1e82610ae2565b9150610a2983610ae2565b9250827fffffffffffffffffffffffffffffffffffffffffffffffffffffffffffffffff03821115610a5e57610a5d610b9e565b5b828201905092915050565b6000610a7482610ae2565b9150610a7f83610ae2565b925082610a8f57610a8e610bcd565b5b828204905092915050565b6000610aa582610ac2565b9050919050565b60008115159050919050565b6000819050919050565b600073ffffffffffffffffffffffffffffffffffffffff82169050919050565b6000819050919050565b6000610af782610ae2565b91507fffffffffffffffffffffffffffffffffffffffffffffffffffffffffffffffff821415610b2a57610b29610b9e565b5b600182019050919050565b6000610b4082610b51565b9050919050565b6000819050919050565b6000610b5c82610bfc565b9050919050565b6000819050919050565b6000610b7882610ae2565b9150610b8383610ae2565b925082610b9357610b92610bcd565b5b828206905092915050565b7f4e487b7100000000000000000000000000000000000000000000000000000000600052601160045260246000fd5b7f4e487b7100000000000000000000000000000000000000000000000000000000600052601260045260246000fd5b60008160601b9050919050565b7f4d65726b6c654469737472696275746f723a2044726f7020616c72656164792060008201527f636c61696d65642e000000000000000000000000000000000000000000000000602082015250565b7f4d65726b6c654469737472696275746f723a20496e76616c69642070726f6f6660008201527f2e00000000000000000000000000000000000000000000000000000000000000602082015250565b7f547279696e6720746f206d696e7420746f6f206d616e79000000000000000000600082015250565b610cd981610a9a565b8114610ce457600080fd5b50565b610cf081610ae2565b8114610cfb57600080fd5b5056fea264697066735822122026dcc57555b4b21d01debd7d588a2f05785f2a909600c252aa24a51d100e6f4664736f6c63430008040033",
  "linkReferences": {},
  "deployedLinkReferences": {}
}