{
  "_format": "hh-sol-artifact-1",
  "contractName": "WaifusionV2",
  "sourceName": "contracts/WaifusionV2.sol",
  "abi": [
    {
      "inputs": [
        {
          "internalType": "string",
          "name": "name_",
          "type": "string"
        },
        {
          "internalType": "string",
          "name": "symbol_",
          "type": "string"
        }
      ],
      "stateMutability": "nonpayable",
      "type": "constructor"
    },
    {
      "anonymous": false,
      "inputs": [
        {
          "indexed": true,
          "internalType": "address",
          "name": "owner",
          "type": "address"
        },
        {
          "indexed": true,
          "internalType": "address",
          "name": "approved",
          "type": "address"
        },
        {
          "indexed": true,
          "internalType": "uint256",
          "name": "tokenId",
          "type": "uint256"
        }
      ],
      "name": "Approval",
      "type": "event"
    },
    {
      "anonymous": false,
      "inputs": [
        {
          "indexed": true,
          "internalType": "address",
          "name": "owner",
          "type": "address"
        },
        {
          "indexed": true,
          "internalType": "address",
          "name": "operator",
          "type": "address"
        },
        {
          "indexed": false,
          "internalType": "bool",
          "name": "approved",
          "type": "bool"
        }
      ],
      "name": "ApprovalForAll",
      "type": "event"
    },
    {
      "anonymous": false,
      "inputs": [
        {
          "indexed": true,
          "internalType": "address",
          "name": "previousOwner",
          "type": "address"
        },
        {
          "indexed": true,
          "internalType": "address",
          "name": "newOwner",
          "type": "address"
        }
      ],
      "name": "OwnershipTransferred",
      "type": "event"
    },
    {
      "anonymous": false,
      "inputs": [
        {
          "indexed": true,
          "internalType": "address",
          "name": "from",
          "type": "address"
        },
        {
          "indexed": true,
          "internalType": "address",
          "name": "to",
          "type": "address"
        },
        {
          "indexed": true,
          "internalType": "uint256",
          "name": "tokenId",
          "type": "uint256"
        }
      ],
      "name": "Transfer",
      "type": "event"
    },
    {
      "inputs": [],
      "name": "_maxSupply",
      "outputs": [
        {
          "internalType": "uint256",
          "name": "",
          "type": "uint256"
        }
      ],
      "stateMutability": "view",
      "type": "function"
    },
    {
      "inputs": [],
      "name": "_minted",
      "outputs": [
        {
          "internalType": "uint256",
          "name": "",
          "type": "uint256"
        }
      ],
      "stateMutability": "view",
      "type": "function"
    },
    {
      "inputs": [],
      "name": "_price",
      "outputs": [
        {
          "internalType": "uint256",
          "name": "",
          "type": "uint256"
        }
      ],
      "stateMutability": "view",
      "type": "function"
    },
    {
      "inputs": [
        {
          "internalType": "address",
          "name": "to",
          "type": "address"
        },
        {
          "internalType": "uint256",
          "name": "tokenId",
          "type": "uint256"
        }
      ],
      "name": "approve",
      "outputs": [],
      "stateMutability": "nonpayable",
      "type": "function"
    },
    {
      "inputs": [
        {
          "internalType": "address",
          "name": "owner",
          "type": "address"
        }
      ],
      "name": "balanceOf",
      "outputs": [
        {
          "internalType": "uint256",
          "name": "",
          "type": "uint256"
        }
      ],
      "stateMutability": "view",
      "type": "function"
    },
    {
      "inputs": [
        {
          "internalType": "uint256",
          "name": "tokenId",
          "type": "uint256"
        }
      ],
      "name": "getApproved",
      "outputs": [
        {
          "internalType": "address",
          "name": "",
          "type": "address"
        }
      ],
      "stateMutability": "view",
      "type": "function"
    },
    {
      "inputs": [
        {
          "internalType": "address",
          "name": "owner",
          "type": "address"
        },
        {
          "internalType": "address",
          "name": "operator",
          "type": "address"
        }
      ],
      "name": "isApprovedForAll",
      "outputs": [
        {
          "internalType": "bool",
          "name": "",
          "type": "bool"
        }
      ],
      "stateMutability": "view",
      "type": "function"
    },
    {
      "inputs": [
        {
          "internalType": "uint256",
          "name": "amount",
          "type": "uint256"
        }
      ],
      "name": "mint",
      "outputs": [],
      "stateMutability": "payable",
      "type": "function"
    },
    {
      "inputs": [],
      "name": "name",
      "outputs": [
        {
          "internalType": "string",
          "name": "",
          "type": "string"
        }
      ],
      "stateMutability": "view",
      "type": "function"
    },
    {
      "inputs": [],
      "name": "owner",
      "outputs": [
        {
          "internalType": "address",
          "name": "",
          "type": "address"
        }
      ],
      "stateMutability": "view",
      "type": "function"
    },
    {
      "inputs": [
        {
          "internalType": "uint256",
          "name": "tokenId",
          "type": "uint256"
        }
      ],
      "name": "ownerOf",
      "outputs": [
        {
          "internalType": "address",
          "name": "",
          "type": "address"
        }
      ],
      "stateMutability": "view",
      "type": "function"
    },
    {
      "inputs": [],
      "name": "renounceOwnership",
      "outputs": [],
      "stateMutability": "nonpayable",
      "type": "function"
    },
    {
      "inputs": [
        {
          "internalType": "address",
          "name": "from",
          "type": "address"
        },
        {
          "internalType": "address",
          "name": "to",
          "type": "address"
        },
        {
          "internalType": "uint256",
          "name": "tokenId",
          "type": "uint256"
        }
      ],
      "name": "safeTransferFrom",
      "outputs": [],
      "stateMutability": "nonpayable",
      "type": "function"
    },
    {
      "inputs": [
        {
          "internalType": "address",
          "name": "from",
          "type": "address"
        },
        {
          "internalType": "address",
          "name": "to",
          "type": "address"
        },
        {
          "internalType": "uint256",
          "name": "tokenId",
          "type": "uint256"
        },
        {
          "internalType": "bytes",
          "name": "_data",
          "type": "bytes"
        }
      ],
      "name": "safeTransferFrom",
      "outputs": [],
      "stateMutability": "nonpayable",
      "type": "function"
    },
    {
      "inputs": [
        {
          "internalType": "address",
          "name": "operator",
          "type": "address"
        },
        {
          "internalType": "bool",
          "name": "approved",
          "type": "bool"
        }
      ],
      "name": "setApprovalForAll",
      "outputs": [],
      "stateMutability": "nonpayable",
      "type": "function"
    },
    {
      "inputs": [
        {
          "internalType": "bytes4",
          "name": "interfaceId",
          "type": "bytes4"
        }
      ],
      "name": "supportsInterface",
      "outputs": [
        {
          "internalType": "bool",
          "name": "",
          "type": "bool"
        }
      ],
      "stateMutability": "view",
      "type": "function"
    },
    {
      "inputs": [],
      "name": "symbol",
      "outputs": [
        {
          "internalType": "string",
          "name": "",
          "type": "string"
        }
      ],
      "stateMutability": "view",
      "type": "function"
    },
    {
      "inputs": [
        {
          "internalType": "uint256",
          "name": "tokenId",
          "type": "uint256"
        }
      ],
      "name": "tokenURI",
      "outputs": [
        {
          "internalType": "string",
          "name": "",
          "type": "string"
        }
      ],
      "stateMutability": "view",
      "type": "function"
    },
    {
      "inputs": [
        {
          "internalType": "address",
          "name": "from",
          "type": "address"
        },
        {
          "internalType": "address",
          "name": "to",
          "type": "address"
        },
        {
          "internalType": "uint256",
          "name": "tokenId",
          "type": "uint256"
        }
      ],
      "name": "transferFrom",
      "outputs": [],
      "stateMutability": "nonpayable",
      "type": "function"
    },
    {
      "inputs": [
        {
          "internalType": "address",
          "name": "newOwner",
          "type": "address"
        }
      ],
      "name": "transferOwnership",
      "outputs": [],
      "stateMutability": "nonpayable",
      "type": "function"
    },
    {
      "inputs": [
        {
          "internalType": "address payable",
          "name": "recipient",
          "type": "address"
        },
        {
          "internalType": "uint256",
          "name": "value",
          "type": "uint256"
        }
      ],
      "name": "widthdraw",
      "outputs": [],
      "stateMutability": "nonpayable",
      "type": "function"
    },
    {
      "inputs": [
        {
          "internalType": "address payable",
          "name": "recipient",
          "type": "address"
        }
      ],
      "name": "widthdrawAll",
      "outputs": [],
      "stateMutability": "nonpayable",
      "type": "function"
    }
  ],
  "bytecode": "0x608060405260006003553480156200001657600080fd5b50604051620033923803806200339283398181016040528101906200003c919062000250565b60006200004e6200012660201b60201c565b9050806000806101000a81548173ffffffffffffffffffffffffffffffffffffffff021916908373ffffffffffffffffffffffffffffffffffffffff1602179055508073ffffffffffffffffffffffffffffffffffffffff16600073ffffffffffffffffffffffffffffffffffffffff167f8be0079c531659141344cd1fd0a4f28419497f9722a3daafe3b4186f6b6457e060405160405180910390a3508160019080519060200190620001049291906200012e565b5080600290805190602001906200011d9291906200012e565b505050620003f4565b600033905090565b8280546200013c9062000360565b90600052602060002090601f016020900481019282620001605760008555620001ac565b82601f106200017b57805160ff1916838001178555620001ac565b82800160010185558215620001ac579182015b82811115620001ab5782518255916020019190600101906200018e565b5b509050620001bb9190620001bf565b5090565b5b80821115620001da576000816000905550600101620001c0565b5090565b6000620001f5620001ef84620002f7565b620002c3565b9050828152602081018484840111156200020e57600080fd5b6200021b8482856200032a565b509392505050565b600082601f8301126200023557600080fd5b815162000247848260208601620001de565b91505092915050565b600080604083850312156200026457600080fd5b600083015167ffffffffffffffff8111156200027f57600080fd5b6200028d8582860162000223565b925050602083015167ffffffffffffffff811115620002ab57600080fd5b620002b98582860162000223565b9150509250929050565b6000604051905081810181811067ffffffffffffffff82111715620002ed57620002ec620003c5565b5b8060405250919050565b600067ffffffffffffffff821115620003155762000314620003c5565b5b601f19601f8301169050602081019050919050565b60005b838110156200034a5780820151818401526020810190506200032d565b838111156200035a576000848401525b50505050565b600060028204905060018216806200037957607f821691505b6020821081141562000390576200038f62000396565b5b50919050565b7f4e487b7100000000000000000000000000000000000000000000000000000000600052602260045260246000fd5b7f4e487b7100000000000000000000000000000000000000000000000000000000600052604160045260246000fd5b612f8e80620004046000396000f3fe6080604052600436106101355760003560e01c806370a08231116100ab578063a22cb4651161006f578063a22cb46514610407578063b88d4fde14610430578063c74b197c14610459578063c87b56dd14610482578063e985e9c5146104bf578063f2fde38b146104fc57610135565b806370a0823114610341578063715018a61461037e5780638da5cb5b1461039557806395d89b41146103c0578063a0712d68146103eb57610135565b806322f4596f116100fd57806322f4596f14610231578063235b6ea11461025c57806323b872dd146102875780632c19b7f3146102b057806342842e0e146102db5780636352211e1461030457610135565b806301ffc9a71461013a57806306fdde0314610177578063081812fc146101a2578063095ea7b3146101df5780631826dd9514610208575b600080fd5b34801561014657600080fd5b50610161600480360381019061015c9190612006565b610525565b60405161016e919061288f565b60405180910390f35b34801561018357600080fd5b5061018c610607565b60405161019991906128aa565b60405180910390f35b3480156101ae57600080fd5b506101c960048036038101906101c49190612058565b610699565b6040516101d69190612828565b60405180910390f35b3480156101eb57600080fd5b5061020660048036038101906102019190611fca565b61071e565b005b34801561021457600080fd5b5061022f600480360381019061022a9190611e23565b610836565b005b34801561023d57600080fd5b5061024661093f565b6040516102539190612b6c565b60405180910390f35b34801561026857600080fd5b50610271610945565b60405161027e9190612b6c565b60405180910390f35b34801561029357600080fd5b506102ae60048036038101906102a99190611ec4565b610950565b005b3480156102bc57600080fd5b506102c56109b0565b6040516102d29190612b6c565b60405180910390f35b3480156102e757600080fd5b5061030260048036038101906102fd9190611ec4565b6109b6565b005b34801561031057600080fd5b5061032b60048036038101906103269190612058565b6109d6565b6040516103389190612828565b60405180910390f35b34801561034d57600080fd5b5061036860048036038101906103639190611dfa565b610a88565b6040516103759190612b6c565b60405180910390f35b34801561038a57600080fd5b50610393610b40565b005b3480156103a157600080fd5b506103aa610c7a565b6040516103b79190612828565b60405180910390f35b3480156103cc57600080fd5b506103d5610ca3565b6040516103e291906128aa565b60405180910390f35b61040560048036038101906104009190612058565b610d35565b005b34801561041357600080fd5b5061042e60048036038101906104299190611f8e565b610eae565b005b34801561043c57600080fd5b5061045760048036038101906104529190611f13565b61102f565b005b34801561046557600080fd5b50610480600480360381019061047b9190611e4c565b611091565b005b34801561048e57600080fd5b506104a960048036038101906104a49190612058565b61119b565b6040516104b691906128aa565b60405180910390f35b3480156104cb57600080fd5b506104e660048036038101906104e19190611e88565b6111b4565b6040516104f3919061288f565b60405180910390f35b34801561050857600080fd5b50610523600480360381019061051e9190611dfa565b611248565b005b60007f80ac58cd000000000000000000000000000000000000000000000000000000007bffffffffffffffffffffffffffffffffffffffffffffffffffffffff1916827bffffffffffffffffffffffffffffffffffffffffffffffffffffffff191614806105f057507f5b5e139f000000000000000000000000000000000000000000000000000000007bffffffffffffffffffffffffffffffffffffffffffffffffffffffff1916827bffffffffffffffffffffffffffffffffffffffffffffffffffffffff1916145b8061060057506105ff826113f1565b5b9050919050565b60606001805461061690612dcc565b80601f016020809104026020016040519081016040528092919081815260200182805461064290612dcc565b801561068f5780601f106106645761010080835404028352916020019161068f565b820191906000526020600020905b81548152906001019060200180831161067257829003601f168201915b5050505050905090565b60006106a48261145b565b6106e3576040517f08c379a00000000000000000000000000000000000000000000000000000000081526004016106da90612aac565b60405180910390fd5b6007600083815260200190815260200160002060009054906101000a900473ffffffffffffffffffffffffffffffffffffffff169050919050565b6000610729826109d6565b90508073ffffffffffffffffffffffffffffffffffffffff168373ffffffffffffffffffffffffffffffffffffffff16141561079a576040517f08c379a000000000000000000000000000000000000000000000000000000000815260040161079190612b0c565b60405180910390fd5b8073ffffffffffffffffffffffffffffffffffffffff166107b96114c7565b73ffffffffffffffffffffffffffffffffffffffff1614806107e857506107e7816107e26114c7565b6111b4565b5b610827576040517f08c379a000000000000000000000000000000000000000000000000000000000815260040161081e906129cc565b60405180910390fd5b61083183836114cf565b505050565b61083e6114c7565b73ffffffffffffffffffffffffffffffffffffffff1661085c610c7a565b73ffffffffffffffffffffffffffffffffffffffff16146108b2576040517f08c379a00000000000000000000000000000000000000000000000000000000081526004016108a990612acc565b60405180910390fd5b600047116108f5576040517f08c379a00000000000000000000000000000000000000000000000000000000081526004016108ec90612b4c565b60405180910390fd5b8073ffffffffffffffffffffffffffffffffffffffff166108fc479081150290604051600060405180830381858888f1935050505015801561093b573d6000803e3d6000fd5b5050565b61138881565b661c6bf52634000081565b61096161095b6114c7565b82611588565b6109a0576040517f08c379a000000000000000000000000000000000000000000000000000000000815260040161099790612b2c565b60405180910390fd5b6109ab838383611666565b505050565b60035481565b6109d18383836040518060200160405280600081525061102f565b505050565b6000806005600084815260200190815260200160002060009054906101000a900473ffffffffffffffffffffffffffffffffffffffff169050600073ffffffffffffffffffffffffffffffffffffffff168173ffffffffffffffffffffffffffffffffffffffff161415610a7f576040517f08c379a0000000000000000000000000000000000000000000000000000000008152600401610a7690612a2c565b60405180910390fd5b80915050919050565b60008073ffffffffffffffffffffffffffffffffffffffff168273ffffffffffffffffffffffffffffffffffffffff161415610af9576040517f08c379a0000000000000000000000000000000000000000000000000000000008152600401610af0906129ec565b60405180910390fd5b600660008373ffffffffffffffffffffffffffffffffffffffff1673ffffffffffffffffffffffffffffffffffffffff168152602001908152602001600020549050919050565b610b486114c7565b73ffffffffffffffffffffffffffffffffffffffff16610b66610c7a565b73ffffffffffffffffffffffffffffffffffffffff1614610bbc576040517f08c379a0000000000000000000000000000000000000000000000000000000008152600401610bb390612acc565b60405180910390fd5b600073ffffffffffffffffffffffffffffffffffffffff1660008054906101000a900473ffffffffffffffffffffffffffffffffffffffff1673ffffffffffffffffffffffffffffffffffffffff167f8be0079c531659141344cd1fd0a4f28419497f9722a3daafe3b4186f6b6457e060405160405180910390a360008060006101000a81548173ffffffffffffffffffffffffffffffffffffffff021916908373ffffffffffffffffffffffffffffffffffffffff160217905550565b60008060009054906101000a900473ffffffffffffffffffffffffffffffffffffffff16905090565b606060028054610cb290612dcc565b80601f0160208091040260200160405190810160405280929190818152602001828054610cde90612dcc565b8015610d2b5780601f10610d0057610100808354040283529160200191610d2b565b820191906000526020600020905b815481529060010190602001808311610d0e57829003601f168201915b5050505050905090565b60008111610d78576040517f08c379a0000000000000000000000000000000000000000000000000000000008152600401610d6f906129ac565b60405180910390fd5b6014811115610dbc576040517f08c379a0000000000000000000000000000000000000000000000000000000008152600401610db390612a0c565b60405180910390fd5b3481661c6bf526340000610dd09190612c76565b14610e10576040517f08c379a0000000000000000000000000000000000000000000000000000000008152600401610e079061296c565b60405180910390fd5b61138881600354610e219190612c20565b1115610e62576040517f08c379a0000000000000000000000000000000000000000000000000000000008152600401610e5990612a4c565b60405180910390fd5b60005b81811015610eaa576000600354905060036000815480929190610e8790612dfe565b9190505550610e9633826118c2565b508080610ea290612dfe565b915050610e65565b5050565b610eb66114c7565b73ffffffffffffffffffffffffffffffffffffffff168273ffffffffffffffffffffffffffffffffffffffff161415610f24576040517f08c379a0000000000000000000000000000000000000000000000000000000008152600401610f1b9061294c565b60405180910390fd5b8060086000610f316114c7565b73ffffffffffffffffffffffffffffffffffffffff1673ffffffffffffffffffffffffffffffffffffffff16815260200190815260200160002060008473ffffffffffffffffffffffffffffffffffffffff1673ffffffffffffffffffffffffffffffffffffffff16815260200190815260200160002060006101000a81548160ff0219169083151502179055508173ffffffffffffffffffffffffffffffffffffffff16610fde6114c7565b73ffffffffffffffffffffffffffffffffffffffff167f17307eab39ab6107e8899845ad3d59bd9653f200f220920489ca2b5937696c3183604051611023919061288f565b60405180910390a35050565b61104061103a6114c7565b83611588565b61107f576040517f08c379a000000000000000000000000000000000000000000000000000000000815260040161107690612b2c565b60405180910390fd5b61108b848484846118e0565b50505050565b6110996114c7565b73ffffffffffffffffffffffffffffffffffffffff166110b7610c7a565b73ffffffffffffffffffffffffffffffffffffffff161461110d576040517f08c379a000000000000000000000000000000000000000000000000000000000815260040161110490612acc565b60405180910390fd5b47811115611150576040517f08c379a000000000000000000000000000000000000000000000000000000000815260040161114790612a8c565b60405180910390fd5b8173ffffffffffffffffffffffffffffffffffffffff166108fc829081150290604051600060405180830381858888f19350505050158015611196573d6000803e3d6000fd5b505050565b6060604051806020016040528060008152509050919050565b6000600860008473ffffffffffffffffffffffffffffffffffffffff1673ffffffffffffffffffffffffffffffffffffffff16815260200190815260200160002060008373ffffffffffffffffffffffffffffffffffffffff1673ffffffffffffffffffffffffffffffffffffffff16815260200190815260200160002060009054906101000a900460ff16905092915050565b6112506114c7565b73ffffffffffffffffffffffffffffffffffffffff1661126e610c7a565b73ffffffffffffffffffffffffffffffffffffffff16146112c4576040517f08c379a00000000000000000000000000000000000000000000000000000000081526004016112bb90612acc565b60405180910390fd5b600073ffffffffffffffffffffffffffffffffffffffff168173ffffffffffffffffffffffffffffffffffffffff161415611334576040517f08c379a000000000000000000000000000000000000000000000000000000000815260040161132b906128ec565b60405180910390fd5b8073ffffffffffffffffffffffffffffffffffffffff1660008054906101000a900473ffffffffffffffffffffffffffffffffffffffff1673ffffffffffffffffffffffffffffffffffffffff167f8be0079c531659141344cd1fd0a4f28419497f9722a3daafe3b4186f6b6457e060405160405180910390a3806000806101000a81548173ffffffffffffffffffffffffffffffffffffffff021916908373ffffffffffffffffffffffffffffffffffffffff16021790555050565b60007f01ffc9a7000000000000000000000000000000000000000000000000000000007bffffffffffffffffffffffffffffffffffffffffffffffffffffffff1916827bffffffffffffffffffffffffffffffffffffffffffffffffffffffff1916149050919050565b60008073ffffffffffffffffffffffffffffffffffffffff166005600084815260200190815260200160002060009054906101000a900473ffffffffffffffffffffffffffffffffffffffff1673ffffffffffffffffffffffffffffffffffffffff1614159050919050565b600033905090565b816007600083815260200190815260200160002060006101000a81548173ffffffffffffffffffffffffffffffffffffffff021916908373ffffffffffffffffffffffffffffffffffffffff160217905550808273ffffffffffffffffffffffffffffffffffffffff16611542836109d6565b73ffffffffffffffffffffffffffffffffffffffff167f8c5be1e5ebec7d5bd14f71427d1e84f3dd0314c0f7b2291e5b200ac8c7c3b92560405160405180910390a45050565b60006115938261145b565b6115d2576040517f08c379a00000000000000000000000000000000000000000000000000000000081526004016115c99061298c565b60405180910390fd5b60006115dd836109d6565b90508073ffffffffffffffffffffffffffffffffffffffff168473ffffffffffffffffffffffffffffffffffffffff16148061164c57508373ffffffffffffffffffffffffffffffffffffffff1661163484610699565b73ffffffffffffffffffffffffffffffffffffffff16145b8061165d575061165c81856111b4565b5b91505092915050565b8273ffffffffffffffffffffffffffffffffffffffff16611686826109d6565b73ffffffffffffffffffffffffffffffffffffffff16146116dc576040517f08c379a00000000000000000000000000000000000000000000000000000000081526004016116d390612aec565b60405180910390fd5b600073ffffffffffffffffffffffffffffffffffffffff168273ffffffffffffffffffffffffffffffffffffffff16141561174c576040517f08c379a00000000000000000000000000000000000000000000000000000000081526004016117439061292c565b60405180910390fd5b61175783838361193c565b6117626000826114cf565b6001600660008573ffffffffffffffffffffffffffffffffffffffff1673ffffffffffffffffffffffffffffffffffffffff16815260200190815260200160002060008282546117b29190612cd0565b925050819055506001600660008473ffffffffffffffffffffffffffffffffffffffff1673ffffffffffffffffffffffffffffffffffffffff16815260200190815260200160002060008282546118099190612c20565b92505081905550816005600083815260200190815260200160002060006101000a81548173ffffffffffffffffffffffffffffffffffffffff021916908373ffffffffffffffffffffffffffffffffffffffff160217905550808273ffffffffffffffffffffffffffffffffffffffff168473ffffffffffffffffffffffffffffffffffffffff167fddf252ad1be2c89b69c2b068fc378daa952ba7f163c4a11628f55a4df523b3ef60405160405180910390a4505050565b6118dc828260405180602001604052806000815250611941565b5050565b6118eb848484611666565b6118f78484848461199c565b611936576040517f08c379a000000000000000000000000000000000000000000000000000000000815260040161192d906128cc565b60405180910390fd5b50505050565b505050565b61194b8383611b33565b611958600084848461199c565b611997576040517f08c379a000000000000000000000000000000000000000000000000000000000815260040161198e906128cc565b60405180910390fd5b505050565b60006119bd8473ffffffffffffffffffffffffffffffffffffffff16611d01565b15611b26578373ffffffffffffffffffffffffffffffffffffffff1663150b7a026119e66114c7565b8786866040518563ffffffff1660e01b8152600401611a089493929190612843565b602060405180830381600087803b158015611a2257600080fd5b505af1925050508015611a5357506040513d601f19601f82011682018060405250810190611a50919061202f565b60015b611ad6573d8060008114611a83576040519150601f19603f3d011682016040523d82523d6000602084013e611a88565b606091505b50600081511415611ace576040517f08c379a0000000000000000000000000000000000000000000000000000000008152600401611ac5906128cc565b60405180910390fd5b805181602001fd5b63150b7a0260e01b7bffffffffffffffffffffffffffffffffffffffffffffffffffffffff1916817bffffffffffffffffffffffffffffffffffffffffffffffffffffffff191614915050611b2b565b600190505b949350505050565b600073ffffffffffffffffffffffffffffffffffffffff168273ffffffffffffffffffffffffffffffffffffffff161415611ba3576040517f08c379a0000000000000000000000000000000000000000000000000000000008152600401611b9a90612a6c565b60405180910390fd5b611bac8161145b565b15611bec576040517f08c379a0000000000000000000000000000000000000000000000000000000008152600401611be39061290c565b60405180910390fd5b611bf86000838361193c565b6001600660008473ffffffffffffffffffffffffffffffffffffffff1673ffffffffffffffffffffffffffffffffffffffff1681526020019081526020016000206000828254611c489190612c20565b92505081905550816005600083815260200190815260200160002060006101000a81548173ffffffffffffffffffffffffffffffffffffffff021916908373ffffffffffffffffffffffffffffffffffffffff160217905550808273ffffffffffffffffffffffffffffffffffffffff16600073ffffffffffffffffffffffffffffffffffffffff167fddf252ad1be2c89b69c2b068fc378daa952ba7f163c4a11628f55a4df523b3ef60405160405180910390a45050565b600080823b905060008111915050919050565b6000611d27611d2284612bb8565b612b87565b905082815260208101848484011115611d3f57600080fd5b611d4a848285612d8a565b509392505050565b600081359050611d6181612ee5565b92915050565b600081359050611d7681612efc565b92915050565b600081359050611d8b81612f13565b92915050565b600081359050611da081612f2a565b92915050565b600081519050611db581612f2a565b92915050565b600082601f830112611dcc57600080fd5b8135611ddc848260208601611d14565b91505092915050565b600081359050611df481612f41565b92915050565b600060208284031215611e0c57600080fd5b6000611e1a84828501611d52565b91505092915050565b600060208284031215611e3557600080fd5b6000611e4384828501611d67565b91505092915050565b60008060408385031215611e5f57600080fd5b6000611e6d85828601611d67565b9250506020611e7e85828601611de5565b9150509250929050565b60008060408385031215611e9b57600080fd5b6000611ea985828601611d52565b9250506020611eba85828601611d52565b9150509250929050565b600080600060608486031215611ed957600080fd5b6000611ee786828701611d52565b9350506020611ef886828701611d52565b9250506040611f0986828701611de5565b9150509250925092565b60008060008060808587031215611f2957600080fd5b6000611f3787828801611d52565b9450506020611f4887828801611d52565b9350506040611f5987828801611de5565b925050606085013567ffffffffffffffff811115611f7657600080fd5b611f8287828801611dbb565b91505092959194509250565b60008060408385031215611fa157600080fd5b6000611faf85828601611d52565b9250506020611fc085828601611d7c565b9150509250929050565b60008060408385031215611fdd57600080fd5b6000611feb85828601611d52565b9250506020611ffc85828601611de5565b9150509250929050565b60006020828403121561201857600080fd5b600061202684828501611d91565b91505092915050565b60006020828403121561204157600080fd5b600061204f84828501611da6565b91505092915050565b60006020828403121561206a57600080fd5b600061207884828501611de5565b91505092915050565b61208a81612d04565b82525050565b61209981612d28565b82525050565b60006120aa82612be8565b6120b48185612bfe565b93506120c4818560208601612d99565b6120cd81612ed4565b840191505092915050565b60006120e382612bf3565b6120ed8185612c0f565b93506120fd818560208601612d99565b61210681612ed4565b840191505092915050565b600061211e603283612c0f565b91507f4552433732313a207472616e7366657220746f206e6f6e20455243373231526560008301527f63656976657220696d706c656d656e74657200000000000000000000000000006020830152604082019050919050565b6000612184602683612c0f565b91507f4f776e61626c653a206e6577206f776e657220697320746865207a65726f206160008301527f64647265737300000000000000000000000000000000000000000000000000006020830152604082019050919050565b60006121ea601c83612c0f565b91507f4552433732313a20746f6b656e20616c7265616479206d696e746564000000006000830152602082019050919050565b600061222a602483612c0f565b91507f4552433732313a207472616e7366657220746f20746865207a65726f2061646460008301527f72657373000000000000000000000000000000000000000000000000000000006020830152604082019050919050565b6000612290601983612c0f565b91507f4552433732313a20617070726f766520746f2063616c6c6572000000000000006000830152602082019050919050565b60006122d0601f83612c0f565b91507f45746865722076616c75652073656e74206973206e6f7420636f7272656374006000830152602082019050919050565b6000612310602c83612c0f565b91507f4552433732313a206f70657261746f7220717565727920666f72206e6f6e657860008301527f697374656e7420746f6b656e00000000000000000000000000000000000000006020830152604082019050919050565b6000612376601a83612c0f565b91507f416d6f756e74206d757374206265206d6f7265207468616e20300000000000006000830152602082019050919050565b60006123b6603883612c0f565b91507f4552433732313a20617070726f76652063616c6c6572206973206e6f74206f7760008301527f6e6572206e6f7220617070726f76656420666f7220616c6c00000000000000006020830152604082019050919050565b600061241c602a83612c0f565b91507f4552433732313a2062616c616e636520717565727920666f7220746865207a6560008301527f726f2061646472657373000000000000000000000000000000000000000000006020830152604082019050919050565b6000612482602b83612c0f565b91507f596f75206d6179206e6f7420627579206d6f7265207468616e2032302057616960008301527f667573206174206f6e63650000000000000000000000000000000000000000006020830152604082019050919050565b60006124e8602983612c0f565b91507f4552433732313a206f776e657220717565727920666f72206e6f6e657869737460008301527f656e7420746f6b656e00000000000000000000000000000000000000000000006020830152604082019050919050565b600061254e601c83612c0f565b91507f45786365656473206d617820737570706c79206f6620576169667573000000006000830152602082019050919050565b600061258e602083612c0f565b91507f4552433732313a206d696e7420746f20746865207a65726f20616464726573736000830152602082019050919050565b60006125ce600e83612c0f565b91507f4e6f7420656e6f756768204554480000000000000000000000000000000000006000830152602082019050919050565b600061260e602c83612c0f565b91507f4552433732313a20617070726f76656420717565727920666f72206e6f6e657860008301527f697374656e7420746f6b656e00000000000000000000000000000000000000006020830152604082019050919050565b6000612674602083612c0f565b91507f4f776e61626c653a2063616c6c6572206973206e6f7420746865206f776e65726000830152602082019050919050565b60006126b4602983612c0f565b91507f4552433732313a207472616e73666572206f6620746f6b656e2074686174206960008301527f73206e6f74206f776e00000000000000000000000000000000000000000000006020830152604082019050919050565b600061271a602183612c0f565b91507f4552433732313a20617070726f76616c20746f2063757272656e74206f776e6560008301527f72000000000000000000000000000000000000000000000000000000000000006020830152604082019050919050565b6000612780603183612c0f565b91507f4552433732313a207472616e736665722063616c6c6572206973206e6f74206f60008301527f776e6572206e6f7220617070726f7665640000000000000000000000000000006020830152604082019050919050565b60006127e6601283612c0f565b91507f4e6f2045544820746f20576974686472617700000000000000000000000000006000830152602082019050919050565b61282281612d80565b82525050565b600060208201905061283d6000830184612081565b92915050565b60006080820190506128586000830187612081565b6128656020830186612081565b6128726040830185612819565b8181036060830152612884818461209f565b905095945050505050565b60006020820190506128a46000830184612090565b92915050565b600060208201905081810360008301526128c481846120d8565b905092915050565b600060208201905081810360008301526128e581612111565b9050919050565b6000602082019050818103600083015261290581612177565b9050919050565b60006020820190508181036000830152612925816121dd565b9050919050565b600060208201905081810360008301526129458161221d565b9050919050565b6000602082019050818103600083015261296581612283565b9050919050565b60006020820190508181036000830152612985816122c3565b9050919050565b600060208201905081810360008301526129a581612303565b9050919050565b600060208201905081810360008301526129c581612369565b9050919050565b600060208201905081810360008301526129e5816123a9565b9050919050565b60006020820190508181036000830152612a058161240f565b9050919050565b60006020820190508181036000830152612a2581612475565b9050919050565b60006020820190508181036000830152612a45816124db565b9050919050565b60006020820190508181036000830152612a6581612541565b9050919050565b60006020820190508181036000830152612a8581612581565b9050919050565b60006020820190508181036000830152612aa5816125c1565b9050919050565b60006020820190508181036000830152612ac581612601565b9050919050565b60006020820190508181036000830152612ae581612667565b9050919050565b60006020820190508181036000830152612b05816126a7565b9050919050565b60006020820190508181036000830152612b258161270d565b9050919050565b60006020820190508181036000830152612b4581612773565b9050919050565b60006020820190508181036000830152612b65816127d9565b9050919050565b6000602082019050612b816000830184612819565b92915050565b6000604051905081810181811067ffffffffffffffff82111715612bae57612bad612ea5565b5b8060405250919050565b600067ffffffffffffffff821115612bd357612bd2612ea5565b5b601f19601f8301169050602081019050919050565b600081519050919050565b600081519050919050565b600082825260208201905092915050565b600082825260208201905092915050565b6000612c2b82612d80565b9150612c3683612d80565b9250827fffffffffffffffffffffffffffffffffffffffffffffffffffffffffffffffff03821115612c6b57612c6a612e47565b5b828201905092915050565b6000612c8182612d80565b9150612c8c83612d80565b9250817fffffffffffffffffffffffffffffffffffffffffffffffffffffffffffffffff0483118215151615612cc557612cc4612e47565b5b828202905092915050565b6000612cdb82612d80565b9150612ce683612d80565b925082821015612cf957612cf8612e47565b5b828203905092915050565b6000612d0f82612d60565b9050919050565b6000612d2182612d60565b9050919050565b60008115159050919050565b60007fffffffff0000000000000000000000000000000000000000000000000000000082169050919050565b600073ffffffffffffffffffffffffffffffffffffffff82169050919050565b6000819050919050565b82818337600083830152505050565b60005b83811015612db7578082015181840152602081019050612d9c565b83811115612dc6576000848401525b50505050565b60006002820490506001821680612de457607f821691505b60208210811415612df857612df7612e76565b5b50919050565b6000612e0982612d80565b91507fffffffffffffffffffffffffffffffffffffffffffffffffffffffffffffffff821415612e3c57612e3b612e47565b5b600182019050919050565b7f4e487b7100000000000000000000000000000000000000000000000000000000600052601160045260246000fd5b7f4e487b7100000000000000000000000000000000000000000000000000000000600052602260045260246000fd5b7f4e487b7100000000000000000000000000000000000000000000000000000000600052604160045260246000fd5b6000601f19601f8301169050919050565b612eee81612d04565b8114612ef957600080fd5b50565b612f0581612d16565b8114612f1057600080fd5b50565b612f1c81612d28565b8114612f2757600080fd5b50565b612f3381612d34565b8114612f3e57600080fd5b50565b612f4a81612d80565b8114612f5557600080fd5b5056fea264697066735822122081e30c11275ab58e56559906344208554321c531fe2eb58f1109c588520690b464736f6c63430008000033",
  "linkReferences": {},
  "deployedLinkReferences": {}
}