{
  "_format": "hh-sol-artifact-1",
  "contractName": "ERC721",
  "sourceName": "contracts/tokens/ERC721.sol",
  "abi": [
    {
      "inputs": [
        {
          "internalType": "string",
          "name": "name_",
          "type": "string"
        },
        {
          "internalType": "string",
          "name": "symbol_",
          "type": "string"
        }
      ],
      "stateMutability": "nonpayable",
      "type": "constructor"
    },
    {
      "anonymous": false,
      "inputs": [
        {
          "indexed": true,
          "internalType": "address",
          "name": "owner",
          "type": "address"
        },
        {
          "indexed": true,
          "internalType": "address",
          "name": "approved",
          "type": "address"
        },
        {
          "indexed": true,
          "internalType": "uint256",
          "name": "tokenId",
          "type": "uint256"
        }
      ],
      "name": "Approval",
      "type": "event"
    },
    {
      "anonymous": false,
      "inputs": [
        {
          "indexed": true,
          "internalType": "address",
          "name": "owner",
          "type": "address"
        },
        {
          "indexed": true,
          "internalType": "address",
          "name": "operator",
          "type": "address"
        },
        {
          "indexed": false,
          "internalType": "bool",
          "name": "approved",
          "type": "bool"
        }
      ],
      "name": "ApprovalForAll",
      "type": "event"
    },
    {
      "anonymous": false,
      "inputs": [
        {
          "indexed": true,
          "internalType": "address",
          "name": "from",
          "type": "address"
        },
        {
          "indexed": true,
          "internalType": "address",
          "name": "to",
          "type": "address"
        },
        {
          "indexed": true,
          "internalType": "uint256",
          "name": "tokenId",
          "type": "uint256"
        }
      ],
      "name": "Transfer",
      "type": "event"
    },
    {
      "inputs": [
        {
          "internalType": "address",
          "name": "to",
          "type": "address"
        },
        {
          "internalType": "uint256",
          "name": "tokenId",
          "type": "uint256"
        }
      ],
      "name": "approve",
      "outputs": [],
      "stateMutability": "nonpayable",
      "type": "function"
    },
    {
      "inputs": [
        {
          "internalType": "address",
          "name": "owner",
          "type": "address"
        }
      ],
      "name": "balanceOf",
      "outputs": [
        {
          "internalType": "uint256",
          "name": "",
          "type": "uint256"
        }
      ],
      "stateMutability": "view",
      "type": "function"
    },
    {
      "inputs": [
        {
          "internalType": "uint256",
          "name": "tokenId",
          "type": "uint256"
        }
      ],
      "name": "getApproved",
      "outputs": [
        {
          "internalType": "address",
          "name": "",
          "type": "address"
        }
      ],
      "stateMutability": "view",
      "type": "function"
    },
    {
      "inputs": [
        {
          "internalType": "address",
          "name": "owner",
          "type": "address"
        },
        {
          "internalType": "address",
          "name": "operator",
          "type": "address"
        }
      ],
      "name": "isApprovedForAll",
      "outputs": [
        {
          "internalType": "bool",
          "name": "",
          "type": "bool"
        }
      ],
      "stateMutability": "view",
      "type": "function"
    },
    {
      "inputs": [],
      "name": "name",
      "outputs": [
        {
          "internalType": "string",
          "name": "",
          "type": "string"
        }
      ],
      "stateMutability": "view",
      "type": "function"
    },
    {
      "inputs": [
        {
          "internalType": "address",
          "name": "",
          "type": "address"
        },
        {
          "internalType": "address",
          "name": "",
          "type": "address"
        },
        {
          "internalType": "uint256",
          "name": "",
          "type": "uint256"
        },
        {
          "internalType": "bytes",
          "name": "",
          "type": "bytes"
        }
      ],
      "name": "onERC721Received",
      "outputs": [
        {
          "internalType": "bytes4",
          "name": "",
          "type": "bytes4"
        }
      ],
      "stateMutability": "nonpayable",
      "type": "function"
    },
    {
      "inputs": [
        {
          "internalType": "uint256",
          "name": "tokenId",
          "type": "uint256"
        }
      ],
      "name": "ownerOf",
      "outputs": [
        {
          "internalType": "address",
          "name": "",
          "type": "address"
        }
      ],
      "stateMutability": "view",
      "type": "function"
    },
    {
      "inputs": [
        {
          "internalType": "address",
          "name": "from",
          "type": "address"
        },
        {
          "internalType": "address",
          "name": "to",
          "type": "address"
        },
        {
          "internalType": "uint256",
          "name": "tokenId",
          "type": "uint256"
        }
      ],
      "name": "safeTransferFrom",
      "outputs": [],
      "stateMutability": "nonpayable",
      "type": "function"
    },
    {
      "inputs": [
        {
          "internalType": "address",
          "name": "from",
          "type": "address"
        },
        {
          "internalType": "address",
          "name": "to",
          "type": "address"
        },
        {
          "internalType": "uint256",
          "name": "tokenId",
          "type": "uint256"
        },
        {
          "internalType": "bytes",
          "name": "_data",
          "type": "bytes"
        }
      ],
      "name": "safeTransferFrom",
      "outputs": [],
      "stateMutability": "nonpayable",
      "type": "function"
    },
    {
      "inputs": [
        {
          "internalType": "address",
          "name": "operator",
          "type": "address"
        },
        {
          "internalType": "bool",
          "name": "approved",
          "type": "bool"
        }
      ],
      "name": "setApprovalForAll",
      "outputs": [],
      "stateMutability": "nonpayable",
      "type": "function"
    },
    {
      "inputs": [
        {
          "internalType": "bytes4",
          "name": "interfaceId",
          "type": "bytes4"
        }
      ],
      "name": "supportsInterface",
      "outputs": [
        {
          "internalType": "bool",
          "name": "",
          "type": "bool"
        }
      ],
      "stateMutability": "view",
      "type": "function"
    },
    {
      "inputs": [],
      "name": "symbol",
      "outputs": [
        {
          "internalType": "string",
          "name": "",
          "type": "string"
        }
      ],
      "stateMutability": "view",
      "type": "function"
    },
    {
      "inputs": [
        {
          "internalType": "uint256",
          "name": "tokenId",
          "type": "uint256"
        }
      ],
      "name": "tokenURI",
      "outputs": [
        {
          "internalType": "string",
          "name": "",
          "type": "string"
        }
      ],
      "stateMutability": "view",
      "type": "function"
    },
    {
      "inputs": [
        {
          "internalType": "address",
          "name": "from",
          "type": "address"
        },
        {
          "internalType": "address",
          "name": "to",
          "type": "address"
        },
        {
          "internalType": "uint256",
          "name": "tokenId",
          "type": "uint256"
        }
      ],
      "name": "transferFrom",
      "outputs": [],
      "stateMutability": "nonpayable",
      "type": "function"
    }
  ],
  "bytecode": "0x60806040523480156200001157600080fd5b50604051620027b4380380620027b4833981810160405281019062000037919062000193565b81600090805190602001906200004f92919062000071565b5080600190805190602001906200006892919062000071565b50505062000376565b8280546200007f906200029b565b90600052602060002090601f016020900481019282620000a35760008555620000ef565b82601f10620000be57805160ff1916838001178555620000ef565b82800160010185558215620000ef579182015b82811115620000ee578251825591602001919060010190620000d1565b5b509050620000fe919062000102565b5090565b5b808211156200011d57600081600090555060010162000103565b5090565b60006200013862000132846200022f565b62000206565b9050828152602081018484840111156200015157600080fd5b6200015e84828562000265565b509392505050565b600082601f8301126200017857600080fd5b81516200018a84826020860162000121565b91505092915050565b60008060408385031215620001a757600080fd5b600083015167ffffffffffffffff811115620001c257600080fd5b620001d08582860162000166565b925050602083015167ffffffffffffffff811115620001ee57600080fd5b620001fc8582860162000166565b9150509250929050565b60006200021262000225565b9050620002208282620002d1565b919050565b6000604051905090565b600067ffffffffffffffff8211156200024d576200024c62000336565b5b620002588262000365565b9050602081019050919050565b60005b838110156200028557808201518184015260208101905062000268565b8381111562000295576000848401525b50505050565b60006002820490506001821680620002b457607f821691505b60208210811415620002cb57620002ca62000307565b5b50919050565b620002dc8262000365565b810181811067ffffffffffffffff82111715620002fe57620002fd62000336565b5b80604052505050565b7f4e487b7100000000000000000000000000000000000000000000000000000000600052602260045260246000fd5b7f4e487b7100000000000000000000000000000000000000000000000000000000600052604160045260246000fd5b6000601f19601f8301169050919050565b61242e80620003866000396000f3fe608060405234801561001057600080fd5b50600436106100ea5760003560e01c80636352211e1161008c578063a22cb46511610066578063a22cb4651461026f578063b88d4fde1461028b578063c87b56dd146102a7578063e985e9c5146102d7576100ea565b80636352211e146101f157806370a082311461022157806395d89b4114610251576100ea565b8063095ea7b3116100c8578063095ea7b31461016d578063150b7a021461018957806323b872dd146101b957806342842e0e146101d5576100ea565b806301ffc9a7146100ef57806306fdde031461011f578063081812fc1461013d575b600080fd5b610109600480360381019061010491906116de565b610307565b6040516101169190611a67565b60405180910390f35b6101276103e9565b6040516101349190611a9d565b60405180910390f35b61015760048036038101906101529190611730565b61047b565b6040516101649190611a00565b60405180910390f35b610187600480360381019061018291906116a2565b610500565b005b6101a3600480360381019061019e91906115eb565b610618565b6040516101b09190611a82565b60405180910390f35b6101d360048036038101906101ce919061159c565b61062c565b005b6101ef60048036038101906101ea919061159c565b61068c565b005b61020b60048036038101906102069190611730565b6106ac565b6040516102189190611a00565b60405180910390f35b61023b60048036038101906102369190611537565b61075e565b6040516102489190611c3f565b60405180910390f35b610259610816565b6040516102669190611a9d565b60405180910390f35b61028960048036038101906102849190611666565b6108a8565b005b6102a560048036038101906102a091906115eb565b610a29565b005b6102c160048036038101906102bc9190611730565b610a8b565b6040516102ce9190611a9d565b60405180910390f35b6102f160048036038101906102ec9190611560565b610b32565b6040516102fe9190611a67565b60405180910390f35b60007f80ac58cd000000000000000000000000000000000000000000000000000000007bffffffffffffffffffffffffffffffffffffffffffffffffffffffff1916827bffffffffffffffffffffffffffffffffffffffffffffffffffffffff191614806103d257507f5b5e139f000000000000000000000000000000000000000000000000000000007bffffffffffffffffffffffffffffffffffffffffffffffffffffffff1916827bffffffffffffffffffffffffffffffffffffffffffffffffffffffff1916145b806103e257506103e182610bc6565b5b9050919050565b6060600080546103f890611e64565b80601f016020809104026020016040519081016040528092919081815260200182805461042490611e64565b80156104715780601f1061044657610100808354040283529160200191610471565b820191906000526020600020905b81548152906001019060200180831161045457829003601f168201915b5050505050905090565b600061048682610c30565b6104c5576040517f08c379a00000000000000000000000000000000000000000000000000000000081526004016104bc90611b9f565b60405180910390fd5b6004600083815260200190815260200160002060009054906101000a900473ffffffffffffffffffffffffffffffffffffffff169050919050565b600061050b826106ac565b90508073ffffffffffffffffffffffffffffffffffffffff168373ffffffffffffffffffffffffffffffffffffffff16141561057c576040517f08c379a000000000000000000000000000000000000000000000000000000000815260040161057390611bff565b60405180910390fd5b8073ffffffffffffffffffffffffffffffffffffffff1661059b610c9c565b73ffffffffffffffffffffffffffffffffffffffff1614806105ca57506105c9816105c4610c9c565b610b32565b5b610609576040517f08c379a000000000000000000000000000000000000000000000000000000000815260040161060090611b3f565b60405180910390fd5b6106138383610ca4565b505050565b600063150b7a0260e01b9050949350505050565b61063d610637610c9c565b82610d5d565b61067c576040517f08c379a000000000000000000000000000000000000000000000000000000000815260040161067390611c1f565b60405180910390fd5b610687838383610e3b565b505050565b6106a783838360405180602001604052806000815250610a29565b505050565b6000806002600084815260200190815260200160002060009054906101000a900473ffffffffffffffffffffffffffffffffffffffff169050600073ffffffffffffffffffffffffffffffffffffffff168173ffffffffffffffffffffffffffffffffffffffff161415610755576040517f08c379a000000000000000000000000000000000000000000000000000000000815260040161074c90611b7f565b60405180910390fd5b80915050919050565b60008073ffffffffffffffffffffffffffffffffffffffff168273ffffffffffffffffffffffffffffffffffffffff1614156107cf576040517f08c379a00000000000000000000000000000000000000000000000000000000081526004016107c690611b5f565b60405180910390fd5b600360008373ffffffffffffffffffffffffffffffffffffffff1673ffffffffffffffffffffffffffffffffffffffff168152602001908152602001600020549050919050565b60606001805461082590611e64565b80601f016020809104026020016040519081016040528092919081815260200182805461085190611e64565b801561089e5780601f106108735761010080835404028352916020019161089e565b820191906000526020600020905b81548152906001019060200180831161088157829003601f168201915b5050505050905090565b6108b0610c9c565b73ffffffffffffffffffffffffffffffffffffffff168273ffffffffffffffffffffffffffffffffffffffff16141561091e576040517f08c379a000000000000000000000000000000000000000000000000000000000815260040161091590611aff565b60405180910390fd5b806005600061092b610c9c565b73ffffffffffffffffffffffffffffffffffffffff1673ffffffffffffffffffffffffffffffffffffffff16815260200190815260200160002060008473ffffffffffffffffffffffffffffffffffffffff1673ffffffffffffffffffffffffffffffffffffffff16815260200190815260200160002060006101000a81548160ff0219169083151502179055508173ffffffffffffffffffffffffffffffffffffffff166109d8610c9c565b73ffffffffffffffffffffffffffffffffffffffff167f17307eab39ab6107e8899845ad3d59bd9653f200f220920489ca2b5937696c3183604051610a1d9190611a67565b60405180910390a35050565b610a3a610a34610c9c565b83610d5d565b610a79576040517f08c379a0000000000000000000000000000000000000000000000000000000008152600401610a7090611c1f565b60405180910390fd5b610a8584848484611097565b50505050565b6060610a9682610c30565b610ad5576040517f08c379a0000000000000000000000000000000000000000000000000000000008152600401610acc90611bdf565b60405180910390fd5b6000610adf6110f3565b90506000815111610aff5760405180602001604052806000815250610b2a565b80610b098461110a565b604051602001610b1a9291906119dc565b6040516020818303038152906040525b915050919050565b6000600560008473ffffffffffffffffffffffffffffffffffffffff1673ffffffffffffffffffffffffffffffffffffffff16815260200190815260200160002060008373ffffffffffffffffffffffffffffffffffffffff1673ffffffffffffffffffffffffffffffffffffffff16815260200190815260200160002060009054906101000a900460ff16905092915050565b60007f01ffc9a7000000000000000000000000000000000000000000000000000000007bffffffffffffffffffffffffffffffffffffffffffffffffffffffff1916827bffffffffffffffffffffffffffffffffffffffffffffffffffffffff1916149050919050565b60008073ffffffffffffffffffffffffffffffffffffffff166002600084815260200190815260200160002060009054906101000a900473ffffffffffffffffffffffffffffffffffffffff1673ffffffffffffffffffffffffffffffffffffffff1614159050919050565b600033905090565b816004600083815260200190815260200160002060006101000a81548173ffffffffffffffffffffffffffffffffffffffff021916908373ffffffffffffffffffffffffffffffffffffffff160217905550808273ffffffffffffffffffffffffffffffffffffffff16610d17836106ac565b73ffffffffffffffffffffffffffffffffffffffff167f8c5be1e5ebec7d5bd14f71427d1e84f3dd0314c0f7b2291e5b200ac8c7c3b92560405160405180910390a45050565b6000610d6882610c30565b610da7576040517f08c379a0000000000000000000000000000000000000000000000000000000008152600401610d9e90611b1f565b60405180910390fd5b6000610db2836106ac565b90508073ffffffffffffffffffffffffffffffffffffffff168473ffffffffffffffffffffffffffffffffffffffff161480610e2157508373ffffffffffffffffffffffffffffffffffffffff16610e098461047b565b73ffffffffffffffffffffffffffffffffffffffff16145b80610e325750610e318185610b32565b5b91505092915050565b8273ffffffffffffffffffffffffffffffffffffffff16610e5b826106ac565b73ffffffffffffffffffffffffffffffffffffffff1614610eb1576040517f08c379a0000000000000000000000000000000000000000000000000000000008152600401610ea890611bbf565b60405180910390fd5b600073ffffffffffffffffffffffffffffffffffffffff168273ffffffffffffffffffffffffffffffffffffffff161415610f21576040517f08c379a0000000000000000000000000000000000000000000000000000000008152600401610f1890611adf565b60405180910390fd5b610f2c8383836112b7565b610f37600082610ca4565b6001600360008573ffffffffffffffffffffffffffffffffffffffff1673ffffffffffffffffffffffffffffffffffffffff1681526020019081526020016000206000828254610f879190611d7a565b925050819055506001600360008473ffffffffffffffffffffffffffffffffffffffff1673ffffffffffffffffffffffffffffffffffffffff1681526020019081526020016000206000828254610fde9190611cf3565b92505081905550816002600083815260200190815260200160002060006101000a81548173ffffffffffffffffffffffffffffffffffffffff021916908373ffffffffffffffffffffffffffffffffffffffff160217905550808273ffffffffffffffffffffffffffffffffffffffff168473ffffffffffffffffffffffffffffffffffffffff167fddf252ad1be2c89b69c2b068fc378daa952ba7f163c4a11628f55a4df523b3ef60405160405180910390a4505050565b6110a2848484610e3b565b6110ae848484846112bc565b6110ed576040517f08c379a00000000000000000000000000000000000000000000000000000000081526004016110e490611abf565b60405180910390fd5b50505050565b606060405180602001604052806000815250905090565b60606000821415611152576040518060400160405280600181526020017f300000000000000000000000000000000000000000000000000000000000000081525090506112b2565b600082905060005b6000821461118457808061116d90611ec7565b915050600a8261117d9190611d49565b915061115a565b60008167ffffffffffffffff8111156111c6577f4e487b7100000000000000000000000000000000000000000000000000000000600052604160045260246000fd5b6040519080825280601f01601f1916602001820160405280156111f85781602001600182028036833780820191505090505b5090505b600085146112ab576001826112119190611d7a565b9150600a856112209190611f10565b603061122c9190611cf3565b60f81b818381518110611268577f4e487b7100000000000000000000000000000000000000000000000000000000600052603260045260246000fd5b60200101907effffffffffffffffffffffffffffffffffffffffffffffffffffffffffffff1916908160001a905350600a856112a49190611d49565b94506111fc565b8093505050505b919050565b505050565b60006112dd8473ffffffffffffffffffffffffffffffffffffffff16611453565b15611446578373ffffffffffffffffffffffffffffffffffffffff1663150b7a02611306610c9c565b8786866040518563ffffffff1660e01b81526004016113289493929190611a1b565b602060405180830381600087803b15801561134257600080fd5b505af192505050801561137357506040513d601f19601f820116820180604052508101906113709190611707565b60015b6113f6573d80600081146113a3576040519150601f19603f3d011682016040523d82523d6000602084013e6113a8565b606091505b506000815114156113ee576040517f08c379a00000000000000000000000000000000000000000000000000000000081526004016113e590611abf565b60405180910390fd5b805181602001fd5b63150b7a0260e01b7bffffffffffffffffffffffffffffffffffffffffffffffffffffffff1916817bffffffffffffffffffffffffffffffffffffffffffffffffffffffff19161491505061144b565b600190505b949350505050565b600080823b905060008111915050919050565b600061147961147484611c7f565b611c5a565b90508281526020810184848401111561149157600080fd5b61149c848285611e22565b509392505050565b6000813590506114b38161239c565b92915050565b6000813590506114c8816123b3565b92915050565b6000813590506114dd816123ca565b92915050565b6000815190506114f2816123ca565b92915050565b600082601f83011261150957600080fd5b8135611519848260208601611466565b91505092915050565b600081359050611531816123e1565b92915050565b60006020828403121561154957600080fd5b6000611557848285016114a4565b91505092915050565b6000806040838503121561157357600080fd5b6000611581858286016114a4565b9250506020611592858286016114a4565b9150509250929050565b6000806000606084860312156115b157600080fd5b60006115bf868287016114a4565b93505060206115d0868287016114a4565b92505060406115e186828701611522565b9150509250925092565b6000806000806080858703121561160157600080fd5b600061160f878288016114a4565b9450506020611620878288016114a4565b935050604061163187828801611522565b925050606085013567ffffffffffffffff81111561164e57600080fd5b61165a878288016114f8565b91505092959194509250565b6000806040838503121561167957600080fd5b6000611687858286016114a4565b9250506020611698858286016114b9565b9150509250929050565b600080604083850312156116b557600080fd5b60006116c3858286016114a4565b92505060206116d485828601611522565b9150509250929050565b6000602082840312156116f057600080fd5b60006116fe848285016114ce565b91505092915050565b60006020828403121561171957600080fd5b6000611727848285016114e3565b91505092915050565b60006020828403121561174257600080fd5b600061175084828501611522565b91505092915050565b61176281611dae565b82525050565b61177181611dc0565b82525050565b61178081611dcc565b82525050565b600061179182611cb0565b61179b8185611cc6565b93506117ab818560208601611e31565b6117b481611ffd565b840191505092915050565b60006117ca82611cbb565b6117d48185611cd7565b93506117e4818560208601611e31565b6117ed81611ffd565b840191505092915050565b600061180382611cbb565b61180d8185611ce8565b935061181d818560208601611e31565b80840191505092915050565b6000611836603283611cd7565b91506118418261200e565b604082019050919050565b6000611859602483611cd7565b91506118648261205d565b604082019050919050565b600061187c601983611cd7565b9150611887826120ac565b602082019050919050565b600061189f602c83611cd7565b91506118aa826120d5565b604082019050919050565b60006118c2603883611cd7565b91506118cd82612124565b604082019050919050565b60006118e5602a83611cd7565b91506118f082612173565b604082019050919050565b6000611908602983611cd7565b9150611913826121c2565b604082019050919050565b600061192b602c83611cd7565b915061193682612211565b604082019050919050565b600061194e602983611cd7565b915061195982612260565b604082019050919050565b6000611971602f83611cd7565b915061197c826122af565b604082019050919050565b6000611994602183611cd7565b915061199f826122fe565b604082019050919050565b60006119b7603183611cd7565b91506119c28261234d565b604082019050919050565b6119d681611e18565b82525050565b60006119e882856117f8565b91506119f482846117f8565b91508190509392505050565b6000602082019050611a156000830184611759565b92915050565b6000608082019050611a306000830187611759565b611a3d6020830186611759565b611a4a60408301856119cd565b8181036060830152611a5c8184611786565b905095945050505050565b6000602082019050611a7c6000830184611768565b92915050565b6000602082019050611a976000830184611777565b92915050565b60006020820190508181036000830152611ab781846117bf565b905092915050565b60006020820190508181036000830152611ad881611829565b9050919050565b60006020820190508181036000830152611af88161184c565b9050919050565b60006020820190508181036000830152611b188161186f565b9050919050565b60006020820190508181036000830152611b3881611892565b9050919050565b60006020820190508181036000830152611b58816118b5565b9050919050565b60006020820190508181036000830152611b78816118d8565b9050919050565b60006020820190508181036000830152611b98816118fb565b9050919050565b60006020820190508181036000830152611bb88161191e565b9050919050565b60006020820190508181036000830152611bd881611941565b9050919050565b60006020820190508181036000830152611bf881611964565b9050919050565b60006020820190508181036000830152611c1881611987565b9050919050565b60006020820190508181036000830152611c38816119aa565b9050919050565b6000602082019050611c5460008301846119cd565b92915050565b6000611c64611c75565b9050611c708282611e96565b919050565b6000604051905090565b600067ffffffffffffffff821115611c9a57611c99611fce565b5b611ca382611ffd565b9050602081019050919050565b600081519050919050565b600081519050919050565b600082825260208201905092915050565b600082825260208201905092915050565b600081905092915050565b6000611cfe82611e18565b9150611d0983611e18565b9250827fffffffffffffffffffffffffffffffffffffffffffffffffffffffffffffffff03821115611d3e57611d3d611f41565b5b828201905092915050565b6000611d5482611e18565b9150611d5f83611e18565b925082611d6f57611d6e611f70565b5b828204905092915050565b6000611d8582611e18565b9150611d9083611e18565b925082821015611da357611da2611f41565b5b828203905092915050565b6000611db982611df8565b9050919050565b60008115159050919050565b60007fffffffff0000000000000000000000000000000000000000000000000000000082169050919050565b600073ffffffffffffffffffffffffffffffffffffffff82169050919050565b6000819050919050565b82818337600083830152505050565b60005b83811015611e4f578082015181840152602081019050611e34565b83811115611e5e576000848401525b50505050565b60006002820490506001821680611e7c57607f821691505b60208210811415611e9057611e8f611f9f565b5b50919050565b611e9f82611ffd565b810181811067ffffffffffffffff82111715611ebe57611ebd611fce565b5b80604052505050565b6000611ed282611e18565b91507fffffffffffffffffffffffffffffffffffffffffffffffffffffffffffffffff821415611f0557611f04611f41565b5b600182019050919050565b6000611f1b82611e18565b9150611f2683611e18565b925082611f3657611f35611f70565b5b828206905092915050565b7f4e487b7100000000000000000000000000000000000000000000000000000000600052601160045260246000fd5b7f4e487b7100000000000000000000000000000000000000000000000000000000600052601260045260246000fd5b7f4e487b7100000000000000000000000000000000000000000000000000000000600052602260045260246000fd5b7f4e487b7100000000000000000000000000000000000000000000000000000000600052604160045260246000fd5b6000601f19601f8301169050919050565b7f4552433732313a207472616e7366657220746f206e6f6e20455243373231526560008201527f63656976657220696d706c656d656e7465720000000000000000000000000000602082015250565b7f4552433732313a207472616e7366657220746f20746865207a65726f2061646460008201527f7265737300000000000000000000000000000000000000000000000000000000602082015250565b7f4552433732313a20617070726f766520746f2063616c6c657200000000000000600082015250565b7f4552433732313a206f70657261746f7220717565727920666f72206e6f6e657860008201527f697374656e7420746f6b656e0000000000000000000000000000000000000000602082015250565b7f4552433732313a20617070726f76652063616c6c6572206973206e6f74206f7760008201527f6e6572206e6f7220617070726f76656420666f7220616c6c0000000000000000602082015250565b7f4552433732313a2062616c616e636520717565727920666f7220746865207a6560008201527f726f206164647265737300000000000000000000000000000000000000000000602082015250565b7f4552433732313a206f776e657220717565727920666f72206e6f6e657869737460008201527f656e7420746f6b656e0000000000000000000000000000000000000000000000602082015250565b7f4552433732313a20617070726f76656420717565727920666f72206e6f6e657860008201527f697374656e7420746f6b656e0000000000000000000000000000000000000000602082015250565b7f4552433732313a207472616e73666572206f6620746f6b656e2074686174206960008201527f73206e6f74206f776e0000000000000000000000000000000000000000000000602082015250565b7f4552433732314d657461646174613a2055524920717565727920666f72206e6f60008201527f6e6578697374656e7420746f6b656e0000000000000000000000000000000000602082015250565b7f4552433732313a20617070726f76616c20746f2063757272656e74206f776e6560008201527f7200000000000000000000000000000000000000000000000000000000000000602082015250565b7f4552433732313a207472616e736665722063616c6c6572206973206e6f74206f60008201527f776e6572206e6f7220617070726f766564000000000000000000000000000000602082015250565b6123a581611dae565b81146123b057600080fd5b50565b6123bc81611dc0565b81146123c757600080fd5b50565b6123d381611dcc565b81146123de57600080fd5b50565b6123ea81611e18565b81146123f557600080fd5b5056fea2646970667358221220f1d3928696dd86bd85a8a6a66d6ed12f694583ef8140a611073c098cde2e40a864736f6c63430008040033",
  "linkReferences": {},
  "deployedLinkReferences": {}
}