{
  "_format": "hh-sol-artifact-1",
  "contractName": "uwudropCollectionDynamic",
  "sourceName": "contracts/contracts/uwudropCollectionDynamic.sol",
  "abi": [
    {
      "anonymous": false,
      "inputs": [
        {
          "indexed": true,
          "internalType": "address",
          "name": "owner",
          "type": "address"
        },
        {
          "indexed": true,
          "internalType": "address",
          "name": "approved",
          "type": "address"
        },
        {
          "indexed": true,
          "internalType": "uint256",
          "name": "tokenId",
          "type": "uint256"
        }
      ],
      "name": "Approval",
      "type": "event"
    },
    {
      "anonymous": false,
      "inputs": [
        {
          "indexed": true,
          "internalType": "address",
          "name": "owner",
          "type": "address"
        },
        {
          "indexed": true,
          "internalType": "address",
          "name": "operator",
          "type": "address"
        },
        {
          "indexed": false,
          "internalType": "bool",
          "name": "approved",
          "type": "bool"
        }
      ],
      "name": "ApprovalForAll",
      "type": "event"
    },
    {
      "anonymous": false,
      "inputs": [
        {
          "indexed": false,
          "internalType": "uint256",
          "name": "newMaxSupply",
          "type": "uint256"
        },
        {
          "indexed": false,
          "internalType": "bytes32",
          "name": "newNFTDataRoot",
          "type": "bytes32"
        }
      ],
      "name": "CollectionUpdate",
      "type": "event"
    },
    {
      "anonymous": false,
      "inputs": [],
      "name": "Finalized",
      "type": "event"
    },
    {
      "anonymous": false,
      "inputs": [
        {
          "indexed": false,
          "internalType": "uint256",
          "name": "id",
          "type": "uint256"
        },
        {
          "indexed": false,
          "internalType": "string",
          "name": "newTokenURI",
          "type": "string"
        },
        {
          "indexed": false,
          "internalType": "uint256",
          "name": "price",
          "type": "uint256"
        },
        {
          "indexed": false,
          "internalType": "bool",
          "name": "privateSale",
          "type": "bool"
        },
        {
          "indexed": false,
          "internalType": "address",
          "name": "buyer",
          "type": "address"
        }
      ],
      "name": "Mint",
      "type": "event"
    },
    {
      "anonymous": false,
      "inputs": [
        {
          "indexed": true,
          "internalType": "address",
          "name": "previousOwner",
          "type": "address"
        },
        {
          "indexed": true,
          "internalType": "address",
          "name": "newOwner",
          "type": "address"
        }
      ],
      "name": "OwnershipTransferred",
      "type": "event"
    },
    {
      "anonymous": false,
      "inputs": [
        {
          "indexed": true,
          "internalType": "address",
          "name": "from",
          "type": "address"
        },
        {
          "indexed": true,
          "internalType": "address",
          "name": "to",
          "type": "address"
        },
        {
          "indexed": true,
          "internalType": "uint256",
          "name": "tokenId",
          "type": "uint256"
        }
      ],
      "name": "Transfer",
      "type": "event"
    },
    {
      "inputs": [
        {
          "internalType": "string",
          "name": "_name",
          "type": "string"
        },
        {
          "internalType": "string",
          "name": "_symbol",
          "type": "string"
        },
        {
          "internalType": "address",
          "name": "owner",
          "type": "address"
        },
        {
          "internalType": "address",
          "name": "_derivativeSourceNFT",
          "type": "address"
        }
      ],
      "name": "__uwudropCollection_init",
      "outputs": [],
      "stateMutability": "nonpayable",
      "type": "function"
    },
    {
      "inputs": [
        {
          "internalType": "address",
          "name": "newOwner",
          "type": "address"
        }
      ],
      "name": "adminOwnerChange",
      "outputs": [],
      "stateMutability": "nonpayable",
      "type": "function"
    },
    {
      "inputs": [
        {
          "internalType": "address",
          "name": "to",
          "type": "address"
        },
        {
          "internalType": "uint256",
          "name": "tokenId",
          "type": "uint256"
        }
      ],
      "name": "approve",
      "outputs": [],
      "stateMutability": "nonpayable",
      "type": "function"
    },
    {
      "inputs": [
        {
          "internalType": "address",
          "name": "owner",
          "type": "address"
        }
      ],
      "name": "balanceOf",
      "outputs": [
        {
          "internalType": "uint256",
          "name": "",
          "type": "uint256"
        }
      ],
      "stateMutability": "view",
      "type": "function"
    },
    {
      "inputs": [],
      "name": "derivativeSourceNFT",
      "outputs": [
        {
          "internalType": "address",
          "name": "",
          "type": "address"
        }
      ],
      "stateMutability": "view",
      "type": "function"
    },
    {
      "inputs": [],
      "name": "finalize",
      "outputs": [],
      "stateMutability": "nonpayable",
      "type": "function"
    },
    {
      "inputs": [],
      "name": "finalized",
      "outputs": [
        {
          "internalType": "bool",
          "name": "",
          "type": "bool"
        }
      ],
      "stateMutability": "view",
      "type": "function"
    },
    {
      "inputs": [
        {
          "internalType": "uint256",
          "name": "tokenId",
          "type": "uint256"
        }
      ],
      "name": "getApproved",
      "outputs": [
        {
          "internalType": "address",
          "name": "",
          "type": "address"
        }
      ],
      "stateMutability": "view",
      "type": "function"
    },
    {
      "inputs": [
        {
          "internalType": "uint256",
          "name": "",
          "type": "uint256"
        }
      ],
      "name": "getFeeBps",
      "outputs": [
        {
          "internalType": "uint256[]",
          "name": "feesInBasisPoints",
          "type": "uint256[]"
        }
      ],
      "stateMutability": "view",
      "type": "function"
    },
    {
      "inputs": [
        {
          "internalType": "uint256",
          "name": "",
          "type": "uint256"
        }
      ],
      "name": "getFeeRecipients",
      "outputs": [
        {
          "internalType": "address payable[]",
          "name": "recipients",
          "type": "address[]"
        }
      ],
      "stateMutability": "view",
      "type": "function"
    },
    {
      "inputs": [
        {
          "internalType": "uint256",
          "name": "",
          "type": "uint256"
        }
      ],
      "name": "getRoyalties",
      "outputs": [
        {
          "internalType": "address payable[]",
          "name": "recipients",
          "type": "address[]"
        },
        {
          "internalType": "uint256[]",
          "name": "feesInBasisPoints",
          "type": "uint256[]"
        }
      ],
      "stateMutability": "view",
      "type": "function"
    },
    {
      "inputs": [
        {
          "internalType": "uint256",
          "name": "",
          "type": "uint256"
        }
      ],
      "name": "getTokenCreatorPaymentAddress",
      "outputs": [
        {
          "internalType": "address payable",
          "name": "",
          "type": "address"
        }
      ],
      "stateMutability": "view",
      "type": "function"
    },
    {
      "inputs": [
        {
          "internalType": "address",
          "name": "owner",
          "type": "address"
        },
        {
          "internalType": "address",
          "name": "operator",
          "type": "address"
        }
      ],
      "name": "isApprovedForAll",
      "outputs": [
        {
          "internalType": "bool",
          "name": "",
          "type": "bool"
        }
      ],
      "stateMutability": "view",
      "type": "function"
    },
    {
      "inputs": [
        {
          "internalType": "uint256",
          "name": "id",
          "type": "uint256"
        },
        {
          "internalType": "string",
          "name": "newTokenURI",
          "type": "string"
        },
        {
          "internalType": "bool",
          "name": "privateSale",
          "type": "bool"
        },
        {
          "internalType": "bytes32[]",
          "name": "merkleProof",
          "type": "bytes32[]"
        }
      ],
      "name": "mint",
      "outputs": [],
      "stateMutability": "payable",
      "type": "function"
    },
    {
      "inputs": [],
      "name": "name",
      "outputs": [
        {
          "internalType": "string",
          "name": "",
          "type": "string"
        }
      ],
      "stateMutability": "view",
      "type": "function"
    },
    {
      "inputs": [],
      "name": "nftDataTreeRoot",
      "outputs": [
        {
          "internalType": "bytes32",
          "name": "",
          "type": "bytes32"
        }
      ],
      "stateMutability": "view",
      "type": "function"
    },
    {
      "inputs": [],
      "name": "owner",
      "outputs": [
        {
          "internalType": "address",
          "name": "",
          "type": "address"
        }
      ],
      "stateMutability": "view",
      "type": "function"
    },
    {
      "inputs": [
        {
          "internalType": "uint256",
          "name": "tokenId",
          "type": "uint256"
        }
      ],
      "name": "ownerOf",
      "outputs": [
        {
          "internalType": "address",
          "name": "",
          "type": "address"
        }
      ],
      "stateMutability": "view",
      "type": "function"
    },
    {
      "inputs": [],
      "name": "renounceOwnership",
      "outputs": [],
      "stateMutability": "nonpayable",
      "type": "function"
    },
    {
      "inputs": [
        {
          "internalType": "address",
          "name": "from",
          "type": "address"
        },
        {
          "internalType": "address",
          "name": "to",
          "type": "address"
        },
        {
          "internalType": "uint256",
          "name": "tokenId",
          "type": "uint256"
        }
      ],
      "name": "safeTransferFrom",
      "outputs": [],
      "stateMutability": "nonpayable",
      "type": "function"
    },
    {
      "inputs": [
        {
          "internalType": "address",
          "name": "from",
          "type": "address"
        },
        {
          "internalType": "address",
          "name": "to",
          "type": "address"
        },
        {
          "internalType": "uint256",
          "name": "tokenId",
          "type": "uint256"
        },
        {
          "internalType": "bytes",
          "name": "_data",
          "type": "bytes"
        }
      ],
      "name": "safeTransferFrom",
      "outputs": [],
      "stateMutability": "nonpayable",
      "type": "function"
    },
    {
      "inputs": [
        {
          "internalType": "address",
          "name": "operator",
          "type": "address"
        },
        {
          "internalType": "bool",
          "name": "approved",
          "type": "bool"
        }
      ],
      "name": "setApprovalForAll",
      "outputs": [],
      "stateMutability": "nonpayable",
      "type": "function"
    },
    {
      "inputs": [
        {
          "internalType": "uint256",
          "name": "royaltyInBasisPoints",
          "type": "uint256"
        }
      ],
      "name": "setRoyaltyInBasisPoints",
      "outputs": [],
      "stateMutability": "nonpayable",
      "type": "function"
    },
    {
      "inputs": [
        {
          "internalType": "address payable",
          "name": "tokenCreatorPaymentAddress",
          "type": "address"
        }
      ],
      "name": "setTokenCreatorPaymentAddress",
      "outputs": [],
      "stateMutability": "nonpayable",
      "type": "function"
    },
    {
      "inputs": [
        {
          "internalType": "bytes4",
          "name": "interfaceId",
          "type": "bytes4"
        }
      ],
      "name": "supportsInterface",
      "outputs": [
        {
          "internalType": "bool",
          "name": "",
          "type": "bool"
        }
      ],
      "stateMutability": "view",
      "type": "function"
    },
    {
      "inputs": [],
      "name": "symbol",
      "outputs": [
        {
          "internalType": "string",
          "name": "",
          "type": "string"
        }
      ],
      "stateMutability": "view",
      "type": "function"
    },
    {
      "inputs": [
        {
          "internalType": "uint256",
          "name": "",
          "type": "uint256"
        }
      ],
      "name": "tokenCreator",
      "outputs": [
        {
          "internalType": "address payable",
          "name": "",
          "type": "address"
        }
      ],
      "stateMutability": "view",
      "type": "function"
    },
    {
      "inputs": [
        {
          "internalType": "uint256",
          "name": "tokenId",
          "type": "uint256"
        }
      ],
      "name": "tokenURI",
      "outputs": [
        {
          "internalType": "string",
          "name": "",
          "type": "string"
        }
      ],
      "stateMutability": "view",
      "type": "function"
    },
    {
      "inputs": [
        {
          "internalType": "address",
          "name": "from",
          "type": "address"
        },
        {
          "internalType": "address",
          "name": "to",
          "type": "address"
        },
        {
          "internalType": "uint256",
          "name": "tokenId",
          "type": "uint256"
        }
      ],
      "name": "transferFrom",
      "outputs": [],
      "stateMutability": "nonpayable",
      "type": "function"
    },
    {
      "inputs": [
        {
          "internalType": "address",
          "name": "newOwner",
          "type": "address"
        }
      ],
      "name": "transferOwnership",
      "outputs": [],
      "stateMutability": "nonpayable",
      "type": "function"
    },
    {
      "inputs": [
        {
          "internalType": "uint256",
          "name": "newMaxSupply",
          "type": "uint256"
        },
        {
          "internalType": "bytes32",
          "name": "newNFTDataTreeRoot",
          "type": "bytes32"
        }
      ],
      "name": "update",
      "outputs": [],
      "stateMutability": "nonpayable",
      "type": "function"
    },
    {
      "inputs": [],
      "name": "uwudropFactory",
      "outputs": [
        {
          "internalType": "address",
          "name": "",
          "type": "address"
        }
      ],
      "stateMutability": "view",
      "type": "function"
    },
    {
      "inputs": [],
      "name": "version",
      "outputs": [
        {
          "internalType": "string",
          "name": "",
          "type": "string"
        }
      ],
      "stateMutability": "pure",
      "type": "function"
    },
    {
      "inputs": [],
      "name": "withdraw",
      "outputs": [],
      "stateMutability": "nonpayable",
      "type": "function"
    }
  ],
  "bytecode": "0x608060405261012c606d5534801561001657600080fd5b50615553806100266000396000f3fe6080604052600436106101f95760003560e01c80638da5cb5b1161010d578063b9c4d9fb116100a0578063d3b7576c1161006f578063d3b7576c14610725578063da00e6ed1461074e578063e985e9c514610777578063ec5f752e146107b4578063f2fde38b146107f1576101f9565b8063b9c4d9fb14610644578063bb3bafd614610681578063c76fdfb5146106bf578063c87b56dd146106e8576101f9565b8063a21cf396116100dc578063a21cf3961461059c578063a22cb465146105c7578063b3f05b97146105f0578063b88d4fde1461061b576101f9565b80638da5cb5b146104f257806395d89b411461051d5780639a417dc0146105485780639feb8cca14610571576101f9565b806342842e0e11610190578063555541231161015f578063555541231461041c5780636352211e1461043857806370a0823114610475578063715018a6146104b2578063781292d9146104c9576101f9565b806342842e0e1461038657806344fd8a01146103af5780634bb278f3146103da57806354fd4d50146103f1576101f9565b80630ebd4c7f116101cc5780630ebd4c7f146102cc57806323b872dd146103095780633ccfd60b1461033257806340c1a06414610349576101f9565b806301ffc9a7146101fe57806306fdde031461023b578063081812fc14610266578063095ea7b3146102a3575b600080fd5b34801561020a57600080fd5b5061022560048036038101906102209190613aea565b61081a565b6040516102329190614461565b60405180910390f35b34801561024757600080fd5b506102506109d4565b60405161025d9190614497565b60405180910390f35b34801561027257600080fd5b5061028d60048036038101906102889190613bcf565b610a66565b60405161029a9190614364565b60405180910390f35b3480156102af57600080fd5b506102ca60048036038101906102c59190613aae565b610aeb565b005b3480156102d857600080fd5b506102f360048036038101906102ee9190613bcf565b610c03565b604051610300919061443f565b60405180910390f35b34801561031557600080fd5b50610330600480360381019061032b91906139a8565b610cc5565b005b34801561033e57600080fd5b50610347610d25565b005b34801561035557600080fd5b50610370600480360381019061036b9190613bcf565b610dab565b60405161037d919061437f565b60405180910390f35b34801561039257600080fd5b506103ad60048036038101906103a891906139a8565b610dbc565b005b3480156103bb57600080fd5b506103c4610ddc565b6040516103d19190614364565b60405180910390f35b3480156103e657600080fd5b506103ef610e02565b005b3480156103fd57600080fd5b50610406610ecf565b6040516104139190614497565b60405180910390f35b61043660048036038101906104319190613c34565b610f0c565b005b34801561044457600080fd5b5061045f600480360381019061045a9190613bcf565b61108f565b60405161046c9190614364565b60405180910390f35b34801561048157600080fd5b5061049c600480360381019061049791906138f1565b611141565b6040516104a991906147f9565b60405180910390f35b3480156104be57600080fd5b506104c76111f9565b005b3480156104d557600080fd5b506104f060048036038101906104eb9190613b3c565b611336565b005b3480156104fe57600080fd5b506105076113d9565b6040516105149190614364565b60405180910390f35b34801561052957600080fd5b50610532611403565b60405161053f9190614497565b60405180910390f35b34801561055457600080fd5b5061056f600480360381019061056a91906138f1565b611495565b005b34801561057d57600080fd5b50610586611531565b6040516105939190614364565b60405180910390f35b3480156105a857600080fd5b506105b1611557565b6040516105be919061447c565b60405180910390f35b3480156105d357600080fd5b506105ee60048036038101906105e99190613a72565b61155d565b005b3480156105fc57600080fd5b506106056116de565b6040516106129190614461565b60405180910390f35b34801561062757600080fd5b50610642600480360381019061063d91906139f7565b6116f1565b005b34801561065057600080fd5b5061066b60048036038101906106669190613bcf565b611753565b60405161067891906143e6565b60405180910390f35b34801561068d57600080fd5b506106a860048036038101906106a39190613bcf565b611863565b6040516106b6929190614408565b60405180910390f35b3480156106cb57600080fd5b506106e660048036038101906106e19190613bcf565b611a2f565b005b3480156106f457600080fd5b5061070f600480360381019061070a9190613bcf565b611ab5565b60405161071c9190614497565b60405180910390f35b34801561073157600080fd5b5061074c60048036038101906107479190613bf8565b611bf3565b005b34801561075a57600080fd5b5061077560048036038101906107709190613943565b611d03565b005b34801561078357600080fd5b5061079e6004803603810190610799919061396c565b611dc3565b6040516107ab9190614461565b60405180910390f35b3480156107c057600080fd5b506107db60048036038101906107d69190613bcf565b611e57565b6040516107e8919061437f565b60405180910390f35b3480156107fd57600080fd5b50610818600480360381019061081391906138f1565b611e83565b005b60007fbb3bafd6000000000000000000000000000000000000000000000000000000007bffffffffffffffffffffffffffffffffffffffffffffffffffffffff1916827bffffffffffffffffffffffffffffffffffffffffffffffffffffffff191614806108e557507f40c1a064000000000000000000000000000000000000000000000000000000007bffffffffffffffffffffffffffffffffffffffffffffffffffffffff1916827bffffffffffffffffffffffffffffffffffffffffffffffffffffffff1916145b8061094d57507fec5f752e000000000000000000000000000000000000000000000000000000007bffffffffffffffffffffffffffffffffffffffffffffffffffffffff1916827bffffffffffffffffffffffffffffffffffffffffffffffffffffffff1916145b806109b557507fb7799584000000000000000000000000000000000000000000000000000000007bffffffffffffffffffffffffffffffffffffffffffffffffffffffff1916827bffffffffffffffffffffffffffffffffffffffffffffffffffffffff1916145b156109c357600190506109cf565b6109cc8261202f565b90505b919050565b6060606580546109e390614bf1565b80601f0160208091040260200160405190810160405280929190818152602001828054610a0f90614bf1565b8015610a5c5780601f10610a3157610100808354040283529160200191610a5c565b820191906000526020600020905b815481529060010190602001808311610a3f57829003601f168201915b5050505050905090565b6000610a7182612111565b610ab0576040517f08c379a0000000000000000000000000000000000000000000000000000000008152600401610aa7906146b9565b60405180910390fd5b6069600083815260200190815260200160002060009054906101000a900473ffffffffffffffffffffffffffffffffffffffff169050919050565b6000610af68261108f565b90508073ffffffffffffffffffffffffffffffffffffffff168373ffffffffffffffffffffffffffffffffffffffff161415610b67576040517f08c379a0000000000000000000000000000000000000000000000000000000008152600401610b5e90614759565b60405180910390fd5b8073ffffffffffffffffffffffffffffffffffffffff16610b8661217d565b73ffffffffffffffffffffffffffffffffffffffff161480610bb55750610bb481610baf61217d565b611dc3565b5b610bf4576040517f08c379a0000000000000000000000000000000000000000000000000000000008152600401610beb906145d9565b60405180910390fd5b610bfe8383612185565b505050565b6060600167ffffffffffffffff811115610c46577f4e487b7100000000000000000000000000000000000000000000000000000000600052604160045260246000fd5b604051908082528060200260200182016040528015610c745781602001602082028036833780820191505090505b509050606d5481600081518110610cb4577f4e487b7100000000000000000000000000000000000000000000000000000000600052603260045260246000fd5b602002602001018181525050919050565b610cd6610cd061217d565b8261223e565b610d15576040517f08c379a0000000000000000000000000000000000000000000000000000000008152600401610d0c90614779565b60405180910390fd5b610d2083838361231c565b505050565b610d2d61217d565b73ffffffffffffffffffffffffffffffffffffffff16610d4b6113d9565b73ffffffffffffffffffffffffffffffffffffffff1614610da1576040517f08c379a0000000000000000000000000000000000000000000000000000000008152600401610d98906146f9565b60405180910390fd5b610da9612578565b565b6000610db56113d9565b9050919050565b610dd7838383604051806020016040528060008152506116f1565b505050565b606f60009054906101000a900473ffffffffffffffffffffffffffffffffffffffff1681565b610e0a61217d565b73ffffffffffffffffffffffffffffffffffffffff16610e286113d9565b73ffffffffffffffffffffffffffffffffffffffff1614610e7e576040517f08c379a0000000000000000000000000000000000000000000000000000000008152600401610e75906146f9565b60405180910390fd5b6001607060146101000a81548160ff021916908315150217905550610ea1612600565b7f6823b073d48d6e3a7d385eeb601452d680e74bb46afe3255a7d778f3a9b1768160405160405180910390a1565b60606040518060400160405280600681526020017f76312e302e300000000000000000000000000000000000000000000000000000815250905090565b610f1584612111565b610f54576040517f08c379a0000000000000000000000000000000000000000000000000000000008152600401610f4b906146d9565b60405180910390fd5b6000606c5490506000801b811415610fa1576040517f08c379a0000000000000000000000000000000000000000000000000000000008152600401610f9890614799565b60405180910390fd5b60008315610fad573390505b600086863484604051602001610fc6949392919061431a565b604051602081830303815290604052805190602001209050610fe98484836126b8565b611028576040517f08c379a000000000000000000000000000000000000000000000000000000000815260040161101f906145b9565b60405180910390fd5b6110323388612794565b60008651141561104757611046878761285e565b5b7fe9929c9a0578f79751467706abc7f13ba382bcdc7cc0a4d320e9da663885e01f878734888660405161107e95949392919061483d565b60405180910390a150505050505050565b6000806067600084815260200190815260200160002060009054906101000a900473ffffffffffffffffffffffffffffffffffffffff169050600073ffffffffffffffffffffffffffffffffffffffff168173ffffffffffffffffffffffffffffffffffffffff161415611138576040517f08c379a000000000000000000000000000000000000000000000000000000000815260040161112f90614619565b60405180910390fd5b80915050919050565b60008073ffffffffffffffffffffffffffffffffffffffff168273ffffffffffffffffffffffffffffffffffffffff1614156111b2576040517f08c379a00000000000000000000000000000000000000000000000000000000081526004016111a9906145f9565b60405180910390fd5b606860008373ffffffffffffffffffffffffffffffffffffffff1673ffffffffffffffffffffffffffffffffffffffff168152602001908152602001600020549050919050565b61120161217d565b73ffffffffffffffffffffffffffffffffffffffff1661121f6113d9565b73ffffffffffffffffffffffffffffffffffffffff1614611275576040517f08c379a000000000000000000000000000000000000000000000000000000000815260040161126c906146f9565b60405180910390fd5b600073ffffffffffffffffffffffffffffffffffffffff16603360009054906101000a900473ffffffffffffffffffffffffffffffffffffffff1673ffffffffffffffffffffffffffffffffffffffff167f8be0079c531659141344cd1fd0a4f28419497f9722a3daafe3b4186f6b6457e060405160405180910390a36000603360006101000a81548173ffffffffffffffffffffffffffffffffffffffff021916908373ffffffffffffffffffffffffffffffffffffffff160217905550565b61133e6128d2565b61134884846129bb565b61135182611e83565b33606e60006101000a81548173ffffffffffffffffffffffffffffffffffffffff021916908373ffffffffffffffffffffffffffffffffffffffff16021790555080606f60006101000a81548173ffffffffffffffffffffffffffffffffffffffff021916908373ffffffffffffffffffffffffffffffffffffffff16021790555050505050565b6000603360009054906101000a900473ffffffffffffffffffffffffffffffffffffffff16905090565b60606066805461141290614bf1565b80601f016020809104026020016040519081016040528092919081815260200182805461143e90614bf1565b801561148b5780601f106114605761010080835404028352916020019161148b565b820191906000526020600020905b81548152906001019060200180831161146e57829003601f168201915b5050505050905090565b606e60009054906101000a900473ffffffffffffffffffffffffffffffffffffffff1673ffffffffffffffffffffffffffffffffffffffff163373ffffffffffffffffffffffffffffffffffffffff1614611525576040517f08c379a000000000000000000000000000000000000000000000000000000000815260040161151c906147b9565b60405180910390fd5b61152e81611e83565b50565b606e60009054906101000a900473ffffffffffffffffffffffffffffffffffffffff1681565b606c5481565b61156561217d565b73ffffffffffffffffffffffffffffffffffffffff168273ffffffffffffffffffffffffffffffffffffffff1614156115d3576040517f08c379a00000000000000000000000000000000000000000000000000000000081526004016115ca90614539565b60405180910390fd5b80606a60006115e061217d565b73ffffffffffffffffffffffffffffffffffffffff1673ffffffffffffffffffffffffffffffffffffffff16815260200190815260200160002060008473ffffffffffffffffffffffffffffffffffffffff1673ffffffffffffffffffffffffffffffffffffffff16815260200190815260200160002060006101000a81548160ff0219169083151502179055508173ffffffffffffffffffffffffffffffffffffffff1661168d61217d565b73ffffffffffffffffffffffffffffffffffffffff167f17307eab39ab6107e8899845ad3d59bd9653f200f220920489ca2b5937696c31836040516116d29190614461565b60405180910390a35050565b607060149054906101000a900460ff1681565b6117026116fc61217d565b8361223e565b611741576040517f08c379a000000000000000000000000000000000000000000000000000000000815260040161173890614779565b60405180910390fd5b61174d84848484612aa0565b50505050565b6060600167ffffffffffffffff811115611796577f4e487b7100000000000000000000000000000000000000000000000000000000600052604160045260246000fd5b6040519080825280602002602001820160405280156117c45781602001602082028036833780820191505090505b509050607060009054906101000a900473ffffffffffffffffffffffffffffffffffffffff1681600081518110611824577f4e487b7100000000000000000000000000000000000000000000000000000000600052603260045260246000fd5b602002602001019073ffffffffffffffffffffffffffffffffffffffff16908173ffffffffffffffffffffffffffffffffffffffff1681525050919050565b606080600167ffffffffffffffff8111156118a7577f4e487b7100000000000000000000000000000000000000000000000000000000600052604160045260246000fd5b6040519080825280602002602001820160405280156118d55781602001602082028036833780820191505090505b509150607060009054906101000a900473ffffffffffffffffffffffffffffffffffffffff1682600081518110611935577f4e487b7100000000000000000000000000000000000000000000000000000000600052603260045260246000fd5b602002602001019073ffffffffffffffffffffffffffffffffffffffff16908173ffffffffffffffffffffffffffffffffffffffff1681525050600167ffffffffffffffff8111156119b0577f4e487b7100000000000000000000000000000000000000000000000000000000600052604160045260246000fd5b6040519080825280602002602001820160405280156119de5781602001602082028036833780820191505090505b509050606d5481600081518110611a1e577f4e487b7100000000000000000000000000000000000000000000000000000000600052603260045260246000fd5b602002602001018181525050915091565b611a3761217d565b73ffffffffffffffffffffffffffffffffffffffff16611a556113d9565b73ffffffffffffffffffffffffffffffffffffffff1614611aab576040517f08c379a0000000000000000000000000000000000000000000000000000000008152600401611aa2906146f9565b60405180910390fd5b80606d8190555050565b6060611ac082612111565b611aff576040517f08c379a0000000000000000000000000000000000000000000000000000000008152600401611af690614699565b60405180910390fd5b6000606b60008481526020019081526020016000208054611b1f90614bf1565b80601f0160208091040260200160405190810160405280929190818152602001828054611b4b90614bf1565b8015611b985780601f10611b6d57610100808354040283529160200191611b98565b820191906000526020600020905b815481529060010190602001808311611b7b57829003601f168201915b505050505090506000611ba9612afc565b9050600082511115611be0578082604051602001611bc89291906142e1565b60405160208183030381529060405292505050611bee565b611be984612b13565b925050505b919050565b611bfb61217d565b73ffffffffffffffffffffffffffffffffffffffff16611c196113d9565b73ffffffffffffffffffffffffffffffffffffffff1614611c6f576040517f08c379a0000000000000000000000000000000000000000000000000000000008152600401611c66906146f9565b60405180910390fd5b607060149054906101000a900460ff1615611cbf576040517f08c379a0000000000000000000000000000000000000000000000000000000008152600401611cb6906147d9565b60405180910390fd5b80606c819055507f62a91f78e82091d998a99af4db3494371662c71dc76aeeeee6fdc0f36a2119998282604051611cf7929190614814565b60405180910390a15050565b611d0b61217d565b73ffffffffffffffffffffffffffffffffffffffff16611d296113d9565b73ffffffffffffffffffffffffffffffffffffffff1614611d7f576040517f08c379a0000000000000000000000000000000000000000000000000000000008152600401611d76906146f9565b60405180910390fd5b80607060006101000a81548173ffffffffffffffffffffffffffffffffffffffff021916908373ffffffffffffffffffffffffffffffffffffffff16021790555050565b6000606a60008473ffffffffffffffffffffffffffffffffffffffff1673ffffffffffffffffffffffffffffffffffffffff16815260200190815260200160002060008373ffffffffffffffffffffffffffffffffffffffff1673ffffffffffffffffffffffffffffffffffffffff16815260200190815260200160002060009054906101000a900460ff16905092915050565b6000607060009054906101000a900473ffffffffffffffffffffffffffffffffffffffff169050919050565b611e8b61217d565b73ffffffffffffffffffffffffffffffffffffffff16611ea96113d9565b73ffffffffffffffffffffffffffffffffffffffff1614611eff576040517f08c379a0000000000000000000000000000000000000000000000000000000008152600401611ef6906146f9565b60405180910390fd5b600073ffffffffffffffffffffffffffffffffffffffff168173ffffffffffffffffffffffffffffffffffffffff161415611f6f576040517f08c379a0000000000000000000000000000000000000000000000000000000008152600401611f66906144d9565b60405180910390fd5b8073ffffffffffffffffffffffffffffffffffffffff16603360009054906101000a900473ffffffffffffffffffffffffffffffffffffffff1673ffffffffffffffffffffffffffffffffffffffff167f8be0079c531659141344cd1fd0a4f28419497f9722a3daafe3b4186f6b6457e060405160405180910390a380603360006101000a81548173ffffffffffffffffffffffffffffffffffffffff021916908373ffffffffffffffffffffffffffffffffffffffff16021790555050565b60007f80ac58cd000000000000000000000000000000000000000000000000000000007bffffffffffffffffffffffffffffffffffffffffffffffffffffffff1916827bffffffffffffffffffffffffffffffffffffffffffffffffffffffff191614806120fa57507f5b5e139f000000000000000000000000000000000000000000000000000000007bffffffffffffffffffffffffffffffffffffffffffffffffffffffff1916827bffffffffffffffffffffffffffffffffffffffffffffffffffffffff1916145b8061210a575061210982612bba565b5b9050919050565b60008073ffffffffffffffffffffffffffffffffffffffff166067600084815260200190815260200160002060009054906101000a900473ffffffffffffffffffffffffffffffffffffffff1673ffffffffffffffffffffffffffffffffffffffff1614159050919050565b600033905090565b816069600083815260200190815260200160002060006101000a81548173ffffffffffffffffffffffffffffffffffffffff021916908373ffffffffffffffffffffffffffffffffffffffff160217905550808273ffffffffffffffffffffffffffffffffffffffff166121f88361108f565b73ffffffffffffffffffffffffffffffffffffffff167f8c5be1e5ebec7d5bd14f71427d1e84f3dd0314c0f7b2291e5b200ac8c7c3b92560405160405180910390a45050565b600061224982612111565b612288576040517f08c379a000000000000000000000000000000000000000000000000000000000815260040161227f90614599565b60405180910390fd5b60006122938361108f565b90508073ffffffffffffffffffffffffffffffffffffffff168473ffffffffffffffffffffffffffffffffffffffff16148061230257508373ffffffffffffffffffffffffffffffffffffffff166122ea84610a66565b73ffffffffffffffffffffffffffffffffffffffff16145b8061231357506123128185611dc3565b5b91505092915050565b8273ffffffffffffffffffffffffffffffffffffffff1661233c8261108f565b73ffffffffffffffffffffffffffffffffffffffff1614612392576040517f08c379a000000000000000000000000000000000000000000000000000000000815260040161238990614719565b60405180910390fd5b600073ffffffffffffffffffffffffffffffffffffffff168273ffffffffffffffffffffffffffffffffffffffff161415612402576040517f08c379a00000000000000000000000000000000000000000000000000000000081526004016123f990614519565b60405180910390fd5b61240d838383612c24565b612418600082612185565b6001606860008573ffffffffffffffffffffffffffffffffffffffff1673ffffffffffffffffffffffffffffffffffffffff16815260200190815260200160002060008282546124689190614aeb565b925050819055506001606860008473ffffffffffffffffffffffffffffffffffffffff1673ffffffffffffffffffffffffffffffffffffffff16815260200190815260200160002060008282546124bf9190614a0a565b92505081905550816067600083815260200190815260200160002060006101000a81548173ffffffffffffffffffffffffffffffffffffffff021916908373ffffffffffffffffffffffffffffffffffffffff160217905550808273ffffffffffffffffffffffffffffffffffffffff168473ffffffffffffffffffffffffffffffffffffffff167fddf252ad1be2c89b69c2b068fc378daa952ba7f163c4a11628f55a4df523b3ef60405160405180910390a4505050565b60004790506125c06103e86103de836125919190614a91565b61259b9190614a60565b3373ffffffffffffffffffffffffffffffffffffffff16612c2990919063ffffffff16565b6125fd4773354a70969f0b4a4c994403051a81c2ca45db361573ffffffffffffffffffffffffffffffffffffffff16612c2990919063ffffffff16565b50565b600061260a612d1d565b73ffffffffffffffffffffffffffffffffffffffff1663da5257166040518163ffffffff1660e01b815260040160206040518083038186803b15801561264f57600080fd5b505afa158015612663573d6000803e3d6000fd5b505050506040513d601f19601f82011682018060405250810190612687919061391a565b905060007fa3f0ad74e5423aebfd80d3ef4346578335a9a72aeaee59ff6cb3582b35133d5060001b90508181555050565b60008082905060005b8551811015612786576000868281518110612705577f4e487b7100000000000000000000000000000000000000000000000000000000600052603260045260246000fd5b602002602001015190508083116127465782816040516020016127299291906142b5565b604051602081830303815290604052805190602001209250612772565b80836040516020016127599291906142b5565b6040516020818303038152906040528051906020012092505b50808061277e90614c54565b9150506126c1565b508381149150509392505050565b6000600167ffffffffffffffff8111156127d7577f4e487b7100000000000000000000000000000000000000000000000000000000600052604160045260246000fd5b6040519080825280602002602001820160405280156128055781602001602082028036833780820191505090505b5090508181600081518110612843577f4e487b7100000000000000000000000000000000000000000000000000000000600052603260045260246000fd5b6020026020010181815250506128598382612d4e565b505050565b61286782612111565b6128a6576040517f08c379a000000000000000000000000000000000000000000000000000000000815260040161289d90614639565b60405180910390fd5b80606b600084815260200190815260200160002090805190602001906128cd929190613640565b505050565b600060019054906101000a900460ff16806128f8575060008054906101000a900460ff16155b612937576040517f08c379a000000000000000000000000000000000000000000000000000000000815260040161292e90614659565b60405180910390fd5b60008060019054906101000a900460ff161590508015612987576001600060016101000a81548160ff02191690831515021790555060016000806101000a81548160ff0219169083151502179055505b61298f612f85565b61299761305e565b80156129b85760008060016101000a81548160ff0219169083151502179055505b50565b600060019054906101000a900460ff16806129e1575060008054906101000a900460ff16155b612a20576040517f08c379a0000000000000000000000000000000000000000000000000000000008152600401612a1790614659565b60405180910390fd5b60008060019054906101000a900460ff161590508015612a70576001600060016101000a81548160ff02191690831515021790555060016000806101000a81548160ff0219169083151502179055505b612a7a83836131e0565b8015612a9b5760008060016101000a81548160ff0219169083151502179055505b505050565b612aab84848461231c565b612ab7848484846132e9565b612af6576040517f08c379a0000000000000000000000000000000000000000000000000000000008152600401612aed906144b9565b60405180910390fd5b50505050565b606060405180602001604052806000815250905090565b6060612b1e82612111565b612b5d576040517f08c379a0000000000000000000000000000000000000000000000000000000008152600401612b5490614739565b60405180910390fd5b6000612b67612afc565b90506000815111612b875760405180602001604052806000815250612bb2565b80612b9184613480565b604051602001612ba29291906142e1565b6040516020818303038152906040525b915050919050565b60007f01ffc9a7000000000000000000000000000000000000000000000000000000007bffffffffffffffffffffffffffffffffffffffffffffffffffffffff1916827bffffffffffffffffffffffffffffffffffffffffffffffffffffffff1916149050919050565b505050565b80471015612c6c576040517f08c379a0000000000000000000000000000000000000000000000000000000008152600401612c6390614579565b60405180910390fd5b60008273ffffffffffffffffffffffffffffffffffffffff1682604051612c9290614305565b60006040518083038185875af1925050503d8060008114612ccf576040519150601f19603f3d011682016040523d82523d6000602084013e612cd4565b606091505b5050905080612d18576040517f08c379a0000000000000000000000000000000000000000000000000000000008152600401612d0f90614559565b60405180910390fd5b505050565b6000807fa3f0ad74e5423aebfd80d3ef4346578335a9a72aeaee59ff6cb3582b35133d5060001b9050805491505090565b600073ffffffffffffffffffffffffffffffffffffffff168273ffffffffffffffffffffffffffffffffffffffff161415612dbe576040517f08c379a0000000000000000000000000000000000000000000000000000000008152600401612db590614679565b60405180910390fd5b60008151905080606860008573ffffffffffffffffffffffffffffffffffffffff1673ffffffffffffffffffffffffffffffffffffffff1681526020019081526020016000206000828254612e139190614a0a565b9250508190555060005b81811015612f7f576000838281518110612e60577f4e487b7100000000000000000000000000000000000000000000000000000000600052603260045260246000fd5b60200260200101519050612e7381612111565b15612eb3576040517f08c379a0000000000000000000000000000000000000000000000000000000008152600401612eaa906144f9565b60405180910390fd5b612ebf60008683612c24565b846067600083815260200190815260200160002060006101000a81548173ffffffffffffffffffffffffffffffffffffffff021916908373ffffffffffffffffffffffffffffffffffffffff160217905550808573ffffffffffffffffffffffffffffffffffffffff16600073ffffffffffffffffffffffffffffffffffffffff167fddf252ad1be2c89b69c2b068fc378daa952ba7f163c4a11628f55a4df523b3ef60405160405180910390a45080612f7890614c54565b9050612e1d565b50505050565b600060019054906101000a900460ff1680612fab575060008054906101000a900460ff16155b612fea576040517f08c379a0000000000000000000000000000000000000000000000000000000008152600401612fe190614659565b60405180910390fd5b60008060019054906101000a900460ff16159050801561303a576001600060016101000a81548160ff02191690831515021790555060016000806101000a81548160ff0219169083151502179055505b801561305b5760008060016101000a81548160ff0219169083151502179055505b50565b600060019054906101000a900460ff1680613084575060008054906101000a900460ff16155b6130c3576040517f08c379a00000000000000000000000000000000000000000000000000000000081526004016130ba90614659565b60405180910390fd5b60008060019054906101000a900460ff161590508015613113576001600060016101000a81548160ff02191690831515021790555060016000806101000a81548160ff0219169083151502179055505b600061311d61217d565b905080603360006101000a81548173ffffffffffffffffffffffffffffffffffffffff021916908373ffffffffffffffffffffffffffffffffffffffff1602179055508073ffffffffffffffffffffffffffffffffffffffff16600073ffffffffffffffffffffffffffffffffffffffff167f8be0079c531659141344cd1fd0a4f28419497f9722a3daafe3b4186f6b6457e060405160405180910390a35080156131dd5760008060016101000a81548160ff0219169083151502179055505b50565b600060019054906101000a900460ff1680613206575060008054906101000a900460ff16155b613245576040517f08c379a000000000000000000000000000000000000000000000000000000000815260040161323c90614659565b60405180910390fd5b60008060019054906101000a900460ff161590508015613295576001600060016101000a81548160ff02191690831515021790555060016000806101000a81548160ff0219169083151502179055505b82606590805190602001906132ab929190613640565b5081606690805190602001906132c2929190613640565b5080156132e45760008060016101000a81548160ff0219169083151502179055505b505050565b600061330a8473ffffffffffffffffffffffffffffffffffffffff1661362d565b15613473578373ffffffffffffffffffffffffffffffffffffffff1663150b7a0261333361217d565b8786866040518563ffffffff1660e01b8152600401613355949392919061439a565b602060405180830381600087803b15801561336f57600080fd5b505af19250505080156133a057506040513d601f19601f8201168201806040525081019061339d9190613b13565b60015b613423573d80600081146133d0576040519150601f19603f3d011682016040523d82523d6000602084013e6133d5565b606091505b5060008151141561341b576040517f08c379a0000000000000000000000000000000000000000000000000000000008152600401613412906144b9565b60405180910390fd5b805181602001fd5b63150b7a0260e01b7bffffffffffffffffffffffffffffffffffffffffffffffffffffffff1916817bffffffffffffffffffffffffffffffffffffffffffffffffffffffff191614915050613478565b600190505b949350505050565b606060008214156134c8576040518060400160405280600181526020017f30000000000000000000000000000000000000000000000000000000000000008152509050613628565b600082905060005b600082146134fa5780806134e390614c54565b915050600a826134f39190614a60565b91506134d0565b60008167ffffffffffffffff81111561353c577f4e487b7100000000000000000000000000000000000000000000000000000000600052604160045260246000fd5b6040519080825280601f01601f19166020018201604052801561356e5781602001600182028036833780820191505090505b5090505b60008514613621576001826135879190614aeb565b9150600a856135969190614cd5565b60306135a29190614a0a565b60f81b8183815181106135de577f4e487b7100000000000000000000000000000000000000000000000000000000600052603260045260246000fd5b60200101907effffffffffffffffffffffffffffffffffffffffffffffffffffffffffffff1916908160001a905350600a8561361a9190614a60565b9450613572565b8093505050505b919050565b600080823b905060008111915050919050565b82805461364c90614bf1565b90600052602060002090601f01602090048101928261366e57600085556136b5565b82601f1061368757805160ff19168380011785556136b5565b828001600101855582156136b5579182015b828111156136b4578251825591602001919060010190613699565b5b5090506136c291906136c6565b5090565b5b808211156136df5760008160009055506001016136c7565b5090565b60006136f66136f1846148bc565b614897565b9050808382526020820190508285602086028201111561371557600080fd5b60005b85811015613745578161372b8882613849565b845260208401935060208301925050600181019050613718565b5050509392505050565b600061376261375d846148e8565b614897565b90508281526020810184848401111561377a57600080fd5b613785848285614baf565b509392505050565b60006137a061379b84614919565b614897565b9050828152602081018484840111156137b857600080fd5b6137c3848285614baf565b509392505050565b6000813590506137da81615493565b92915050565b6000815190506137ef81615493565b92915050565b600081359050613804816154aa565b92915050565b600082601f83011261381b57600080fd5b813561382b8482602086016136e3565b91505092915050565b600081359050613843816154c1565b92915050565b600081359050613858816154d8565b92915050565b60008135905061386d816154ef565b92915050565b600081519050613882816154ef565b92915050565b600082601f83011261389957600080fd5b81356138a984826020860161374f565b91505092915050565b600082601f8301126138c357600080fd5b81356138d384826020860161378d565b91505092915050565b6000813590506138eb81615506565b92915050565b60006020828403121561390357600080fd5b6000613911848285016137cb565b91505092915050565b60006020828403121561392c57600080fd5b600061393a848285016137e0565b91505092915050565b60006020828403121561395557600080fd5b6000613963848285016137f5565b91505092915050565b6000806040838503121561397f57600080fd5b600061398d858286016137cb565b925050602061399e858286016137cb565b9150509250929050565b6000806000606084860312156139bd57600080fd5b60006139cb868287016137cb565b93505060206139dc868287016137cb565b92505060406139ed868287016138dc565b9150509250925092565b60008060008060808587031215613a0d57600080fd5b6000613a1b878288016137cb565b9450506020613a2c878288016137cb565b9350506040613a3d878288016138dc565b925050606085013567ffffffffffffffff811115613a5a57600080fd5b613a6687828801613888565b91505092959194509250565b60008060408385031215613a8557600080fd5b6000613a93858286016137cb565b9250506020613aa485828601613834565b9150509250929050565b60008060408385031215613ac157600080fd5b6000613acf858286016137cb565b9250506020613ae0858286016138dc565b9150509250929050565b600060208284031215613afc57600080fd5b6000613b0a8482850161385e565b91505092915050565b600060208284031215613b2557600080fd5b6000613b3384828501613873565b91505092915050565b60008060008060808587031215613b5257600080fd5b600085013567ffffffffffffffff811115613b6c57600080fd5b613b78878288016138b2565b945050602085013567ffffffffffffffff811115613b9557600080fd5b613ba1878288016138b2565b9350506040613bb2878288016137cb565b9250506060613bc3878288016137cb565b91505092959194509250565b600060208284031215613be157600080fd5b6000613bef848285016138dc565b91505092915050565b60008060408385031215613c0b57600080fd5b6000613c19858286016138dc565b9250506020613c2a85828601613849565b9150509250929050565b60008060008060808587031215613c4a57600080fd5b6000613c58878288016138dc565b945050602085013567ffffffffffffffff811115613c7557600080fd5b613c81878288016138b2565b9350506040613c9287828801613834565b925050606085013567ffffffffffffffff811115613caf57600080fd5b613cbb8782880161380a565b91505092959194509250565b6000613cd38383613cf7565b60208301905092915050565b6000613ceb8383614280565b60208301905092915050565b613d0081614b31565b82525050565b613d0f81614b31565b82525050565b613d1e81614b1f565b82525050565b613d35613d3082614b1f565b614c9d565b82525050565b6000613d468261496a565b613d5081856149b0565b9350613d5b8361494a565b8060005b83811015613d8c578151613d738882613cc7565b9750613d7e83614996565b925050600181019050613d5f565b5085935050505092915050565b6000613da482614975565b613dae81856149c1565b9350613db98361495a565b8060005b83811015613dea578151613dd18882613cdf565b9750613ddc836149a3565b925050600181019050613dbd565b5085935050505092915050565b613e0081614b43565b82525050565b613e0f81614b4f565b82525050565b613e26613e2182614b4f565b614caf565b82525050565b6000613e3782614980565b613e4181856149d2565b9350613e51818560208601614bbe565b613e5a81614dc2565b840191505092915050565b6000613e708261498b565b613e7a81856149ee565b9350613e8a818560208601614bbe565b613e9381614dc2565b840191505092915050565b6000613ea98261498b565b613eb381856149ff565b9350613ec3818560208601614bbe565b80840191505092915050565b6000613edc6032836149ee565b9150613ee782614de0565b604082019050919050565b6000613eff6026836149ee565b9150613f0a82614e2f565b604082019050919050565b6000613f22601c836149ee565b9150613f2d82614e7e565b602082019050919050565b6000613f456024836149ee565b9150613f5082614ea7565b604082019050919050565b6000613f686019836149ee565b9150613f7382614ef6565b602082019050919050565b6000613f8b603a836149ee565b9150613f9682614f1f565b604082019050919050565b6000613fae601d836149ee565b9150613fb982614f6e565b602082019050919050565b6000613fd1602c836149ee565b9150613fdc82614f97565b604082019050919050565b6000613ff46021836149ee565b9150613fff82614fe6565b604082019050919050565b60006140176038836149ee565b915061402282615035565b604082019050919050565b600061403a602a836149ee565b915061404582615084565b604082019050919050565b600061405d6029836149ee565b9150614068826150d3565b604082019050919050565b6000614080602e836149ee565b915061408b82615122565b604082019050919050565b60006140a3602e836149ee565b91506140ae82615171565b604082019050919050565b60006140c66020836149ee565b91506140d1826151c0565b602082019050919050565b60006140e96031836149ee565b91506140f4826151e9565b604082019050919050565b600061410c602c836149ee565b915061411782615238565b604082019050919050565b600061412f6011836149ee565b915061413a82615287565b602082019050919050565b60006141526020836149ee565b915061415d826152b0565b602082019050919050565b60006141756029836149ee565b9150614180826152d9565b604082019050919050565b6000614198602f836149ee565b91506141a382615328565b604082019050919050565b60006141bb6021836149ee565b91506141c682615377565b604082019050919050565b60006141de6000836149e3565b91506141e9826153c6565b600082019050919050565b60006142016031836149ee565b915061420c826153c9565b604082019050919050565b60006142246019836149ee565b915061422f82615418565b602082019050919050565b6000614247600b836149ee565b915061425282615441565b602082019050919050565b600061426a6009836149ee565b91506142758261546a565b602082019050919050565b61428981614ba5565b82525050565b61429881614ba5565b82525050565b6142af6142aa82614ba5565b614ccb565b82525050565b60006142c18285613e15565b6020820191506142d18284613e15565b6020820191508190509392505050565b60006142ed8285613e9e565b91506142f98284613e9e565b91508190509392505050565b6000614310826141d1565b9150819050919050565b6000614326828761429e565b6020820191506143368286613e9e565b9150614342828561429e565b6020820191506143528284613d24565b60148201915081905095945050505050565b60006020820190506143796000830184613d15565b92915050565b60006020820190506143946000830184613d06565b92915050565b60006080820190506143af6000830187613d15565b6143bc6020830186613d15565b6143c9604083018561428f565b81810360608301526143db8184613e2c565b905095945050505050565b600060208201905081810360008301526144008184613d3b565b905092915050565b600060408201905081810360008301526144228185613d3b565b905081810360208301526144368184613d99565b90509392505050565b600060208201905081810360008301526144598184613d99565b905092915050565b60006020820190506144766000830184613df7565b92915050565b60006020820190506144916000830184613e06565b92915050565b600060208201905081810360008301526144b18184613e65565b905092915050565b600060208201905081810360008301526144d281613ecf565b9050919050565b600060208201905081810360008301526144f281613ef2565b9050919050565b6000602082019050818103600083015261451281613f15565b9050919050565b6000602082019050818103600083015261453281613f38565b9050919050565b6000602082019050818103600083015261455281613f5b565b9050919050565b6000602082019050818103600083015261457281613f7e565b9050919050565b6000602082019050818103600083015261459281613fa1565b9050919050565b600060208201905081810360008301526145b281613fc4565b9050919050565b600060208201905081810360008301526145d281613fe7565b9050919050565b600060208201905081810360008301526145f28161400a565b9050919050565b600060208201905081810360008301526146128161402d565b9050919050565b6000602082019050818103600083015261463281614050565b9050919050565b6000602082019050818103600083015261465281614073565b9050919050565b6000602082019050818103600083015261467281614096565b9050919050565b60006020820190508181036000830152614692816140b9565b9050919050565b600060208201905081810360008301526146b2816140dc565b9050919050565b600060208201905081810360008301526146d2816140ff565b9050919050565b600060208201905081810360008301526146f281614122565b9050919050565b6000602082019050818103600083015261471281614145565b9050919050565b6000602082019050818103600083015261473281614168565b9050919050565b600060208201905081810360008301526147528161418b565b9050919050565b60006020820190508181036000830152614772816141ae565b9050919050565b60006020820190508181036000830152614792816141f4565b9050919050565b600060208201905081810360008301526147b281614217565b9050919050565b600060208201905081810360008301526147d28161423a565b9050919050565b600060208201905081810360008301526147f28161425d565b9050919050565b600060208201905061480e600083018461428f565b92915050565b6000604082019050614829600083018561428f565b6148366020830184613e06565b9392505050565b600060a082019050614852600083018861428f565b81810360208301526148648187613e65565b9050614873604083018661428f565b6148806060830185613df7565b61488d6080830184613d15565b9695505050505050565b60006148a16148b2565b90506148ad8282614c23565b919050565b6000604051905090565b600067ffffffffffffffff8211156148d7576148d6614d93565b5b602082029050602081019050919050565b600067ffffffffffffffff82111561490357614902614d93565b5b61490c82614dc2565b9050602081019050919050565b600067ffffffffffffffff82111561493457614933614d93565b5b61493d82614dc2565b9050602081019050919050565b6000819050602082019050919050565b6000819050602082019050919050565b600081519050919050565b600081519050919050565b600081519050919050565b600081519050919050565b6000602082019050919050565b6000602082019050919050565b600082825260208201905092915050565b600082825260208201905092915050565b600082825260208201905092915050565b600081905092915050565b600082825260208201905092915050565b600081905092915050565b6000614a1582614ba5565b9150614a2083614ba5565b9250827fffffffffffffffffffffffffffffffffffffffffffffffffffffffffffffffff03821115614a5557614a54614d06565b5b828201905092915050565b6000614a6b82614ba5565b9150614a7683614ba5565b925082614a8657614a85614d35565b5b828204905092915050565b6000614a9c82614ba5565b9150614aa783614ba5565b9250817fffffffffffffffffffffffffffffffffffffffffffffffffffffffffffffffff0483118215151615614ae057614adf614d06565b5b828202905092915050565b6000614af682614ba5565b9150614b0183614ba5565b925082821015614b1457614b13614d06565b5b828203905092915050565b6000614b2a82614b85565b9050919050565b6000614b3c82614b85565b9050919050565b60008115159050919050565b6000819050919050565b60007fffffffff0000000000000000000000000000000000000000000000000000000082169050919050565b600073ffffffffffffffffffffffffffffffffffffffff82169050919050565b6000819050919050565b82818337600083830152505050565b60005b83811015614bdc578082015181840152602081019050614bc1565b83811115614beb576000848401525b50505050565b60006002820490506001821680614c0957607f821691505b60208210811415614c1d57614c1c614d64565b5b50919050565b614c2c82614dc2565b810181811067ffffffffffffffff82111715614c4b57614c4a614d93565b5b80604052505050565b6000614c5f82614ba5565b91507fffffffffffffffffffffffffffffffffffffffffffffffffffffffffffffffff821415614c9257614c91614d06565b5b600182019050919050565b6000614ca882614cb9565b9050919050565b6000819050919050565b6000614cc482614dd3565b9050919050565b6000819050919050565b6000614ce082614ba5565b9150614ceb83614ba5565b925082614cfb57614cfa614d35565b5b828206905092915050565b7f4e487b7100000000000000000000000000000000000000000000000000000000600052601160045260246000fd5b7f4e487b7100000000000000000000000000000000000000000000000000000000600052601260045260246000fd5b7f4e487b7100000000000000000000000000000000000000000000000000000000600052602260045260246000fd5b7f4e487b7100000000000000000000000000000000000000000000000000000000600052604160045260246000fd5b6000601f19601f8301169050919050565b60008160601b9050919050565b7f4552433732313a207472616e7366657220746f206e6f6e20455243373231526560008201527f63656976657220696d706c656d656e7465720000000000000000000000000000602082015250565b7f4f776e61626c653a206e6577206f776e657220697320746865207a65726f206160008201527f6464726573730000000000000000000000000000000000000000000000000000602082015250565b7f4552433732313a20746f6b656e20616c7265616479206d696e74656400000000600082015250565b7f4552433732313a207472616e7366657220746f20746865207a65726f2061646460008201527f7265737300000000000000000000000000000000000000000000000000000000602082015250565b7f4552433732313a20617070726f766520746f2063616c6c657200000000000000600082015250565b7f416464726573733a20756e61626c6520746f2073656e642076616c75652c207260008201527f6563697069656e74206d61792068617665207265766572746564000000000000602082015250565b7f416464726573733a20696e73756666696369656e742062616c616e6365000000600082015250565b7f4552433732313a206f70657261746f7220717565727920666f72206e6f6e657860008201527f697374656e7420746f6b656e0000000000000000000000000000000000000000602082015250565b7f4d65726b6c654469737472696275746f723a20496e76616c69642070726f6f6660008201527f2e00000000000000000000000000000000000000000000000000000000000000602082015250565b7f4552433732313a20617070726f76652063616c6c6572206973206e6f74206f7760008201527f6e6572206e6f7220617070726f76656420666f7220616c6c0000000000000000602082015250565b7f4552433732313a2062616c616e636520717565727920666f7220746865207a6560008201527f726f206164647265737300000000000000000000000000000000000000000000602082015250565b7f4552433732313a206f776e657220717565727920666f72206e6f6e657869737460008201527f656e7420746f6b656e0000000000000000000000000000000000000000000000602082015250565b7f45524337323155524953746f726167653a2055524920736574206f66206e6f6e60008201527f6578697374656e7420746f6b656e000000000000000000000000000000000000602082015250565b7f496e697469616c697a61626c653a20636f6e747261637420697320616c72656160008201527f647920696e697469616c697a6564000000000000000000000000000000000000602082015250565b7f4552433732313a206d696e7420746f20746865207a65726f2061646472657373600082015250565b7f45524337323155524953746f726167653a2055524920717565727920666f722060008201527f6e6f6e6578697374656e7420746f6b656e000000000000000000000000000000602082015250565b7f4552433732313a20617070726f76656420717565727920666f72206e6f6e657860008201527f697374656e7420746f6b656e0000000000000000000000000000000000000000602082015250565b7f416c726561647920707572636861736564000000000000000000000000000000600082015250565b7f4f776e61626c653a2063616c6c6572206973206e6f7420746865206f776e6572600082015250565b7f4552433732313a207472616e73666572206f6620746f6b656e2074686174206960008201527f73206e6f74206f776e0000000000000000000000000000000000000000000000602082015250565b7f4552433732314d657461646174613a2055524920717565727920666f72206e6f60008201527f6e6578697374656e7420746f6b656e0000000000000000000000000000000000602082015250565b7f4552433732313a20617070726f76616c20746f2063757272656e74206f776e6560008201527f7200000000000000000000000000000000000000000000000000000000000000602082015250565b50565b7f4552433732313a207472616e736665722063616c6c6572206973206e6f74206f60008201527f776e6572206e6f7220617070726f766564000000000000000000000000000000602082015250565b7f4461746120526f6f74206e6f7420696e697469616c697a656400000000000000600082015250565b7f4e6f7420666163746f7279000000000000000000000000000000000000000000600082015250565b7f46696e616c697a65640000000000000000000000000000000000000000000000600082015250565b61549c81614b1f565b81146154a757600080fd5b50565b6154b381614b31565b81146154be57600080fd5b50565b6154ca81614b43565b81146154d557600080fd5b50565b6154e181614b4f565b81146154ec57600080fd5b50565b6154f881614b59565b811461550357600080fd5b50565b61550f81614ba5565b811461551a57600080fd5b5056fea2646970667358221220c0272f6cb3aec40754db18d8d00b3d5fc3c512659c45fd6e587c175142f5210f64736f6c63430008040033",
  "linkReferences": {},
  "deployedLinkReferences": {}
}