{
  "_format": "hh-sol-artifact-1",
  "contractName": "uwuLoot",
  "sourceName": "contracts/contracts/uwuLoot.sol",
  "abi": [
    {
      "inputs": [
        {
          "internalType": "address",
          "name": "nft_",
          "type": "address"
        },
        {
          "internalType": "bytes32",
          "name": "merkleRoot_",
          "type": "bytes32"
        }
      ],
      "stateMutability": "nonpayable",
      "type": "constructor"
    },
    {
      "inputs": [
        {
          "internalType": "address",
          "name": "who",
          "type": "address"
        }
      ],
      "name": "allTokenIdsHeldBy",
      "outputs": [
        {
          "internalType": "uint256[]",
          "name": "",
          "type": "uint256[]"
        }
      ],
      "stateMutability": "view",
      "type": "function"
    },
    {
      "inputs": [
        {
          "internalType": "address",
          "name": "who",
          "type": "address"
        }
      ],
      "name": "allTokenTimestampsHeldBy",
      "outputs": [
        {
          "internalType": "uint256[]",
          "name": "",
          "type": "uint256[]"
        }
      ],
      "stateMutability": "view",
      "type": "function"
    },
    {
      "inputs": [
        {
          "internalType": "uint256",
          "name": "",
          "type": "uint256"
        }
      ],
      "name": "backgrounds",
      "outputs": [
        {
          "internalType": "string",
          "name": "",
          "type": "string"
        }
      ],
      "stateMutability": "view",
      "type": "function"
    },
    {
      "inputs": [],
      "name": "dataMerkleRoot",
      "outputs": [
        {
          "internalType": "bytes32",
          "name": "",
          "type": "bytes32"
        }
      ],
      "stateMutability": "view",
      "type": "function"
    },
    {
      "inputs": [
        {
          "internalType": "uint256",
          "name": "",
          "type": "uint256"
        }
      ],
      "name": "eyes",
      "outputs": [
        {
          "internalType": "string",
          "name": "",
          "type": "string"
        }
      ],
      "stateMutability": "view",
      "type": "function"
    },
    {
      "inputs": [
        {
          "internalType": "uint256",
          "name": "tokenId",
          "type": "uint256"
        }
      ],
      "name": "getAllLoot",
      "outputs": [
        {
          "internalType": "string[]",
          "name": "",
          "type": "string[]"
        }
      ],
      "stateMutability": "view",
      "type": "function"
    },
    {
      "inputs": [
        {
          "internalType": "uint256",
          "name": "tokenId",
          "type": "uint256"
        }
      ],
      "name": "getAllLootWithExtras",
      "outputs": [
        {
          "internalType": "string[]",
          "name": "",
          "type": "string[]"
        }
      ],
      "stateMutability": "view",
      "type": "function"
    },
    {
      "inputs": [
        {
          "internalType": "uint256",
          "name": "tokenId",
          "type": "uint256"
        }
      ],
      "name": "getAllRegistryIndexes",
      "outputs": [
        {
          "internalType": "uint256[]",
          "name": "",
          "type": "uint256[]"
        }
      ],
      "stateMutability": "view",
      "type": "function"
    },
    {
      "inputs": [
        {
          "internalType": "uint256",
          "name": "tokenId",
          "type": "uint256"
        }
      ],
      "name": "getBackground",
      "outputs": [
        {
          "internalType": "string",
          "name": "",
          "type": "string"
        }
      ],
      "stateMutability": "view",
      "type": "function"
    },
    {
      "inputs": [
        {
          "internalType": "uint256",
          "name": "tokenId",
          "type": "uint256"
        }
      ],
      "name": "getEyes",
      "outputs": [
        {
          "internalType": "string",
          "name": "",
          "type": "string"
        }
      ],
      "stateMutability": "view",
      "type": "function"
    },
    {
      "inputs": [
        {
          "internalType": "uint256",
          "name": "tokenId",
          "type": "uint256"
        }
      ],
      "name": "getHair",
      "outputs": [
        {
          "internalType": "string",
          "name": "",
          "type": "string"
        }
      ],
      "stateMutability": "view",
      "type": "function"
    },
    {
      "inputs": [
        {
          "internalType": "uint256",
          "name": "tokenId",
          "type": "uint256"
        }
      ],
      "name": "getHats",
      "outputs": [
        {
          "internalType": "string",
          "name": "",
          "type": "string"
        }
      ],
      "stateMutability": "view",
      "type": "function"
    },
    {
      "inputs": [
        {
          "internalType": "uint256",
          "name": "tokenId",
          "type": "uint256"
        }
      ],
      "name": "getLeftAccessory",
      "outputs": [
        {
          "internalType": "string",
          "name": "",
          "type": "string"
        }
      ],
      "stateMutability": "view",
      "type": "function"
    },
    {
      "inputs": [
        {
          "internalType": "uint256",
          "name": "tokenId",
          "type": "uint256"
        }
      ],
      "name": "getMouth",
      "outputs": [
        {
          "internalType": "string",
          "name": "",
          "type": "string"
        }
      ],
      "stateMutability": "view",
      "type": "function"
    },
    {
      "inputs": [
        {
          "internalType": "uint256",
          "name": "tokenId",
          "type": "uint256"
        }
      ],
      "name": "getOutfit",
      "outputs": [
        {
          "internalType": "string",
          "name": "",
          "type": "string"
        }
      ],
      "stateMutability": "view",
      "type": "function"
    },
    {
      "inputs": [
        {
          "internalType": "uint256",
          "name": "tokenId",
          "type": "uint256"
        }
      ],
      "name": "getRightAccessory",
      "outputs": [
        {
          "internalType": "string",
          "name": "",
          "type": "string"
        }
      ],
      "stateMutability": "view",
      "type": "function"
    },
    {
      "inputs": [
        {
          "internalType": "uint256",
          "name": "tokenId",
          "type": "uint256"
        }
      ],
      "name": "getSkin",
      "outputs": [
        {
          "internalType": "string",
          "name": "",
          "type": "string"
        }
      ],
      "stateMutability": "view",
      "type": "function"
    },
    {
      "inputs": [
        {
          "internalType": "uint256",
          "name": "",
          "type": "uint256"
        }
      ],
      "name": "hairs",
      "outputs": [
        {
          "internalType": "string",
          "name": "",
          "type": "string"
        }
      ],
      "stateMutability": "view",
      "type": "function"
    },
    {
      "inputs": [
        {
          "internalType": "uint256",
          "name": "",
          "type": "uint256"
        }
      ],
      "name": "hats",
      "outputs": [
        {
          "internalType": "string",
          "name": "",
          "type": "string"
        }
      ],
      "stateMutability": "view",
      "type": "function"
    },
    {
      "inputs": [
        {
          "internalType": "uint256",
          "name": "",
          "type": "uint256"
        }
      ],
      "name": "leftAccessories",
      "outputs": [
        {
          "internalType": "string",
          "name": "",
          "type": "string"
        }
      ],
      "stateMutability": "view",
      "type": "function"
    },
    {
      "inputs": [
        {
          "internalType": "uint256",
          "name": "",
          "type": "uint256"
        }
      ],
      "name": "mouths",
      "outputs": [
        {
          "internalType": "string",
          "name": "",
          "type": "string"
        }
      ],
      "stateMutability": "view",
      "type": "function"
    },
    {
      "inputs": [],
      "name": "nft",
      "outputs": [
        {
          "internalType": "contract Iuwucrew",
          "name": "",
          "type": "address"
        }
      ],
      "stateMutability": "view",
      "type": "function"
    },
    {
      "inputs": [
        {
          "internalType": "uint256",
          "name": "",
          "type": "uint256"
        }
      ],
      "name": "outfits",
      "outputs": [
        {
          "internalType": "string",
          "name": "",
          "type": "string"
        }
      ],
      "stateMutability": "view",
      "type": "function"
    },
    {
      "inputs": [
        {
          "internalType": "uint256",
          "name": "id",
          "type": "uint256"
        },
        {
          "internalType": "uint256",
          "name": "data",
          "type": "uint256"
        },
        {
          "internalType": "bytes32[]",
          "name": "merkleProof",
          "type": "bytes32[]"
        }
      ],
      "name": "registerNFT",
      "outputs": [],
      "stateMutability": "nonpayable",
      "type": "function"
    },
    {
      "inputs": [
        {
          "internalType": "uint256[]",
          "name": "ids",
          "type": "uint256[]"
        },
        {
          "internalType": "uint256[]",
          "name": "allData",
          "type": "uint256[]"
        },
        {
          "internalType": "bytes32[][]",
          "name": "merkleProofs",
          "type": "bytes32[][]"
        }
      ],
      "name": "registerNFTs",
      "outputs": [],
      "stateMutability": "nonpayable",
      "type": "function"
    },
    {
      "inputs": [
        {
          "internalType": "uint256",
          "name": "",
          "type": "uint256"
        }
      ],
      "name": "registry",
      "outputs": [
        {
          "internalType": "uint256",
          "name": "",
          "type": "uint256"
        }
      ],
      "stateMutability": "view",
      "type": "function"
    },
    {
      "inputs": [
        {
          "internalType": "uint256",
          "name": "",
          "type": "uint256"
        }
      ],
      "name": "rightAccessories",
      "outputs": [
        {
          "internalType": "string",
          "name": "",
          "type": "string"
        }
      ],
      "stateMutability": "view",
      "type": "function"
    },
    {
      "inputs": [
        {
          "internalType": "uint256",
          "name": "",
          "type": "uint256"
        }
      ],
      "name": "skins",
      "outputs": [
        {
          "internalType": "string",
          "name": "",
          "type": "string"
        }
      ],
      "stateMutability": "view",
      "type": "function"
    },
    {
      "inputs": [
        {
          "internalType": "uint256",
          "name": "",
          "type": "uint256"
        }
      ],
      "name": "suffixes",
      "outputs": [
        {
          "internalType": "string",
          "name": "",
          "type": "string"
        }
      ],
      "stateMutability": "view",
      "type": "function"
    }
  ],
  "bytecode": "0x60c06040526040518061016001604052806040518060400160405280600581526020017f426c75736800000000000000000000000000000000000000000000000000000081525081526020016040518060400160405280600481526020017f477261790000000000000000000000000000000000000000000000000000000081525081526020016040518060400160405280600881526020017f486f742050696e6b00000000000000000000000000000000000000000000000081525081526020016040518060400160405280600881526020017f4c6176656e64657200000000000000000000000000000000000000000000000081525081526020016040518060400160405280600581526020017f4d6172736800000000000000000000000000000000000000000000000000000081525081526020016040518060400160405280600581526020017f4f6365616e00000000000000000000000000000000000000000000000000000081525081526020016040518060400160405280600681526020017f4f72616e6765000000000000000000000000000000000000000000000000000081525081526020016040518060400160405280600481526020017f50696e6b0000000000000000000000000000000000000000000000000000000081525081526020016040518060400160405280600481526020017f526f73650000000000000000000000000000000000000000000000000000000081525081526020016040518060400160405280600481526020017f527562790000000000000000000000000000000000000000000000000000000081525081526020016040518060400160405280600381526020017f536b790000000000000000000000000000000000000000000000000000000000815250815250600190600b620002a99291906200235a565b5060405180608001604052806040518060400160405280600881526020017f426c757368696e6700000000000000000000000000000000000000000000000081525081526020016040518060400160405280600881526020017f467265636b6c656400000000000000000000000000000000000000000000000081525081526020016040518060400160405280600681526020017f42726f6e7a65000000000000000000000000000000000000000000000000000081525081526020016040518060400160405280600581526020017f53657069610000000000000000000000000000000000000000000000000000008152508152506002906004620003b1929190620023c1565b506040518061040001604052806040518060400160405280600d81526020017f57686974652054616e6b746f700000000000000000000000000000000000000081525081526020016040518060400160405280600881526020017f42616b612054656500000000000000000000000000000000000000000000000081525081526020016040518060400160405280600d81526020017f477265656e2054616e6b746f700000000000000000000000000000000000000081525081526020016040518060400160405280600b81526020017f576869746520447265737300000000000000000000000000000000000000000081525081526020016040518060400160405280600a81526020017f5065746974652047796d0000000000000000000000000000000000000000000081525081526020016040518060400160405280600a81526020017f5a697070657220546f700000000000000000000000000000000000000000000081525081526020016040518060400160405280600981526020017f42757374792047796d000000000000000000000000000000000000000000000081525081526020016040518060400160405280600b81526020017f426c61636b20447265737300000000000000000000000000000000000000000081525081526020016040518060400160405280600981526020017f426f72656420546565000000000000000000000000000000000000000000000081525081526020016040518060400160405280600681526020017f486f6f646965000000000000000000000000000000000000000000000000000081525081526020016040518060400160405280600e81526020017f4f72616e6765205377656174657200000000000000000000000000000000000081525081526020016040518060400160405280600681526020017f4a6572736579000000000000000000000000000000000000000000000000000081525081526020016040518060400160405280600881526020017f44657369676e657200000000000000000000000000000000000000000000000081525081526020016040518060400160405280600781526020017f594649205465650000000000000000000000000000000000000000000000000081525081526020016040518060400160405280600c81526020017f4f6363756c74204472657373000000000000000000000000000000000000000081525081526020016040518060400160405280600681526020017f446170706572000000000000000000000000000000000000000000000000000081525081526020016040518060400160405280600581526020017f516970616f00000000000000000000000000000000000000000000000000000081525081526020016040518060400160405280600681526020017f4b696d6f6e6f000000000000000000000000000000000000000000000000000081525081526020016040518060400160405280600d81526020017f4d696c697461727920436f61740000000000000000000000000000000000000081525081526020016040518060400160405280600b81526020017f4e46545820486f6f64696500000000000000000000000000000000000000000081525081526020016040518060400160405280600581526020017f42696b657200000000000000000000000000000000000000000000000000000081525081526020016040518060400160405280600581526020017f576167696500000000000000000000000000000000000000000000000000000081525081526020016040518060400160405280600d81526020017f50696e6b204f766572616c6c730000000000000000000000000000000000000081525081526020016040518060400160405280600781526020017f4261656c69656e0000000000000000000000000000000000000000000000000081525081526020016040518060400160405280600d81526020017f537465616c74682044726573730000000000000000000000000000000000000081525081526020016040518060400160405280600581526020017f526163657200000000000000000000000000000000000000000000000000000081525081526020016040518060400160405280600781526020017f41646d6972616c0000000000000000000000000000000000000000000000000081525081526020016040518060400160405280600581526020017f517565656e00000000000000000000000000000000000000000000000000000081525081526020016040518060400160405280600581526020017f42756e6e7900000000000000000000000000000000000000000000000000000081525081526020016040518060400160405280600a81526020017f426c61636b20537569740000000000000000000000000000000000000000000081525081526020016040518060400160405280600881526020017f4d6563687375697400000000000000000000000000000000000000000000000081525081526020016040518060400160405280600581526020017f41726d6f72000000000000000000000000000000000000000000000000000000815250815250600390602062000b2e92919062002428565b506040518061014001604052806040518060400160405280601281526020017f4e6f205269676874204163636573736f7279000000000000000000000000000081525081526020016040518060400160405280600481526020017f426f62610000000000000000000000000000000000000000000000000000000081525081526020016040518060400160405280600581526020017f537573686900000000000000000000000000000000000000000000000000000081525081526020016040518060400160405280600581526020017f50697a7a6100000000000000000000000000000000000000000000000000000081525081526020016040518060400160405280600a81526020017f4261736b657462616c6c0000000000000000000000000000000000000000000081525081526020016040518060400160405280600881526020017f50616e63616b657300000000000000000000000000000000000000000000000081525081526020016040518060400160405280600681526020017f4b6174616e61000000000000000000000000000000000000000000000000000081525081526020016040518060400160405280600981526020017f426c75652046697265000000000000000000000000000000000000000000000081525081526020016040518060400160405280600b81526020017f4769616e742053776f726400000000000000000000000000000000000000000081525081526020016040518060400160405280600b81526020017f476f6c6420536379746865000000000000000000000000000000000000000000815250815250600490600a62000d999291906200248f565b506040518061016001604052806040518060400160405280601181526020017f4e6f204c656674204163636573736f727900000000000000000000000000000081525081526020016040518060400160405280600a81526020017f50656163652048616e640000000000000000000000000000000000000000000081525081526020016040518060400160405280600881526020017f4c6f6c6c69706f7000000000000000000000000000000000000000000000000081525081526020016040518060400160405280600981526020017f44454649204e4f5445000000000000000000000000000000000000000000000081525081526020016040518060400160405280600581526020017f446f67676f00000000000000000000000000000000000000000000000000000081525081526020016040518060400160405280600681526020017f536b756c6c73000000000000000000000000000000000000000000000000000081525081526020016040518060400160405280600981526020017f466f6d6f20446f6c6c000000000000000000000000000000000000000000000081525081526020016040518060400160405280600481526020017f4672656e0000000000000000000000000000000000000000000000000000000081525081526020016040518060400160405280600a81526020017f4379626f72672041726d0000000000000000000000000000000000000000000081525081526020016040518060400160405280600a81526020017f476f6c6420436c6177730000000000000000000000000000000000000000000081525081526020016040518060400160405280600b81526020017f42726f776e20446f67676f000000000000000000000000000000000000000000815250815250600590600b6200103f9291906200235a565b506040518061026001604052806040518060400160405280600f81526020017f426c6f6e646520506f6e797461696c000000000000000000000000000000000081525081526020016040518060400160405280600d81526020017f526f736520506f6e797461696c0000000000000000000000000000000000000081525081526020016040518060400160405280600b81526020017f426c6f6e6465204c6f6e6700000000000000000000000000000000000000000081525081526020016040518060400160405280601181526020017f42726f776e2053686f72742042616e677300000000000000000000000000000081525081526020016040518060400160405280601181526020017f426c61636b2053686f72742042616e677300000000000000000000000000000081525081526020016040518060400160405280600b81526020017f426c61636b20506978696500000000000000000000000000000000000000000081525081526020016040518060400160405280600c81526020017f426c61636b20427261696473000000000000000000000000000000000000000081525081526020016040518060400160405280601081526020017f426c6f6e6465205477696e7461696c730000000000000000000000000000000081525081526020016040518060400160405280600c81526020017f507572706c65204d65737379000000000000000000000000000000000000000081525081526020016040518060400160405280601181526020017f4f72616e6765204c6f6e672042616e677300000000000000000000000000000081525081526020016040518060400160405280600d81526020017f507572706c65204272616964730000000000000000000000000000000000000081525081526020016040518060400160405280600a81526020017f50696e6b204d657373790000000000000000000000000000000000000000000081525081526020016040518060400160405280600c81526020017f53696c766572205069786965000000000000000000000000000000000000000081525081526020016040518060400160405280601081526020017f426c75652053686f72742042616e67730000000000000000000000000000000081525081526020016040518060400160405280600e81526020017f50696e6b205477696e7461696c7300000000000000000000000000000000000081525081526020016040518060400160405280601381526020017f54757271756f697365205477696e7461696c730000000000000000000000000081525081526020016040518060400160405280601081526020017f5768697465204c6f6e672042616e67730000000000000000000000000000000081525081526020016040518060400160405280600e81526020017f5261696e626f772042726169647300000000000000000000000000000000000081525081526020016040518060400160405280601081526020017f426c61636b204c6f6e672042616e6773000000000000000000000000000000008152508152506006906013620014bd929190620024f6565b506040518061028001604052806040518060400160405280600681526020017f4e6f20486174000000000000000000000000000000000000000000000000000081525081526020016040518060400160405280600981526020017f426c61636b20426f77000000000000000000000000000000000000000000000081525081526020016040518060400160405280600881526020017f50696e6b20426f7700000000000000000000000000000000000000000000000081525081526020016040518060400160405280600f81526020017f486962697363757320466c6f776572000000000000000000000000000000000081525081526020016040518060400160405280600881526020017f456c66204561727300000000000000000000000000000000000000000000000081525081526020016040518060400160405280600981526020017f426f6e652050696e73000000000000000000000000000000000000000000000081525081526020016040518060400160405280600581526020017f486f726e7300000000000000000000000000000000000000000000000000000081525081526020016040518060400160405280600c81526020017f466c6f7765722043726f776e000000000000000000000000000000000000000081525081526020016040518060400160405280600d81526020017f416c69656e20416e74656e6e610000000000000000000000000000000000000081525081526020016040518060400160405280600b81526020017f44656d6f6e20486f726e7300000000000000000000000000000000000000000081525081526020016040518060400160405280600c81526020017f4d722e20576869736b657273000000000000000000000000000000000000000081525081526020016040518060400160405280600881526020017f466f78204d61736b00000000000000000000000000000000000000000000000081525081526020016040518060400160405280600981526020017f466c6f6f7220436170000000000000000000000000000000000000000000000081525081526020016040518060400160405280600a81526020017f4f6363756c74204861740000000000000000000000000000000000000000000081525081526020016040518060400160405280600d81526020017f4f726e61746520466c6f7765720000000000000000000000000000000000000081525081526020016040518060400160405280600981526020017f576167696520436170000000000000000000000000000000000000000000000081525081526020016040518060400160405280600a81526020017f42756e6e7920456172730000000000000000000000000000000000000000000081525081526020016040518060400160405280600d81526020017f41646d6972616c2773204861740000000000000000000000000000000000000081525081526020016040518060400160405280600d81526020017f517565656e27732043726f776e0000000000000000000000000000000000000081525081526020016040518060400160405280600a81526020017f486169722042616e6473000000000000000000000000000000000000000000008152508152506007906014620019769291906200255d565b506040518061026001604052806040518060400160405280600d81526020017f526f756e6420476c61737365730000000000000000000000000000000000000081525081526020016040518060400160405280600c81526020017f426c7565204e65757472616c000000000000000000000000000000000000000081525081526020016040518060400160405280600a81526020017f477265656e2057696e6b0000000000000000000000000000000000000000000081525081526020016040518060400160405280600881526020017f457965706174636800000000000000000000000000000000000000000000000081525081526020016040518060400160405280601081526020017f477265656e2044657465726d696e65640000000000000000000000000000000081525081526020016040518060400160405280600781526020017f52656c617865640000000000000000000000000000000000000000000000000081525081526020016040518060400160405280600f81526020017f476f6c642044657465726d696e6564000000000000000000000000000000000081525081526020016040518060400160405280600e81526020017f507572706c65204e65757472616c00000000000000000000000000000000000081525081526020016040518060400160405280600681526020017f436c6f736564000000000000000000000000000000000000000000000000000081525081526020016040518060400160405280600981526020017f50696e6b2057696e6b000000000000000000000000000000000000000000000081525081526020016040518060400160405280600a81526020017f4879706e6f74697a65640000000000000000000000000000000000000000000081525081526020016040518060400160405280601281526020017f4475616c20436f6c6f72204e65757472616c000000000000000000000000000081525081526020016040518060400160405280600b81526020017f4c6f76657920446f76657900000000000000000000000000000000000000000081525081526020016040518060400160405280600c81526020017f50696e6b20476c6173736573000000000000000000000000000000000000000081525081526020016040518060400160405280601881526020017f48657465726f6368726f6d69612044657465726d696e6564000000000000000081525081526020016040518060400160405280600981526020017f426c696e64666f6c64000000000000000000000000000000000000000000000081525081526020016040518060400160405280601581526020017f48657465726f6368726f6d6961204e65757472616c000000000000000000000081525081526020016040518060400160405280600681526020017f536861646573000000000000000000000000000000000000000000000000000081525081526020016040518060400160405280600b81526020017f476f6c6420536861646573000000000000000000000000000000000000000000815250815250600890601362001df4929190620024f6565b506040518061018001604052806040518060400160405280600d81526020017f436f6e74656e7420536d696c650000000000000000000000000000000000000081525081526020016040518060400160405280600381526020017f757775000000000000000000000000000000000000000000000000000000000081525081526020016040518060400160405280600481526020017f4772696e0000000000000000000000000000000000000000000000000000000081525081526020016040518060400160405280600781526020017f506c617966756c0000000000000000000000000000000000000000000000000081525081526020016040518060400160405280600481526020017f506f75740000000000000000000000000000000000000000000000000000000081525081526020016040518060400160405280600481526020017f486d70680000000000000000000000000000000000000000000000000000000081525081526020016040518060400160405280600a81526020017f546f6e677565204f75740000000000000000000000000000000000000000000081525081526020016040518060400160405280600881526020017f4c6970737469636b00000000000000000000000000000000000000000000000081525081526020016040518060400160405280600a81526020017f4f70656e204d6f7574680000000000000000000000000000000000000000000081525081526020016040518060400160405280600781526020017f59656c6c696e670000000000000000000000000000000000000000000000000081525081526020016040518060400160405280600981526020017f427562626c6567756d000000000000000000000000000000000000000000000081525081526020016040518060400160405280600a81526020017f426c61636b204d61736b00000000000000000000000000000000000000000000815250815250600990600c620020d5929190620025c4565b506040518061012001604052806040518060200160405280600081525081526020016040518060400160405280600681526020017f6f6620757775000000000000000000000000000000000000000000000000000081525081526020016040518060400160405280600681526020017f6f66206f776f000000000000000000000000000000000000000000000000000081525081526020016040518060400160405280600981526020017f6f66204372696e6765000000000000000000000000000000000000000000000081525081526020016040518060400160405280600881526020017f6f6620536b696c6c00000000000000000000000000000000000000000000000081525081526020016040518060400160405280601081526020017f6f6620456e6c69676874656e6d656e740000000000000000000000000000000081525081526020016040518060400160405280600d81526020017f6f662050726f74656374696f6e0000000000000000000000000000000000000081525081526020016040518060400160405280600781526020017f6f6620526167650000000000000000000000000000000000000000000000000081525081526020016040518060400160405280600781526020017f6f66204675727900000000000000000000000000000000000000000000000000815250815250600a906009620022df9291906200262b565b50348015620022ed57600080fd5b506040516200624d3803806200624d8339818101604052810190620023139190620027de565b8173ffffffffffffffffffffffffffffffffffffffff1660808173ffffffffffffffffffffffffffffffffffffffff1660601b815250508060a081815250505050620028f6565b828054828255906000526020600020908101928215620023ae579160200282015b82811115620023ad5782518290805190602001906200239c92919062002692565b50916020019190600101906200237b565b5b509050620023bd919062002723565b5090565b82805482825590600052602060002090810192821562002415579160200282015b82811115620024145782518290805190602001906200240392919062002692565b5091602001919060010190620023e2565b5b50905062002424919062002723565b5090565b8280548282559060005260206000209081019282156200247c579160200282015b828111156200247b5782518290805190602001906200246a92919062002692565b509160200191906001019062002449565b5b5090506200248b919062002723565b5090565b828054828255906000526020600020908101928215620024e3579160200282015b82811115620024e2578251829080519060200190620024d192919062002692565b5091602001919060010190620024b0565b5b509050620024f2919062002723565b5090565b8280548282559060005260206000209081019282156200254a579160200282015b82811115620025495782518290805190602001906200253892919062002692565b509160200191906001019062002517565b5b50905062002559919062002723565b5090565b828054828255906000526020600020908101928215620025b1579160200282015b82811115620025b05782518290805190602001906200259f92919062002692565b50916020019190600101906200257e565b5b509050620025c0919062002723565b5090565b82805482825590600052602060002090810192821562002618579160200282015b82811115620026175782518290805190602001906200260692919062002692565b5091602001919060010190620025e5565b5b50905062002627919062002723565b5090565b8280548282559060005260206000209081019282156200267f579160200282015b828111156200267e5782518290805190602001906200266d92919062002692565b50916020019190600101906200264c565b5b5090506200268e919062002723565b5090565b828054620026a0906200285d565b90600052602060002090601f016020900481019282620026c4576000855562002710565b82601f10620026df57805160ff191683800117855562002710565b8280016001018555821562002710579182015b828111156200270f578251825591602001919060010190620026f2565b5b5090506200271f91906200274b565b5090565b5b808211156200274757600081816200273d91906200276a565b5060010162002724565b5090565b5b80821115620027665760008160009055506001016200274c565b5090565b50805462002778906200285d565b6000825580601f106200278c5750620027ad565b601f016020900490600052602060002090810190620027ac91906200274b565b5b50565b600081519050620027c181620028c2565b92915050565b600081519050620027d881620028dc565b92915050565b60008060408385031215620027f257600080fd5b60006200280285828601620027b0565b92505060206200281585828601620027c7565b9150509250929050565b60006200282c826200283d565b9050919050565b6000819050919050565b600073ffffffffffffffffffffffffffffffffffffffff82169050919050565b600060028204905060018216806200287657607f821691505b602082108114156200288d576200288c62002893565b5b50919050565b7f4e487b7100000000000000000000000000000000000000000000000000000000600052602260045260246000fd5b620028cd816200281f565b8114620028d957600080fd5b50565b620028e78162002833565b8114620028f357600080fd5b50565b60805160601c60a0516139126200293b60003960008181610d4a0152612157015260008181610c6601528181610cf90152818161118b0152611c4001526139126000f3fe608060405234801561001057600080fd5b50600436106101cf5760003560e01c806398e4f58111610104578063c4d30bfa116100a2578063f2759c5711610071578063f2759c571461064a578063f6b6d9931461067a578063f8a9650a146106aa578063feb6b3d1146106c8576101cf565b8063c4d30bfa1461059e578063c66c93fe146105ce578063e8cdd1db146105fe578063e8d887d31461061a576101cf565b8063a5c18ca6116100de578063a5c18ca6146104de578063b214070e1461050e578063b6c757841461053e578063bca747b51461056e576101cf565b806398e4f5811461044e578063a1563b9c1461047e578063a3053dd5146104ae576101cf565b80635d36d424116101715780637f71af901161014b5780637f71af901461038e57806386cdb886146103be5780638a7ea998146103ee57806390f1d5dc1461041e576101cf565b80635d36d424146102fe5780635f0cef111461032e57806362f3e2311461035e576101cf565b80632db2ede5116101ad5780632db2ede51461026457806347ccca02146102945780635893253c146102b25780635acb3e15146102e2576101cf565b806304bde4dd146101d4578063072995f21461020457806312aead6b14610234575b600080fd5b6101ee60048036038101906101e99190612cd0565b6106f8565b6040516101fb9190613278565b60405180910390f35b61021e60048036038101906102199190612cd0565b6107a4565b60405161022b9190613278565b60405180910390f35b61024e60048036038101906102499190612cd0565b610850565b60405161025b91906131fe565b60405180910390f35b61027e60048036038101906102799190612cd0565b610bb8565b60405161028b9190613278565b60405180910390f35b61029c610c64565b6040516102a9919061325d565b60405180910390f35b6102cc60048036038101906102c79190612cd0565b610c88565b6040516102d9919061331a565b60405180910390f35b6102fc60048036038101906102f79190612d22565b610ca0565b005b61031860048036038101906103139190612cd0565b610dd7565b60405161032591906131fe565b60405180910390f35b61034860048036038101906103439190612cd0565b6110d9565b6040516103559190613278565b60405180910390f35b61037860048036038101906103739190612c03565b611185565b6040516103859190613220565b60405180910390f35b6103a860048036038101906103a39190612cd0565b61142e565b6040516103b59190613278565b60405180910390f35b6103d860048036038101906103d39190612cd0565b6114da565b6040516103e59190613220565b60405180910390f35b61040860048036038101906104039190612cd0565b61183a565b6040516104159190613278565b60405180910390f35b61043860048036038101906104339190612cd0565b611872565b6040516104459190613278565b60405180910390f35b61046860048036038101906104639190612cd0565b61191e565b6040516104759190613278565b60405180910390f35b61049860048036038101906104939190612cd0565b611956565b6040516104a59190613278565b60405180910390f35b6104c860048036038101906104c39190612cd0565b61198e565b6040516104d59190613278565b60405180910390f35b6104f860048036038101906104f39190612cd0565b611a3a565b6040516105059190613278565b60405180910390f35b61052860048036038101906105239190612cd0565b611a72565b6040516105359190613278565b60405180910390f35b61055860048036038101906105539190612cd0565b611aaa565b6040516105659190613278565b60405180910390f35b61058860048036038101906105839190612cd0565b611b56565b6040516105959190613278565b60405180910390f35b6105b860048036038101906105b39190612cd0565b611c02565b6040516105c59190613278565b60405180910390f35b6105e860048036038101906105e39190612c03565b611c3a565b6040516105f59190613220565b60405180910390f35b61061860048036038101906106139190612c2c565b611e5b565b005b610634600480360381019061062f9190612cd0565b612028565b6040516106419190613278565b60405180910390f35b610664600480360381019061065f9190612cd0565b612071565b6040516106719190613278565b60405180910390f35b610694600480360381019061068f9190612cd0565b6120a9565b6040516106a19190613278565b60405180910390f35b6106b2612155565b6040516106bf9190613242565b60405180910390f35b6106e260048036038101906106dd9190612cd0565b612179565b6040516106ef9190613278565b60405180910390f35b6001818154811061070857600080fd5b9060005260206000200160009150905080546107239061358f565b80601f016020809104026020016040519081016040528092919081815260200182805461074f9061358f565b801561079c5780601f106107715761010080835404028352916020019161079c565b820191906000526020600020905b81548152906001019060200180831161077f57829003601f168201915b505050505081565b600481815481106107b457600080fd5b9060005260206000200160009150905080546107cf9061358f565b80601f01602080910402602001604051908101604052809291908181526020018280546107fb9061358f565b80156108485780601f1061081d57610100808354040283529160200191610848565b820191906000526020600020905b81548152906001019060200180831161082b57829003601f168201915b505050505081565b60606125c6821061086057600080fd5b6000600967ffffffffffffffff8111156108a3577f4e487b7100000000000000000000000000000000000000000000000000000000600052604160045260246000fd5b6040519080825280602002602001820160405280156108d657816020015b60608152602001906001900390816108c15790505b50905060008060008581526020019081526020016000205490506108f9816121b1565b82600081518110610933577f4e487b7100000000000000000000000000000000000000000000000000000000600052603260045260246000fd5b602002602001018190525061094781612291565b82600181518110610981577f4e487b7100000000000000000000000000000000000000000000000000000000600052603260045260246000fd5b602002602001018190525061099581612374565b826002815181106109cf577f4e487b7100000000000000000000000000000000000000000000000000000000600052603260045260246000fd5b60200260200101819052506109e381612457565b82600381518110610a1d577f4e487b7100000000000000000000000000000000000000000000000000000000600052603260045260246000fd5b6020026020010181905250610a318161253a565b82600481518110610a6b577f4e487b7100000000000000000000000000000000000000000000000000000000600052603260045260246000fd5b6020026020010181905250610a7f8161261d565b82600581518110610ab9577f4e487b7100000000000000000000000000000000000000000000000000000000600052603260045260246000fd5b6020026020010181905250610acd81612700565b82600681518110610b07577f4e487b7100000000000000000000000000000000000000000000000000000000600052603260045260246000fd5b6020026020010181905250610b1b816127e3565b82600781518110610b55577f4e487b7100000000000000000000000000000000000000000000000000000000600052603260045260246000fd5b6020026020010181905250610b69816128c6565b82600881518110610ba3577f4e487b7100000000000000000000000000000000000000000000000000000000600052603260045260246000fd5b60200260200101819052508192505050919050565b60028181548110610bc857600080fd5b906000526020600020016000915090508054610be39061358f565b80601f0160208091040260200160405190810160405280929190818152602001828054610c0f9061358f565b8015610c5c5780601f10610c3157610100808354040283529160200191610c5c565b820191906000526020600020905b815481529060010190602001808311610c3f57829003601f168201915b505050505081565b7f000000000000000000000000000000000000000000000000000000000000000081565b60006020528060005260406000206000915090505481565b60008060008581526020019081526020016000205414610cf5576040517f08c379a0000000000000000000000000000000000000000000000000000000008152600401610cec906132ba565b60405180910390fd5b60007f00000000000000000000000000000000000000000000000000000000000000008484604051602001610d2c93929190613122565b604051602081830303815290604052805190602001209050610d6f827f0000000000000000000000000000000000000000000000000000000000000000836129a9565b610dae576040517f08c379a0000000000000000000000000000000000000000000000000000000008152600401610da5906132da565b60405180910390fd5b600183610dbb919061349c565b6000808681526020019081526020016000208190555050505050565b60606125c68210610de757600080fd5b6000610df283610850565b905060003082600381518110610e31577f4e487b7100000000000000000000000000000000000000000000000000000000600052603260045260246000fd5b602002602001015185604051602001610e4c939291906130e9565b6040516020818303038152906040528051906020012060001c905060003083600481518110610ea4577f4e487b7100000000000000000000000000000000000000000000000000000000600052603260045260246000fd5b602002602001015186604051602001610ebf939291906130e9565b6040516020818303038152906040528051906020012060001c905082600381518110610f14577f4e487b7100000000000000000000000000000000000000000000000000000000600052603260045260246000fd5b6020026020010151600a808054905084610f2e9190613673565b81548110610f65577f4e487b7100000000000000000000000000000000000000000000000000000000600052603260045260246000fd5b90600052602060002001604051602001610f8092919061318b565b60405160208183030381529060405283600381518110610fc9577f4e487b7100000000000000000000000000000000000000000000000000000000600052603260045260246000fd5b60200260200101819052508260048151811061100e577f4e487b7100000000000000000000000000000000000000000000000000000000600052603260045260246000fd5b6020026020010151600a8080549050836110289190613673565b8154811061105f577f4e487b7100000000000000000000000000000000000000000000000000000000600052603260045260246000fd5b9060005260206000200160405160200161107a92919061318b565b604051602081830303815290604052836004815181106110c3577f4e487b7100000000000000000000000000000000000000000000000000000000600052603260045260246000fd5b6020026020010181905250829350505050919050565b600381815481106110e957600080fd5b9060005260206000200160009150905080546111049061358f565b80601f01602080910402602001604051908101604052809291908181526020018280546111309061358f565b801561117d5780601f106111525761010080835404028352916020019161117d565b820191906000526020600020905b81548152906001019060200180831161116057829003601f168201915b505050505081565b606060007f0000000000000000000000000000000000000000000000000000000000000000905060008173ffffffffffffffffffffffffffffffffffffffff166370a08231856040518263ffffffff1660e01b81526004016111e791906131ba565b60206040518083038186803b1580156111ff57600080fd5b505afa158015611213573d6000803e3d6000fd5b505050506040513d601f19601f820116820180604052508101906112379190612cf9565b905060008167ffffffffffffffff81111561127b577f4e487b7100000000000000000000000000000000000000000000000000000000600052604160045260246000fd5b6040519080825280602002602001820160405280156112a95781602001602082028036833780820191505090505b50905060005b82811015611422578373ffffffffffffffffffffffffffffffffffffffff16639d7c828b8573ffffffffffffffffffffffffffffffffffffffff16632f745c5989856040518363ffffffff1660e01b815260040161130e9291906131d5565b60206040518083038186803b15801561132657600080fd5b505afa15801561133a573d6000803e3d6000fd5b505050506040513d601f19601f8201168201806040525081019061135e9190612cf9565b6040518263ffffffff1660e01b815260040161137a919061331a565b60206040518083038186803b15801561139257600080fd5b505afa1580156113a6573d6000803e3d6000fd5b505050506040513d601f19601f820116820180604052508101906113ca9190612cf9565b828281518110611403577f4e487b7100000000000000000000000000000000000000000000000000000000600052603260045260246000fd5b602002602001018181525050808061141a906135f2565b9150506112af565b50809350505050919050565b6005818154811061143e57600080fd5b9060005260206000200160009150905080546114599061358f565b80601f01602080910402602001604051908101604052809291908181526020018280546114859061358f565b80156114d25780601f106114a7576101008083540402835291602001916114d2565b820191906000526020600020905b8154815290600101906020018083116114b557829003601f168201915b505050505081565b60606125c682106114ea57600080fd5b6000600967ffffffffffffffff81111561152d577f4e487b7100000000000000000000000000000000000000000000000000000000600052604160045260246000fd5b60405190808252806020026020018201604052801561155b5781602001602082028036833780820191505090505b509050600080600085815260200190815260200160002054905060f881901c826000815181106115b4577f4e487b7100000000000000000000000000000000000000000000000000000000600052603260045260246000fd5b60200260200101818152505060f081901c60ff1682600181518110611602577f4e487b7100000000000000000000000000000000000000000000000000000000600052603260045260246000fd5b60200260200101818152505060e881901c60ff1682600281518110611650577f4e487b7100000000000000000000000000000000000000000000000000000000600052603260045260246000fd5b60200260200101818152505060e081901c60ff168260038151811061169e577f4e487b7100000000000000000000000000000000000000000000000000000000600052603260045260246000fd5b60200260200101818152505060d881901c60ff16826004815181106116ec577f4e487b7100000000000000000000000000000000000000000000000000000000600052603260045260246000fd5b60200260200101818152505060d081901c60ff168260058151811061173a577f4e487b7100000000000000000000000000000000000000000000000000000000600052603260045260246000fd5b60200260200101818152505060c881901c60ff1682600681518110611788577f4e487b7100000000000000000000000000000000000000000000000000000000600052603260045260246000fd5b60200260200101818152505060c081901c60ff16826007815181106117d6577f4e487b7100000000000000000000000000000000000000000000000000000000600052603260045260246000fd5b60200260200101818152505060b881901c60ff1682600881518110611824577f4e487b7100000000000000000000000000000000000000000000000000000000600052603260045260246000fd5b6020026020010181815250508192505050919050565b60606125c6821061184a57600080fd5b600080600084815260200190815260200160002054905061186a81612700565b915050919050565b6009818154811061188257600080fd5b90600052602060002001600091509050805461189d9061358f565b80601f01602080910402602001604051908101604052809291908181526020018280546118c99061358f565b80156119165780601f106118eb57610100808354040283529160200191611916565b820191906000526020600020905b8154815290600101906020018083116118f957829003601f168201915b505050505081565b60606125c6821061192e57600080fd5b600080600084815260200190815260200160002054905061194e81612291565b915050919050565b60606125c6821061196657600080fd5b60008060008481526020019081526020016000205490506119868161253a565b915050919050565b6008818154811061199e57600080fd5b9060005260206000200160009150905080546119b99061358f565b80601f01602080910402602001604051908101604052809291908181526020018280546119e59061358f565b8015611a325780601f10611a0757610100808354040283529160200191611a32565b820191906000526020600020905b815481529060010190602001808311611a1557829003601f168201915b505050505081565b60606125c68210611a4a57600080fd5b6000806000848152602001908152602001600020549050611a6a8161261d565b915050919050565b60606125c68210611a8257600080fd5b6000806000848152602001908152602001600020549050611aa281612374565b915050919050565b600a8181548110611aba57600080fd5b906000526020600020016000915090508054611ad59061358f565b80601f0160208091040260200160405190810160405280929190818152602001828054611b019061358f565b8015611b4e5780601f10611b2357610100808354040283529160200191611b4e565b820191906000526020600020905b815481529060010190602001808311611b3157829003601f168201915b505050505081565b60078181548110611b6657600080fd5b906000526020600020016000915090508054611b819061358f565b80601f0160208091040260200160405190810160405280929190818152602001828054611bad9061358f565b8015611bfa5780601f10611bcf57610100808354040283529160200191611bfa565b820191906000526020600020905b815481529060010190602001808311611bdd57829003601f168201915b505050505081565b60606125c68210611c1257600080fd5b6000806000848152602001908152602001600020549050611c32816127e3565b915050919050565b606060007f0000000000000000000000000000000000000000000000000000000000000000905060008173ffffffffffffffffffffffffffffffffffffffff166370a08231856040518263ffffffff1660e01b8152600401611c9c91906131ba565b60206040518083038186803b158015611cb457600080fd5b505afa158015611cc8573d6000803e3d6000fd5b505050506040513d601f19601f82011682018060405250810190611cec9190612cf9565b905060008167ffffffffffffffff811115611d30577f4e487b7100000000000000000000000000000000000000000000000000000000600052604160045260246000fd5b604051908082528060200260200182016040528015611d5e5781602001602082028036833780820191505090505b50905060005b82811015611e4f578373ffffffffffffffffffffffffffffffffffffffff16632f745c5987836040518363ffffffff1660e01b8152600401611da79291906131d5565b60206040518083038186803b158015611dbf57600080fd5b505afa158015611dd3573d6000803e3d6000fd5b505050506040513d601f19601f82011682018060405250810190611df79190612cf9565b828281518110611e30577f4e487b7100000000000000000000000000000000000000000000000000000000600052603260045260246000fd5b6020026020010181815250508080611e47906135f2565b915050611d64565b50809350505050919050565b858590508282905014611ea3576040517f08c379a0000000000000000000000000000000000000000000000000000000008152600401611e9a9061329a565b60405180910390fd5b858590508484905014611eeb576040517f08c379a0000000000000000000000000000000000000000000000000000000008152600401611ee2906132fa565b60405180910390fd5b60005b8686905081101561201f5761200c878783818110611f35577f4e487b7100000000000000000000000000000000000000000000000000000000600052603260045260246000fd5b90506020020135868684818110611f75577f4e487b7100000000000000000000000000000000000000000000000000000000600052603260045260246000fd5b90506020020135858585818110611fb5577f4e487b7100000000000000000000000000000000000000000000000000000000600052603260045260246000fd5b9050602002810190611fc79190613335565b80806020026020016040519081016040528093929190818152602001838360200280828437600081840152601f19601f82011690508083019250505050505050610ca0565b8080612017906135f2565b915050611eee565b50505050505050565b60606125c6821061203857600080fd5b600080600084815260200190815260200160002054905060008160ff16141561206057600080fd5b612069816121b1565b915050919050565b60606125c6821061208157600080fd5b60008060008481526020019081526020016000205490506120a181612457565b915050919050565b600681815481106120b957600080fd5b9060005260206000200160009150905080546120d49061358f565b80601f01602080910402602001604051908101604052809291908181526020018280546121009061358f565b801561214d5780601f106121225761010080835404028352916020019161214d565b820191906000526020600020905b81548152906001019060200180831161213057829003601f168201915b505050505081565b7f000000000000000000000000000000000000000000000000000000000000000081565b60606125c6821061218957600080fd5b60008060008481526020019081526020016000205490506121a9816128c6565b915050919050565b6060600060f883901c9050600181815481106121f6577f4e487b7100000000000000000000000000000000000000000000000000000000600052603260045260246000fd5b90600052602060002001805461220b9061358f565b80601f01602080910402602001604051908101604052809291908181526020018280546122379061358f565b80156122845780601f1061225957610100808354040283529160200191612284565b820191906000526020600020905b81548152906001019060200180831161226757829003601f168201915b5050505050915050919050565b6060600060f083901c60ff169050600281815481106122d9577f4e487b7100000000000000000000000000000000000000000000000000000000600052603260045260246000fd5b9060005260206000200180546122ee9061358f565b80601f016020809104026020016040519081016040528092919081815260200182805461231a9061358f565b80156123675780601f1061233c57610100808354040283529160200191612367565b820191906000526020600020905b81548152906001019060200180831161234a57829003601f168201915b5050505050915050919050565b6060600060e883901c60ff169050600381815481106123bc577f4e487b7100000000000000000000000000000000000000000000000000000000600052603260045260246000fd5b9060005260206000200180546123d19061358f565b80601f01602080910402602001604051908101604052809291908181526020018280546123fd9061358f565b801561244a5780601f1061241f5761010080835404028352916020019161244a565b820191906000526020600020905b81548152906001019060200180831161242d57829003601f168201915b5050505050915050919050565b6060600060e083901c60ff1690506004818154811061249f577f4e487b7100000000000000000000000000000000000000000000000000000000600052603260045260246000fd5b9060005260206000200180546124b49061358f565b80601f01602080910402602001604051908101604052809291908181526020018280546124e09061358f565b801561252d5780601f106125025761010080835404028352916020019161252d565b820191906000526020600020905b81548152906001019060200180831161251057829003601f168201915b5050505050915050919050565b6060600060d883901c60ff16905060058181548110612582577f4e487b7100000000000000000000000000000000000000000000000000000000600052603260045260246000fd5b9060005260206000200180546125979061358f565b80601f01602080910402602001604051908101604052809291908181526020018280546125c39061358f565b80156126105780601f106125e557610100808354040283529160200191612610565b820191906000526020600020905b8154815290600101906020018083116125f357829003601f168201915b5050505050915050919050565b6060600060d083901c60ff16905060068181548110612665577f4e487b7100000000000000000000000000000000000000000000000000000000600052603260045260246000fd5b90600052602060002001805461267a9061358f565b80601f01602080910402602001604051908101604052809291908181526020018280546126a69061358f565b80156126f35780601f106126c8576101008083540402835291602001916126f3565b820191906000526020600020905b8154815290600101906020018083116126d657829003601f168201915b5050505050915050919050565b6060600060c883901c60ff16905060078181548110612748577f4e487b7100000000000000000000000000000000000000000000000000000000600052603260045260246000fd5b90600052602060002001805461275d9061358f565b80601f01602080910402602001604051908101604052809291908181526020018280546127899061358f565b80156127d65780601f106127ab576101008083540402835291602001916127d6565b820191906000526020600020905b8154815290600101906020018083116127b957829003601f168201915b5050505050915050919050565b6060600060c083901c60ff1690506008818154811061282b577f4e487b7100000000000000000000000000000000000000000000000000000000600052603260045260246000fd5b9060005260206000200180546128409061358f565b80601f016020809104026020016040519081016040528092919081815260200182805461286c9061358f565b80156128b95780601f1061288e576101008083540402835291602001916128b9565b820191906000526020600020905b81548152906001019060200180831161289c57829003601f168201915b5050505050915050919050565b6060600060b883901c60ff1690506009818154811061290e577f4e487b7100000000000000000000000000000000000000000000000000000000600052603260045260246000fd5b9060005260206000200180546129239061358f565b80601f016020809104026020016040519081016040528092919081815260200182805461294f9061358f565b801561299c5780601f106129715761010080835404028352916020019161299c565b820191906000526020600020905b81548152906001019060200180831161297f57829003601f168201915b5050505050915050919050565b60008082905060005b8551811015612a775760008682815181106129f6577f4e487b7100000000000000000000000000000000000000000000000000000000600052603260045260246000fd5b60200260200101519050808311612a37578281604051602001612a1a92919061315f565b604051602081830303815290604052805190602001209250612a63565b8083604051602001612a4a92919061315f565b6040516020818303038152906040528051906020012092505b508080612a6f906135f2565b9150506129b2565b508381149150509392505050565b6000612a98612a93846133b1565b61338c565b90508083825260208201905082856020860282011115612ab757600080fd5b60005b85811015612ae75781612acd8882612bc4565b845260208401935060208301925050600181019050612aba565b5050509392505050565b600081359050612b0081613897565b92915050565b60008083601f840112612b1857600080fd5b8235905067ffffffffffffffff811115612b3157600080fd5b602083019150836020820283011115612b4957600080fd5b9250929050565b600082601f830112612b6157600080fd5b8135612b71848260208601612a85565b91505092915050565b60008083601f840112612b8c57600080fd5b8235905067ffffffffffffffff811115612ba557600080fd5b602083019150836020820283011115612bbd57600080fd5b9250929050565b600081359050612bd3816138ae565b92915050565b600081359050612be8816138c5565b92915050565b600081519050612bfd816138c5565b92915050565b600060208284031215612c1557600080fd5b6000612c2384828501612af1565b91505092915050565b60008060008060008060608789031215612c4557600080fd5b600087013567ffffffffffffffff811115612c5f57600080fd5b612c6b89828a01612b7a565b9650965050602087013567ffffffffffffffff811115612c8a57600080fd5b612c9689828a01612b7a565b9450945050604087013567ffffffffffffffff811115612cb557600080fd5b612cc189828a01612b06565b92509250509295509295509295565b600060208284031215612ce257600080fd5b6000612cf084828501612bd9565b91505092915050565b600060208284031215612d0b57600080fd5b6000612d1984828501612bee565b91505092915050565b600080600060608486031215612d3757600080fd5b6000612d4586828701612bd9565b9350506020612d5686828701612bd9565b925050604084013567ffffffffffffffff811115612d7357600080fd5b612d7f86828701612b50565b9150509250925092565b6000612d958383612ee3565b905092915050565b6000612da983836130b4565b60208301905092915050565b612dbe816134f2565b82525050565b612dd5612dd0826134f2565b61363b565b82525050565b6000612de682613412565b612df0818561344d565b935083602082028501612e02856133dd565b8060005b85811015612e3e5784840389528151612e1f8582612d89565b9450612e2a83613433565b925060208a01995050600181019050612e06565b50829750879550505050505092915050565b6000612e5b8261341d565b612e65818561345e565b9350612e70836133ed565b8060005b83811015612ea1578151612e888882612d9d565b9750612e9383613440565b925050600181019050612e74565b5085935050505092915050565b612eb781613504565b82525050565b612ece612ec982613504565b61364d565b82525050565b612edd81613538565b82525050565b6000612eee82613428565b612ef8818561346f565b9350612f0881856020860161355c565b612f1181613760565b840191505092915050565b6000612f2782613428565b612f318185613480565b9350612f4181856020860161355c565b612f4a81613760565b840191505092915050565b6000612f6082613428565b612f6a8185613491565b9350612f7a81856020860161355c565b80840191505092915050565b60008154612f938161358f565b612f9d8186613491565b94506001821660008114612fb85760018114612fc957612ffc565b60ff19831686528186019350612ffc565b612fd2856133fd565b60005b83811015612ff457815481890152600182019150602081019050612fd5565b838801955050505b50505092915050565b6000613012601083613480565b915061301d8261377e565b602082019050919050565b6000613035602883613480565b9150613040826137a7565b604082019050919050565b6000613058600183613491565b9150613063826137f6565b600182019050919050565b600061307b602183613480565b91506130868261381f565b604082019050919050565b600061309e600e83613480565b91506130a98261386e565b602082019050919050565b6130bd8161352e565b82525050565b6130cc8161352e565b82525050565b6130e36130de8261352e565b613669565b82525050565b60006130f58286612dc4565b6014820191506131058285612f55565b915061311182846130d2565b602082019150819050949350505050565b600061312e8286612dc4565b60148201915061313e82856130d2565b60208201915061314e82846130d2565b602082019150819050949350505050565b600061316b8285612ebd565b60208201915061317b8284612ebd565b6020820191508190509392505050565b60006131978285612f55565b91506131a28261304b565b91506131ae8284612f86565b91508190509392505050565b60006020820190506131cf6000830184612db5565b92915050565b60006040820190506131ea6000830185612db5565b6131f760208301846130c3565b9392505050565b600060208201905081810360008301526132188184612ddb565b905092915050565b6000602082019050818103600083015261323a8184612e50565b905092915050565b60006020820190506132576000830184612eae565b92915050565b60006020820190506132726000830184612ed4565b92915050565b600060208201905081810360008301526132928184612f1c565b905092915050565b600060208201905081810360008301526132b381613005565b9050919050565b600060208201905081810360008301526132d381613028565b9050919050565b600060208201905081810360008301526132f38161306e565b9050919050565b6000602082019050818103600083015261331381613091565b9050919050565b600060208201905061332f60008301846130c3565b92915050565b6000808335600160200384360303811261334e57600080fd5b80840192508235915067ffffffffffffffff82111561336c57600080fd5b60208301925060208202360383131561338457600080fd5b509250929050565b60006133966133a7565b90506133a282826135c1565b919050565b6000604051905090565b600067ffffffffffffffff8211156133cc576133cb613731565b5b602082029050602081019050919050565b6000819050602082019050919050565b6000819050602082019050919050565b60008190508160005260206000209050919050565b600081519050919050565b600081519050919050565b600081519050919050565b6000602082019050919050565b6000602082019050919050565b600082825260208201905092915050565b600082825260208201905092915050565b600082825260208201905092915050565b600082825260208201905092915050565b600081905092915050565b60006134a78261352e565b91506134b28361352e565b9250827fffffffffffffffffffffffffffffffffffffffffffffffffffffffffffffffff038211156134e7576134e66136a4565b5b828201905092915050565b60006134fd8261350e565b9050919050565b6000819050919050565b600073ffffffffffffffffffffffffffffffffffffffff82169050919050565b6000819050919050565b60006135438261354a565b9050919050565b60006135558261350e565b9050919050565b60005b8381101561357a57808201518184015260208101905061355f565b83811115613589576000848401525b50505050565b600060028204905060018216806135a757607f821691505b602082108114156135bb576135ba613702565b5b50919050565b6135ca82613760565b810181811067ffffffffffffffff821117156135e9576135e8613731565b5b80604052505050565b60006135fd8261352e565b91507fffffffffffffffffffffffffffffffffffffffffffffffffffffffffffffffff8214156136305761362f6136a4565b5b600182019050919050565b600061364682613657565b9050919050565b6000819050919050565b600061366282613771565b9050919050565b6000819050919050565b600061367e8261352e565b91506136898361352e565b925082613699576136986136d3565b5b828206905092915050565b7f4e487b7100000000000000000000000000000000000000000000000000000000600052601160045260246000fd5b7f4e487b7100000000000000000000000000000000000000000000000000000000600052601260045260246000fd5b7f4e487b7100000000000000000000000000000000000000000000000000000000600052602260045260246000fd5b7f4e487b7100000000000000000000000000000000000000000000000000000000600052604160045260246000fd5b6000601f19601f8301169050919050565b60008160601b9050919050565b7f4e6f7420657175616c2070726f6f667300000000000000000000000000000000600082015250565b7f4d65726b6c654469737472696275746f723a2044726f7020616c72656164792060008201527f636c61696d65642e000000000000000000000000000000000000000000000000602082015250565b7f2000000000000000000000000000000000000000000000000000000000000000600082015250565b7f4d65726b6c654469737472696275746f723a20496e76616c69642070726f6f6660008201527f2e00000000000000000000000000000000000000000000000000000000000000602082015250565b7f4e6f7420657175616c2064617461000000000000000000000000000000000000600082015250565b6138a0816134f2565b81146138ab57600080fd5b50565b6138b781613504565b81146138c257600080fd5b50565b6138ce8161352e565b81146138d957600080fd5b5056fea264697066735822122034f789253554cbd22c0070131043106b343bb70cec206167ab374f4c56a37c7f64736f6c63430008040033",
  "linkReferences": {},
  "deployedLinkReferences": {}
}